{
	"contracts/PayPerViewNative.sol": {
		"PayPerViewNative": {
			"abi": [
				{
					"anonymous": false,
					"inputs": [
						{
							"indexed": true,
							"internalType": "bytes32",
							"name": "contentId",
							"type": "bytes32"
						},
						{
							"indexed": false,
							"internalType": "address",
							"name": "creator",
							"type": "address"
						},
						{
							"indexed": false,
							"internalType": "uint256",
							"name": "priceWei",
							"type": "uint256"
						},
						{
							"indexed": false,
							"internalType": "uint64",
							"name": "window",
							"type": "uint64"
						},
						{
							"indexed": false,
							"internalType": "bool",
							"name": "active",
							"type": "bool"
						}
					],
					"name": "ContentUpserted",
					"type": "event"
				},
				{
					"anonymous": false,
					"inputs": [
						{
							"indexed": true,
							"internalType": "bytes32",
							"name": "contentId",
							"type": "bytes32"
						},
						{
							"indexed": false,
							"internalType": "address",
							"name": "viewer",
							"type": "address"
						},
						{
							"indexed": false,
							"internalType": "uint256",
							"name": "untilTs",
							"type": "uint256"
						},
						{
							"indexed": false,
							"internalType": "uint256",
							"name": "priceWei",
							"type": "uint256"
						}
					],
					"name": "Purchased",
					"type": "event"
				},
				{
					"inputs": [
						{
							"internalType": "bytes32",
							"name": "",
							"type": "bytes32"
						},
						{
							"internalType": "address",
							"name": "",
							"type": "address"
						}
					],
					"name": "accessUntil",
					"outputs": [
						{
							"internalType": "uint256",
							"name": "",
							"type": "uint256"
						}
					],
					"stateMutability": "view",
					"type": "function"
				},
				{
					"inputs": [
						{
							"internalType": "bytes32",
							"name": "contentId",
							"type": "bytes32"
						}
					],
					"name": "buy",
					"outputs": [],
					"stateMutability": "payable",
					"type": "function"
				},
				{
					"inputs": [
						{
							"internalType": "bytes32",
							"name": "",
							"type": "bytes32"
						}
					],
					"name": "contents",
					"outputs": [
						{
							"internalType": "address payable",
							"name": "creator",
							"type": "address"
						},
						{
							"internalType": "uint256",
							"name": "priceWei",
							"type": "uint256"
						},
						{
							"internalType": "uint64",
							"name": "accessWindow",
							"type": "uint64"
						},
						{
							"internalType": "bool",
							"name": "active",
							"type": "bool"
						}
					],
					"stateMutability": "view",
					"type": "function"
				},
				{
					"inputs": [
						{
							"internalType": "bytes32",
							"name": "contentId",
							"type": "bytes32"
						},
						{
							"internalType": "address",
							"name": "viewer",
							"type": "address"
						}
					],
					"name": "hasAccess",
					"outputs": [
						{
							"internalType": "bool",
							"name": "",
							"type": "bool"
						}
					],
					"stateMutability": "view",
					"type": "function"
				},
				{
					"inputs": [
						{
							"internalType": "bytes32",
							"name": "contentId",
							"type": "bytes32"
						},
						{
							"internalType": "uint256",
							"name": "priceWei",
							"type": "uint256"
						},
						{
							"internalType": "uint64",
							"name": "accessWindow",
							"type": "uint64"
						},
						{
							"internalType": "bool",
							"name": "active",
							"type": "bool"
						}
					],
					"name": "upsertContent",
					"outputs": [],
					"stateMutability": "nonpayable",
					"type": "function"
				}
			],
			"devdoc": {
				"kind": "dev",
				"methods": {},
				"version": 1
			},
			"evm": {
				"assembly": "    /* \"contracts/PayPerViewNative.sol\":61:1866  contract PayPerViewNative {... */\n  mstore(0x40, 0x80)\n  callvalue\n  dup1\n  iszero\n  tag_1\n  jumpi\n  revert(0x00, 0x00)\ntag_1:\n  pop\n  dataSize(sub_0)\n  dup1\n  dataOffset(sub_0)\n  0x00\n  codecopy\n  0x00\n  return\nstop\n\nsub_0: assembly {\n        /* \"contracts/PayPerViewNative.sol\":61:1866  contract PayPerViewNative {... */\n      mstore(0x40, 0x80)\n      jumpi(tag_1, lt(calldatasize, 0x04))\n      shr(0xe0, calldataload(0x00))\n      dup1\n      0x048d6dfa\n      eq\n      tag_2\n      jumpi\n      dup1\n      0x3dac31ed\n      eq\n      tag_3\n      jumpi\n      dup1\n      0x83177db3\n      eq\n      tag_4\n      jumpi\n      dup1\n      0x9c9a1061\n      eq\n      tag_5\n      jumpi\n      dup1\n      0xf20ca12c\n      eq\n      tag_6\n      jumpi\n    tag_1:\n      revert(0x00, 0x00)\n        /* \"contracts/PayPerViewNative.sol\":684:1143  function upsertContent(bytes32 contentId, uint256 priceWei, uint64 accessWindow, bool active) external {... */\n    tag_2:\n      callvalue\n      dup1\n      iszero\n      tag_7\n      jumpi\n      revert(0x00, 0x00)\n    tag_7:\n      pop\n      tag_8\n      0x04\n      dup1\n      calldatasize\n      sub\n      dup2\n      add\n      swap1\n      tag_9\n      swap2\n      swap1\n      tag_10\n      jump\t// in\n    tag_9:\n      tag_11\n      jump\t// in\n    tag_8:\n      stop\n        /* \"contracts/PayPerViewNative.sol\":360:426  mapping(bytes32 => mapping(address => uint256)) public accessUntil */\n    tag_3:\n      callvalue\n      dup1\n      iszero\n      tag_12\n      jumpi\n      revert(0x00, 0x00)\n    tag_12:\n      pop\n      tag_13\n      0x04\n      dup1\n      calldatasize\n      sub\n      dup2\n      add\n      swap1\n      tag_14\n      swap2\n      swap1\n      tag_15\n      jump\t// in\n    tag_14:\n      tag_16\n      jump\t// in\n    tag_13:\n      mload(0x40)\n      tag_17\n      swap2\n      swap1\n      tag_18\n      jump\t// in\n    tag_17:\n      mload(0x40)\n      dup1\n      swap2\n      sub\n      swap1\n      return\n        /* \"contracts/PayPerViewNative.sol\":1705:1863  function hasAccess(bytes32 contentId, address viewer) external view returns (bool) {... */\n    tag_4:\n      callvalue\n      dup1\n      iszero\n      tag_19\n      jumpi\n      revert(0x00, 0x00)\n    tag_19:\n      pop\n      tag_20\n      0x04\n      dup1\n      calldatasize\n      sub\n      dup2\n      add\n      swap1\n      tag_21\n      swap2\n      swap1\n      tag_15\n      jump\t// in\n    tag_21:\n      tag_22\n      jump\t// in\n    tag_20:\n      mload(0x40)\n      tag_23\n      swap2\n      swap1\n      tag_24\n      jump\t// in\n    tag_23:\n      mload(0x40)\n      dup1\n      swap2\n      sub\n      swap1\n      return\n        /* \"contracts/PayPerViewNative.sol\":1151:1697  function buy(bytes32 contentId) external payable {... */\n    tag_5:\n      tag_25\n      0x04\n      dup1\n      calldatasize\n      sub\n      dup2\n      add\n      swap1\n      tag_26\n      swap2\n      swap1\n      tag_27\n      jump\t// in\n    tag_26:\n      tag_28\n      jump\t// in\n    tag_25:\n      stop\n        /* \"contracts/PayPerViewNative.sol\":287:330  mapping(bytes32 => Content) public contents */\n    tag_6:\n      callvalue\n      dup1\n      iszero\n      tag_29\n      jumpi\n      revert(0x00, 0x00)\n    tag_29:\n      pop\n      tag_30\n      0x04\n      dup1\n      calldatasize\n      sub\n      dup2\n      add\n      swap1\n      tag_31\n      swap2\n      swap1\n      tag_27\n      jump\t// in\n    tag_31:\n      tag_32\n      jump\t// in\n    tag_30:\n      mload(0x40)\n      tag_33\n      swap5\n      swap4\n      swap3\n      swap2\n      swap1\n      tag_34\n      jump\t// in\n    tag_33:\n      mload(0x40)\n      dup1\n      swap2\n      sub\n      swap1\n      return\n        /* \"contracts/PayPerViewNative.sol\":684:1143  function upsertContent(bytes32 contentId, uint256 priceWei, uint64 accessWindow, bool active) external {... */\n    tag_11:\n        /* \"contracts/PayPerViewNative.sol\":798:815  Content storage c */\n      0x00\n        /* \"contracts/PayPerViewNative.sol\":818:826  contents */\n      0x00\n        /* \"contracts/PayPerViewNative.sol\":818:837  contents[contentId] */\n      0x00\n        /* \"contracts/PayPerViewNative.sol\":827:836  contentId */\n      dup7\n        /* \"contracts/PayPerViewNative.sol\":818:837  contents[contentId] */\n      dup2\n      mstore\n      0x20\n      add\n      swap1\n      dup2\n      mstore\n      0x20\n      add\n      0x00\n      keccak256\n        /* \"contracts/PayPerViewNative.sol\":798:837  Content storage c = contents[contentId] */\n      swap1\n      pop\n        /* \"contracts/PayPerViewNative.sol\":873:874  0 */\n      0x00\n        /* \"contracts/PayPerViewNative.sol\":852:875  c.creator == address(0) */\n      0xffffffffffffffffffffffffffffffffffffffff\n      and\n        /* \"contracts/PayPerViewNative.sol\":852:853  c */\n      dup2\n        /* \"contracts/PayPerViewNative.sol\":852:861  c.creator */\n      0x00\n      add\n      0x00\n      swap1\n      sload\n      swap1\n      0x0100\n      exp\n      swap1\n      div\n      0xffffffffffffffffffffffffffffffffffffffff\n      and\n        /* \"contracts/PayPerViewNative.sol\":852:875  c.creator == address(0) */\n      0xffffffffffffffffffffffffffffffffffffffff\n      and\n      sub\n        /* \"contracts/PayPerViewNative.sol\":848:908  if (c.creator == address(0)) c.creator = payable(msg.sender) */\n      tag_36\n      jumpi\n        /* \"contracts/PayPerViewNative.sol\":897:907  msg.sender */\n      caller\n        /* \"contracts/PayPerViewNative.sol\":877:878  c */\n      dup2\n        /* \"contracts/PayPerViewNative.sol\":877:886  c.creator */\n      0x00\n      add\n      0x00\n        /* \"contracts/PayPerViewNative.sol\":877:908  c.creator = payable(msg.sender) */\n      0x0100\n      exp\n      dup2\n      sload\n      dup2\n      0xffffffffffffffffffffffffffffffffffffffff\n      mul\n      not\n      and\n      swap1\n      dup4\n      0xffffffffffffffffffffffffffffffffffffffff\n      and\n      mul\n      or\n      swap1\n      sstore\n      pop\n        /* \"contracts/PayPerViewNative.sol\":848:908  if (c.creator == address(0)) c.creator = payable(msg.sender) */\n    tag_36:\n        /* \"contracts/PayPerViewNative.sol\":940:950  msg.sender */\n      caller\n        /* \"contracts/PayPerViewNative.sol\":927:950  c.creator == msg.sender */\n      0xffffffffffffffffffffffffffffffffffffffff\n      and\n        /* \"contracts/PayPerViewNative.sol\":927:928  c */\n      dup2\n        /* \"contracts/PayPerViewNative.sol\":927:936  c.creator */\n      0x00\n      add\n      0x00\n      swap1\n      sload\n      swap1\n      0x0100\n      exp\n      swap1\n      div\n      0xffffffffffffffffffffffffffffffffffffffff\n      and\n        /* \"contracts/PayPerViewNative.sol\":927:950  c.creator == msg.sender */\n      0xffffffffffffffffffffffffffffffffffffffff\n      and\n      eq\n        /* \"contracts/PayPerViewNative.sol\":919:967  require(c.creator == msg.sender, \"only creator\") */\n      tag_37\n      jumpi\n      mload(0x40)\n      0x08c379a000000000000000000000000000000000000000000000000000000000\n      dup2\n      mstore\n      0x04\n      add\n      tag_38\n      swap1\n      tag_39\n      jump\t// in\n    tag_38:\n      mload(0x40)\n      dup1\n      swap2\n      sub\n      swap1\n      revert\n    tag_37:\n        /* \"contracts/PayPerViewNative.sol\":991:999  priceWei */\n      dup4\n        /* \"contracts/PayPerViewNative.sol\":978:979  c */\n      dup2\n        /* \"contracts/PayPerViewNative.sol\":978:988  c.priceWei */\n      0x01\n      add\n        /* \"contracts/PayPerViewNative.sol\":978:999  c.priceWei = priceWei */\n      dup2\n      swap1\n      sstore\n      pop\n        /* \"contracts/PayPerViewNative.sol\":1018:1030  accessWindow */\n      dup3\n        /* \"contracts/PayPerViewNative.sol\":1001:1002  c */\n      dup2\n        /* \"contracts/PayPerViewNative.sol\":1001:1015  c.accessWindow */\n      0x02\n      add\n      0x00\n        /* \"contracts/PayPerViewNative.sol\":1001:1030  c.accessWindow = accessWindow */\n      0x0100\n      exp\n      dup2\n      sload\n      dup2\n      0xffffffffffffffff\n      mul\n      not\n      and\n      swap1\n      dup4\n      0xffffffffffffffff\n      and\n      mul\n      or\n      swap1\n      sstore\n      pop\n        /* \"contracts/PayPerViewNative.sol\":1043:1049  active */\n      dup2\n        /* \"contracts/PayPerViewNative.sol\":1032:1033  c */\n      dup2\n        /* \"contracts/PayPerViewNative.sol\":1032:1040  c.active */\n      0x02\n      add\n      0x08\n        /* \"contracts/PayPerViewNative.sol\":1032:1049  c.active = active */\n      0x0100\n      exp\n      dup2\n      sload\n      dup2\n      0xff\n      mul\n      not\n      and\n      swap1\n      dup4\n      iszero\n      iszero\n      mul\n      or\n      swap1\n      sstore\n      pop\n        /* \"contracts/PayPerViewNative.sol\":1081:1090  contentId */\n      dup5\n        /* \"contracts/PayPerViewNative.sol\":1065:1135  ContentUpserted(contentId, msg.sender, priceWei, accessWindow, active) */\n      0x464bf7dbf82eb15ee37e7b23c23c9f08151d3ce7cba12e7fdde260bbcf460dc2\n        /* \"contracts/PayPerViewNative.sol\":1092:1102  msg.sender */\n      caller\n        /* \"contracts/PayPerViewNative.sol\":1104:1112  priceWei */\n      dup7\n        /* \"contracts/PayPerViewNative.sol\":1114:1126  accessWindow */\n      dup7\n        /* \"contracts/PayPerViewNative.sol\":1128:1134  active */\n      dup7\n        /* \"contracts/PayPerViewNative.sol\":1065:1135  ContentUpserted(contentId, msg.sender, priceWei, accessWindow, active) */\n      mload(0x40)\n      tag_40\n      swap5\n      swap4\n      swap3\n      swap2\n      swap1\n      tag_41\n      jump\t// in\n    tag_40:\n      mload(0x40)\n      dup1\n      swap2\n      sub\n      swap1\n      log2\n        /* \"contracts/PayPerViewNative.sol\":787:1143  {... */\n      pop\n        /* \"contracts/PayPerViewNative.sol\":684:1143  function upsertContent(bytes32 contentId, uint256 priceWei, uint64 accessWindow, bool active) external {... */\n      pop\n      pop\n      pop\n      pop\n      jump\t// out\n        /* \"contracts/PayPerViewNative.sol\":360:426  mapping(bytes32 => mapping(address => uint256)) public accessUntil */\n    tag_16:\n      mstore(0x20, 0x01)\n      dup2\n      0x00\n      mstore\n      mstore(0x20, keccak256(0x00, 0x40))\n      dup1\n      0x00\n      mstore\n      keccak256(0x00, 0x40)\n      0x00\n      swap2\n      pop\n      swap2\n      pop\n      pop\n      sload\n      dup2\n      jump\t// out\n        /* \"contracts/PayPerViewNative.sol\":1705:1863  function hasAccess(bytes32 contentId, address viewer) external view returns (bool) {... */\n    tag_22:\n        /* \"contracts/PayPerViewNative.sol\":1782:1786  bool */\n      0x00\n        /* \"contracts/PayPerViewNative.sol\":1825:1836  accessUntil */\n      0x01\n        /* \"contracts/PayPerViewNative.sol\":1825:1847  accessUntil[contentId] */\n      0x00\n        /* \"contracts/PayPerViewNative.sol\":1837:1846  contentId */\n      dup5\n        /* \"contracts/PayPerViewNative.sol\":1825:1847  accessUntil[contentId] */\n      dup2\n      mstore\n      0x20\n      add\n      swap1\n      dup2\n      mstore\n      0x20\n      add\n      0x00\n      keccak256\n        /* \"contracts/PayPerViewNative.sol\":1825:1855  accessUntil[contentId][viewer] */\n      0x00\n        /* \"contracts/PayPerViewNative.sol\":1848:1854  viewer */\n      dup4\n        /* \"contracts/PayPerViewNative.sol\":1825:1855  accessUntil[contentId][viewer] */\n      0xffffffffffffffffffffffffffffffffffffffff\n      and\n      0xffffffffffffffffffffffffffffffffffffffff\n      and\n      dup2\n      mstore\n      0x20\n      add\n      swap1\n      dup2\n      mstore\n      0x20\n      add\n      0x00\n      keccak256\n      sload\n        /* \"contracts/PayPerViewNative.sol\":1806:1821  block.timestamp */\n      timestamp\n        /* \"contracts/PayPerViewNative.sol\":1806:1855  block.timestamp <= accessUntil[contentId][viewer] */\n      gt\n      iszero\n        /* \"contracts/PayPerViewNative.sol\":1799:1855  return block.timestamp <= accessUntil[contentId][viewer] */\n      swap1\n      pop\n        /* \"contracts/PayPerViewNative.sol\":1705:1863  function hasAccess(bytes32 contentId, address viewer) external view returns (bool) {... */\n      swap3\n      swap2\n      pop\n      pop\n      jump\t// out\n        /* \"contracts/PayPerViewNative.sol\":1151:1697  function buy(bytes32 contentId) external payable {... */\n    tag_28:\n        /* \"contracts/PayPerViewNative.sol\":1211:1227  Content memory c */\n      0x00\n        /* \"contracts/PayPerViewNative.sol\":1230:1238  contents */\n      0x00\n        /* \"contracts/PayPerViewNative.sol\":1230:1249  contents[contentId] */\n      0x00\n        /* \"contracts/PayPerViewNative.sol\":1239:1248  contentId */\n      dup4\n        /* \"contracts/PayPerViewNative.sol\":1230:1249  contents[contentId] */\n      dup2\n      mstore\n      0x20\n      add\n      swap1\n      dup2\n      mstore\n      0x20\n      add\n      0x00\n      keccak256\n        /* \"contracts/PayPerViewNative.sol\":1211:1249  Content memory c = contents[contentId] */\n      mload(0x40)\n      dup1\n      0x80\n      add\n      0x40\n      mstore\n      swap1\n      dup2\n      0x00\n      dup3\n      add\n      0x00\n      swap1\n      sload\n      swap1\n      0x0100\n      exp\n      swap1\n      div\n      0xffffffffffffffffffffffffffffffffffffffff\n      and\n      0xffffffffffffffffffffffffffffffffffffffff\n      and\n      0xffffffffffffffffffffffffffffffffffffffff\n      and\n      dup2\n      mstore\n      0x20\n      add\n      0x01\n      dup3\n      add\n      sload\n      dup2\n      mstore\n      0x20\n      add\n      0x02\n      dup3\n      add\n      0x00\n      swap1\n      sload\n      swap1\n      0x0100\n      exp\n      swap1\n      div\n      0xffffffffffffffff\n      and\n      0xffffffffffffffff\n      and\n      0xffffffffffffffff\n      and\n      dup2\n      mstore\n      0x20\n      add\n      0x02\n      dup3\n      add\n      0x08\n      swap1\n      sload\n      swap1\n      0x0100\n      exp\n      swap1\n      div\n      0xff\n      and\n      iszero\n      iszero\n      iszero\n      iszero\n      dup2\n      mstore\n      pop\n      pop\n      swap1\n      pop\n        /* \"contracts/PayPerViewNative.sol\":1268:1269  c */\n      dup1\n        /* \"contracts/PayPerViewNative.sol\":1268:1276  c.active */\n      0x60\n      add\n      mload\n        /* \"contracts/PayPerViewNative.sol\":1268:1303  c.active && c.creator != address(0) */\n      dup1\n      iszero\n      tag_44\n      jumpi\n      pop\n        /* \"contracts/PayPerViewNative.sol\":1301:1302  0 */\n      0x00\n        /* \"contracts/PayPerViewNative.sol\":1280:1303  c.creator != address(0) */\n      0xffffffffffffffffffffffffffffffffffffffff\n      and\n        /* \"contracts/PayPerViewNative.sol\":1280:1281  c */\n      dup2\n        /* \"contracts/PayPerViewNative.sol\":1280:1289  c.creator */\n      0x00\n      add\n      mload\n        /* \"contracts/PayPerViewNative.sol\":1280:1303  c.creator != address(0) */\n      0xffffffffffffffffffffffffffffffffffffffff\n      and\n      eq\n      iszero\n        /* \"contracts/PayPerViewNative.sol\":1268:1303  c.active && c.creator != address(0) */\n    tag_44:\n        /* \"contracts/PayPerViewNative.sol\":1260:1316  require(c.active && c.creator != address(0), \"inactive\") */\n      tag_45\n      jumpi\n      mload(0x40)\n      0x08c379a000000000000000000000000000000000000000000000000000000000\n      dup2\n      mstore\n      0x04\n      add\n      tag_46\n      swap1\n      tag_47\n      jump\t// in\n    tag_46:\n      mload(0x40)\n      dup1\n      swap2\n      sub\n      swap1\n      revert\n    tag_45:\n        /* \"contracts/PayPerViewNative.sol\":1348:1349  c */\n      dup1\n        /* \"contracts/PayPerViewNative.sol\":1348:1358  c.priceWei */\n      0x20\n      add\n      mload\n        /* \"contracts/PayPerViewNative.sol\":1335:1344  msg.value */\n      callvalue\n        /* \"contracts/PayPerViewNative.sol\":1335:1358  msg.value == c.priceWei */\n      eq\n        /* \"contracts/PayPerViewNative.sol\":1327:1372  require(msg.value == c.priceWei, \"bad value\") */\n      tag_48\n      jumpi\n      mload(0x40)\n      0x08c379a000000000000000000000000000000000000000000000000000000000\n      dup2\n      mstore\n      0x04\n      add\n      tag_49\n      swap1\n      tag_50\n      jump\t// in\n    tag_49:\n      mload(0x40)\n      dup1\n      swap2\n      sub\n      swap1\n      revert\n    tag_48:\n        /* \"contracts/PayPerViewNative.sol\":1384:1391  bool ok */\n      0x00\n        /* \"contracts/PayPerViewNative.sol\":1397:1398  c */\n      dup2\n        /* \"contracts/PayPerViewNative.sol\":1397:1406  c.creator */\n      0x00\n      add\n      mload\n        /* \"contracts/PayPerViewNative.sol\":1397:1411  c.creator.call */\n      0xffffffffffffffffffffffffffffffffffffffff\n      and\n        /* \"contracts/PayPerViewNative.sol\":1419:1428  msg.value */\n      callvalue\n        /* \"contracts/PayPerViewNative.sol\":1397:1433  c.creator.call{value: msg.value}(\"\") */\n      mload(0x40)\n      tag_51\n      swap1\n      tag_52\n      jump\t// in\n    tag_51:\n      0x00\n      mload(0x40)\n      dup1\n      dup4\n      sub\n      dup2\n      dup6\n      dup8\n      gas\n      call\n      swap3\n      pop\n      pop\n      pop\n      returndatasize\n      dup1\n      0x00\n      dup2\n      eq\n      tag_55\n      jumpi\n      mload(0x40)\n      swap2\n      pop\n      and(add(returndatasize, 0x3f), not(0x1f))\n      dup3\n      add\n      0x40\n      mstore\n      returndatasize\n      dup3\n      mstore\n      returndatasize\n      0x00\n      0x20\n      dup5\n      add\n      returndatacopy\n      jump(tag_54)\n    tag_55:\n      0x60\n      swap2\n      pop\n    tag_54:\n      pop\n        /* \"contracts/PayPerViewNative.sol\":1383:1433  (bool ok, ) = c.creator.call{value: msg.value}(\"\") */\n      pop\n      swap1\n      pop\n        /* \"contracts/PayPerViewNative.sol\":1443:1445  ok */\n      dup1\n        /* \"contracts/PayPerViewNative.sol\":1435:1460  require(ok, \"pay failed\") */\n      tag_56\n      jumpi\n      mload(0x40)\n      0x08c379a000000000000000000000000000000000000000000000000000000000\n      dup2\n      mstore\n      0x04\n      add\n      tag_57\n      swap1\n      tag_58\n      jump\t// in\n    tag_57:\n      mload(0x40)\n      dup1\n      swap2\n      sub\n      swap1\n      revert\n    tag_56:\n        /* \"contracts/PayPerViewNative.sol\":1473:1488  uint256 untilTs */\n      0x00\n        /* \"contracts/PayPerViewNative.sol\":1509:1510  0 */\n      0x00\n        /* \"contracts/PayPerViewNative.sol\":1491:1492  c */\n      dup4\n        /* \"contracts/PayPerViewNative.sol\":1491:1505  c.accessWindow */\n      0x40\n      add\n      mload\n        /* \"contracts/PayPerViewNative.sol\":1491:1510  c.accessWindow == 0 */\n      0xffffffffffffffff\n      and\n      eq\n        /* \"contracts/PayPerViewNative.sol\":1491:1565  c.accessWindow == 0 ? type(uint256).max : block.timestamp + c.accessWindow */\n      tag_59\n      jumpi\n        /* \"contracts/PayPerViewNative.sol\":1551:1552  c */\n      dup3\n        /* \"contracts/PayPerViewNative.sol\":1551:1565  c.accessWindow */\n      0x40\n      add\n      mload\n        /* \"contracts/PayPerViewNative.sol\":1533:1565  block.timestamp + c.accessWindow */\n      0xffffffffffffffff\n      and\n        /* \"contracts/PayPerViewNative.sol\":1533:1548  block.timestamp */\n      timestamp\n        /* \"contracts/PayPerViewNative.sol\":1533:1565  block.timestamp + c.accessWindow */\n      tag_60\n      swap2\n      swap1\n      tag_61\n      jump\t// in\n    tag_60:\n        /* \"contracts/PayPerViewNative.sol\":1491:1565  c.accessWindow == 0 ? type(uint256).max : block.timestamp + c.accessWindow */\n      jump(tag_62)\n    tag_59:\n        /* \"contracts/PayPerViewNative.sol\":1513:1530  type(uint256).max */\n      0xffffffffffffffffffffffffffffffffffffffffffffffffffffffffffffffff\n        /* \"contracts/PayPerViewNative.sol\":1491:1565  c.accessWindow == 0 ? type(uint256).max : block.timestamp + c.accessWindow */\n    tag_62:\n        /* \"contracts/PayPerViewNative.sol\":1473:1565  uint256 untilTs = c.accessWindow == 0 ? type(uint256).max : block.timestamp + c.accessWindow */\n      swap1\n      pop\n        /* \"contracts/PayPerViewNative.sol\":1613:1620  untilTs */\n      dup1\n        /* \"contracts/PayPerViewNative.sol\":1576:1587  accessUntil */\n      0x01\n        /* \"contracts/PayPerViewNative.sol\":1576:1598  accessUntil[contentId] */\n      0x00\n        /* \"contracts/PayPerViewNative.sol\":1588:1597  contentId */\n      dup7\n        /* \"contracts/PayPerViewNative.sol\":1576:1598  accessUntil[contentId] */\n      dup2\n      mstore\n      0x20\n      add\n      swap1\n      dup2\n      mstore\n      0x20\n      add\n      0x00\n      keccak256\n        /* \"contracts/PayPerViewNative.sol\":1576:1610  accessUntil[contentId][msg.sender] */\n      0x00\n        /* \"contracts/PayPerViewNative.sol\":1599:1609  msg.sender */\n      caller\n        /* \"contracts/PayPerViewNative.sol\":1576:1610  accessUntil[contentId][msg.sender] */\n      0xffffffffffffffffffffffffffffffffffffffff\n      and\n      0xffffffffffffffffffffffffffffffffffffffff\n      and\n      dup2\n      mstore\n      0x20\n      add\n      swap1\n      dup2\n      mstore\n      0x20\n      add\n      0x00\n      keccak256\n        /* \"contracts/PayPerViewNative.sol\":1576:1620  accessUntil[contentId][msg.sender] = untilTs */\n      dup2\n      swap1\n      sstore\n      pop\n        /* \"contracts/PayPerViewNative.sol\":1646:1655  contentId */\n      dup4\n        /* \"contracts/PayPerViewNative.sol\":1636:1689  Purchased(contentId, msg.sender, untilTs, c.priceWei) */\n      0xa817ffc44f7179240d8b627402c0a6beead7a3944c324f5a61d20545f83d1a65\n        /* \"contracts/PayPerViewNative.sol\":1657:1667  msg.sender */\n      caller\n        /* \"contracts/PayPerViewNative.sol\":1669:1676  untilTs */\n      dup4\n        /* \"contracts/PayPerViewNative.sol\":1678:1679  c */\n      dup7\n        /* \"contracts/PayPerViewNative.sol\":1678:1688  c.priceWei */\n      0x20\n      add\n      mload\n        /* \"contracts/PayPerViewNative.sol\":1636:1689  Purchased(contentId, msg.sender, untilTs, c.priceWei) */\n      mload(0x40)\n      tag_63\n      swap4\n      swap3\n      swap2\n      swap1\n      tag_64\n      jump\t// in\n    tag_63:\n      mload(0x40)\n      dup1\n      swap2\n      sub\n      swap1\n      log2\n        /* \"contracts/PayPerViewNative.sol\":1200:1697  {... */\n      pop\n      pop\n      pop\n        /* \"contracts/PayPerViewNative.sol\":1151:1697  function buy(bytes32 contentId) external payable {... */\n      pop\n      jump\t// out\n        /* \"contracts/PayPerViewNative.sol\":287:330  mapping(bytes32 => Content) public contents */\n    tag_32:\n      mstore(0x20, 0x00)\n      dup1\n      0x00\n      mstore\n      keccak256(0x00, 0x40)\n      0x00\n      swap2\n      pop\n      swap1\n      pop\n      dup1\n      0x00\n      add\n      0x00\n      swap1\n      sload\n      swap1\n      0x0100\n      exp\n      swap1\n      div\n      0xffffffffffffffffffffffffffffffffffffffff\n      and\n      swap1\n      dup1\n      0x01\n      add\n      sload\n      swap1\n      dup1\n      0x02\n      add\n      0x00\n      swap1\n      sload\n      swap1\n      0x0100\n      exp\n      swap1\n      div\n      0xffffffffffffffff\n      and\n      swap1\n      dup1\n      0x02\n      add\n      0x08\n      swap1\n      sload\n      swap1\n      0x0100\n      exp\n      swap1\n      div\n      0xff\n      and\n      swap1\n      pop\n      dup5\n      jump\t// out\n        /* \"#utility.yul\":88:205   */\n    tag_66:\n        /* \"#utility.yul\":197:198   */\n      0x00\n        /* \"#utility.yul\":194:195   */\n      0x00\n        /* \"#utility.yul\":187:199   */\n      revert\n        /* \"#utility.yul\":334:411   */\n    tag_68:\n        /* \"#utility.yul\":371:378   */\n      0x00\n        /* \"#utility.yul\":400:405   */\n      dup2\n        /* \"#utility.yul\":389:405   */\n      swap1\n      pop\n        /* \"#utility.yul\":334:411   */\n      swap2\n      swap1\n      pop\n      jump\t// out\n        /* \"#utility.yul\":417:539   */\n    tag_69:\n        /* \"#utility.yul\":490:514   */\n      tag_109\n        /* \"#utility.yul\":508:513   */\n      dup2\n        /* \"#utility.yul\":490:514   */\n      tag_68\n      jump\t// in\n    tag_109:\n        /* \"#utility.yul\":483:488   */\n      dup2\n        /* \"#utility.yul\":480:515   */\n      eq\n        /* \"#utility.yul\":470:533   */\n      tag_110\n      jumpi\n        /* \"#utility.yul\":529:530   */\n      0x00\n        /* \"#utility.yul\":526:527   */\n      0x00\n        /* \"#utility.yul\":519:531   */\n      revert\n        /* \"#utility.yul\":470:533   */\n    tag_110:\n        /* \"#utility.yul\":417:539   */\n      pop\n      jump\t// out\n        /* \"#utility.yul\":545:684   */\n    tag_70:\n        /* \"#utility.yul\":591:596   */\n      0x00\n        /* \"#utility.yul\":629:635   */\n      dup2\n        /* \"#utility.yul\":616:636   */\n      calldataload\n        /* \"#utility.yul\":607:636   */\n      swap1\n      pop\n        /* \"#utility.yul\":645:678   */\n      tag_112\n        /* \"#utility.yul\":672:677   */\n      dup2\n        /* \"#utility.yul\":645:678   */\n      tag_69\n      jump\t// in\n    tag_112:\n        /* \"#utility.yul\":545:684   */\n      swap3\n      swap2\n      pop\n      pop\n      jump\t// out\n        /* \"#utility.yul\":690:767   */\n    tag_71:\n        /* \"#utility.yul\":727:734   */\n      0x00\n        /* \"#utility.yul\":756:761   */\n      dup2\n        /* \"#utility.yul\":745:761   */\n      swap1\n      pop\n        /* \"#utility.yul\":690:767   */\n      swap2\n      swap1\n      pop\n      jump\t// out\n        /* \"#utility.yul\":773:895   */\n    tag_72:\n        /* \"#utility.yul\":846:870   */\n      tag_115\n        /* \"#utility.yul\":864:869   */\n      dup2\n        /* \"#utility.yul\":846:870   */\n      tag_71\n      jump\t// in\n    tag_115:\n        /* \"#utility.yul\":839:844   */\n      dup2\n        /* \"#utility.yul\":836:871   */\n      eq\n        /* \"#utility.yul\":826:889   */\n      tag_116\n      jumpi\n        /* \"#utility.yul\":885:886   */\n      0x00\n        /* \"#utility.yul\":882:883   */\n      0x00\n        /* \"#utility.yul\":875:887   */\n      revert\n        /* \"#utility.yul\":826:889   */\n    tag_116:\n        /* \"#utility.yul\":773:895   */\n      pop\n      jump\t// out\n        /* \"#utility.yul\":901:1040   */\n    tag_73:\n        /* \"#utility.yul\":947:952   */\n      0x00\n        /* \"#utility.yul\":985:991   */\n      dup2\n        /* \"#utility.yul\":972:992   */\n      calldataload\n        /* \"#utility.yul\":963:992   */\n      swap1\n      pop\n        /* \"#utility.yul\":1001:1034   */\n      tag_118\n        /* \"#utility.yul\":1028:1033   */\n      dup2\n        /* \"#utility.yul\":1001:1034   */\n      tag_72\n      jump\t// in\n    tag_118:\n        /* \"#utility.yul\":901:1040   */\n      swap3\n      swap2\n      pop\n      pop\n      jump\t// out\n        /* \"#utility.yul\":1046:1147   */\n    tag_74:\n        /* \"#utility.yul\":1082:1089   */\n      0x00\n        /* \"#utility.yul\":1122:1140   */\n      0xffffffffffffffff\n        /* \"#utility.yul\":1115:1120   */\n      dup3\n        /* \"#utility.yul\":1111:1141   */\n      and\n        /* \"#utility.yul\":1100:1141   */\n      swap1\n      pop\n        /* \"#utility.yul\":1046:1147   */\n      swap2\n      swap1\n      pop\n      jump\t// out\n        /* \"#utility.yul\":1153:1273   */\n    tag_75:\n        /* \"#utility.yul\":1225:1248   */\n      tag_121\n        /* \"#utility.yul\":1242:1247   */\n      dup2\n        /* \"#utility.yul\":1225:1248   */\n      tag_74\n      jump\t// in\n    tag_121:\n        /* \"#utility.yul\":1218:1223   */\n      dup2\n        /* \"#utility.yul\":1215:1249   */\n      eq\n        /* \"#utility.yul\":1205:1267   */\n      tag_122\n      jumpi\n        /* \"#utility.yul\":1263:1264   */\n      0x00\n        /* \"#utility.yul\":1260:1261   */\n      0x00\n        /* \"#utility.yul\":1253:1265   */\n      revert\n        /* \"#utility.yul\":1205:1267   */\n    tag_122:\n        /* \"#utility.yul\":1153:1273   */\n      pop\n      jump\t// out\n        /* \"#utility.yul\":1279:1416   */\n    tag_76:\n        /* \"#utility.yul\":1324:1329   */\n      0x00\n        /* \"#utility.yul\":1362:1368   */\n      dup2\n        /* \"#utility.yul\":1349:1369   */\n      calldataload\n        /* \"#utility.yul\":1340:1369   */\n      swap1\n      pop\n        /* \"#utility.yul\":1378:1410   */\n      tag_124\n        /* \"#utility.yul\":1404:1409   */\n      dup2\n        /* \"#utility.yul\":1378:1410   */\n      tag_75\n      jump\t// in\n    tag_124:\n        /* \"#utility.yul\":1279:1416   */\n      swap3\n      swap2\n      pop\n      pop\n      jump\t// out\n        /* \"#utility.yul\":1422:1512   */\n    tag_77:\n        /* \"#utility.yul\":1456:1463   */\n      0x00\n        /* \"#utility.yul\":1499:1504   */\n      dup2\n        /* \"#utility.yul\":1492:1505   */\n      iszero\n        /* \"#utility.yul\":1485:1506   */\n      iszero\n        /* \"#utility.yul\":1474:1506   */\n      swap1\n      pop\n        /* \"#utility.yul\":1422:1512   */\n      swap2\n      swap1\n      pop\n      jump\t// out\n        /* \"#utility.yul\":1518:1634   */\n    tag_78:\n        /* \"#utility.yul\":1588:1609   */\n      tag_127\n        /* \"#utility.yul\":1603:1608   */\n      dup2\n        /* \"#utility.yul\":1588:1609   */\n      tag_77\n      jump\t// in\n    tag_127:\n        /* \"#utility.yul\":1581:1586   */\n      dup2\n        /* \"#utility.yul\":1578:1610   */\n      eq\n        /* \"#utility.yul\":1568:1628   */\n      tag_128\n      jumpi\n        /* \"#utility.yul\":1624:1625   */\n      0x00\n        /* \"#utility.yul\":1621:1622   */\n      0x00\n        /* \"#utility.yul\":1614:1626   */\n      revert\n        /* \"#utility.yul\":1568:1628   */\n    tag_128:\n        /* \"#utility.yul\":1518:1634   */\n      pop\n      jump\t// out\n        /* \"#utility.yul\":1640:1773   */\n    tag_79:\n        /* \"#utility.yul\":1683:1688   */\n      0x00\n        /* \"#utility.yul\":1721:1727   */\n      dup2\n        /* \"#utility.yul\":1708:1728   */\n      calldataload\n        /* \"#utility.yul\":1699:1728   */\n      swap1\n      pop\n        /* \"#utility.yul\":1737:1767   */\n      tag_130\n        /* \"#utility.yul\":1761:1766   */\n      dup2\n        /* \"#utility.yul\":1737:1767   */\n      tag_78\n      jump\t// in\n    tag_130:\n        /* \"#utility.yul\":1640:1773   */\n      swap3\n      swap2\n      pop\n      pop\n      jump\t// out\n        /* \"#utility.yul\":1779:2536   */\n    tag_10:\n        /* \"#utility.yul\":1861:1867   */\n      0x00\n        /* \"#utility.yul\":1869:1875   */\n      0x00\n        /* \"#utility.yul\":1877:1883   */\n      0x00\n        /* \"#utility.yul\":1885:1891   */\n      0x00\n        /* \"#utility.yul\":1934:1937   */\n      0x80\n        /* \"#utility.yul\":1922:1931   */\n      dup6\n        /* \"#utility.yul\":1913:1920   */\n      dup8\n        /* \"#utility.yul\":1909:1932   */\n      sub\n        /* \"#utility.yul\":1905:1938   */\n      slt\n        /* \"#utility.yul\":1902:2022   */\n      iszero\n      tag_132\n      jumpi\n        /* \"#utility.yul\":1941:2020   */\n      tag_133\n      tag_66\n      jump\t// in\n    tag_133:\n        /* \"#utility.yul\":1902:2022   */\n    tag_132:\n        /* \"#utility.yul\":2061:2062   */\n      0x00\n        /* \"#utility.yul\":2086:2139   */\n      tag_134\n        /* \"#utility.yul\":2131:2138   */\n      dup8\n        /* \"#utility.yul\":2122:2128   */\n      dup3\n        /* \"#utility.yul\":2111:2120   */\n      dup9\n        /* \"#utility.yul\":2107:2129   */\n      add\n        /* \"#utility.yul\":2086:2139   */\n      tag_70\n      jump\t// in\n    tag_134:\n        /* \"#utility.yul\":2076:2139   */\n      swap5\n      pop\n        /* \"#utility.yul\":2032:2149   */\n      pop\n        /* \"#utility.yul\":2188:2190   */\n      0x20\n        /* \"#utility.yul\":2214:2267   */\n      tag_135\n        /* \"#utility.yul\":2259:2266   */\n      dup8\n        /* \"#utility.yul\":2250:2256   */\n      dup3\n        /* \"#utility.yul\":2239:2248   */\n      dup9\n        /* \"#utility.yul\":2235:2257   */\n      add\n        /* \"#utility.yul\":2214:2267   */\n      tag_73\n      jump\t// in\n    tag_135:\n        /* \"#utility.yul\":2204:2267   */\n      swap4\n      pop\n        /* \"#utility.yul\":2159:2277   */\n      pop\n        /* \"#utility.yul\":2316:2318   */\n      0x40\n        /* \"#utility.yul\":2342:2394   */\n      tag_136\n        /* \"#utility.yul\":2386:2393   */\n      dup8\n        /* \"#utility.yul\":2377:2383   */\n      dup3\n        /* \"#utility.yul\":2366:2375   */\n      dup9\n        /* \"#utility.yul\":2362:2384   */\n      add\n        /* \"#utility.yul\":2342:2394   */\n      tag_76\n      jump\t// in\n    tag_136:\n        /* \"#utility.yul\":2332:2394   */\n      swap3\n      pop\n        /* \"#utility.yul\":2287:2404   */\n      pop\n        /* \"#utility.yul\":2443:2445   */\n      0x60\n        /* \"#utility.yul\":2469:2519   */\n      tag_137\n        /* \"#utility.yul\":2511:2518   */\n      dup8\n        /* \"#utility.yul\":2502:2508   */\n      dup3\n        /* \"#utility.yul\":2491:2500   */\n      dup9\n        /* \"#utility.yul\":2487:2509   */\n      add\n        /* \"#utility.yul\":2469:2519   */\n      tag_79\n      jump\t// in\n    tag_137:\n        /* \"#utility.yul\":2459:2519   */\n      swap2\n      pop\n        /* \"#utility.yul\":2414:2529   */\n      pop\n        /* \"#utility.yul\":1779:2536   */\n      swap3\n      swap6\n      swap2\n      swap5\n      pop\n      swap3\n      pop\n      jump\t// out\n        /* \"#utility.yul\":2542:2668   */\n    tag_80:\n        /* \"#utility.yul\":2579:2586   */\n      0x00\n        /* \"#utility.yul\":2619:2661   */\n      0xffffffffffffffffffffffffffffffffffffffff\n        /* \"#utility.yul\":2612:2617   */\n      dup3\n        /* \"#utility.yul\":2608:2662   */\n      and\n        /* \"#utility.yul\":2597:2662   */\n      swap1\n      pop\n        /* \"#utility.yul\":2542:2668   */\n      swap2\n      swap1\n      pop\n      jump\t// out\n        /* \"#utility.yul\":2674:2770   */\n    tag_81:\n        /* \"#utility.yul\":2711:2718   */\n      0x00\n        /* \"#utility.yul\":2740:2764   */\n      tag_140\n        /* \"#utility.yul\":2758:2763   */\n      dup3\n        /* \"#utility.yul\":2740:2764   */\n      tag_80\n      jump\t// in\n    tag_140:\n        /* \"#utility.yul\":2729:2764   */\n      swap1\n      pop\n        /* \"#utility.yul\":2674:2770   */\n      swap2\n      swap1\n      pop\n      jump\t// out\n        /* \"#utility.yul\":2776:2898   */\n    tag_82:\n        /* \"#utility.yul\":2849:2873   */\n      tag_142\n        /* \"#utility.yul\":2867:2872   */\n      dup2\n        /* \"#utility.yul\":2849:2873   */\n      tag_81\n      jump\t// in\n    tag_142:\n        /* \"#utility.yul\":2842:2847   */\n      dup2\n        /* \"#utility.yul\":2839:2874   */\n      eq\n        /* \"#utility.yul\":2829:2892   */\n      tag_143\n      jumpi\n        /* \"#utility.yul\":2888:2889   */\n      0x00\n        /* \"#utility.yul\":2885:2886   */\n      0x00\n        /* \"#utility.yul\":2878:2890   */\n      revert\n        /* \"#utility.yul\":2829:2892   */\n    tag_143:\n        /* \"#utility.yul\":2776:2898   */\n      pop\n      jump\t// out\n        /* \"#utility.yul\":2904:3043   */\n    tag_83:\n        /* \"#utility.yul\":2950:2955   */\n      0x00\n        /* \"#utility.yul\":2988:2994   */\n      dup2\n        /* \"#utility.yul\":2975:2995   */\n      calldataload\n        /* \"#utility.yul\":2966:2995   */\n      swap1\n      pop\n        /* \"#utility.yul\":3004:3037   */\n      tag_145\n        /* \"#utility.yul\":3031:3036   */\n      dup2\n        /* \"#utility.yul\":3004:3037   */\n      tag_82\n      jump\t// in\n    tag_145:\n        /* \"#utility.yul\":2904:3043   */\n      swap3\n      swap2\n      pop\n      pop\n      jump\t// out\n        /* \"#utility.yul\":3049:3523   */\n    tag_15:\n        /* \"#utility.yul\":3117:3123   */\n      0x00\n        /* \"#utility.yul\":3125:3131   */\n      0x00\n        /* \"#utility.yul\":3174:3176   */\n      0x40\n        /* \"#utility.yul\":3162:3171   */\n      dup4\n        /* \"#utility.yul\":3153:3160   */\n      dup6\n        /* \"#utility.yul\":3149:3172   */\n      sub\n        /* \"#utility.yul\":3145:3177   */\n      slt\n        /* \"#utility.yul\":3142:3261   */\n      iszero\n      tag_147\n      jumpi\n        /* \"#utility.yul\":3180:3259   */\n      tag_148\n      tag_66\n      jump\t// in\n    tag_148:\n        /* \"#utility.yul\":3142:3261   */\n    tag_147:\n        /* \"#utility.yul\":3300:3301   */\n      0x00\n        /* \"#utility.yul\":3325:3378   */\n      tag_149\n        /* \"#utility.yul\":3370:3377   */\n      dup6\n        /* \"#utility.yul\":3361:3367   */\n      dup3\n        /* \"#utility.yul\":3350:3359   */\n      dup7\n        /* \"#utility.yul\":3346:3368   */\n      add\n        /* \"#utility.yul\":3325:3378   */\n      tag_70\n      jump\t// in\n    tag_149:\n        /* \"#utility.yul\":3315:3378   */\n      swap3\n      pop\n        /* \"#utility.yul\":3271:3388   */\n      pop\n        /* \"#utility.yul\":3427:3429   */\n      0x20\n        /* \"#utility.yul\":3453:3506   */\n      tag_150\n        /* \"#utility.yul\":3498:3505   */\n      dup6\n        /* \"#utility.yul\":3489:3495   */\n      dup3\n        /* \"#utility.yul\":3478:3487   */\n      dup7\n        /* \"#utility.yul\":3474:3496   */\n      add\n        /* \"#utility.yul\":3453:3506   */\n      tag_83\n      jump\t// in\n    tag_150:\n        /* \"#utility.yul\":3443:3506   */\n      swap2\n      pop\n        /* \"#utility.yul\":3398:3516   */\n      pop\n        /* \"#utility.yul\":3049:3523   */\n      swap3\n      pop\n      swap3\n      swap1\n      pop\n      jump\t// out\n        /* \"#utility.yul\":3529:3647   */\n    tag_84:\n        /* \"#utility.yul\":3616:3640   */\n      tag_152\n        /* \"#utility.yul\":3634:3639   */\n      dup2\n        /* \"#utility.yul\":3616:3640   */\n      tag_71\n      jump\t// in\n    tag_152:\n        /* \"#utility.yul\":3611:3614   */\n      dup3\n        /* \"#utility.yul\":3604:3641   */\n      mstore\n        /* \"#utility.yul\":3529:3647   */\n      pop\n      pop\n      jump\t// out\n        /* \"#utility.yul\":3653:3875   */\n    tag_18:\n        /* \"#utility.yul\":3746:3750   */\n      0x00\n        /* \"#utility.yul\":3784:3786   */\n      0x20\n        /* \"#utility.yul\":3773:3782   */\n      dup3\n        /* \"#utility.yul\":3769:3787   */\n      add\n        /* \"#utility.yul\":3761:3787   */\n      swap1\n      pop\n        /* \"#utility.yul\":3797:3868   */\n      tag_154\n        /* \"#utility.yul\":3865:3866   */\n      0x00\n        /* \"#utility.yul\":3854:3863   */\n      dup4\n        /* \"#utility.yul\":3850:3867   */\n      add\n        /* \"#utility.yul\":3841:3847   */\n      dup5\n        /* \"#utility.yul\":3797:3868   */\n      tag_84\n      jump\t// in\n    tag_154:\n        /* \"#utility.yul\":3653:3875   */\n      swap3\n      swap2\n      pop\n      pop\n      jump\t// out\n        /* \"#utility.yul\":3881:3990   */\n    tag_85:\n        /* \"#utility.yul\":3962:3983   */\n      tag_156\n        /* \"#utility.yul\":3977:3982   */\n      dup2\n        /* \"#utility.yul\":3962:3983   */\n      tag_77\n      jump\t// in\n    tag_156:\n        /* \"#utility.yul\":3957:3960   */\n      dup3\n        /* \"#utility.yul\":3950:3984   */\n      mstore\n        /* \"#utility.yul\":3881:3990   */\n      pop\n      pop\n      jump\t// out\n        /* \"#utility.yul\":3996:4206   */\n    tag_24:\n        /* \"#utility.yul\":4083:4087   */\n      0x00\n        /* \"#utility.yul\":4121:4123   */\n      0x20\n        /* \"#utility.yul\":4110:4119   */\n      dup3\n        /* \"#utility.yul\":4106:4124   */\n      add\n        /* \"#utility.yul\":4098:4124   */\n      swap1\n      pop\n        /* \"#utility.yul\":4134:4199   */\n      tag_158\n        /* \"#utility.yul\":4196:4197   */\n      0x00\n        /* \"#utility.yul\":4185:4194   */\n      dup4\n        /* \"#utility.yul\":4181:4198   */\n      add\n        /* \"#utility.yul\":4172:4178   */\n      dup5\n        /* \"#utility.yul\":4134:4199   */\n      tag_85\n      jump\t// in\n    tag_158:\n        /* \"#utility.yul\":3996:4206   */\n      swap3\n      swap2\n      pop\n      pop\n      jump\t// out\n        /* \"#utility.yul\":4212:4541   */\n    tag_27:\n        /* \"#utility.yul\":4271:4277   */\n      0x00\n        /* \"#utility.yul\":4320:4322   */\n      0x20\n        /* \"#utility.yul\":4308:4317   */\n      dup3\n        /* \"#utility.yul\":4299:4306   */\n      dup5\n        /* \"#utility.yul\":4295:4318   */\n      sub\n        /* \"#utility.yul\":4291:4323   */\n      slt\n        /* \"#utility.yul\":4288:4407   */\n      iszero\n      tag_160\n      jumpi\n        /* \"#utility.yul\":4326:4405   */\n      tag_161\n      tag_66\n      jump\t// in\n    tag_161:\n        /* \"#utility.yul\":4288:4407   */\n    tag_160:\n        /* \"#utility.yul\":4446:4447   */\n      0x00\n        /* \"#utility.yul\":4471:4524   */\n      tag_162\n        /* \"#utility.yul\":4516:4523   */\n      dup5\n        /* \"#utility.yul\":4507:4513   */\n      dup3\n        /* \"#utility.yul\":4496:4505   */\n      dup6\n        /* \"#utility.yul\":4492:4514   */\n      add\n        /* \"#utility.yul\":4471:4524   */\n      tag_70\n      jump\t// in\n    tag_162:\n        /* \"#utility.yul\":4461:4524   */\n      swap2\n      pop\n        /* \"#utility.yul\":4417:4534   */\n      pop\n        /* \"#utility.yul\":4212:4541   */\n      swap3\n      swap2\n      pop\n      pop\n      jump\t// out\n        /* \"#utility.yul\":4547:4651   */\n    tag_86:\n        /* \"#utility.yul\":4592:4599   */\n      0x00\n        /* \"#utility.yul\":4621:4645   */\n      tag_164\n        /* \"#utility.yul\":4639:4644   */\n      dup3\n        /* \"#utility.yul\":4621:4645   */\n      tag_80\n      jump\t// in\n    tag_164:\n        /* \"#utility.yul\":4610:4645   */\n      swap1\n      pop\n        /* \"#utility.yul\":4547:4651   */\n      swap2\n      swap1\n      pop\n      jump\t// out\n        /* \"#utility.yul\":4657:4799   */\n    tag_87:\n        /* \"#utility.yul\":4760:4792   */\n      tag_166\n        /* \"#utility.yul\":4786:4791   */\n      dup2\n        /* \"#utility.yul\":4760:4792   */\n      tag_86\n      jump\t// in\n    tag_166:\n        /* \"#utility.yul\":4755:4758   */\n      dup3\n        /* \"#utility.yul\":4748:4793   */\n      mstore\n        /* \"#utility.yul\":4657:4799   */\n      pop\n      pop\n      jump\t// out\n        /* \"#utility.yul\":4805:4920   */\n    tag_88:\n        /* \"#utility.yul\":4890:4913   */\n      tag_168\n        /* \"#utility.yul\":4907:4912   */\n      dup2\n        /* \"#utility.yul\":4890:4913   */\n      tag_74\n      jump\t// in\n    tag_168:\n        /* \"#utility.yul\":4885:4888   */\n      dup3\n        /* \"#utility.yul\":4878:4914   */\n      mstore\n        /* \"#utility.yul\":4805:4920   */\n      pop\n      pop\n      jump\t// out\n        /* \"#utility.yul\":4926:5495   */\n    tag_34:\n        /* \"#utility.yul\":5111:5115   */\n      0x00\n        /* \"#utility.yul\":5149:5152   */\n      0x80\n        /* \"#utility.yul\":5138:5147   */\n      dup3\n        /* \"#utility.yul\":5134:5153   */\n      add\n        /* \"#utility.yul\":5126:5153   */\n      swap1\n      pop\n        /* \"#utility.yul\":5163:5250   */\n      tag_170\n        /* \"#utility.yul\":5247:5248   */\n      0x00\n        /* \"#utility.yul\":5236:5245   */\n      dup4\n        /* \"#utility.yul\":5232:5249   */\n      add\n        /* \"#utility.yul\":5223:5229   */\n      dup8\n        /* \"#utility.yul\":5163:5250   */\n      tag_87\n      jump\t// in\n    tag_170:\n        /* \"#utility.yul\":5260:5332   */\n      tag_171\n        /* \"#utility.yul\":5328:5330   */\n      0x20\n        /* \"#utility.yul\":5317:5326   */\n      dup4\n        /* \"#utility.yul\":5313:5331   */\n      add\n        /* \"#utility.yul\":5304:5310   */\n      dup7\n        /* \"#utility.yul\":5260:5332   */\n      tag_84\n      jump\t// in\n    tag_171:\n        /* \"#utility.yul\":5342:5412   */\n      tag_172\n        /* \"#utility.yul\":5408:5410   */\n      0x40\n        /* \"#utility.yul\":5397:5406   */\n      dup4\n        /* \"#utility.yul\":5393:5411   */\n      add\n        /* \"#utility.yul\":5384:5390   */\n      dup6\n        /* \"#utility.yul\":5342:5412   */\n      tag_88\n      jump\t// in\n    tag_172:\n        /* \"#utility.yul\":5422:5488   */\n      tag_173\n        /* \"#utility.yul\":5484:5486   */\n      0x60\n        /* \"#utility.yul\":5473:5482   */\n      dup4\n        /* \"#utility.yul\":5469:5487   */\n      add\n        /* \"#utility.yul\":5460:5466   */\n      dup5\n        /* \"#utility.yul\":5422:5488   */\n      tag_85\n      jump\t// in\n    tag_173:\n        /* \"#utility.yul\":4926:5495   */\n      swap6\n      swap5\n      pop\n      pop\n      pop\n      pop\n      pop\n      jump\t// out\n        /* \"#utility.yul\":5501:5670   */\n    tag_89:\n        /* \"#utility.yul\":5585:5596   */\n      0x00\n        /* \"#utility.yul\":5619:5625   */\n      dup3\n        /* \"#utility.yul\":5614:5617   */\n      dup3\n        /* \"#utility.yul\":5607:5626   */\n      mstore\n        /* \"#utility.yul\":5659:5663   */\n      0x20\n        /* \"#utility.yul\":5654:5657   */\n      dup3\n        /* \"#utility.yul\":5650:5664   */\n      add\n        /* \"#utility.yul\":5635:5664   */\n      swap1\n      pop\n        /* \"#utility.yul\":5501:5670   */\n      swap3\n      swap2\n      pop\n      pop\n      jump\t// out\n        /* \"#utility.yul\":5676:5838   */\n    tag_90:\n        /* \"#utility.yul\":5816:5830   */\n      0x6f6e6c792063726561746f720000000000000000000000000000000000000000\n        /* \"#utility.yul\":5812:5813   */\n      0x00\n        /* \"#utility.yul\":5804:5810   */\n      dup3\n        /* \"#utility.yul\":5800:5814   */\n      add\n        /* \"#utility.yul\":5793:5831   */\n      mstore\n        /* \"#utility.yul\":5676:5838   */\n      pop\n      jump\t// out\n        /* \"#utility.yul\":5844:6210   */\n    tag_91:\n        /* \"#utility.yul\":5986:5989   */\n      0x00\n        /* \"#utility.yul\":6007:6074   */\n      tag_177\n        /* \"#utility.yul\":6071:6073   */\n      0x0c\n        /* \"#utility.yul\":6066:6069   */\n      dup4\n        /* \"#utility.yul\":6007:6074   */\n      tag_89\n      jump\t// in\n    tag_177:\n        /* \"#utility.yul\":6000:6074   */\n      swap2\n      pop\n        /* \"#utility.yul\":6083:6176   */\n      tag_178\n        /* \"#utility.yul\":6172:6175   */\n      dup3\n        /* \"#utility.yul\":6083:6176   */\n      tag_90\n      jump\t// in\n    tag_178:\n        /* \"#utility.yul\":6201:6203   */\n      0x20\n        /* \"#utility.yul\":6196:6199   */\n      dup3\n        /* \"#utility.yul\":6192:6204   */\n      add\n        /* \"#utility.yul\":6185:6204   */\n      swap1\n      pop\n        /* \"#utility.yul\":5844:6210   */\n      swap2\n      swap1\n      pop\n      jump\t// out\n        /* \"#utility.yul\":6216:6635   */\n    tag_39:\n        /* \"#utility.yul\":6382:6386   */\n      0x00\n        /* \"#utility.yul\":6420:6422   */\n      0x20\n        /* \"#utility.yul\":6409:6418   */\n      dup3\n        /* \"#utility.yul\":6405:6423   */\n      add\n        /* \"#utility.yul\":6397:6423   */\n      swap1\n      pop\n        /* \"#utility.yul\":6469:6478   */\n      dup2\n        /* \"#utility.yul\":6463:6467   */\n      dup2\n        /* \"#utility.yul\":6459:6479   */\n      sub\n        /* \"#utility.yul\":6455:6456   */\n      0x00\n        /* \"#utility.yul\":6444:6453   */\n      dup4\n        /* \"#utility.yul\":6440:6457   */\n      add\n        /* \"#utility.yul\":6433:6480   */\n      mstore\n        /* \"#utility.yul\":6497:6628   */\n      tag_180\n        /* \"#utility.yul\":6623:6627   */\n      dup2\n        /* \"#utility.yul\":6497:6628   */\n      tag_91\n      jump\t// in\n    tag_180:\n        /* \"#utility.yul\":6489:6628   */\n      swap1\n      pop\n        /* \"#utility.yul\":6216:6635   */\n      swap2\n      swap1\n      pop\n      jump\t// out\n        /* \"#utility.yul\":6641:6759   */\n    tag_92:\n        /* \"#utility.yul\":6728:6752   */\n      tag_182\n        /* \"#utility.yul\":6746:6751   */\n      dup2\n        /* \"#utility.yul\":6728:6752   */\n      tag_81\n      jump\t// in\n    tag_182:\n        /* \"#utility.yul\":6723:6726   */\n      dup3\n        /* \"#utility.yul\":6716:6753   */\n      mstore\n        /* \"#utility.yul\":6641:6759   */\n      pop\n      pop\n      jump\t// out\n        /* \"#utility.yul\":6765:7302   */\n    tag_41:\n        /* \"#utility.yul\":6934:6938   */\n      0x00\n        /* \"#utility.yul\":6972:6975   */\n      0x80\n        /* \"#utility.yul\":6961:6970   */\n      dup3\n        /* \"#utility.yul\":6957:6976   */\n      add\n        /* \"#utility.yul\":6949:6976   */\n      swap1\n      pop\n        /* \"#utility.yul\":6986:7057   */\n      tag_184\n        /* \"#utility.yul\":7054:7055   */\n      0x00\n        /* \"#utility.yul\":7043:7052   */\n      dup4\n        /* \"#utility.yul\":7039:7056   */\n      add\n        /* \"#utility.yul\":7030:7036   */\n      dup8\n        /* \"#utility.yul\":6986:7057   */\n      tag_92\n      jump\t// in\n    tag_184:\n        /* \"#utility.yul\":7067:7139   */\n      tag_185\n        /* \"#utility.yul\":7135:7137   */\n      0x20\n        /* \"#utility.yul\":7124:7133   */\n      dup4\n        /* \"#utility.yul\":7120:7138   */\n      add\n        /* \"#utility.yul\":7111:7117   */\n      dup7\n        /* \"#utility.yul\":7067:7139   */\n      tag_84\n      jump\t// in\n    tag_185:\n        /* \"#utility.yul\":7149:7219   */\n      tag_186\n        /* \"#utility.yul\":7215:7217   */\n      0x40\n        /* \"#utility.yul\":7204:7213   */\n      dup4\n        /* \"#utility.yul\":7200:7218   */\n      add\n        /* \"#utility.yul\":7191:7197   */\n      dup6\n        /* \"#utility.yul\":7149:7219   */\n      tag_88\n      jump\t// in\n    tag_186:\n        /* \"#utility.yul\":7229:7295   */\n      tag_187\n        /* \"#utility.yul\":7291:7293   */\n      0x60\n        /* \"#utility.yul\":7280:7289   */\n      dup4\n        /* \"#utility.yul\":7276:7294   */\n      add\n        /* \"#utility.yul\":7267:7273   */\n      dup5\n        /* \"#utility.yul\":7229:7295   */\n      tag_85\n      jump\t// in\n    tag_187:\n        /* \"#utility.yul\":6765:7302   */\n      swap6\n      swap5\n      pop\n      pop\n      pop\n      pop\n      pop\n      jump\t// out\n        /* \"#utility.yul\":7308:7466   */\n    tag_93:\n        /* \"#utility.yul\":7448:7458   */\n      0x696e616374697665000000000000000000000000000000000000000000000000\n        /* \"#utility.yul\":7444:7445   */\n      0x00\n        /* \"#utility.yul\":7436:7442   */\n      dup3\n        /* \"#utility.yul\":7432:7446   */\n      add\n        /* \"#utility.yul\":7425:7459   */\n      mstore\n        /* \"#utility.yul\":7308:7466   */\n      pop\n      jump\t// out\n        /* \"#utility.yul\":7472:7837   */\n    tag_94:\n        /* \"#utility.yul\":7614:7617   */\n      0x00\n        /* \"#utility.yul\":7635:7701   */\n      tag_190\n        /* \"#utility.yul\":7699:7700   */\n      0x08\n        /* \"#utility.yul\":7694:7697   */\n      dup4\n        /* \"#utility.yul\":7635:7701   */\n      tag_89\n      jump\t// in\n    tag_190:\n        /* \"#utility.yul\":7628:7701   */\n      swap2\n      pop\n        /* \"#utility.yul\":7710:7803   */\n      tag_191\n        /* \"#utility.yul\":7799:7802   */\n      dup3\n        /* \"#utility.yul\":7710:7803   */\n      tag_93\n      jump\t// in\n    tag_191:\n        /* \"#utility.yul\":7828:7830   */\n      0x20\n        /* \"#utility.yul\":7823:7826   */\n      dup3\n        /* \"#utility.yul\":7819:7831   */\n      add\n        /* \"#utility.yul\":7812:7831   */\n      swap1\n      pop\n        /* \"#utility.yul\":7472:7837   */\n      swap2\n      swap1\n      pop\n      jump\t// out\n        /* \"#utility.yul\":7843:8262   */\n    tag_47:\n        /* \"#utility.yul\":8009:8013   */\n      0x00\n        /* \"#utility.yul\":8047:8049   */\n      0x20\n        /* \"#utility.yul\":8036:8045   */\n      dup3\n        /* \"#utility.yul\":8032:8050   */\n      add\n        /* \"#utility.yul\":8024:8050   */\n      swap1\n      pop\n        /* \"#utility.yul\":8096:8105   */\n      dup2\n        /* \"#utility.yul\":8090:8094   */\n      dup2\n        /* \"#utility.yul\":8086:8106   */\n      sub\n        /* \"#utility.yul\":8082:8083   */\n      0x00\n        /* \"#utility.yul\":8071:8080   */\n      dup4\n        /* \"#utility.yul\":8067:8084   */\n      add\n        /* \"#utility.yul\":8060:8107   */\n      mstore\n        /* \"#utility.yul\":8124:8255   */\n      tag_193\n        /* \"#utility.yul\":8250:8254   */\n      dup2\n        /* \"#utility.yul\":8124:8255   */\n      tag_94\n      jump\t// in\n    tag_193:\n        /* \"#utility.yul\":8116:8255   */\n      swap1\n      pop\n        /* \"#utility.yul\":7843:8262   */\n      swap2\n      swap1\n      pop\n      jump\t// out\n        /* \"#utility.yul\":8268:8427   */\n    tag_95:\n        /* \"#utility.yul\":8408:8419   */\n      0x6261642076616c75650000000000000000000000000000000000000000000000\n        /* \"#utility.yul\":8404:8405   */\n      0x00\n        /* \"#utility.yul\":8396:8402   */\n      dup3\n        /* \"#utility.yul\":8392:8406   */\n      add\n        /* \"#utility.yul\":8385:8420   */\n      mstore\n        /* \"#utility.yul\":8268:8427   */\n      pop\n      jump\t// out\n        /* \"#utility.yul\":8433:8798   */\n    tag_96:\n        /* \"#utility.yul\":8575:8578   */\n      0x00\n        /* \"#utility.yul\":8596:8662   */\n      tag_196\n        /* \"#utility.yul\":8660:8661   */\n      0x09\n        /* \"#utility.yul\":8655:8658   */\n      dup4\n        /* \"#utility.yul\":8596:8662   */\n      tag_89\n      jump\t// in\n    tag_196:\n        /* \"#utility.yul\":8589:8662   */\n      swap2\n      pop\n        /* \"#utility.yul\":8671:8764   */\n      tag_197\n        /* \"#utility.yul\":8760:8763   */\n      dup3\n        /* \"#utility.yul\":8671:8764   */\n      tag_95\n      jump\t// in\n    tag_197:\n        /* \"#utility.yul\":8789:8791   */\n      0x20\n        /* \"#utility.yul\":8784:8787   */\n      dup3\n        /* \"#utility.yul\":8780:8792   */\n      add\n        /* \"#utility.yul\":8773:8792   */\n      swap1\n      pop\n        /* \"#utility.yul\":8433:8798   */\n      swap2\n      swap1\n      pop\n      jump\t// out\n        /* \"#utility.yul\":8804:9223   */\n    tag_50:\n        /* \"#utility.yul\":8970:8974   */\n      0x00\n        /* \"#utility.yul\":9008:9010   */\n      0x20\n        /* \"#utility.yul\":8997:9006   */\n      dup3\n        /* \"#utility.yul\":8993:9011   */\n      add\n        /* \"#utility.yul\":8985:9011   */\n      swap1\n      pop\n        /* \"#utility.yul\":9057:9066   */\n      dup2\n        /* \"#utility.yul\":9051:9055   */\n      dup2\n        /* \"#utility.yul\":9047:9067   */\n      sub\n        /* \"#utility.yul\":9043:9044   */\n      0x00\n        /* \"#utility.yul\":9032:9041   */\n      dup4\n        /* \"#utility.yul\":9028:9045   */\n      add\n        /* \"#utility.yul\":9021:9068   */\n      mstore\n        /* \"#utility.yul\":9085:9216   */\n      tag_199\n        /* \"#utility.yul\":9211:9215   */\n      dup2\n        /* \"#utility.yul\":9085:9216   */\n      tag_96\n      jump\t// in\n    tag_199:\n        /* \"#utility.yul\":9077:9216   */\n      swap1\n      pop\n        /* \"#utility.yul\":8804:9223   */\n      swap2\n      swap1\n      pop\n      jump\t// out\n        /* \"#utility.yul\":9229:9376   */\n    tag_97:\n        /* \"#utility.yul\":9330:9341   */\n      0x00\n        /* \"#utility.yul\":9367:9370   */\n      dup2\n        /* \"#utility.yul\":9352:9370   */\n      swap1\n      pop\n        /* \"#utility.yul\":9229:9376   */\n      swap3\n      swap2\n      pop\n      pop\n      jump\t// out\n        /* \"#utility.yul\":9382:9496   */\n    tag_98:\n      pop\n      jump\t// out\n        /* \"#utility.yul\":9502:9900   */\n    tag_99:\n        /* \"#utility.yul\":9661:9664   */\n      0x00\n        /* \"#utility.yul\":9682:9765   */\n      tag_203\n        /* \"#utility.yul\":9763:9764   */\n      0x00\n        /* \"#utility.yul\":9758:9761   */\n      dup4\n        /* \"#utility.yul\":9682:9765   */\n      tag_97\n      jump\t// in\n    tag_203:\n        /* \"#utility.yul\":9675:9765   */\n      swap2\n      pop\n        /* \"#utility.yul\":9774:9867   */\n      tag_204\n        /* \"#utility.yul\":9863:9866   */\n      dup3\n        /* \"#utility.yul\":9774:9867   */\n      tag_98\n      jump\t// in\n    tag_204:\n        /* \"#utility.yul\":9892:9893   */\n      0x00\n        /* \"#utility.yul\":9887:9890   */\n      dup3\n        /* \"#utility.yul\":9883:9894   */\n      add\n        /* \"#utility.yul\":9876:9894   */\n      swap1\n      pop\n        /* \"#utility.yul\":9502:9900   */\n      swap2\n      swap1\n      pop\n      jump\t// out\n        /* \"#utility.yul\":9906:10285   */\n    tag_52:\n        /* \"#utility.yul\":10090:10093   */\n      0x00\n        /* \"#utility.yul\":10112:10259   */\n      tag_206\n        /* \"#utility.yul\":10255:10258   */\n      dup3\n        /* \"#utility.yul\":10112:10259   */\n      tag_99\n      jump\t// in\n    tag_206:\n        /* \"#utility.yul\":10105:10259   */\n      swap2\n      pop\n        /* \"#utility.yul\":10276:10279   */\n      dup2\n        /* \"#utility.yul\":10269:10279   */\n      swap1\n      pop\n        /* \"#utility.yul\":9906:10285   */\n      swap2\n      swap1\n      pop\n      jump\t// out\n        /* \"#utility.yul\":10291:10451   */\n    tag_100:\n        /* \"#utility.yul\":10431:10443   */\n      0x706179206661696c656400000000000000000000000000000000000000000000\n        /* \"#utility.yul\":10427:10428   */\n      0x00\n        /* \"#utility.yul\":10419:10425   */\n      dup3\n        /* \"#utility.yul\":10415:10429   */\n      add\n        /* \"#utility.yul\":10408:10444   */\n      mstore\n        /* \"#utility.yul\":10291:10451   */\n      pop\n      jump\t// out\n        /* \"#utility.yul\":10457:10823   */\n    tag_101:\n        /* \"#utility.yul\":10599:10602   */\n      0x00\n        /* \"#utility.yul\":10620:10687   */\n      tag_209\n        /* \"#utility.yul\":10684:10686   */\n      0x0a\n        /* \"#utility.yul\":10679:10682   */\n      dup4\n        /* \"#utility.yul\":10620:10687   */\n      tag_89\n      jump\t// in\n    tag_209:\n        /* \"#utility.yul\":10613:10687   */\n      swap2\n      pop\n        /* \"#utility.yul\":10696:10789   */\n      tag_210\n        /* \"#utility.yul\":10785:10788   */\n      dup3\n        /* \"#utility.yul\":10696:10789   */\n      tag_100\n      jump\t// in\n    tag_210:\n        /* \"#utility.yul\":10814:10816   */\n      0x20\n        /* \"#utility.yul\":10809:10812   */\n      dup3\n        /* \"#utility.yul\":10805:10817   */\n      add\n        /* \"#utility.yul\":10798:10817   */\n      swap1\n      pop\n        /* \"#utility.yul\":10457:10823   */\n      swap2\n      swap1\n      pop\n      jump\t// out\n        /* \"#utility.yul\":10829:11248   */\n    tag_58:\n        /* \"#utility.yul\":10995:10999   */\n      0x00\n        /* \"#utility.yul\":11033:11035   */\n      0x20\n        /* \"#utility.yul\":11022:11031   */\n      dup3\n        /* \"#utility.yul\":11018:11036   */\n      add\n        /* \"#utility.yul\":11010:11036   */\n      swap1\n      pop\n        /* \"#utility.yul\":11082:11091   */\n      dup2\n        /* \"#utility.yul\":11076:11080   */\n      dup2\n        /* \"#utility.yul\":11072:11092   */\n      sub\n        /* \"#utility.yul\":11068:11069   */\n      0x00\n        /* \"#utility.yul\":11057:11066   */\n      dup4\n        /* \"#utility.yul\":11053:11070   */\n      add\n        /* \"#utility.yul\":11046:11093   */\n      mstore\n        /* \"#utility.yul\":11110:11241   */\n      tag_212\n        /* \"#utility.yul\":11236:11240   */\n      dup2\n        /* \"#utility.yul\":11110:11241   */\n      tag_101\n      jump\t// in\n    tag_212:\n        /* \"#utility.yul\":11102:11241   */\n      swap1\n      pop\n        /* \"#utility.yul\":10829:11248   */\n      swap2\n      swap1\n      pop\n      jump\t// out\n        /* \"#utility.yul\":11254:11434   */\n    tag_102:\n        /* \"#utility.yul\":11302:11379   */\n      0x4e487b7100000000000000000000000000000000000000000000000000000000\n        /* \"#utility.yul\":11299:11300   */\n      0x00\n        /* \"#utility.yul\":11292:11380   */\n      mstore\n        /* \"#utility.yul\":11399:11403   */\n      0x11\n        /* \"#utility.yul\":11396:11397   */\n      0x04\n        /* \"#utility.yul\":11389:11404   */\n      mstore\n        /* \"#utility.yul\":11423:11427   */\n      0x24\n        /* \"#utility.yul\":11420:11421   */\n      0x00\n        /* \"#utility.yul\":11413:11428   */\n      revert\n        /* \"#utility.yul\":11440:11631   */\n    tag_61:\n        /* \"#utility.yul\":11480:11483   */\n      0x00\n        /* \"#utility.yul\":11499:11519   */\n      tag_215\n        /* \"#utility.yul\":11517:11518   */\n      dup3\n        /* \"#utility.yul\":11499:11519   */\n      tag_71\n      jump\t// in\n    tag_215:\n        /* \"#utility.yul\":11494:11519   */\n      swap2\n      pop\n        /* \"#utility.yul\":11533:11553   */\n      tag_216\n        /* \"#utility.yul\":11551:11552   */\n      dup4\n        /* \"#utility.yul\":11533:11553   */\n      tag_71\n      jump\t// in\n    tag_216:\n        /* \"#utility.yul\":11528:11553   */\n      swap3\n      pop\n        /* \"#utility.yul\":11576:11577   */\n      dup3\n        /* \"#utility.yul\":11573:11574   */\n      dup3\n        /* \"#utility.yul\":11569:11578   */\n      add\n        /* \"#utility.yul\":11562:11578   */\n      swap1\n      pop\n        /* \"#utility.yul\":11597:11600   */\n      dup1\n        /* \"#utility.yul\":11594:11595   */\n      dup3\n        /* \"#utility.yul\":11591:11601   */\n      gt\n        /* \"#utility.yul\":11588:11624   */\n      iszero\n      tag_217\n      jumpi\n        /* \"#utility.yul\":11604:11622   */\n      tag_218\n      tag_102\n      jump\t// in\n    tag_218:\n        /* \"#utility.yul\":11588:11624   */\n    tag_217:\n        /* \"#utility.yul\":11440:11631   */\n      swap3\n      swap2\n      pop\n      pop\n      jump\t// out\n        /* \"#utility.yul\":11637:12079   */\n    tag_64:\n        /* \"#utility.yul\":11786:11790   */\n      0x00\n        /* \"#utility.yul\":11824:11826   */\n      0x60\n        /* \"#utility.yul\":11813:11822   */\n      dup3\n        /* \"#utility.yul\":11809:11827   */\n      add\n        /* \"#utility.yul\":11801:11827   */\n      swap1\n      pop\n        /* \"#utility.yul\":11837:11908   */\n      tag_220\n        /* \"#utility.yul\":11905:11906   */\n      0x00\n        /* \"#utility.yul\":11894:11903   */\n      dup4\n        /* \"#utility.yul\":11890:11907   */\n      add\n        /* \"#utility.yul\":11881:11887   */\n      dup7\n        /* \"#utility.yul\":11837:11908   */\n      tag_92\n      jump\t// in\n    tag_220:\n        /* \"#utility.yul\":11918:11990   */\n      tag_221\n        /* \"#utility.yul\":11986:11988   */\n      0x20\n        /* \"#utility.yul\":11975:11984   */\n      dup4\n        /* \"#utility.yul\":11971:11989   */\n      add\n        /* \"#utility.yul\":11962:11968   */\n      dup6\n        /* \"#utility.yul\":11918:11990   */\n      tag_84\n      jump\t// in\n    tag_221:\n        /* \"#utility.yul\":12000:12072   */\n      tag_222\n        /* \"#utility.yul\":12068:12070   */\n      0x40\n        /* \"#utility.yul\":12057:12066   */\n      dup4\n        /* \"#utility.yul\":12053:12071   */\n      add\n        /* \"#utility.yul\":12044:12050   */\n      dup5\n        /* \"#utility.yul\":12000:12072   */\n      tag_84\n      jump\t// in\n    tag_222:\n        /* \"#utility.yul\":11637:12079   */\n      swap5\n      swap4\n      pop\n      pop\n      pop\n      pop\n      jump\t// out\n\n    auxdata: 0xa26469706673582212200bbac8550114d24c825ae9e29da9daa9344c78652e0236d6c2cbe8333171207864736f6c634300081e0033\n}\n",
				"bytecode": {
					"linkReferences": {},
					"object": "6080604052348015600e575f5ffd5b50610cf48061001c5f395ff3fe608060405260043610610049575f3560e01c8063048d6dfa1461004d5780633dac31ed1461007557806383177db3146100b15780639c9a1061146100ed578063f20ca12c14610109575b5f5ffd5b348015610058575f5ffd5b50610073600480360381019061006e91906107fd565b610148565b005b348015610080575f5ffd5b5061009b600480360381019061009691906108bb565b610316565b6040516100a89190610908565b60405180910390f35b3480156100bc575f5ffd5b506100d760048036038101906100d291906108bb565b610336565b6040516100e49190610930565b60405180910390f35b61010760048036038101906101029190610949565b61038f565b005b348015610114575f5ffd5b5061012f600480360381019061012a9190610949565b6106b7565b60405161013f94939291906109a3565b60405180910390f35b5f5f5f8681526020019081526020015f2090505f73ffffffffffffffffffffffffffffffffffffffff16815f015f9054906101000a900473ffffffffffffffffffffffffffffffffffffffff1673ffffffffffffffffffffffffffffffffffffffff16036101f25733815f015f6101000a81548173ffffffffffffffffffffffffffffffffffffffff021916908373ffffffffffffffffffffffffffffffffffffffff1602179055505b3373ffffffffffffffffffffffffffffffffffffffff16815f015f9054906101000a900473ffffffffffffffffffffffffffffffffffffffff1673ffffffffffffffffffffffffffffffffffffffff1614610282576040517f08c379a000000000000000000000000000000000000000000000000000000000815260040161027990610a40565b60405180910390fd5b83816001018190555082816002015f6101000a81548167ffffffffffffffff021916908367ffffffffffffffff160217905550818160020160086101000a81548160ff021916908315150217905550847f464bf7dbf82eb15ee37e7b23c23c9f08151d3ce7cba12e7fdde260bbcf460dc2338686866040516103079493929190610a6d565b60405180910390a25050505050565b6001602052815f5260405f20602052805f5260405f205f91509150505481565b5f60015f8481526020019081526020015f205f8373ffffffffffffffffffffffffffffffffffffffff1673ffffffffffffffffffffffffffffffffffffffff1681526020019081526020015f2054421115905092915050565b5f5f5f8381526020019081526020015f206040518060800160405290815f82015f9054906101000a900473ffffffffffffffffffffffffffffffffffffffff1673ffffffffffffffffffffffffffffffffffffffff1673ffffffffffffffffffffffffffffffffffffffff16815260200160018201548152602001600282015f9054906101000a900467ffffffffffffffff1667ffffffffffffffff1667ffffffffffffffff1681526020016002820160089054906101000a900460ff16151515158152505090508060600151801561049757505f73ffffffffffffffffffffffffffffffffffffffff16815f015173ffffffffffffffffffffffffffffffffffffffff1614155b6104d6576040517f08c379a00000000000000000000000000000000000000000000000000000000081526004016104cd90610afa565b60405180910390fd5b8060200151341461051c576040517f08c379a000000000000000000000000000000000000000000000000000000000815260040161051390610b62565b60405180910390fd5b5f815f015173ffffffffffffffffffffffffffffffffffffffff163460405161054490610bad565b5f6040518083038185875af1925050503d805f811461057e576040519150601f19603f3d011682016040523d82523d5f602084013e610583565b606091505b50509050806105c7576040517f08c379a00000000000000000000000000000000000000000000000000000000081526004016105be90610c0b565b60405180910390fd5b5f5f836040015167ffffffffffffffff16146105fc57826040015167ffffffffffffffff16426105f79190610c56565b61061e565b7fffffffffffffffffffffffffffffffffffffffffffffffffffffffffffffffff5b90508060015f8681526020019081526020015f205f3373ffffffffffffffffffffffffffffffffffffffff1673ffffffffffffffffffffffffffffffffffffffff1681526020019081526020015f2081905550837fa817ffc44f7179240d8b627402c0a6beead7a3944c324f5a61d20545f83d1a65338386602001516040516106a993929190610c89565b60405180910390a250505050565b5f602052805f5260405f205f91509050805f015f9054906101000a900473ffffffffffffffffffffffffffffffffffffffff1690806001015490806002015f9054906101000a900467ffffffffffffffff16908060020160089054906101000a900460ff16905084565b5f5ffd5b5f819050919050565b61073781610725565b8114610741575f5ffd5b50565b5f813590506107528161072e565b92915050565b5f819050919050565b61076a81610758565b8114610774575f5ffd5b50565b5f8135905061078581610761565b92915050565b5f67ffffffffffffffff82169050919050565b6107a78161078b565b81146107b1575f5ffd5b50565b5f813590506107c28161079e565b92915050565b5f8115159050919050565b6107dc816107c8565b81146107e6575f5ffd5b50565b5f813590506107f7816107d3565b92915050565b5f5f5f5f6080858703121561081557610814610721565b5b5f61082287828801610744565b945050602061083387828801610777565b9350506040610844878288016107b4565b9250506060610855878288016107e9565b91505092959194509250565b5f73ffffffffffffffffffffffffffffffffffffffff82169050919050565b5f61088a82610861565b9050919050565b61089a81610880565b81146108a4575f5ffd5b50565b5f813590506108b581610891565b92915050565b5f5f604083850312156108d1576108d0610721565b5b5f6108de85828601610744565b92505060206108ef858286016108a7565b9150509250929050565b61090281610758565b82525050565b5f60208201905061091b5f8301846108f9565b92915050565b61092a816107c8565b82525050565b5f6020820190506109435f830184610921565b92915050565b5f6020828403121561095e5761095d610721565b5b5f61096b84828501610744565b91505092915050565b5f61097e82610861565b9050919050565b61098e81610974565b82525050565b61099d8161078b565b82525050565b5f6080820190506109b65f830187610985565b6109c360208301866108f9565b6109d06040830185610994565b6109dd6060830184610921565b95945050505050565b5f82825260208201905092915050565b7f6f6e6c792063726561746f7200000000000000000000000000000000000000005f82015250565b5f610a2a600c836109e6565b9150610a35826109f6565b602082019050919050565b5f6020820190508181035f830152610a5781610a1e565b9050919050565b610a6781610880565b82525050565b5f608082019050610a805f830187610a5e565b610a8d60208301866108f9565b610a9a6040830185610994565b610aa76060830184610921565b95945050505050565b7f696e6163746976650000000000000000000000000000000000000000000000005f82015250565b5f610ae46008836109e6565b9150610aef82610ab0565b602082019050919050565b5f6020820190508181035f830152610b1181610ad8565b9050919050565b7f6261642076616c756500000000000000000000000000000000000000000000005f82015250565b5f610b4c6009836109e6565b9150610b5782610b18565b602082019050919050565b5f6020820190508181035f830152610b7981610b40565b9050919050565b5f81905092915050565b50565b5f610b985f83610b80565b9150610ba382610b8a565b5f82019050919050565b5f610bb782610b8d565b9150819050919050565b7f706179206661696c6564000000000000000000000000000000000000000000005f82015250565b5f610bf5600a836109e6565b9150610c0082610bc1565b602082019050919050565b5f6020820190508181035f830152610c2281610be9565b9050919050565b7f4e487b71000000000000000000000000000000000000000000000000000000005f52601160045260245ffd5b5f610c6082610758565b9150610c6b83610758565b9250828201905080821115610c8357610c82610c29565b5b92915050565b5f606082019050610c9c5f830186610a5e565b610ca960208301856108f9565b610cb660408301846108f9565b94935050505056fea26469706673582212200bbac8550114d24c825ae9e29da9daa9344c78652e0236d6c2cbe8333171207864736f6c634300081e0033",
					"opcodes": "PUSH1 0x80 PUSH1 0x40 MSTORE CALLVALUE DUP1 ISZERO PUSH1 0xE JUMPI PUSH0 PUSH0 REVERT JUMPDEST POP PUSH2 0xCF4 DUP1 PUSH2 0x1C PUSH0 CODECOPY PUSH0 RETURN INVALID PUSH1 0x80 PUSH1 0x40 MSTORE PUSH1 0x4 CALLDATASIZE LT PUSH2 0x49 JUMPI PUSH0 CALLDATALOAD PUSH1 0xE0 SHR DUP1 PUSH4 0x48D6DFA EQ PUSH2 0x4D JUMPI DUP1 PUSH4 0x3DAC31ED EQ PUSH2 0x75 JUMPI DUP1 PUSH4 0x83177DB3 EQ PUSH2 0xB1 JUMPI DUP1 PUSH4 0x9C9A1061 EQ PUSH2 0xED JUMPI DUP1 PUSH4 0xF20CA12C EQ PUSH2 0x109 JUMPI JUMPDEST PUSH0 PUSH0 REVERT JUMPDEST CALLVALUE DUP1 ISZERO PUSH2 0x58 JUMPI PUSH0 PUSH0 REVERT JUMPDEST POP PUSH2 0x73 PUSH1 0x4 DUP1 CALLDATASIZE SUB DUP2 ADD SWAP1 PUSH2 0x6E SWAP2 SWAP1 PUSH2 0x7FD JUMP JUMPDEST PUSH2 0x148 JUMP JUMPDEST STOP JUMPDEST CALLVALUE DUP1 ISZERO PUSH2 0x80 JUMPI PUSH0 PUSH0 REVERT JUMPDEST POP PUSH2 0x9B PUSH1 0x4 DUP1 CALLDATASIZE SUB DUP2 ADD SWAP1 PUSH2 0x96 SWAP2 SWAP1 PUSH2 0x8BB JUMP JUMPDEST PUSH2 0x316 JUMP JUMPDEST PUSH1 0x40 MLOAD PUSH2 0xA8 SWAP2 SWAP1 PUSH2 0x908 JUMP JUMPDEST PUSH1 0x40 MLOAD DUP1 SWAP2 SUB SWAP1 RETURN JUMPDEST CALLVALUE DUP1 ISZERO PUSH2 0xBC JUMPI PUSH0 PUSH0 REVERT JUMPDEST POP PUSH2 0xD7 PUSH1 0x4 DUP1 CALLDATASIZE SUB DUP2 ADD SWAP1 PUSH2 0xD2 SWAP2 SWAP1 PUSH2 0x8BB JUMP JUMPDEST PUSH2 0x336 JUMP JUMPDEST PUSH1 0x40 MLOAD PUSH2 0xE4 SWAP2 SWAP1 PUSH2 0x930 JUMP JUMPDEST PUSH1 0x40 MLOAD DUP1 SWAP2 SUB SWAP1 RETURN JUMPDEST PUSH2 0x107 PUSH1 0x4 DUP1 CALLDATASIZE SUB DUP2 ADD SWAP1 PUSH2 0x102 SWAP2 SWAP1 PUSH2 0x949 JUMP JUMPDEST PUSH2 0x38F JUMP JUMPDEST STOP JUMPDEST CALLVALUE DUP1 ISZERO PUSH2 0x114 JUMPI PUSH0 PUSH0 REVERT JUMPDEST POP PUSH2 0x12F PUSH1 0x4 DUP1 CALLDATASIZE SUB DUP2 ADD SWAP1 PUSH2 0x12A SWAP2 SWAP1 PUSH2 0x949 JUMP JUMPDEST PUSH2 0x6B7 JUMP JUMPDEST PUSH1 0x40 MLOAD PUSH2 0x13F SWAP5 SWAP4 SWAP3 SWAP2 SWAP1 PUSH2 0x9A3 JUMP JUMPDEST PUSH1 0x40 MLOAD DUP1 SWAP2 SUB SWAP1 RETURN JUMPDEST PUSH0 PUSH0 PUSH0 DUP7 DUP2 MSTORE PUSH1 0x20 ADD SWAP1 DUP2 MSTORE PUSH1 0x20 ADD PUSH0 KECCAK256 SWAP1 POP PUSH0 PUSH20 0xFFFFFFFFFFFFFFFFFFFFFFFFFFFFFFFFFFFFFFFF AND DUP2 PUSH0 ADD PUSH0 SWAP1 SLOAD SWAP1 PUSH2 0x100 EXP SWAP1 DIV PUSH20 0xFFFFFFFFFFFFFFFFFFFFFFFFFFFFFFFFFFFFFFFF AND PUSH20 0xFFFFFFFFFFFFFFFFFFFFFFFFFFFFFFFFFFFFFFFF AND SUB PUSH2 0x1F2 JUMPI CALLER DUP2 PUSH0 ADD PUSH0 PUSH2 0x100 EXP DUP2 SLOAD DUP2 PUSH20 0xFFFFFFFFFFFFFFFFFFFFFFFFFFFFFFFFFFFFFFFF MUL NOT AND SWAP1 DUP4 PUSH20 0xFFFFFFFFFFFFFFFFFFFFFFFFFFFFFFFFFFFFFFFF AND MUL OR SWAP1 SSTORE POP JUMPDEST CALLER PUSH20 0xFFFFFFFFFFFFFFFFFFFFFFFFFFFFFFFFFFFFFFFF AND DUP2 PUSH0 ADD PUSH0 SWAP1 SLOAD SWAP1 PUSH2 0x100 EXP SWAP1 DIV PUSH20 0xFFFFFFFFFFFFFFFFFFFFFFFFFFFFFFFFFFFFFFFF AND PUSH20 0xFFFFFFFFFFFFFFFFFFFFFFFFFFFFFFFFFFFFFFFF AND EQ PUSH2 0x282 JUMPI PUSH1 0x40 MLOAD PUSH32 0x8C379A000000000000000000000000000000000000000000000000000000000 DUP2 MSTORE PUSH1 0x4 ADD PUSH2 0x279 SWAP1 PUSH2 0xA40 JUMP JUMPDEST PUSH1 0x40 MLOAD DUP1 SWAP2 SUB SWAP1 REVERT JUMPDEST DUP4 DUP2 PUSH1 0x1 ADD DUP2 SWAP1 SSTORE POP DUP3 DUP2 PUSH1 0x2 ADD PUSH0 PUSH2 0x100 EXP DUP2 SLOAD DUP2 PUSH8 0xFFFFFFFFFFFFFFFF MUL NOT AND SWAP1 DUP4 PUSH8 0xFFFFFFFFFFFFFFFF AND MUL OR SWAP1 SSTORE POP DUP2 DUP2 PUSH1 0x2 ADD PUSH1 0x8 PUSH2 0x100 EXP DUP2 SLOAD DUP2 PUSH1 0xFF MUL NOT AND SWAP1 DUP4 ISZERO ISZERO MUL OR SWAP1 SSTORE POP DUP5 PUSH32 0x464BF7DBF82EB15EE37E7B23C23C9F08151D3CE7CBA12E7FDDE260BBCF460DC2 CALLER DUP7 DUP7 DUP7 PUSH1 0x40 MLOAD PUSH2 0x307 SWAP5 SWAP4 SWAP3 SWAP2 SWAP1 PUSH2 0xA6D JUMP JUMPDEST PUSH1 0x40 MLOAD DUP1 SWAP2 SUB SWAP1 LOG2 POP POP POP POP POP JUMP JUMPDEST PUSH1 0x1 PUSH1 0x20 MSTORE DUP2 PUSH0 MSTORE PUSH1 0x40 PUSH0 KECCAK256 PUSH1 0x20 MSTORE DUP1 PUSH0 MSTORE PUSH1 0x40 PUSH0 KECCAK256 PUSH0 SWAP2 POP SWAP2 POP POP SLOAD DUP2 JUMP JUMPDEST PUSH0 PUSH1 0x1 PUSH0 DUP5 DUP2 MSTORE PUSH1 0x20 ADD SWAP1 DUP2 MSTORE PUSH1 0x20 ADD PUSH0 KECCAK256 PUSH0 DUP4 PUSH20 0xFFFFFFFFFFFFFFFFFFFFFFFFFFFFFFFFFFFFFFFF AND PUSH20 0xFFFFFFFFFFFFFFFFFFFFFFFFFFFFFFFFFFFFFFFF AND DUP2 MSTORE PUSH1 0x20 ADD SWAP1 DUP2 MSTORE PUSH1 0x20 ADD PUSH0 KECCAK256 SLOAD TIMESTAMP GT ISZERO SWAP1 POP SWAP3 SWAP2 POP POP JUMP JUMPDEST PUSH0 PUSH0 PUSH0 DUP4 DUP2 MSTORE PUSH1 0x20 ADD SWAP1 DUP2 MSTORE PUSH1 0x20 ADD PUSH0 KECCAK256 PUSH1 0x40 MLOAD DUP1 PUSH1 0x80 ADD PUSH1 0x40 MSTORE SWAP1 DUP2 PUSH0 DUP3 ADD PUSH0 SWAP1 SLOAD SWAP1 PUSH2 0x100 EXP SWAP1 DIV PUSH20 0xFFFFFFFFFFFFFFFFFFFFFFFFFFFFFFFFFFFFFFFF AND PUSH20 0xFFFFFFFFFFFFFFFFFFFFFFFFFFFFFFFFFFFFFFFF AND PUSH20 0xFFFFFFFFFFFFFFFFFFFFFFFFFFFFFFFFFFFFFFFF AND DUP2 MSTORE PUSH1 0x20 ADD PUSH1 0x1 DUP3 ADD SLOAD DUP2 MSTORE PUSH1 0x20 ADD PUSH1 0x2 DUP3 ADD PUSH0 SWAP1 SLOAD SWAP1 PUSH2 0x100 EXP SWAP1 DIV PUSH8 0xFFFFFFFFFFFFFFFF AND PUSH8 0xFFFFFFFFFFFFFFFF AND PUSH8 0xFFFFFFFFFFFFFFFF AND DUP2 MSTORE PUSH1 0x20 ADD PUSH1 0x2 DUP3 ADD PUSH1 0x8 SWAP1 SLOAD SWAP1 PUSH2 0x100 EXP SWAP1 DIV PUSH1 0xFF AND ISZERO ISZERO ISZERO ISZERO DUP2 MSTORE POP POP SWAP1 POP DUP1 PUSH1 0x60 ADD MLOAD DUP1 ISZERO PUSH2 0x497 JUMPI POP PUSH0 PUSH20 0xFFFFFFFFFFFFFFFFFFFFFFFFFFFFFFFFFFFFFFFF AND DUP2 PUSH0 ADD MLOAD PUSH20 0xFFFFFFFFFFFFFFFFFFFFFFFFFFFFFFFFFFFFFFFF AND EQ ISZERO JUMPDEST PUSH2 0x4D6 JUMPI PUSH1 0x40 MLOAD PUSH32 0x8C379A000000000000000000000000000000000000000000000000000000000 DUP2 MSTORE PUSH1 0x4 ADD PUSH2 0x4CD SWAP1 PUSH2 0xAFA JUMP JUMPDEST PUSH1 0x40 MLOAD DUP1 SWAP2 SUB SWAP1 REVERT JUMPDEST DUP1 PUSH1 0x20 ADD MLOAD CALLVALUE EQ PUSH2 0x51C JUMPI PUSH1 0x40 MLOAD PUSH32 0x8C379A000000000000000000000000000000000000000000000000000000000 DUP2 MSTORE PUSH1 0x4 ADD PUSH2 0x513 SWAP1 PUSH2 0xB62 JUMP JUMPDEST PUSH1 0x40 MLOAD DUP1 SWAP2 SUB SWAP1 REVERT JUMPDEST PUSH0 DUP2 PUSH0 ADD MLOAD PUSH20 0xFFFFFFFFFFFFFFFFFFFFFFFFFFFFFFFFFFFFFFFF AND CALLVALUE PUSH1 0x40 MLOAD PUSH2 0x544 SWAP1 PUSH2 0xBAD JUMP JUMPDEST PUSH0 PUSH1 0x40 MLOAD DUP1 DUP4 SUB DUP2 DUP6 DUP8 GAS CALL SWAP3 POP POP POP RETURNDATASIZE DUP1 PUSH0 DUP2 EQ PUSH2 0x57E JUMPI PUSH1 0x40 MLOAD SWAP2 POP PUSH1 0x1F NOT PUSH1 0x3F RETURNDATASIZE ADD AND DUP3 ADD PUSH1 0x40 MSTORE RETURNDATASIZE DUP3 MSTORE RETURNDATASIZE PUSH0 PUSH1 0x20 DUP5 ADD RETURNDATACOPY PUSH2 0x583 JUMP JUMPDEST PUSH1 0x60 SWAP2 POP JUMPDEST POP POP SWAP1 POP DUP1 PUSH2 0x5C7 JUMPI PUSH1 0x40 MLOAD PUSH32 0x8C379A000000000000000000000000000000000000000000000000000000000 DUP2 MSTORE PUSH1 0x4 ADD PUSH2 0x5BE SWAP1 PUSH2 0xC0B JUMP JUMPDEST PUSH1 0x40 MLOAD DUP1 SWAP2 SUB SWAP1 REVERT JUMPDEST PUSH0 PUSH0 DUP4 PUSH1 0x40 ADD MLOAD PUSH8 0xFFFFFFFFFFFFFFFF AND EQ PUSH2 0x5FC JUMPI DUP3 PUSH1 0x40 ADD MLOAD PUSH8 0xFFFFFFFFFFFFFFFF AND TIMESTAMP PUSH2 0x5F7 SWAP2 SWAP1 PUSH2 0xC56 JUMP JUMPDEST PUSH2 0x61E JUMP JUMPDEST PUSH32 0xFFFFFFFFFFFFFFFFFFFFFFFFFFFFFFFFFFFFFFFFFFFFFFFFFFFFFFFFFFFFFFFF JUMPDEST SWAP1 POP DUP1 PUSH1 0x1 PUSH0 DUP7 DUP2 MSTORE PUSH1 0x20 ADD SWAP1 DUP2 MSTORE PUSH1 0x20 ADD PUSH0 KECCAK256 PUSH0 CALLER PUSH20 0xFFFFFFFFFFFFFFFFFFFFFFFFFFFFFFFFFFFFFFFF AND PUSH20 0xFFFFFFFFFFFFFFFFFFFFFFFFFFFFFFFFFFFFFFFF AND DUP2 MSTORE PUSH1 0x20 ADD SWAP1 DUP2 MSTORE PUSH1 0x20 ADD PUSH0 KECCAK256 DUP2 SWAP1 SSTORE POP DUP4 PUSH32 0xA817FFC44F7179240D8B627402C0A6BEEAD7A3944C324F5A61D20545F83D1A65 CALLER DUP4 DUP7 PUSH1 0x20 ADD MLOAD PUSH1 0x40 MLOAD PUSH2 0x6A9 SWAP4 SWAP3 SWAP2 SWAP1 PUSH2 0xC89 JUMP JUMPDEST PUSH1 0x40 MLOAD DUP1 SWAP2 SUB SWAP1 LOG2 POP POP POP POP JUMP JUMPDEST PUSH0 PUSH1 0x20 MSTORE DUP1 PUSH0 MSTORE PUSH1 0x40 PUSH0 KECCAK256 PUSH0 SWAP2 POP SWAP1 POP DUP1 PUSH0 ADD PUSH0 SWAP1 SLOAD SWAP1 PUSH2 0x100 EXP SWAP1 DIV PUSH20 0xFFFFFFFFFFFFFFFFFFFFFFFFFFFFFFFFFFFFFFFF AND SWAP1 DUP1 PUSH1 0x1 ADD SLOAD SWAP1 DUP1 PUSH1 0x2 ADD PUSH0 SWAP1 SLOAD SWAP1 PUSH2 0x100 EXP SWAP1 DIV PUSH8 0xFFFFFFFFFFFFFFFF AND SWAP1 DUP1 PUSH1 0x2 ADD PUSH1 0x8 SWAP1 SLOAD SWAP1 PUSH2 0x100 EXP SWAP1 DIV PUSH1 0xFF AND SWAP1 POP DUP5 JUMP JUMPDEST PUSH0 PUSH0 REVERT JUMPDEST PUSH0 DUP2 SWAP1 POP SWAP2 SWAP1 POP JUMP JUMPDEST PUSH2 0x737 DUP2 PUSH2 0x725 JUMP JUMPDEST DUP2 EQ PUSH2 0x741 JUMPI PUSH0 PUSH0 REVERT JUMPDEST POP JUMP JUMPDEST PUSH0 DUP2 CALLDATALOAD SWAP1 POP PUSH2 0x752 DUP2 PUSH2 0x72E JUMP JUMPDEST SWAP3 SWAP2 POP POP JUMP JUMPDEST PUSH0 DUP2 SWAP1 POP SWAP2 SWAP1 POP JUMP JUMPDEST PUSH2 0x76A DUP2 PUSH2 0x758 JUMP JUMPDEST DUP2 EQ PUSH2 0x774 JUMPI PUSH0 PUSH0 REVERT JUMPDEST POP JUMP JUMPDEST PUSH0 DUP2 CALLDATALOAD SWAP1 POP PUSH2 0x785 DUP2 PUSH2 0x761 JUMP JUMPDEST SWAP3 SWAP2 POP POP JUMP JUMPDEST PUSH0 PUSH8 0xFFFFFFFFFFFFFFFF DUP3 AND SWAP1 POP SWAP2 SWAP1 POP JUMP JUMPDEST PUSH2 0x7A7 DUP2 PUSH2 0x78B JUMP JUMPDEST DUP2 EQ PUSH2 0x7B1 JUMPI PUSH0 PUSH0 REVERT JUMPDEST POP JUMP JUMPDEST PUSH0 DUP2 CALLDATALOAD SWAP1 POP PUSH2 0x7C2 DUP2 PUSH2 0x79E JUMP JUMPDEST SWAP3 SWAP2 POP POP JUMP JUMPDEST PUSH0 DUP2 ISZERO ISZERO SWAP1 POP SWAP2 SWAP1 POP JUMP JUMPDEST PUSH2 0x7DC DUP2 PUSH2 0x7C8 JUMP JUMPDEST DUP2 EQ PUSH2 0x7E6 JUMPI PUSH0 PUSH0 REVERT JUMPDEST POP JUMP JUMPDEST PUSH0 DUP2 CALLDATALOAD SWAP1 POP PUSH2 0x7F7 DUP2 PUSH2 0x7D3 JUMP JUMPDEST SWAP3 SWAP2 POP POP JUMP JUMPDEST PUSH0 PUSH0 PUSH0 PUSH0 PUSH1 0x80 DUP6 DUP8 SUB SLT ISZERO PUSH2 0x815 JUMPI PUSH2 0x814 PUSH2 0x721 JUMP JUMPDEST JUMPDEST PUSH0 PUSH2 0x822 DUP8 DUP3 DUP9 ADD PUSH2 0x744 JUMP JUMPDEST SWAP5 POP POP PUSH1 0x20 PUSH2 0x833 DUP8 DUP3 DUP9 ADD PUSH2 0x777 JUMP JUMPDEST SWAP4 POP POP PUSH1 0x40 PUSH2 0x844 DUP8 DUP3 DUP9 ADD PUSH2 0x7B4 JUMP JUMPDEST SWAP3 POP POP PUSH1 0x60 PUSH2 0x855 DUP8 DUP3 DUP9 ADD PUSH2 0x7E9 JUMP JUMPDEST SWAP2 POP POP SWAP3 SWAP6 SWAP2 SWAP5 POP SWAP3 POP JUMP JUMPDEST PUSH0 PUSH20 0xFFFFFFFFFFFFFFFFFFFFFFFFFFFFFFFFFFFFFFFF DUP3 AND SWAP1 POP SWAP2 SWAP1 POP JUMP JUMPDEST PUSH0 PUSH2 0x88A DUP3 PUSH2 0x861 JUMP JUMPDEST SWAP1 POP SWAP2 SWAP1 POP JUMP JUMPDEST PUSH2 0x89A DUP2 PUSH2 0x880 JUMP JUMPDEST DUP2 EQ PUSH2 0x8A4 JUMPI PUSH0 PUSH0 REVERT JUMPDEST POP JUMP JUMPDEST PUSH0 DUP2 CALLDATALOAD SWAP1 POP PUSH2 0x8B5 DUP2 PUSH2 0x891 JUMP JUMPDEST SWAP3 SWAP2 POP POP JUMP JUMPDEST PUSH0 PUSH0 PUSH1 0x40 DUP4 DUP6 SUB SLT ISZERO PUSH2 0x8D1 JUMPI PUSH2 0x8D0 PUSH2 0x721 JUMP JUMPDEST JUMPDEST PUSH0 PUSH2 0x8DE DUP6 DUP3 DUP7 ADD PUSH2 0x744 JUMP JUMPDEST SWAP3 POP POP PUSH1 0x20 PUSH2 0x8EF DUP6 DUP3 DUP7 ADD PUSH2 0x8A7 JUMP JUMPDEST SWAP2 POP POP SWAP3 POP SWAP3 SWAP1 POP JUMP JUMPDEST PUSH2 0x902 DUP2 PUSH2 0x758 JUMP JUMPDEST DUP3 MSTORE POP POP JUMP JUMPDEST PUSH0 PUSH1 0x20 DUP3 ADD SWAP1 POP PUSH2 0x91B PUSH0 DUP4 ADD DUP5 PUSH2 0x8F9 JUMP JUMPDEST SWAP3 SWAP2 POP POP JUMP JUMPDEST PUSH2 0x92A DUP2 PUSH2 0x7C8 JUMP JUMPDEST DUP3 MSTORE POP POP JUMP JUMPDEST PUSH0 PUSH1 0x20 DUP3 ADD SWAP1 POP PUSH2 0x943 PUSH0 DUP4 ADD DUP5 PUSH2 0x921 JUMP JUMPDEST SWAP3 SWAP2 POP POP JUMP JUMPDEST PUSH0 PUSH1 0x20 DUP3 DUP5 SUB SLT ISZERO PUSH2 0x95E JUMPI PUSH2 0x95D PUSH2 0x721 JUMP JUMPDEST JUMPDEST PUSH0 PUSH2 0x96B DUP5 DUP3 DUP6 ADD PUSH2 0x744 JUMP JUMPDEST SWAP2 POP POP SWAP3 SWAP2 POP POP JUMP JUMPDEST PUSH0 PUSH2 0x97E DUP3 PUSH2 0x861 JUMP JUMPDEST SWAP1 POP SWAP2 SWAP1 POP JUMP JUMPDEST PUSH2 0x98E DUP2 PUSH2 0x974 JUMP JUMPDEST DUP3 MSTORE POP POP JUMP JUMPDEST PUSH2 0x99D DUP2 PUSH2 0x78B JUMP JUMPDEST DUP3 MSTORE POP POP JUMP JUMPDEST PUSH0 PUSH1 0x80 DUP3 ADD SWAP1 POP PUSH2 0x9B6 PUSH0 DUP4 ADD DUP8 PUSH2 0x985 JUMP JUMPDEST PUSH2 0x9C3 PUSH1 0x20 DUP4 ADD DUP7 PUSH2 0x8F9 JUMP JUMPDEST PUSH2 0x9D0 PUSH1 0x40 DUP4 ADD DUP6 PUSH2 0x994 JUMP JUMPDEST PUSH2 0x9DD PUSH1 0x60 DUP4 ADD DUP5 PUSH2 0x921 JUMP JUMPDEST SWAP6 SWAP5 POP POP POP POP POP JUMP JUMPDEST PUSH0 DUP3 DUP3 MSTORE PUSH1 0x20 DUP3 ADD SWAP1 POP SWAP3 SWAP2 POP POP JUMP JUMPDEST PUSH32 0x6F6E6C792063726561746F720000000000000000000000000000000000000000 PUSH0 DUP3 ADD MSTORE POP JUMP JUMPDEST PUSH0 PUSH2 0xA2A PUSH1 0xC DUP4 PUSH2 0x9E6 JUMP JUMPDEST SWAP2 POP PUSH2 0xA35 DUP3 PUSH2 0x9F6 JUMP JUMPDEST PUSH1 0x20 DUP3 ADD SWAP1 POP SWAP2 SWAP1 POP JUMP JUMPDEST PUSH0 PUSH1 0x20 DUP3 ADD SWAP1 POP DUP2 DUP2 SUB PUSH0 DUP4 ADD MSTORE PUSH2 0xA57 DUP2 PUSH2 0xA1E JUMP JUMPDEST SWAP1 POP SWAP2 SWAP1 POP JUMP JUMPDEST PUSH2 0xA67 DUP2 PUSH2 0x880 JUMP JUMPDEST DUP3 MSTORE POP POP JUMP JUMPDEST PUSH0 PUSH1 0x80 DUP3 ADD SWAP1 POP PUSH2 0xA80 PUSH0 DUP4 ADD DUP8 PUSH2 0xA5E JUMP JUMPDEST PUSH2 0xA8D PUSH1 0x20 DUP4 ADD DUP7 PUSH2 0x8F9 JUMP JUMPDEST PUSH2 0xA9A PUSH1 0x40 DUP4 ADD DUP6 PUSH2 0x994 JUMP JUMPDEST PUSH2 0xAA7 PUSH1 0x60 DUP4 ADD DUP5 PUSH2 0x921 JUMP JUMPDEST SWAP6 SWAP5 POP POP POP POP POP JUMP JUMPDEST PUSH32 0x696E616374697665000000000000000000000000000000000000000000000000 PUSH0 DUP3 ADD MSTORE POP JUMP JUMPDEST PUSH0 PUSH2 0xAE4 PUSH1 0x8 DUP4 PUSH2 0x9E6 JUMP JUMPDEST SWAP2 POP PUSH2 0xAEF DUP3 PUSH2 0xAB0 JUMP JUMPDEST PUSH1 0x20 DUP3 ADD SWAP1 POP SWAP2 SWAP1 POP JUMP JUMPDEST PUSH0 PUSH1 0x20 DUP3 ADD SWAP1 POP DUP2 DUP2 SUB PUSH0 DUP4 ADD MSTORE PUSH2 0xB11 DUP2 PUSH2 0xAD8 JUMP JUMPDEST SWAP1 POP SWAP2 SWAP1 POP JUMP JUMPDEST PUSH32 0x6261642076616C75650000000000000000000000000000000000000000000000 PUSH0 DUP3 ADD MSTORE POP JUMP JUMPDEST PUSH0 PUSH2 0xB4C PUSH1 0x9 DUP4 PUSH2 0x9E6 JUMP JUMPDEST SWAP2 POP PUSH2 0xB57 DUP3 PUSH2 0xB18 JUMP JUMPDEST PUSH1 0x20 DUP3 ADD SWAP1 POP SWAP2 SWAP1 POP JUMP JUMPDEST PUSH0 PUSH1 0x20 DUP3 ADD SWAP1 POP DUP2 DUP2 SUB PUSH0 DUP4 ADD MSTORE PUSH2 0xB79 DUP2 PUSH2 0xB40 JUMP JUMPDEST SWAP1 POP SWAP2 SWAP1 POP JUMP JUMPDEST PUSH0 DUP2 SWAP1 POP SWAP3 SWAP2 POP POP JUMP JUMPDEST POP JUMP JUMPDEST PUSH0 PUSH2 0xB98 PUSH0 DUP4 PUSH2 0xB80 JUMP JUMPDEST SWAP2 POP PUSH2 0xBA3 DUP3 PUSH2 0xB8A JUMP JUMPDEST PUSH0 DUP3 ADD SWAP1 POP SWAP2 SWAP1 POP JUMP JUMPDEST PUSH0 PUSH2 0xBB7 DUP3 PUSH2 0xB8D JUMP JUMPDEST SWAP2 POP DUP2 SWAP1 POP SWAP2 SWAP1 POP JUMP JUMPDEST PUSH32 0x706179206661696C656400000000000000000000000000000000000000000000 PUSH0 DUP3 ADD MSTORE POP JUMP JUMPDEST PUSH0 PUSH2 0xBF5 PUSH1 0xA DUP4 PUSH2 0x9E6 JUMP JUMPDEST SWAP2 POP PUSH2 0xC00 DUP3 PUSH2 0xBC1 JUMP JUMPDEST PUSH1 0x20 DUP3 ADD SWAP1 POP SWAP2 SWAP1 POP JUMP JUMPDEST PUSH0 PUSH1 0x20 DUP3 ADD SWAP1 POP DUP2 DUP2 SUB PUSH0 DUP4 ADD MSTORE PUSH2 0xC22 DUP2 PUSH2 0xBE9 JUMP JUMPDEST SWAP1 POP SWAP2 SWAP1 POP JUMP JUMPDEST PUSH32 0x4E487B7100000000000000000000000000000000000000000000000000000000 PUSH0 MSTORE PUSH1 0x11 PUSH1 0x4 MSTORE PUSH1 0x24 PUSH0 REVERT JUMPDEST PUSH0 PUSH2 0xC60 DUP3 PUSH2 0x758 JUMP JUMPDEST SWAP2 POP PUSH2 0xC6B DUP4 PUSH2 0x758 JUMP JUMPDEST SWAP3 POP DUP3 DUP3 ADD SWAP1 POP DUP1 DUP3 GT ISZERO PUSH2 0xC83 JUMPI PUSH2 0xC82 PUSH2 0xC29 JUMP JUMPDEST JUMPDEST SWAP3 SWAP2 POP POP JUMP JUMPDEST PUSH0 PUSH1 0x60 DUP3 ADD SWAP1 POP PUSH2 0xC9C PUSH0 DUP4 ADD DUP7 PUSH2 0xA5E JUMP JUMPDEST PUSH2 0xCA9 PUSH1 0x20 DUP4 ADD DUP6 PUSH2 0x8F9 JUMP JUMPDEST PUSH2 0xCB6 PUSH1 0x40 DUP4 ADD DUP5 PUSH2 0x8F9 JUMP JUMPDEST SWAP5 SWAP4 POP POP POP POP JUMP INVALID LOG2 PUSH5 0x6970667358 0x22 SLT KECCAK256 SIGNEXTEND 0xBA 0xC8 SSTORE ADD EQ 0xD2 0x4C DUP3 GAS 0xE9 0xE2 SWAP14 0xA9 0xDA 0xA9 CALLVALUE 0x4C PUSH25 0x652E0236D6C2CBE8333171207864736F6C634300081E003300 "
				},
				"gasEstimates": {
					"creation": {
						"codeDepositCost": "663200",
						"executionCost": "694",
						"totalCost": "663894"
					},
					"external": {
						"accessUntil(bytes32,address)": "3033",
						"buy(bytes32)": "infinite",
						"contents(bytes32)": "9681",
						"hasAccess(bytes32,address)": "3111",
						"upsertContent(bytes32,uint256,uint64,bool)": "infinite"
					}
				},
				"methodIdentifiers": {
					"accessUntil(bytes32,address)": "3dac31ed",
					"buy(bytes32)": "9c9a1061",
					"contents(bytes32)": "f20ca12c",
					"hasAccess(bytes32,address)": "83177db3",
					"upsertContent(bytes32,uint256,uint64,bool)": "048d6dfa"
				}
			},
			"storageLayout": {
				"storage": [
					{
						"astId": 15,
						"contract": "contracts/PayPerViewNative.sol:PayPerViewNative",
						"label": "contents",
						"offset": 0,
						"slot": "0",
						"type": "t_mapping(t_bytes32,t_struct(Content)10_storage)"
					},
					{
						"astId": 21,
						"contract": "contracts/PayPerViewNative.sol:PayPerViewNative",
						"label": "accessUntil",
						"offset": 0,
						"slot": "1",
						"type": "t_mapping(t_bytes32,t_mapping(t_address,t_uint256))"
					}
				],
				"types": {
					"t_address": {
						"encoding": "inplace",
						"label": "address",
						"numberOfBytes": "20"
					},
					"t_address_payable": {
						"encoding": "inplace",
						"label": "address payable",
						"numberOfBytes": "20"
					},
					"t_bool": {
						"encoding": "inplace",
						"label": "bool",
						"numberOfBytes": "1"
					},
					"t_bytes32": {
						"encoding": "inplace",
						"label": "bytes32",
						"numberOfBytes": "32"
					},
					"t_mapping(t_address,t_uint256)": {
						"encoding": "mapping",
						"key": "t_address",
						"label": "mapping(address => uint256)",
						"numberOfBytes": "32",
						"value": "t_uint256"
					},
					"t_mapping(t_bytes32,t_mapping(t_address,t_uint256))": {
						"encoding": "mapping",
						"key": "t_bytes32",
						"label": "mapping(bytes32 => mapping(address => uint256))",
						"numberOfBytes": "32",
						"value": "t_mapping(t_address,t_uint256)"
					},
					"t_mapping(t_bytes32,t_struct(Content)10_storage)": {
						"encoding": "mapping",
						"key": "t_bytes32",
						"label": "mapping(bytes32 => struct PayPerViewNative.Content)",
						"numberOfBytes": "32",
						"value": "t_struct(Content)10_storage"
					},
					"t_struct(Content)10_storage": {
						"encoding": "inplace",
						"label": "struct PayPerViewNative.Content",
						"members": [
							{
								"astId": 3,
								"contract": "contracts/PayPerViewNative.sol:PayPerViewNative",
								"label": "creator",
								"offset": 0,
								"slot": "0",
								"type": "t_address_payable"
							},
							{
								"astId": 5,
								"contract": "contracts/PayPerViewNative.sol:PayPerViewNative",
								"label": "priceWei",
								"offset": 0,
								"slot": "1",
								"type": "t_uint256"
							},
							{
								"astId": 7,
								"contract": "contracts/PayPerViewNative.sol:PayPerViewNative",
								"label": "accessWindow",
								"offset": 0,
								"slot": "2",
								"type": "t_uint64"
							},
							{
								"astId": 9,
								"contract": "contracts/PayPerViewNative.sol:PayPerViewNative",
								"label": "active",
								"offset": 8,
								"slot": "2",
								"type": "t_bool"
							}
						],
						"numberOfBytes": "96"
					},
					"t_uint256": {
						"encoding": "inplace",
						"label": "uint256",
						"numberOfBytes": "32"
					},
					"t_uint64": {
						"encoding": "inplace",
						"label": "uint64",
						"numberOfBytes": "8"
					}
				}
			},
			"userdoc": {
				"kind": "user",
				"methods": {},
				"version": 1
			}
		}
	}
}