{
	"contracts/CreatorStreamNative.sol": {
		"CreatorStreamNative": {
			"abi": [
				{
					"anonymous": false,
					"inputs": [
						{
							"indexed": true,
							"internalType": "uint256",
							"name": "id",
							"type": "uint256"
						},
						{
							"indexed": false,
							"internalType": "address",
							"name": "sponsor",
							"type": "address"
						},
						{
							"indexed": false,
							"internalType": "address",
							"name": "creator",
							"type": "address"
						},
						{
							"indexed": false,
							"internalType": "uint128",
							"name": "start",
							"type": "uint128"
						},
						{
							"indexed": false,
							"internalType": "uint128",
							"name": "end",
							"type": "uint128"
						},
						{
							"indexed": false,
							"internalType": "uint256",
							"name": "total",
							"type": "uint256"
						}
					],
					"name": "StreamCreated",
					"type": "event"
				},
				{
					"anonymous": false,
					"inputs": [
						{
							"indexed": true,
							"internalType": "uint256",
							"name": "id",
							"type": "uint256"
						},
						{
							"indexed": false,
							"internalType": "address",
							"name": "creator",
							"type": "address"
						},
						{
							"indexed": false,
							"internalType": "uint256",
							"name": "amount",
							"type": "uint256"
						}
					],
					"name": "Withdraw",
					"type": "event"
				},
				{
					"inputs": [
						{
							"internalType": "address payable",
							"name": "creator",
							"type": "address"
						},
						{
							"internalType": "uint128",
							"name": "start",
							"type": "uint128"
						},
						{
							"internalType": "uint128",
							"name": "end",
							"type": "uint128"
						}
					],
					"name": "createStream",
					"outputs": [
						{
							"internalType": "uint256",
							"name": "id",
							"type": "uint256"
						}
					],
					"stateMutability": "payable",
					"type": "function"
				},
				{
					"inputs": [],
					"name": "nextId",
					"outputs": [
						{
							"internalType": "uint256",
							"name": "",
							"type": "uint256"
						}
					],
					"stateMutability": "view",
					"type": "function"
				},
				{
					"inputs": [
						{
							"internalType": "uint256",
							"name": "",
							"type": "uint256"
						}
					],
					"name": "streams",
					"outputs": [
						{
							"internalType": "address",
							"name": "sponsor",
							"type": "address"
						},
						{
							"internalType": "address payable",
							"name": "creator",
							"type": "address"
						},
						{
							"internalType": "uint128",
							"name": "start",
							"type": "uint128"
						},
						{
							"internalType": "uint128",
							"name": "end",
							"type": "uint128"
						},
						{
							"internalType": "uint256",
							"name": "total",
							"type": "uint256"
						},
						{
							"internalType": "uint256",
							"name": "withdrawn",
							"type": "uint256"
						}
					],
					"stateMutability": "view",
					"type": "function"
				},
				{
					"inputs": [
						{
							"internalType": "uint256",
							"name": "id",
							"type": "uint256"
						},
						{
							"internalType": "uint256",
							"name": "amount",
							"type": "uint256"
						}
					],
					"name": "withdraw",
					"outputs": [],
					"stateMutability": "nonpayable",
					"type": "function"
				},
				{
					"inputs": [
						{
							"internalType": "uint256",
							"name": "id",
							"type": "uint256"
						}
					],
					"name": "withdrawable",
					"outputs": [
						{
							"internalType": "uint256",
							"name": "",
							"type": "uint256"
						}
					],
					"stateMutability": "view",
					"type": "function"
				}
			],
			"devdoc": {
				"kind": "dev",
				"methods": {},
				"version": 1
			},
			"evm": {
				"assembly": "    /* \"contracts/CreatorStreamNative.sol\":356:2373  contract CreatorStreamNative is ReentrancyGuard3 {... */\n  mstore(0x40, 0x80)\n    /* \"contracts/CreatorStreamNative.sol\":134:135  1 */\n  0x01\n    /* \"contracts/CreatorStreamNative.sol\":186:224  uint256 private _status = _NOT_ENTERED */\n  0x00\n  sstore\n    /* \"contracts/CreatorStreamNative.sol\":356:2373  contract CreatorStreamNative is ReentrancyGuard3 {... */\n  callvalue\n  dup1\n  iszero\n  tag_1\n  jumpi\n  revert(0x00, 0x00)\ntag_1:\n  pop\n  dataSize(sub_0)\n  dup1\n  dataOffset(sub_0)\n  0x00\n  codecopy\n  0x00\n  return\nstop\n\nsub_0: assembly {\n        /* \"contracts/CreatorStreamNative.sol\":356:2373  contract CreatorStreamNative is ReentrancyGuard3 {... */\n      mstore(0x40, 0x80)\n      jumpi(tag_1, lt(calldatasize, 0x04))\n      shr(0xe0, calldataload(0x00))\n      dup1\n      0x441a3e70\n      eq\n      tag_2\n      jumpi\n      dup1\n      0x61b8ce8c\n      eq\n      tag_3\n      jumpi\n      dup1\n      0x64d60d91\n      eq\n      tag_4\n      jumpi\n      dup1\n      0xf11988e0\n      eq\n      tag_5\n      jumpi\n      dup1\n      0xfde16b2f\n      eq\n      tag_6\n      jumpi\n    tag_1:\n      revert(0x00, 0x00)\n        /* \"contracts/CreatorStreamNative.sol\":1911:2370  function withdraw(uint256 id, uint256 amount) external nonReentrant {... */\n    tag_2:\n      callvalue\n      dup1\n      iszero\n      tag_7\n      jumpi\n      revert(0x00, 0x00)\n    tag_7:\n      pop\n      tag_8\n      0x04\n      dup1\n      calldatasize\n      sub\n      dup2\n      add\n      swap1\n      tag_9\n      swap2\n      swap1\n      tag_10\n      jump\t// in\n    tag_9:\n      tag_11\n      jump\t// in\n    tag_8:\n      stop\n        /* \"contracts/CreatorStreamNative.sol\":600:621  uint256 public nextId */\n    tag_3:\n      callvalue\n      dup1\n      iszero\n      tag_12\n      jumpi\n      revert(0x00, 0x00)\n    tag_12:\n      pop\n      tag_13\n      tag_14\n      jump\t// in\n    tag_13:\n      mload(0x40)\n      tag_15\n      swap2\n      swap1\n      tag_16\n      jump\t// in\n    tag_15:\n      mload(0x40)\n      dup1\n      swap2\n      sub\n      swap1\n      return\n        /* \"contracts/CreatorStreamNative.sol\":628:669  mapping(uint256 => Stream) public streams */\n    tag_4:\n      callvalue\n      dup1\n      iszero\n      tag_17\n      jumpi\n      revert(0x00, 0x00)\n    tag_17:\n      pop\n      tag_18\n      0x04\n      dup1\n      calldatasize\n      sub\n      dup2\n      add\n      swap1\n      tag_19\n      swap2\n      swap1\n      tag_20\n      jump\t// in\n    tag_19:\n      tag_21\n      jump\t// in\n    tag_18:\n      mload(0x40)\n      tag_22\n      swap7\n      swap6\n      swap5\n      swap4\n      swap3\n      swap2\n      swap1\n      tag_23\n      jump\t// in\n    tag_22:\n      mload(0x40)\n      dup1\n      swap2\n      sub\n      swap1\n      return\n        /* \"contracts/CreatorStreamNative.sol\":1468:1903  function withdrawable(uint256 id) public view returns (uint256) {... */\n    tag_5:\n      callvalue\n      dup1\n      iszero\n      tag_24\n      jumpi\n      revert(0x00, 0x00)\n    tag_24:\n      pop\n      tag_25\n      0x04\n      dup1\n      calldatasize\n      sub\n      dup2\n      add\n      swap1\n      tag_26\n      swap2\n      swap1\n      tag_20\n      jump\t// in\n    tag_26:\n      tag_27\n      jump\t// in\n    tag_25:\n      mload(0x40)\n      tag_28\n      swap2\n      swap1\n      tag_16\n      jump\t// in\n    tag_28:\n      mload(0x40)\n      dup1\n      swap2\n      sub\n      swap1\n      return\n        /* \"contracts/CreatorStreamNative.sol\":877:1460  function createStream(address payable creator, uint128 start, uint128 end) external payable returns (uint256 id) {... */\n    tag_6:\n      tag_29\n      0x04\n      dup1\n      calldatasize\n      sub\n      dup2\n      add\n      swap1\n      tag_30\n      swap2\n      swap1\n      tag_31\n      jump\t// in\n    tag_30:\n      tag_32\n      jump\t// in\n    tag_29:\n      mload(0x40)\n      tag_33\n      swap2\n      swap1\n      tag_16\n      jump\t// in\n    tag_33:\n      mload(0x40)\n      dup1\n      swap2\n      sub\n      swap1\n      return\n        /* \"contracts/CreatorStreamNative.sol\":1911:2370  function withdraw(uint256 id, uint256 amount) external nonReentrant {... */\n    tag_11:\n        /* \"contracts/CreatorStreamNative.sol\":178:179  2 */\n      0x02\n        /* \"contracts/CreatorStreamNative.sol\":265:272  _status */\n      sload(0x00)\n        /* \"contracts/CreatorStreamNative.sol\":265:284  _status != _ENTERED */\n      sub\n        /* \"contracts/CreatorStreamNative.sol\":257:299  require(_status != _ENTERED, \"reentrancy\") */\n      tag_35\n      jumpi\n      mload(0x40)\n      0x08c379a000000000000000000000000000000000000000000000000000000000\n      dup2\n      mstore\n      0x04\n      add\n      tag_36\n      swap1\n      tag_37\n      jump\t// in\n    tag_36:\n      mload(0x40)\n      dup1\n      swap2\n      sub\n      swap1\n      revert\n    tag_35:\n        /* \"contracts/CreatorStreamNative.sol\":178:179  2 */\n      0x02\n        /* \"contracts/CreatorStreamNative.sol\":301:308  _status */\n      0x00\n        /* \"contracts/CreatorStreamNative.sol\":301:319  _status = _ENTERED */\n      dup2\n      swap1\n      sstore\n      pop\n        /* \"contracts/CreatorStreamNative.sol\":1990:2006  Stream storage s */\n      0x00\n        /* \"contracts/CreatorStreamNative.sol\":2009:2016  streams */\n      0x02\n        /* \"contracts/CreatorStreamNative.sol\":2009:2020  streams[id] */\n      0x00\n        /* \"contracts/CreatorStreamNative.sol\":2017:2019  id */\n      dup5\n        /* \"contracts/CreatorStreamNative.sol\":2009:2020  streams[id] */\n      dup2\n      mstore\n      0x20\n      add\n      swap1\n      dup2\n      mstore\n      0x20\n      add\n      0x00\n      keccak256\n        /* \"contracts/CreatorStreamNative.sol\":1990:2020  Stream storage s = streams[id] */\n      swap1\n      pop\n        /* \"contracts/CreatorStreamNative.sol\":2053:2054  s */\n      dup1\n        /* \"contracts/CreatorStreamNative.sol\":2053:2062  s.creator */\n      0x01\n      add\n      0x00\n      swap1\n      sload\n      swap1\n      0x0100\n      exp\n      swap1\n      div\n      0xffffffffffffffffffffffffffffffffffffffff\n      and\n        /* \"contracts/CreatorStreamNative.sol\":2039:2062  msg.sender == s.creator */\n      0xffffffffffffffffffffffffffffffffffffffff\n      and\n        /* \"contracts/CreatorStreamNative.sol\":2039:2049  msg.sender */\n      caller\n        /* \"contracts/CreatorStreamNative.sol\":2039:2062  msg.sender == s.creator */\n      0xffffffffffffffffffffffffffffffffffffffff\n      and\n      eq\n        /* \"contracts/CreatorStreamNative.sol\":2031:2078  require(msg.sender == s.creator, \"not creator\") */\n      tag_39\n      jumpi\n      mload(0x40)\n      0x08c379a000000000000000000000000000000000000000000000000000000000\n      dup2\n      mstore\n      0x04\n      add\n      tag_40\n      swap1\n      tag_41\n      jump\t// in\n    tag_40:\n      mload(0x40)\n      dup1\n      swap2\n      sub\n      swap1\n      revert\n    tag_39:\n        /* \"contracts/CreatorStreamNative.sol\":2089:2102  uint256 avail */\n      0x00\n        /* \"contracts/CreatorStreamNative.sol\":2105:2121  withdrawable(id) */\n      tag_42\n        /* \"contracts/CreatorStreamNative.sol\":2118:2120  id */\n      dup5\n        /* \"contracts/CreatorStreamNative.sol\":2105:2117  withdrawable */\n      tag_27\n        /* \"contracts/CreatorStreamNative.sol\":2105:2121  withdrawable(id) */\n      jump\t// in\n    tag_42:\n        /* \"contracts/CreatorStreamNative.sol\":2089:2121  uint256 avail = withdrawable(id) */\n      swap1\n      pop\n        /* \"contracts/CreatorStreamNative.sol\":2149:2150  0 */\n      0x00\n        /* \"contracts/CreatorStreamNative.sol\":2140:2146  amount */\n      dup4\n        /* \"contracts/CreatorStreamNative.sol\":2140:2150  amount > 0 */\n      gt\n        /* \"contracts/CreatorStreamNative.sol\":2140:2169  amount > 0 && amount <= avail */\n      dup1\n      iszero\n      tag_43\n      jumpi\n      pop\n        /* \"contracts/CreatorStreamNative.sol\":2164:2169  avail */\n      dup1\n        /* \"contracts/CreatorStreamNative.sol\":2154:2160  amount */\n      dup4\n        /* \"contracts/CreatorStreamNative.sol\":2154:2169  amount <= avail */\n      gt\n      iszero\n        /* \"contracts/CreatorStreamNative.sol\":2140:2169  amount > 0 && amount <= avail */\n    tag_43:\n        /* \"contracts/CreatorStreamNative.sol\":2132:2184  require(amount > 0 && amount <= avail, \"bad amount\") */\n      tag_44\n      jumpi\n      mload(0x40)\n      0x08c379a000000000000000000000000000000000000000000000000000000000\n      dup2\n      mstore\n      0x04\n      add\n      tag_45\n      swap1\n      tag_46\n      jump\t// in\n    tag_45:\n      mload(0x40)\n      dup1\n      swap2\n      sub\n      swap1\n      revert\n    tag_44:\n        /* \"contracts/CreatorStreamNative.sol\":2210:2216  amount */\n      dup3\n        /* \"contracts/CreatorStreamNative.sol\":2195:2196  s */\n      dup3\n        /* \"contracts/CreatorStreamNative.sol\":2195:2206  s.withdrawn */\n      0x04\n      add\n      0x00\n        /* \"contracts/CreatorStreamNative.sol\":2195:2216  s.withdrawn += amount */\n      dup3\n      dup3\n      sload\n      tag_47\n      swap2\n      swap1\n      tag_48\n      jump\t// in\n    tag_47:\n      swap3\n      pop\n      pop\n      dup2\n      swap1\n      sstore\n      pop\n        /* \"contracts/CreatorStreamNative.sol\":2228:2235  bool ok */\n      0x00\n        /* \"contracts/CreatorStreamNative.sol\":2241:2242  s */\n      dup3\n        /* \"contracts/CreatorStreamNative.sol\":2241:2250  s.creator */\n      0x01\n      add\n      0x00\n      swap1\n      sload\n      swap1\n      0x0100\n      exp\n      swap1\n      div\n      0xffffffffffffffffffffffffffffffffffffffff\n      and\n        /* \"contracts/CreatorStreamNative.sol\":2241:2255  s.creator.call */\n      0xffffffffffffffffffffffffffffffffffffffff\n      and\n        /* \"contracts/CreatorStreamNative.sol\":2263:2269  amount */\n      dup5\n        /* \"contracts/CreatorStreamNative.sol\":2241:2274  s.creator.call{value: amount}(\"\") */\n      mload(0x40)\n      tag_49\n      swap1\n      tag_50\n      jump\t// in\n    tag_49:\n      0x00\n      mload(0x40)\n      dup1\n      dup4\n      sub\n      dup2\n      dup6\n      dup8\n      gas\n      call\n      swap3\n      pop\n      pop\n      pop\n      returndatasize\n      dup1\n      0x00\n      dup2\n      eq\n      tag_53\n      jumpi\n      mload(0x40)\n      swap2\n      pop\n      and(add(returndatasize, 0x3f), not(0x1f))\n      dup3\n      add\n      0x40\n      mstore\n      returndatasize\n      dup3\n      mstore\n      returndatasize\n      0x00\n      0x20\n      dup5\n      add\n      returndatacopy\n      jump(tag_52)\n    tag_53:\n      0x60\n      swap2\n      pop\n    tag_52:\n      pop\n        /* \"contracts/CreatorStreamNative.sol\":2227:2274  (bool ok, ) = s.creator.call{value: amount}(\"\") */\n      pop\n      swap1\n      pop\n        /* \"contracts/CreatorStreamNative.sol\":2293:2295  ok */\n      dup1\n        /* \"contracts/CreatorStreamNative.sol\":2285:2315  require(ok, \"transfer failed\") */\n      tag_54\n      jumpi\n      mload(0x40)\n      0x08c379a000000000000000000000000000000000000000000000000000000000\n      dup2\n      mstore\n      0x04\n      add\n      tag_55\n      swap1\n      tag_56\n      jump\t// in\n    tag_55:\n      mload(0x40)\n      dup1\n      swap2\n      sub\n      swap1\n      revert\n    tag_54:\n        /* \"contracts/CreatorStreamNative.sol\":2340:2342  id */\n      dup5\n        /* \"contracts/CreatorStreamNative.sol\":2331:2362  Withdraw(id, s.creator, amount) */\n      0x9da6493a92039daf47d1f2d7a782299c5994c6323eb1e972f69c432089ec52bf\n        /* \"contracts/CreatorStreamNative.sol\":2344:2345  s */\n      dup5\n        /* \"contracts/CreatorStreamNative.sol\":2344:2353  s.creator */\n      0x01\n      add\n      0x00\n      swap1\n      sload\n      swap1\n      0x0100\n      exp\n      swap1\n      div\n      0xffffffffffffffffffffffffffffffffffffffff\n      and\n        /* \"contracts/CreatorStreamNative.sol\":2355:2361  amount */\n      dup7\n        /* \"contracts/CreatorStreamNative.sol\":2331:2362  Withdraw(id, s.creator, amount) */\n      mload(0x40)\n      tag_57\n      swap3\n      swap2\n      swap1\n      tag_58\n      jump\t// in\n    tag_57:\n      mload(0x40)\n      dup1\n      swap2\n      sub\n      swap1\n      log2\n        /* \"contracts/CreatorStreamNative.sol\":1979:2370  {... */\n      pop\n      pop\n      pop\n        /* \"contracts/CreatorStreamNative.sol\":134:135  1 */\n      0x01\n        /* \"contracts/CreatorStreamNative.sol\":324:331  _status */\n      0x00\n        /* \"contracts/CreatorStreamNative.sol\":324:346  _status = _NOT_ENTERED */\n      dup2\n      swap1\n      sstore\n      pop\n        /* \"contracts/CreatorStreamNative.sol\":1911:2370  function withdraw(uint256 id, uint256 amount) external nonReentrant {... */\n      pop\n      pop\n      jump\t// out\n        /* \"contracts/CreatorStreamNative.sol\":600:621  uint256 public nextId */\n    tag_14:\n      sload(0x01)\n      dup2\n      jump\t// out\n        /* \"contracts/CreatorStreamNative.sol\":628:669  mapping(uint256 => Stream) public streams */\n    tag_21:\n      mstore(0x20, 0x02)\n      dup1\n      0x00\n      mstore\n      keccak256(0x00, 0x40)\n      0x00\n      swap2\n      pop\n      swap1\n      pop\n      dup1\n      0x00\n      add\n      0x00\n      swap1\n      sload\n      swap1\n      0x0100\n      exp\n      swap1\n      div\n      0xffffffffffffffffffffffffffffffffffffffff\n      and\n      swap1\n      dup1\n      0x01\n      add\n      0x00\n      swap1\n      sload\n      swap1\n      0x0100\n      exp\n      swap1\n      div\n      0xffffffffffffffffffffffffffffffffffffffff\n      and\n      swap1\n      dup1\n      0x02\n      add\n      0x00\n      swap1\n      sload\n      swap1\n      0x0100\n      exp\n      swap1\n      div\n      0xffffffffffffffffffffffffffffffff\n      and\n      swap1\n      dup1\n      0x02\n      add\n      0x10\n      swap1\n      sload\n      swap1\n      0x0100\n      exp\n      swap1\n      div\n      0xffffffffffffffffffffffffffffffff\n      and\n      swap1\n      dup1\n      0x03\n      add\n      sload\n      swap1\n      dup1\n      0x04\n      add\n      sload\n      swap1\n      pop\n      dup7\n      jump\t// out\n        /* \"contracts/CreatorStreamNative.sol\":1468:1903  function withdrawable(uint256 id) public view returns (uint256) {... */\n    tag_27:\n        /* \"contracts/CreatorStreamNative.sol\":1523:1530  uint256 */\n      0x00\n        /* \"contracts/CreatorStreamNative.sol\":1543:1558  Stream memory s */\n      0x00\n        /* \"contracts/CreatorStreamNative.sol\":1561:1568  streams */\n      0x02\n        /* \"contracts/CreatorStreamNative.sol\":1561:1572  streams[id] */\n      0x00\n        /* \"contracts/CreatorStreamNative.sol\":1569:1571  id */\n      dup5\n        /* \"contracts/CreatorStreamNative.sol\":1561:1572  streams[id] */\n      dup2\n      mstore\n      0x20\n      add\n      swap1\n      dup2\n      mstore\n      0x20\n      add\n      0x00\n      keccak256\n        /* \"contracts/CreatorStreamNative.sol\":1543:1572  Stream memory s = streams[id] */\n      mload(0x40)\n      dup1\n      0xc0\n      add\n      0x40\n      mstore\n      swap1\n      dup2\n      0x00\n      dup3\n      add\n      0x00\n      swap1\n      sload\n      swap1\n      0x0100\n      exp\n      swap1\n      div\n      0xffffffffffffffffffffffffffffffffffffffff\n      and\n      0xffffffffffffffffffffffffffffffffffffffff\n      and\n      0xffffffffffffffffffffffffffffffffffffffff\n      and\n      dup2\n      mstore\n      0x20\n      add\n      0x01\n      dup3\n      add\n      0x00\n      swap1\n      sload\n      swap1\n      0x0100\n      exp\n      swap1\n      div\n      0xffffffffffffffffffffffffffffffffffffffff\n      and\n      0xffffffffffffffffffffffffffffffffffffffff\n      and\n      0xffffffffffffffffffffffffffffffffffffffff\n      and\n      dup2\n      mstore\n      0x20\n      add\n      0x02\n      dup3\n      add\n      0x00\n      swap1\n      sload\n      swap1\n      0x0100\n      exp\n      swap1\n      div\n      0xffffffffffffffffffffffffffffffff\n      and\n      0xffffffffffffffffffffffffffffffff\n      and\n      0xffffffffffffffffffffffffffffffff\n      and\n      dup2\n      mstore\n      0x20\n      add\n      0x02\n      dup3\n      add\n      0x10\n      swap1\n      sload\n      swap1\n      0x0100\n      exp\n      swap1\n      div\n      0xffffffffffffffffffffffffffffffff\n      and\n      0xffffffffffffffffffffffffffffffff\n      and\n      0xffffffffffffffffffffffffffffffff\n      and\n      dup2\n      mstore\n      0x20\n      add\n      0x03\n      dup3\n      add\n      sload\n      dup2\n      mstore\n      0x20\n      add\n      0x04\n      dup3\n      add\n      sload\n      dup2\n      mstore\n      pop\n      pop\n      swap1\n      pop\n        /* \"contracts/CreatorStreamNative.sol\":1606:1607  s */\n      dup1\n        /* \"contracts/CreatorStreamNative.sol\":1606:1613  s.start */\n      0x40\n      add\n      mload\n        /* \"contracts/CreatorStreamNative.sol\":1587:1613  block.timestamp <= s.start */\n      0xffffffffffffffffffffffffffffffff\n      and\n        /* \"contracts/CreatorStreamNative.sol\":1587:1602  block.timestamp */\n      timestamp\n        /* \"contracts/CreatorStreamNative.sol\":1587:1613  block.timestamp <= s.start */\n      gt\n        /* \"contracts/CreatorStreamNative.sol\":1583:1623  if (block.timestamp <= s.start) return 0 */\n      tag_60\n      jumpi\n        /* \"contracts/CreatorStreamNative.sol\":1622:1623  0 */\n      0x00\n        /* \"contracts/CreatorStreamNative.sol\":1615:1623  return 0 */\n      swap2\n      pop\n      pop\n      jump(tag_59)\n        /* \"contracts/CreatorStreamNative.sol\":1583:1623  if (block.timestamp <= s.start) return 0 */\n    tag_60:\n        /* \"contracts/CreatorStreamNative.sol\":1634:1649  uint256 elapsed */\n      0x00\n        /* \"contracts/CreatorStreamNative.sol\":1670:1671  s */\n      dup2\n        /* \"contracts/CreatorStreamNative.sol\":1670:1675  s.end */\n      0x60\n      add\n      mload\n        /* \"contracts/CreatorStreamNative.sol\":1652:1675  block.timestamp < s.end */\n      0xffffffffffffffffffffffffffffffff\n      and\n        /* \"contracts/CreatorStreamNative.sol\":1652:1667  block.timestamp */\n      timestamp\n        /* \"contracts/CreatorStreamNative.sol\":1652:1675  block.timestamp < s.end */\n      lt\n        /* \"contracts/CreatorStreamNative.sol\":1652:1725  block.timestamp < s.end ? (block.timestamp - s.start) : (s.end - s.start) */\n      tag_61\n      jumpi\n        /* \"contracts/CreatorStreamNative.sol\":1717:1718  s */\n      dup2\n        /* \"contracts/CreatorStreamNative.sol\":1717:1724  s.start */\n      0x40\n      add\n      mload\n        /* \"contracts/CreatorStreamNative.sol\":1709:1710  s */\n      dup3\n        /* \"contracts/CreatorStreamNative.sol\":1709:1714  s.end */\n      0x60\n      add\n      mload\n        /* \"contracts/CreatorStreamNative.sol\":1709:1724  s.end - s.start */\n      tag_62\n      swap2\n      swap1\n      tag_63\n      jump\t// in\n    tag_62:\n        /* \"contracts/CreatorStreamNative.sol\":1652:1725  block.timestamp < s.end ? (block.timestamp - s.start) : (s.end - s.start) */\n      0xffffffffffffffffffffffffffffffff\n      and\n      jump(tag_64)\n    tag_61:\n        /* \"contracts/CreatorStreamNative.sol\":1697:1698  s */\n      dup2\n        /* \"contracts/CreatorStreamNative.sol\":1697:1704  s.start */\n      0x40\n      add\n      mload\n        /* \"contracts/CreatorStreamNative.sol\":1679:1704  block.timestamp - s.start */\n      0xffffffffffffffffffffffffffffffff\n      and\n        /* \"contracts/CreatorStreamNative.sol\":1679:1694  block.timestamp */\n      timestamp\n        /* \"contracts/CreatorStreamNative.sol\":1679:1704  block.timestamp - s.start */\n      tag_65\n      swap2\n      swap1\n      tag_66\n      jump\t// in\n    tag_65:\n        /* \"contracts/CreatorStreamNative.sol\":1652:1725  block.timestamp < s.end ? (block.timestamp - s.start) : (s.end - s.start) */\n    tag_64:\n        /* \"contracts/CreatorStreamNative.sol\":1634:1725  uint256 elapsed = block.timestamp < s.end ? (block.timestamp - s.start) : (s.end - s.start) */\n      swap1\n      pop\n        /* \"contracts/CreatorStreamNative.sol\":1736:1752  uint256 duration */\n      0x00\n        /* \"contracts/CreatorStreamNative.sol\":1763:1764  s */\n      dup3\n        /* \"contracts/CreatorStreamNative.sol\":1763:1770  s.start */\n      0x40\n      add\n      mload\n        /* \"contracts/CreatorStreamNative.sol\":1755:1756  s */\n      dup4\n        /* \"contracts/CreatorStreamNative.sol\":1755:1760  s.end */\n      0x60\n      add\n      mload\n        /* \"contracts/CreatorStreamNative.sol\":1755:1770  s.end - s.start */\n      tag_67\n      swap2\n      swap1\n      tag_63\n      jump\t// in\n    tag_67:\n        /* \"contracts/CreatorStreamNative.sol\":1736:1770  uint256 duration = s.end - s.start */\n      0xffffffffffffffffffffffffffffffff\n      and\n      swap1\n      pop\n        /* \"contracts/CreatorStreamNative.sol\":1781:1795  uint256 earned */\n      0x00\n        /* \"contracts/CreatorStreamNative.sol\":1820:1828  duration */\n      dup2\n        /* \"contracts/CreatorStreamNative.sol\":1809:1816  elapsed */\n      dup4\n        /* \"contracts/CreatorStreamNative.sol\":1799:1800  s */\n      dup6\n        /* \"contracts/CreatorStreamNative.sol\":1799:1806  s.total */\n      0x80\n      add\n      mload\n        /* \"contracts/CreatorStreamNative.sol\":1799:1816  s.total * elapsed */\n      tag_68\n      swap2\n      swap1\n      tag_69\n      jump\t// in\n    tag_68:\n        /* \"contracts/CreatorStreamNative.sol\":1798:1828  (s.total * elapsed) / duration */\n      tag_70\n      swap2\n      swap1\n      tag_71\n      jump\t// in\n    tag_70:\n        /* \"contracts/CreatorStreamNative.sol\":1781:1828  uint256 earned = (s.total * elapsed) / duration */\n      swap1\n      pop\n        /* \"contracts/CreatorStreamNative.sol\":1855:1856  s */\n      dup4\n        /* \"contracts/CreatorStreamNative.sol\":1855:1866  s.withdrawn */\n      0xa0\n      add\n      mload\n        /* \"contracts/CreatorStreamNative.sol\":1846:1852  earned */\n      dup2\n        /* \"contracts/CreatorStreamNative.sol\":1846:1866  earned > s.withdrawn */\n      gt\n        /* \"contracts/CreatorStreamNative.sol\":1846:1895  earned > s.withdrawn ? (earned - s.withdrawn) : 0 */\n      tag_72\n      jumpi\n        /* \"contracts/CreatorStreamNative.sol\":1894:1895  0 */\n      0x00\n        /* \"contracts/CreatorStreamNative.sol\":1846:1895  earned > s.withdrawn ? (earned - s.withdrawn) : 0 */\n      jump(tag_73)\n    tag_72:\n        /* \"contracts/CreatorStreamNative.sol\":1879:1880  s */\n      dup4\n        /* \"contracts/CreatorStreamNative.sol\":1879:1890  s.withdrawn */\n      0xa0\n      add\n      mload\n        /* \"contracts/CreatorStreamNative.sol\":1870:1876  earned */\n      dup2\n        /* \"contracts/CreatorStreamNative.sol\":1870:1890  earned - s.withdrawn */\n      tag_74\n      swap2\n      swap1\n      tag_66\n      jump\t// in\n    tag_74:\n        /* \"contracts/CreatorStreamNative.sol\":1846:1895  earned > s.withdrawn ? (earned - s.withdrawn) : 0 */\n    tag_73:\n        /* \"contracts/CreatorStreamNative.sol\":1839:1895  return earned > s.withdrawn ? (earned - s.withdrawn) : 0 */\n      swap5\n      pop\n      pop\n      pop\n      pop\n      pop\n        /* \"contracts/CreatorStreamNative.sol\":1468:1903  function withdrawable(uint256 id) public view returns (uint256) {... */\n    tag_59:\n      swap2\n      swap1\n      pop\n      jump\t// out\n        /* \"contracts/CreatorStreamNative.sol\":877:1460  function createStream(address payable creator, uint128 start, uint128 end) external payable returns (uint256 id) {... */\n    tag_32:\n        /* \"contracts/CreatorStreamNative.sol\":978:988  uint256 id */\n      0x00\n        /* \"contracts/CreatorStreamNative.sol\":1028:1029  0 */\n      0x00\n        /* \"contracts/CreatorStreamNative.sol\":1009:1030  creator != address(0) */\n      0xffffffffffffffffffffffffffffffffffffffff\n      and\n        /* \"contracts/CreatorStreamNative.sol\":1009:1016  creator */\n      dup5\n        /* \"contracts/CreatorStreamNative.sol\":1009:1030  creator != address(0) */\n      0xffffffffffffffffffffffffffffffffffffffff\n      and\n      sub\n        /* \"contracts/CreatorStreamNative.sol\":1001:1044  require(creator != address(0), \"creator=0\") */\n      tag_76\n      jumpi\n      mload(0x40)\n      0x08c379a000000000000000000000000000000000000000000000000000000000\n      dup2\n      mstore\n      0x04\n      add\n      tag_77\n      swap1\n      tag_78\n      jump\t// in\n    tag_77:\n      mload(0x40)\n      dup1\n      swap2\n      sub\n      swap1\n      revert\n    tag_76:\n        /* \"contracts/CreatorStreamNative.sol\":1069:1074  start */\n      dup3\n        /* \"contracts/CreatorStreamNative.sol\":1063:1074  end > start */\n      0xffffffffffffffffffffffffffffffff\n      and\n        /* \"contracts/CreatorStreamNative.sol\":1063:1066  end */\n      dup3\n        /* \"contracts/CreatorStreamNative.sol\":1063:1074  end > start */\n      0xffffffffffffffffffffffffffffffff\n      and\n      gt\n        /* \"contracts/CreatorStreamNative.sol\":1055:1087  require(end > start, \"bad time\") */\n      tag_79\n      jumpi\n      mload(0x40)\n      0x08c379a000000000000000000000000000000000000000000000000000000000\n      dup2\n      mstore\n      0x04\n      add\n      tag_80\n      swap1\n      tag_81\n      jump\t// in\n    tag_80:\n      mload(0x40)\n      dup1\n      swap2\n      sub\n      swap1\n      revert\n    tag_79:\n        /* \"contracts/CreatorStreamNative.sol\":1118:1119  0 */\n      0x00\n        /* \"contracts/CreatorStreamNative.sol\":1106:1115  msg.value */\n      callvalue\n        /* \"contracts/CreatorStreamNative.sol\":1106:1119  msg.value > 0 */\n      gt\n        /* \"contracts/CreatorStreamNative.sol\":1098:1132  require(msg.value > 0, \"no funds\") */\n      tag_82\n      jumpi\n      mload(0x40)\n      0x08c379a000000000000000000000000000000000000000000000000000000000\n      dup2\n      mstore\n      0x04\n      add\n      tag_83\n      swap1\n      tag_84\n      jump\t// in\n    tag_83:\n      mload(0x40)\n      dup1\n      swap2\n      sub\n      swap1\n      revert\n    tag_82:\n        /* \"contracts/CreatorStreamNative.sol\":1152:1158  nextId */\n      0x01\n      0x00\n        /* \"contracts/CreatorStreamNative.sol\":1150:1158  ++nextId */\n      dup2\n      sload\n      tag_85\n      swap1\n      tag_86\n      jump\t// in\n    tag_85:\n      swap2\n      swap1\n      pop\n      dup2\n      swap1\n      sstore\n        /* \"contracts/CreatorStreamNative.sol\":1145:1158  id = ++nextId */\n      swap1\n      pop\n        /* \"contracts/CreatorStreamNative.sol\":1183:1375  Stream({... */\n      mload(0x40)\n      dup1\n      0xc0\n      add\n      0x40\n      mstore\n      dup1\n        /* \"contracts/CreatorStreamNative.sol\":1214:1224  msg.sender */\n      caller\n        /* \"contracts/CreatorStreamNative.sol\":1183:1375  Stream({... */\n      0xffffffffffffffffffffffffffffffffffffffff\n      and\n      dup2\n      mstore\n      0x20\n      add\n        /* \"contracts/CreatorStreamNative.sol\":1248:1255  creator */\n      dup6\n        /* \"contracts/CreatorStreamNative.sol\":1183:1375  Stream({... */\n      0xffffffffffffffffffffffffffffffffffffffff\n      and\n      dup2\n      mstore\n      0x20\n      add\n        /* \"contracts/CreatorStreamNative.sol\":1277:1282  start */\n      dup5\n        /* \"contracts/CreatorStreamNative.sol\":1183:1375  Stream({... */\n      0xffffffffffffffffffffffffffffffff\n      and\n      dup2\n      mstore\n      0x20\n      add\n        /* \"contracts/CreatorStreamNative.sol\":1302:1305  end */\n      dup4\n        /* \"contracts/CreatorStreamNative.sol\":1183:1375  Stream({... */\n      0xffffffffffffffffffffffffffffffff\n      and\n      dup2\n      mstore\n      0x20\n      add\n        /* \"contracts/CreatorStreamNative.sol\":1327:1336  msg.value */\n      callvalue\n        /* \"contracts/CreatorStreamNative.sol\":1183:1375  Stream({... */\n      dup2\n      mstore\n      0x20\n      add\n        /* \"contracts/CreatorStreamNative.sol\":1362:1363  0 */\n      0x00\n        /* \"contracts/CreatorStreamNative.sol\":1183:1375  Stream({... */\n      dup2\n      mstore\n      pop\n        /* \"contracts/CreatorStreamNative.sol\":1169:1176  streams */\n      0x02\n        /* \"contracts/CreatorStreamNative.sol\":1169:1180  streams[id] */\n      0x00\n        /* \"contracts/CreatorStreamNative.sol\":1177:1179  id */\n      dup4\n        /* \"contracts/CreatorStreamNative.sol\":1169:1180  streams[id] */\n      dup2\n      mstore\n      0x20\n      add\n      swap1\n      dup2\n      mstore\n      0x20\n      add\n      0x00\n      keccak256\n        /* \"contracts/CreatorStreamNative.sol\":1169:1375  streams[id] = Stream({... */\n      0x00\n      dup3\n      add\n      mload\n      dup2\n      0x00\n      add\n      exp(0x0100, 0x00)\n      dup2\n      sload\n      dup2\n      0xffffffffffffffffffffffffffffffffffffffff\n      mul\n      not\n      and\n      swap1\n      dup4\n      0xffffffffffffffffffffffffffffffffffffffff\n      and\n      mul\n      or\n      swap1\n      sstore\n      pop\n      0x20\n      dup3\n      add\n      mload\n      dup2\n      0x01\n      add\n      exp(0x0100, 0x00)\n      dup2\n      sload\n      dup2\n      0xffffffffffffffffffffffffffffffffffffffff\n      mul\n      not\n      and\n      swap1\n      dup4\n      0xffffffffffffffffffffffffffffffffffffffff\n      and\n      mul\n      or\n      swap1\n      sstore\n      pop\n      0x40\n      dup3\n      add\n      mload\n      dup2\n      0x02\n      add\n      exp(0x0100, 0x00)\n      dup2\n      sload\n      dup2\n      0xffffffffffffffffffffffffffffffff\n      mul\n      not\n      and\n      swap1\n      dup4\n      0xffffffffffffffffffffffffffffffff\n      and\n      mul\n      or\n      swap1\n      sstore\n      pop\n      0x60\n      dup3\n      add\n      mload\n      dup2\n      0x02\n      add\n      exp(0x0100, 0x10)\n      dup2\n      sload\n      dup2\n      0xffffffffffffffffffffffffffffffff\n      mul\n      not\n      and\n      swap1\n      dup4\n      0xffffffffffffffffffffffffffffffff\n      and\n      mul\n      or\n      swap1\n      sstore\n      pop\n      0x80\n      dup3\n      add\n      mload\n      dup2\n      0x03\n      add\n      sstore\n      0xa0\n      dup3\n      add\n      mload\n      dup2\n      0x04\n      add\n      sstore\n      swap1\n      pop\n      pop\n        /* \"contracts/CreatorStreamNative.sol\":1405:1407  id */\n      dup1\n        /* \"contracts/CreatorStreamNative.sol\":1391:1452  StreamCreated(id, msg.sender, creator, start, end, msg.value) */\n      0x71d3012b7068e587cf9b6e9763d04542a7ed008fbf45d784e1543d0daf57063e\n        /* \"contracts/CreatorStreamNative.sol\":1409:1419  msg.sender */\n      caller\n        /* \"contracts/CreatorStreamNative.sol\":1421:1428  creator */\n      dup7\n        /* \"contracts/CreatorStreamNative.sol\":1430:1435  start */\n      dup7\n        /* \"contracts/CreatorStreamNative.sol\":1437:1440  end */\n      dup7\n        /* \"contracts/CreatorStreamNative.sol\":1442:1451  msg.value */\n      callvalue\n        /* \"contracts/CreatorStreamNative.sol\":1391:1452  StreamCreated(id, msg.sender, creator, start, end, msg.value) */\n      mload(0x40)\n      tag_87\n      swap6\n      swap5\n      swap4\n      swap3\n      swap2\n      swap1\n      tag_88\n      jump\t// in\n    tag_87:\n      mload(0x40)\n      dup1\n      swap2\n      sub\n      swap1\n      log2\n        /* \"contracts/CreatorStreamNative.sol\":877:1460  function createStream(address payable creator, uint128 start, uint128 end) external payable returns (uint256 id) {... */\n      swap4\n      swap3\n      pop\n      pop\n      pop\n      jump\t// out\n        /* \"#utility.yul\":88:205   */\n    tag_90:\n        /* \"#utility.yul\":197:198   */\n      0x00\n        /* \"#utility.yul\":194:195   */\n      0x00\n        /* \"#utility.yul\":187:199   */\n      revert\n        /* \"#utility.yul\":334:411   */\n    tag_92:\n        /* \"#utility.yul\":371:378   */\n      0x00\n        /* \"#utility.yul\":400:405   */\n      dup2\n        /* \"#utility.yul\":389:405   */\n      swap1\n      pop\n        /* \"#utility.yul\":334:411   */\n      swap2\n      swap1\n      pop\n      jump\t// out\n        /* \"#utility.yul\":417:539   */\n    tag_93:\n        /* \"#utility.yul\":490:514   */\n      tag_138\n        /* \"#utility.yul\":508:513   */\n      dup2\n        /* \"#utility.yul\":490:514   */\n      tag_92\n      jump\t// in\n    tag_138:\n        /* \"#utility.yul\":483:488   */\n      dup2\n        /* \"#utility.yul\":480:515   */\n      eq\n        /* \"#utility.yul\":470:533   */\n      tag_139\n      jumpi\n        /* \"#utility.yul\":529:530   */\n      0x00\n        /* \"#utility.yul\":526:527   */\n      0x00\n        /* \"#utility.yul\":519:531   */\n      revert\n        /* \"#utility.yul\":470:533   */\n    tag_139:\n        /* \"#utility.yul\":417:539   */\n      pop\n      jump\t// out\n        /* \"#utility.yul\":545:684   */\n    tag_94:\n        /* \"#utility.yul\":591:596   */\n      0x00\n        /* \"#utility.yul\":629:635   */\n      dup2\n        /* \"#utility.yul\":616:636   */\n      calldataload\n        /* \"#utility.yul\":607:636   */\n      swap1\n      pop\n        /* \"#utility.yul\":645:678   */\n      tag_141\n        /* \"#utility.yul\":672:677   */\n      dup2\n        /* \"#utility.yul\":645:678   */\n      tag_93\n      jump\t// in\n    tag_141:\n        /* \"#utility.yul\":545:684   */\n      swap3\n      swap2\n      pop\n      pop\n      jump\t// out\n        /* \"#utility.yul\":690:1164   */\n    tag_10:\n        /* \"#utility.yul\":758:764   */\n      0x00\n        /* \"#utility.yul\":766:772   */\n      0x00\n        /* \"#utility.yul\":815:817   */\n      0x40\n        /* \"#utility.yul\":803:812   */\n      dup4\n        /* \"#utility.yul\":794:801   */\n      dup6\n        /* \"#utility.yul\":790:813   */\n      sub\n        /* \"#utility.yul\":786:818   */\n      slt\n        /* \"#utility.yul\":783:902   */\n      iszero\n      tag_143\n      jumpi\n        /* \"#utility.yul\":821:900   */\n      tag_144\n      tag_90\n      jump\t// in\n    tag_144:\n        /* \"#utility.yul\":783:902   */\n    tag_143:\n        /* \"#utility.yul\":941:942   */\n      0x00\n        /* \"#utility.yul\":966:1019   */\n      tag_145\n        /* \"#utility.yul\":1011:1018   */\n      dup6\n        /* \"#utility.yul\":1002:1008   */\n      dup3\n        /* \"#utility.yul\":991:1000   */\n      dup7\n        /* \"#utility.yul\":987:1009   */\n      add\n        /* \"#utility.yul\":966:1019   */\n      tag_94\n      jump\t// in\n    tag_145:\n        /* \"#utility.yul\":956:1019   */\n      swap3\n      pop\n        /* \"#utility.yul\":912:1029   */\n      pop\n        /* \"#utility.yul\":1068:1070   */\n      0x20\n        /* \"#utility.yul\":1094:1147   */\n      tag_146\n        /* \"#utility.yul\":1139:1146   */\n      dup6\n        /* \"#utility.yul\":1130:1136   */\n      dup3\n        /* \"#utility.yul\":1119:1128   */\n      dup7\n        /* \"#utility.yul\":1115:1137   */\n      add\n        /* \"#utility.yul\":1094:1147   */\n      tag_94\n      jump\t// in\n    tag_146:\n        /* \"#utility.yul\":1084:1147   */\n      swap2\n      pop\n        /* \"#utility.yul\":1039:1157   */\n      pop\n        /* \"#utility.yul\":690:1164   */\n      swap3\n      pop\n      swap3\n      swap1\n      pop\n      jump\t// out\n        /* \"#utility.yul\":1170:1288   */\n    tag_95:\n        /* \"#utility.yul\":1257:1281   */\n      tag_148\n        /* \"#utility.yul\":1275:1280   */\n      dup2\n        /* \"#utility.yul\":1257:1281   */\n      tag_92\n      jump\t// in\n    tag_148:\n        /* \"#utility.yul\":1252:1255   */\n      dup3\n        /* \"#utility.yul\":1245:1282   */\n      mstore\n        /* \"#utility.yul\":1170:1288   */\n      pop\n      pop\n      jump\t// out\n        /* \"#utility.yul\":1294:1516   */\n    tag_16:\n        /* \"#utility.yul\":1387:1391   */\n      0x00\n        /* \"#utility.yul\":1425:1427   */\n      0x20\n        /* \"#utility.yul\":1414:1423   */\n      dup3\n        /* \"#utility.yul\":1410:1428   */\n      add\n        /* \"#utility.yul\":1402:1428   */\n      swap1\n      pop\n        /* \"#utility.yul\":1438:1509   */\n      tag_150\n        /* \"#utility.yul\":1506:1507   */\n      0x00\n        /* \"#utility.yul\":1495:1504   */\n      dup4\n        /* \"#utility.yul\":1491:1508   */\n      add\n        /* \"#utility.yul\":1482:1488   */\n      dup5\n        /* \"#utility.yul\":1438:1509   */\n      tag_95\n      jump\t// in\n    tag_150:\n        /* \"#utility.yul\":1294:1516   */\n      swap3\n      swap2\n      pop\n      pop\n      jump\t// out\n        /* \"#utility.yul\":1522:1851   */\n    tag_20:\n        /* \"#utility.yul\":1581:1587   */\n      0x00\n        /* \"#utility.yul\":1630:1632   */\n      0x20\n        /* \"#utility.yul\":1618:1627   */\n      dup3\n        /* \"#utility.yul\":1609:1616   */\n      dup5\n        /* \"#utility.yul\":1605:1628   */\n      sub\n        /* \"#utility.yul\":1601:1633   */\n      slt\n        /* \"#utility.yul\":1598:1717   */\n      iszero\n      tag_152\n      jumpi\n        /* \"#utility.yul\":1636:1715   */\n      tag_153\n      tag_90\n      jump\t// in\n    tag_153:\n        /* \"#utility.yul\":1598:1717   */\n    tag_152:\n        /* \"#utility.yul\":1756:1757   */\n      0x00\n        /* \"#utility.yul\":1781:1834   */\n      tag_154\n        /* \"#utility.yul\":1826:1833   */\n      dup5\n        /* \"#utility.yul\":1817:1823   */\n      dup3\n        /* \"#utility.yul\":1806:1815   */\n      dup6\n        /* \"#utility.yul\":1802:1824   */\n      add\n        /* \"#utility.yul\":1781:1834   */\n      tag_94\n      jump\t// in\n    tag_154:\n        /* \"#utility.yul\":1771:1834   */\n      swap2\n      pop\n        /* \"#utility.yul\":1727:1844   */\n      pop\n        /* \"#utility.yul\":1522:1851   */\n      swap3\n      swap2\n      pop\n      pop\n      jump\t// out\n        /* \"#utility.yul\":1857:1983   */\n    tag_96:\n        /* \"#utility.yul\":1894:1901   */\n      0x00\n        /* \"#utility.yul\":1934:1976   */\n      0xffffffffffffffffffffffffffffffffffffffff\n        /* \"#utility.yul\":1927:1932   */\n      dup3\n        /* \"#utility.yul\":1923:1977   */\n      and\n        /* \"#utility.yul\":1912:1977   */\n      swap1\n      pop\n        /* \"#utility.yul\":1857:1983   */\n      swap2\n      swap1\n      pop\n      jump\t// out\n        /* \"#utility.yul\":1989:2085   */\n    tag_97:\n        /* \"#utility.yul\":2026:2033   */\n      0x00\n        /* \"#utility.yul\":2055:2079   */\n      tag_157\n        /* \"#utility.yul\":2073:2078   */\n      dup3\n        /* \"#utility.yul\":2055:2079   */\n      tag_96\n      jump\t// in\n    tag_157:\n        /* \"#utility.yul\":2044:2079   */\n      swap1\n      pop\n        /* \"#utility.yul\":1989:2085   */\n      swap2\n      swap1\n      pop\n      jump\t// out\n        /* \"#utility.yul\":2091:2209   */\n    tag_98:\n        /* \"#utility.yul\":2178:2202   */\n      tag_159\n        /* \"#utility.yul\":2196:2201   */\n      dup2\n        /* \"#utility.yul\":2178:2202   */\n      tag_97\n      jump\t// in\n    tag_159:\n        /* \"#utility.yul\":2173:2176   */\n      dup3\n        /* \"#utility.yul\":2166:2203   */\n      mstore\n        /* \"#utility.yul\":2091:2209   */\n      pop\n      pop\n      jump\t// out\n        /* \"#utility.yul\":2215:2319   */\n    tag_99:\n        /* \"#utility.yul\":2260:2267   */\n      0x00\n        /* \"#utility.yul\":2289:2313   */\n      tag_161\n        /* \"#utility.yul\":2307:2312   */\n      dup3\n        /* \"#utility.yul\":2289:2313   */\n      tag_96\n      jump\t// in\n    tag_161:\n        /* \"#utility.yul\":2278:2313   */\n      swap1\n      pop\n        /* \"#utility.yul\":2215:2319   */\n      swap2\n      swap1\n      pop\n      jump\t// out\n        /* \"#utility.yul\":2325:2467   */\n    tag_100:\n        /* \"#utility.yul\":2428:2460   */\n      tag_163\n        /* \"#utility.yul\":2454:2459   */\n      dup2\n        /* \"#utility.yul\":2428:2460   */\n      tag_99\n      jump\t// in\n    tag_163:\n        /* \"#utility.yul\":2423:2426   */\n      dup3\n        /* \"#utility.yul\":2416:2461   */\n      mstore\n        /* \"#utility.yul\":2325:2467   */\n      pop\n      pop\n      jump\t// out\n        /* \"#utility.yul\":2473:2591   */\n    tag_101:\n        /* \"#utility.yul\":2510:2517   */\n      0x00\n        /* \"#utility.yul\":2550:2584   */\n      0xffffffffffffffffffffffffffffffff\n        /* \"#utility.yul\":2543:2548   */\n      dup3\n        /* \"#utility.yul\":2539:2585   */\n      and\n        /* \"#utility.yul\":2528:2585   */\n      swap1\n      pop\n        /* \"#utility.yul\":2473:2591   */\n      swap2\n      swap1\n      pop\n      jump\t// out\n        /* \"#utility.yul\":2597:2715   */\n    tag_102:\n        /* \"#utility.yul\":2684:2708   */\n      tag_166\n        /* \"#utility.yul\":2702:2707   */\n      dup2\n        /* \"#utility.yul\":2684:2708   */\n      tag_101\n      jump\t// in\n    tag_166:\n        /* \"#utility.yul\":2679:2682   */\n      dup3\n        /* \"#utility.yul\":2672:2709   */\n      mstore\n        /* \"#utility.yul\":2597:2715   */\n      pop\n      pop\n      jump\t// out\n        /* \"#utility.yul\":2721:3528   */\n    tag_23:\n        /* \"#utility.yul\":2970:2974   */\n      0x00\n        /* \"#utility.yul\":3008:3011   */\n      0xc0\n        /* \"#utility.yul\":2997:3006   */\n      dup3\n        /* \"#utility.yul\":2993:3012   */\n      add\n        /* \"#utility.yul\":2985:3012   */\n      swap1\n      pop\n        /* \"#utility.yul\":3022:3093   */\n      tag_168\n        /* \"#utility.yul\":3090:3091   */\n      0x00\n        /* \"#utility.yul\":3079:3088   */\n      dup4\n        /* \"#utility.yul\":3075:3092   */\n      add\n        /* \"#utility.yul\":3066:3072   */\n      dup10\n        /* \"#utility.yul\":3022:3093   */\n      tag_98\n      jump\t// in\n    tag_168:\n        /* \"#utility.yul\":3103:3191   */\n      tag_169\n        /* \"#utility.yul\":3187:3189   */\n      0x20\n        /* \"#utility.yul\":3176:3185   */\n      dup4\n        /* \"#utility.yul\":3172:3190   */\n      add\n        /* \"#utility.yul\":3163:3169   */\n      dup9\n        /* \"#utility.yul\":3103:3191   */\n      tag_100\n      jump\t// in\n    tag_169:\n        /* \"#utility.yul\":3201:3273   */\n      tag_170\n        /* \"#utility.yul\":3269:3271   */\n      0x40\n        /* \"#utility.yul\":3258:3267   */\n      dup4\n        /* \"#utility.yul\":3254:3272   */\n      add\n        /* \"#utility.yul\":3245:3251   */\n      dup8\n        /* \"#utility.yul\":3201:3273   */\n      tag_102\n      jump\t// in\n    tag_170:\n        /* \"#utility.yul\":3283:3355   */\n      tag_171\n        /* \"#utility.yul\":3351:3353   */\n      0x60\n        /* \"#utility.yul\":3340:3349   */\n      dup4\n        /* \"#utility.yul\":3336:3354   */\n      add\n        /* \"#utility.yul\":3327:3333   */\n      dup7\n        /* \"#utility.yul\":3283:3355   */\n      tag_102\n      jump\t// in\n    tag_171:\n        /* \"#utility.yul\":3365:3438   */\n      tag_172\n        /* \"#utility.yul\":3433:3436   */\n      0x80\n        /* \"#utility.yul\":3422:3431   */\n      dup4\n        /* \"#utility.yul\":3418:3437   */\n      add\n        /* \"#utility.yul\":3409:3415   */\n      dup6\n        /* \"#utility.yul\":3365:3438   */\n      tag_95\n      jump\t// in\n    tag_172:\n        /* \"#utility.yul\":3448:3521   */\n      tag_173\n        /* \"#utility.yul\":3516:3519   */\n      0xa0\n        /* \"#utility.yul\":3505:3514   */\n      dup4\n        /* \"#utility.yul\":3501:3520   */\n      add\n        /* \"#utility.yul\":3492:3498   */\n      dup5\n        /* \"#utility.yul\":3448:3521   */\n      tag_95\n      jump\t// in\n    tag_173:\n        /* \"#utility.yul\":2721:3528   */\n      swap8\n      swap7\n      pop\n      pop\n      pop\n      pop\n      pop\n      pop\n      pop\n      jump\t// out\n        /* \"#utility.yul\":3534:3672   */\n    tag_103:\n        /* \"#utility.yul\":3615:3647   */\n      tag_175\n        /* \"#utility.yul\":3641:3646   */\n      dup2\n        /* \"#utility.yul\":3615:3647   */\n      tag_99\n      jump\t// in\n    tag_175:\n        /* \"#utility.yul\":3608:3613   */\n      dup2\n        /* \"#utility.yul\":3605:3648   */\n      eq\n        /* \"#utility.yul\":3595:3666   */\n      tag_176\n      jumpi\n        /* \"#utility.yul\":3662:3663   */\n      0x00\n        /* \"#utility.yul\":3659:3660   */\n      0x00\n        /* \"#utility.yul\":3652:3664   */\n      revert\n        /* \"#utility.yul\":3595:3666   */\n    tag_176:\n        /* \"#utility.yul\":3534:3672   */\n      pop\n      jump\t// out\n        /* \"#utility.yul\":3678:3833   */\n    tag_104:\n        /* \"#utility.yul\":3732:3737   */\n      0x00\n        /* \"#utility.yul\":3770:3776   */\n      dup2\n        /* \"#utility.yul\":3757:3777   */\n      calldataload\n        /* \"#utility.yul\":3748:3777   */\n      swap1\n      pop\n        /* \"#utility.yul\":3786:3827   */\n      tag_178\n        /* \"#utility.yul\":3821:3826   */\n      dup2\n        /* \"#utility.yul\":3786:3827   */\n      tag_103\n      jump\t// in\n    tag_178:\n        /* \"#utility.yul\":3678:3833   */\n      swap3\n      swap2\n      pop\n      pop\n      jump\t// out\n        /* \"#utility.yul\":3839:3961   */\n    tag_105:\n        /* \"#utility.yul\":3912:3936   */\n      tag_180\n        /* \"#utility.yul\":3930:3935   */\n      dup2\n        /* \"#utility.yul\":3912:3936   */\n      tag_101\n      jump\t// in\n    tag_180:\n        /* \"#utility.yul\":3905:3910   */\n      dup2\n        /* \"#utility.yul\":3902:3937   */\n      eq\n        /* \"#utility.yul\":3892:3955   */\n      tag_181\n      jumpi\n        /* \"#utility.yul\":3951:3952   */\n      0x00\n        /* \"#utility.yul\":3948:3949   */\n      0x00\n        /* \"#utility.yul\":3941:3953   */\n      revert\n        /* \"#utility.yul\":3892:3955   */\n    tag_181:\n        /* \"#utility.yul\":3839:3961   */\n      pop\n      jump\t// out\n        /* \"#utility.yul\":3967:4106   */\n    tag_106:\n        /* \"#utility.yul\":4013:4018   */\n      0x00\n        /* \"#utility.yul\":4051:4057   */\n      dup2\n        /* \"#utility.yul\":4038:4058   */\n      calldataload\n        /* \"#utility.yul\":4029:4058   */\n      swap1\n      pop\n        /* \"#utility.yul\":4067:4100   */\n      tag_183\n        /* \"#utility.yul\":4094:4099   */\n      dup2\n        /* \"#utility.yul\":4067:4100   */\n      tag_105\n      jump\t// in\n    tag_183:\n        /* \"#utility.yul\":3967:4106   */\n      swap3\n      swap2\n      pop\n      pop\n      jump\t// out\n        /* \"#utility.yul\":4112:4747   */\n    tag_31:\n        /* \"#utility.yul\":4197:4203   */\n      0x00\n        /* \"#utility.yul\":4205:4211   */\n      0x00\n        /* \"#utility.yul\":4213:4219   */\n      0x00\n        /* \"#utility.yul\":4262:4264   */\n      0x60\n        /* \"#utility.yul\":4250:4259   */\n      dup5\n        /* \"#utility.yul\":4241:4248   */\n      dup7\n        /* \"#utility.yul\":4237:4260   */\n      sub\n        /* \"#utility.yul\":4233:4265   */\n      slt\n        /* \"#utility.yul\":4230:4349   */\n      iszero\n      tag_185\n      jumpi\n        /* \"#utility.yul\":4268:4347   */\n      tag_186\n      tag_90\n      jump\t// in\n    tag_186:\n        /* \"#utility.yul\":4230:4349   */\n    tag_185:\n        /* \"#utility.yul\":4388:4389   */\n      0x00\n        /* \"#utility.yul\":4413:4474   */\n      tag_187\n        /* \"#utility.yul\":4466:4473   */\n      dup7\n        /* \"#utility.yul\":4457:4463   */\n      dup3\n        /* \"#utility.yul\":4446:4455   */\n      dup8\n        /* \"#utility.yul\":4442:4464   */\n      add\n        /* \"#utility.yul\":4413:4474   */\n      tag_104\n      jump\t// in\n    tag_187:\n        /* \"#utility.yul\":4403:4474   */\n      swap4\n      pop\n        /* \"#utility.yul\":4359:4484   */\n      pop\n        /* \"#utility.yul\":4523:4525   */\n      0x20\n        /* \"#utility.yul\":4549:4602   */\n      tag_188\n        /* \"#utility.yul\":4594:4601   */\n      dup7\n        /* \"#utility.yul\":4585:4591   */\n      dup3\n        /* \"#utility.yul\":4574:4583   */\n      dup8\n        /* \"#utility.yul\":4570:4592   */\n      add\n        /* \"#utility.yul\":4549:4602   */\n      tag_106\n      jump\t// in\n    tag_188:\n        /* \"#utility.yul\":4539:4602   */\n      swap3\n      pop\n        /* \"#utility.yul\":4494:4612   */\n      pop\n        /* \"#utility.yul\":4651:4653   */\n      0x40\n        /* \"#utility.yul\":4677:4730   */\n      tag_189\n        /* \"#utility.yul\":4722:4729   */\n      dup7\n        /* \"#utility.yul\":4713:4719   */\n      dup3\n        /* \"#utility.yul\":4702:4711   */\n      dup8\n        /* \"#utility.yul\":4698:4720   */\n      add\n        /* \"#utility.yul\":4677:4730   */\n      tag_106\n      jump\t// in\n    tag_189:\n        /* \"#utility.yul\":4667:4730   */\n      swap2\n      pop\n        /* \"#utility.yul\":4622:4740   */\n      pop\n        /* \"#utility.yul\":4112:4747   */\n      swap3\n      pop\n      swap3\n      pop\n      swap3\n      jump\t// out\n        /* \"#utility.yul\":4753:4922   */\n    tag_107:\n        /* \"#utility.yul\":4837:4848   */\n      0x00\n        /* \"#utility.yul\":4871:4877   */\n      dup3\n        /* \"#utility.yul\":4866:4869   */\n      dup3\n        /* \"#utility.yul\":4859:4878   */\n      mstore\n        /* \"#utility.yul\":4911:4915   */\n      0x20\n        /* \"#utility.yul\":4906:4909   */\n      dup3\n        /* \"#utility.yul\":4902:4916   */\n      add\n        /* \"#utility.yul\":4887:4916   */\n      swap1\n      pop\n        /* \"#utility.yul\":4753:4922   */\n      swap3\n      swap2\n      pop\n      pop\n      jump\t// out\n        /* \"#utility.yul\":4928:5088   */\n    tag_108:\n        /* \"#utility.yul\":5068:5080   */\n      0x7265656e7472616e637900000000000000000000000000000000000000000000\n        /* \"#utility.yul\":5064:5065   */\n      0x00\n        /* \"#utility.yul\":5056:5062   */\n      dup3\n        /* \"#utility.yul\":5052:5066   */\n      add\n        /* \"#utility.yul\":5045:5081   */\n      mstore\n        /* \"#utility.yul\":4928:5088   */\n      pop\n      jump\t// out\n        /* \"#utility.yul\":5094:5460   */\n    tag_109:\n        /* \"#utility.yul\":5236:5239   */\n      0x00\n        /* \"#utility.yul\":5257:5324   */\n      tag_193\n        /* \"#utility.yul\":5321:5323   */\n      0x0a\n        /* \"#utility.yul\":5316:5319   */\n      dup4\n        /* \"#utility.yul\":5257:5324   */\n      tag_107\n      jump\t// in\n    tag_193:\n        /* \"#utility.yul\":5250:5324   */\n      swap2\n      pop\n        /* \"#utility.yul\":5333:5426   */\n      tag_194\n        /* \"#utility.yul\":5422:5425   */\n      dup3\n        /* \"#utility.yul\":5333:5426   */\n      tag_108\n      jump\t// in\n    tag_194:\n        /* \"#utility.yul\":5451:5453   */\n      0x20\n        /* \"#utility.yul\":5446:5449   */\n      dup3\n        /* \"#utility.yul\":5442:5454   */\n      add\n        /* \"#utility.yul\":5435:5454   */\n      swap1\n      pop\n        /* \"#utility.yul\":5094:5460   */\n      swap2\n      swap1\n      pop\n      jump\t// out\n        /* \"#utility.yul\":5466:5885   */\n    tag_37:\n        /* \"#utility.yul\":5632:5636   */\n      0x00\n        /* \"#utility.yul\":5670:5672   */\n      0x20\n        /* \"#utility.yul\":5659:5668   */\n      dup3\n        /* \"#utility.yul\":5655:5673   */\n      add\n        /* \"#utility.yul\":5647:5673   */\n      swap1\n      pop\n        /* \"#utility.yul\":5719:5728   */\n      dup2\n        /* \"#utility.yul\":5713:5717   */\n      dup2\n        /* \"#utility.yul\":5709:5729   */\n      sub\n        /* \"#utility.yul\":5705:5706   */\n      0x00\n        /* \"#utility.yul\":5694:5703   */\n      dup4\n        /* \"#utility.yul\":5690:5707   */\n      add\n        /* \"#utility.yul\":5683:5730   */\n      mstore\n        /* \"#utility.yul\":5747:5878   */\n      tag_196\n        /* \"#utility.yul\":5873:5877   */\n      dup2\n        /* \"#utility.yul\":5747:5878   */\n      tag_109\n      jump\t// in\n    tag_196:\n        /* \"#utility.yul\":5739:5878   */\n      swap1\n      pop\n        /* \"#utility.yul\":5466:5885   */\n      swap2\n      swap1\n      pop\n      jump\t// out\n        /* \"#utility.yul\":5891:6052   */\n    tag_110:\n        /* \"#utility.yul\":6031:6044   */\n      0x6e6f742063726561746f72000000000000000000000000000000000000000000\n        /* \"#utility.yul\":6027:6028   */\n      0x00\n        /* \"#utility.yul\":6019:6025   */\n      dup3\n        /* \"#utility.yul\":6015:6029   */\n      add\n        /* \"#utility.yul\":6008:6045   */\n      mstore\n        /* \"#utility.yul\":5891:6052   */\n      pop\n      jump\t// out\n        /* \"#utility.yul\":6058:6424   */\n    tag_111:\n        /* \"#utility.yul\":6200:6203   */\n      0x00\n        /* \"#utility.yul\":6221:6288   */\n      tag_199\n        /* \"#utility.yul\":6285:6287   */\n      0x0b\n        /* \"#utility.yul\":6280:6283   */\n      dup4\n        /* \"#utility.yul\":6221:6288   */\n      tag_107\n      jump\t// in\n    tag_199:\n        /* \"#utility.yul\":6214:6288   */\n      swap2\n      pop\n        /* \"#utility.yul\":6297:6390   */\n      tag_200\n        /* \"#utility.yul\":6386:6389   */\n      dup3\n        /* \"#utility.yul\":6297:6390   */\n      tag_110\n      jump\t// in\n    tag_200:\n        /* \"#utility.yul\":6415:6417   */\n      0x20\n        /* \"#utility.yul\":6410:6413   */\n      dup3\n        /* \"#utility.yul\":6406:6418   */\n      add\n        /* \"#utility.yul\":6399:6418   */\n      swap1\n      pop\n        /* \"#utility.yul\":6058:6424   */\n      swap2\n      swap1\n      pop\n      jump\t// out\n        /* \"#utility.yul\":6430:6849   */\n    tag_41:\n        /* \"#utility.yul\":6596:6600   */\n      0x00\n        /* \"#utility.yul\":6634:6636   */\n      0x20\n        /* \"#utility.yul\":6623:6632   */\n      dup3\n        /* \"#utility.yul\":6619:6637   */\n      add\n        /* \"#utility.yul\":6611:6637   */\n      swap1\n      pop\n        /* \"#utility.yul\":6683:6692   */\n      dup2\n        /* \"#utility.yul\":6677:6681   */\n      dup2\n        /* \"#utility.yul\":6673:6693   */\n      sub\n        /* \"#utility.yul\":6669:6670   */\n      0x00\n        /* \"#utility.yul\":6658:6667   */\n      dup4\n        /* \"#utility.yul\":6654:6671   */\n      add\n        /* \"#utility.yul\":6647:6694   */\n      mstore\n        /* \"#utility.yul\":6711:6842   */\n      tag_202\n        /* \"#utility.yul\":6837:6841   */\n      dup2\n        /* \"#utility.yul\":6711:6842   */\n      tag_111\n      jump\t// in\n    tag_202:\n        /* \"#utility.yul\":6703:6842   */\n      swap1\n      pop\n        /* \"#utility.yul\":6430:6849   */\n      swap2\n      swap1\n      pop\n      jump\t// out\n        /* \"#utility.yul\":6855:7015   */\n    tag_112:\n        /* \"#utility.yul\":6995:7007   */\n      0x62616420616d6f756e7400000000000000000000000000000000000000000000\n        /* \"#utility.yul\":6991:6992   */\n      0x00\n        /* \"#utility.yul\":6983:6989   */\n      dup3\n        /* \"#utility.yul\":6979:6993   */\n      add\n        /* \"#utility.yul\":6972:7008   */\n      mstore\n        /* \"#utility.yul\":6855:7015   */\n      pop\n      jump\t// out\n        /* \"#utility.yul\":7021:7387   */\n    tag_113:\n        /* \"#utility.yul\":7163:7166   */\n      0x00\n        /* \"#utility.yul\":7184:7251   */\n      tag_205\n        /* \"#utility.yul\":7248:7250   */\n      0x0a\n        /* \"#utility.yul\":7243:7246   */\n      dup4\n        /* \"#utility.yul\":7184:7251   */\n      tag_107\n      jump\t// in\n    tag_205:\n        /* \"#utility.yul\":7177:7251   */\n      swap2\n      pop\n        /* \"#utility.yul\":7260:7353   */\n      tag_206\n        /* \"#utility.yul\":7349:7352   */\n      dup3\n        /* \"#utility.yul\":7260:7353   */\n      tag_112\n      jump\t// in\n    tag_206:\n        /* \"#utility.yul\":7378:7380   */\n      0x20\n        /* \"#utility.yul\":7373:7376   */\n      dup3\n        /* \"#utility.yul\":7369:7381   */\n      add\n        /* \"#utility.yul\":7362:7381   */\n      swap1\n      pop\n        /* \"#utility.yul\":7021:7387   */\n      swap2\n      swap1\n      pop\n      jump\t// out\n        /* \"#utility.yul\":7393:7812   */\n    tag_46:\n        /* \"#utility.yul\":7559:7563   */\n      0x00\n        /* \"#utility.yul\":7597:7599   */\n      0x20\n        /* \"#utility.yul\":7586:7595   */\n      dup3\n        /* \"#utility.yul\":7582:7600   */\n      add\n        /* \"#utility.yul\":7574:7600   */\n      swap1\n      pop\n        /* \"#utility.yul\":7646:7655   */\n      dup2\n        /* \"#utility.yul\":7640:7644   */\n      dup2\n        /* \"#utility.yul\":7636:7656   */\n      sub\n        /* \"#utility.yul\":7632:7633   */\n      0x00\n        /* \"#utility.yul\":7621:7630   */\n      dup4\n        /* \"#utility.yul\":7617:7634   */\n      add\n        /* \"#utility.yul\":7610:7657   */\n      mstore\n        /* \"#utility.yul\":7674:7805   */\n      tag_208\n        /* \"#utility.yul\":7800:7804   */\n      dup2\n        /* \"#utility.yul\":7674:7805   */\n      tag_113\n      jump\t// in\n    tag_208:\n        /* \"#utility.yul\":7666:7805   */\n      swap1\n      pop\n        /* \"#utility.yul\":7393:7812   */\n      swap2\n      swap1\n      pop\n      jump\t// out\n        /* \"#utility.yul\":7818:7998   */\n    tag_114:\n        /* \"#utility.yul\":7866:7943   */\n      0x4e487b7100000000000000000000000000000000000000000000000000000000\n        /* \"#utility.yul\":7863:7864   */\n      0x00\n        /* \"#utility.yul\":7856:7944   */\n      mstore\n        /* \"#utility.yul\":7963:7967   */\n      0x11\n        /* \"#utility.yul\":7960:7961   */\n      0x04\n        /* \"#utility.yul\":7953:7968   */\n      mstore\n        /* \"#utility.yul\":7987:7991   */\n      0x24\n        /* \"#utility.yul\":7984:7985   */\n      0x00\n        /* \"#utility.yul\":7977:7992   */\n      revert\n        /* \"#utility.yul\":8004:8195   */\n    tag_48:\n        /* \"#utility.yul\":8044:8047   */\n      0x00\n        /* \"#utility.yul\":8063:8083   */\n      tag_211\n        /* \"#utility.yul\":8081:8082   */\n      dup3\n        /* \"#utility.yul\":8063:8083   */\n      tag_92\n      jump\t// in\n    tag_211:\n        /* \"#utility.yul\":8058:8083   */\n      swap2\n      pop\n        /* \"#utility.yul\":8097:8117   */\n      tag_212\n        /* \"#utility.yul\":8115:8116   */\n      dup4\n        /* \"#utility.yul\":8097:8117   */\n      tag_92\n      jump\t// in\n    tag_212:\n        /* \"#utility.yul\":8092:8117   */\n      swap3\n      pop\n        /* \"#utility.yul\":8140:8141   */\n      dup3\n        /* \"#utility.yul\":8137:8138   */\n      dup3\n        /* \"#utility.yul\":8133:8142   */\n      add\n        /* \"#utility.yul\":8126:8142   */\n      swap1\n      pop\n        /* \"#utility.yul\":8161:8164   */\n      dup1\n        /* \"#utility.yul\":8158:8159   */\n      dup3\n        /* \"#utility.yul\":8155:8165   */\n      gt\n        /* \"#utility.yul\":8152:8188   */\n      iszero\n      tag_213\n      jumpi\n        /* \"#utility.yul\":8168:8186   */\n      tag_214\n      tag_114\n      jump\t// in\n    tag_214:\n        /* \"#utility.yul\":8152:8188   */\n    tag_213:\n        /* \"#utility.yul\":8004:8195   */\n      swap3\n      swap2\n      pop\n      pop\n      jump\t// out\n        /* \"#utility.yul\":8201:8348   */\n    tag_115:\n        /* \"#utility.yul\":8302:8313   */\n      0x00\n        /* \"#utility.yul\":8339:8342   */\n      dup2\n        /* \"#utility.yul\":8324:8342   */\n      swap1\n      pop\n        /* \"#utility.yul\":8201:8348   */\n      swap3\n      swap2\n      pop\n      pop\n      jump\t// out\n        /* \"#utility.yul\":8354:8468   */\n    tag_116:\n      pop\n      jump\t// out\n        /* \"#utility.yul\":8474:8872   */\n    tag_117:\n        /* \"#utility.yul\":8633:8636   */\n      0x00\n        /* \"#utility.yul\":8654:8737   */\n      tag_218\n        /* \"#utility.yul\":8735:8736   */\n      0x00\n        /* \"#utility.yul\":8730:8733   */\n      dup4\n        /* \"#utility.yul\":8654:8737   */\n      tag_115\n      jump\t// in\n    tag_218:\n        /* \"#utility.yul\":8647:8737   */\n      swap2\n      pop\n        /* \"#utility.yul\":8746:8839   */\n      tag_219\n        /* \"#utility.yul\":8835:8838   */\n      dup3\n        /* \"#utility.yul\":8746:8839   */\n      tag_116\n      jump\t// in\n    tag_219:\n        /* \"#utility.yul\":8864:8865   */\n      0x00\n        /* \"#utility.yul\":8859:8862   */\n      dup3\n        /* \"#utility.yul\":8855:8866   */\n      add\n        /* \"#utility.yul\":8848:8866   */\n      swap1\n      pop\n        /* \"#utility.yul\":8474:8872   */\n      swap2\n      swap1\n      pop\n      jump\t// out\n        /* \"#utility.yul\":8878:9257   */\n    tag_50:\n        /* \"#utility.yul\":9062:9065   */\n      0x00\n        /* \"#utility.yul\":9084:9231   */\n      tag_221\n        /* \"#utility.yul\":9227:9230   */\n      dup3\n        /* \"#utility.yul\":9084:9231   */\n      tag_117\n      jump\t// in\n    tag_221:\n        /* \"#utility.yul\":9077:9231   */\n      swap2\n      pop\n        /* \"#utility.yul\":9248:9251   */\n      dup2\n        /* \"#utility.yul\":9241:9251   */\n      swap1\n      pop\n        /* \"#utility.yul\":8878:9257   */\n      swap2\n      swap1\n      pop\n      jump\t// out\n        /* \"#utility.yul\":9263:9428   */\n    tag_118:\n        /* \"#utility.yul\":9403:9420   */\n      0x7472616e73666572206661696c65640000000000000000000000000000000000\n        /* \"#utility.yul\":9399:9400   */\n      0x00\n        /* \"#utility.yul\":9391:9397   */\n      dup3\n        /* \"#utility.yul\":9387:9401   */\n      add\n        /* \"#utility.yul\":9380:9421   */\n      mstore\n        /* \"#utility.yul\":9263:9428   */\n      pop\n      jump\t// out\n        /* \"#utility.yul\":9434:9800   */\n    tag_119:\n        /* \"#utility.yul\":9576:9579   */\n      0x00\n        /* \"#utility.yul\":9597:9664   */\n      tag_224\n        /* \"#utility.yul\":9661:9663   */\n      0x0f\n        /* \"#utility.yul\":9656:9659   */\n      dup4\n        /* \"#utility.yul\":9597:9664   */\n      tag_107\n      jump\t// in\n    tag_224:\n        /* \"#utility.yul\":9590:9664   */\n      swap2\n      pop\n        /* \"#utility.yul\":9673:9766   */\n      tag_225\n        /* \"#utility.yul\":9762:9765   */\n      dup3\n        /* \"#utility.yul\":9673:9766   */\n      tag_118\n      jump\t// in\n    tag_225:\n        /* \"#utility.yul\":9791:9793   */\n      0x20\n        /* \"#utility.yul\":9786:9789   */\n      dup3\n        /* \"#utility.yul\":9782:9794   */\n      add\n        /* \"#utility.yul\":9775:9794   */\n      swap1\n      pop\n        /* \"#utility.yul\":9434:9800   */\n      swap2\n      swap1\n      pop\n      jump\t// out\n        /* \"#utility.yul\":9806:10225   */\n    tag_56:\n        /* \"#utility.yul\":9972:9976   */\n      0x00\n        /* \"#utility.yul\":10010:10012   */\n      0x20\n        /* \"#utility.yul\":9999:10008   */\n      dup3\n        /* \"#utility.yul\":9995:10013   */\n      add\n        /* \"#utility.yul\":9987:10013   */\n      swap1\n      pop\n        /* \"#utility.yul\":10059:10068   */\n      dup2\n        /* \"#utility.yul\":10053:10057   */\n      dup2\n        /* \"#utility.yul\":10049:10069   */\n      sub\n        /* \"#utility.yul\":10045:10046   */\n      0x00\n        /* \"#utility.yul\":10034:10043   */\n      dup4\n        /* \"#utility.yul\":10030:10047   */\n      add\n        /* \"#utility.yul\":10023:10070   */\n      mstore\n        /* \"#utility.yul\":10087:10218   */\n      tag_227\n        /* \"#utility.yul\":10213:10217   */\n      dup2\n        /* \"#utility.yul\":10087:10218   */\n      tag_119\n      jump\t// in\n    tag_227:\n        /* \"#utility.yul\":10079:10218   */\n      swap1\n      pop\n        /* \"#utility.yul\":9806:10225   */\n      swap2\n      swap1\n      pop\n      jump\t// out\n        /* \"#utility.yul\":10231:10291   */\n    tag_120:\n        /* \"#utility.yul\":10259:10262   */\n      0x00\n        /* \"#utility.yul\":10280:10285   */\n      dup2\n        /* \"#utility.yul\":10273:10285   */\n      swap1\n      pop\n        /* \"#utility.yul\":10231:10291   */\n      swap2\n      swap1\n      pop\n      jump\t// out\n        /* \"#utility.yul\":10297:10439   */\n    tag_121:\n        /* \"#utility.yul\":10347:10356   */\n      0x00\n        /* \"#utility.yul\":10380:10433   */\n      tag_230\n        /* \"#utility.yul\":10398:10432   */\n      tag_231\n        /* \"#utility.yul\":10407:10431   */\n      tag_232\n        /* \"#utility.yul\":10425:10430   */\n      dup5\n        /* \"#utility.yul\":10407:10431   */\n      tag_96\n      jump\t// in\n    tag_232:\n        /* \"#utility.yul\":10398:10432   */\n      tag_120\n      jump\t// in\n    tag_231:\n        /* \"#utility.yul\":10380:10433   */\n      tag_96\n      jump\t// in\n    tag_230:\n        /* \"#utility.yul\":10367:10433   */\n      swap1\n      pop\n        /* \"#utility.yul\":10297:10439   */\n      swap2\n      swap1\n      pop\n      jump\t// out\n        /* \"#utility.yul\":10445:10571   */\n    tag_122:\n        /* \"#utility.yul\":10495:10504   */\n      0x00\n        /* \"#utility.yul\":10528:10565   */\n      tag_234\n        /* \"#utility.yul\":10559:10564   */\n      dup3\n        /* \"#utility.yul\":10528:10565   */\n      tag_121\n      jump\t// in\n    tag_234:\n        /* \"#utility.yul\":10515:10565   */\n      swap1\n      pop\n        /* \"#utility.yul\":10445:10571   */\n      swap2\n      swap1\n      pop\n      jump\t// out\n        /* \"#utility.yul\":10577:10711   */\n    tag_123:\n        /* \"#utility.yul\":10635:10644   */\n      0x00\n        /* \"#utility.yul\":10668:10705   */\n      tag_236\n        /* \"#utility.yul\":10699:10704   */\n      dup3\n        /* \"#utility.yul\":10668:10705   */\n      tag_122\n      jump\t// in\n    tag_236:\n        /* \"#utility.yul\":10655:10705   */\n      swap1\n      pop\n        /* \"#utility.yul\":10577:10711   */\n      swap2\n      swap1\n      pop\n      jump\t// out\n        /* \"#utility.yul\":10717:10864   */\n    tag_124:\n        /* \"#utility.yul\":10812:10857   */\n      tag_238\n        /* \"#utility.yul\":10851:10856   */\n      dup2\n        /* \"#utility.yul\":10812:10857   */\n      tag_123\n      jump\t// in\n    tag_238:\n        /* \"#utility.yul\":10807:10810   */\n      dup3\n        /* \"#utility.yul\":10800:10858   */\n      mstore\n        /* \"#utility.yul\":10717:10864   */\n      pop\n      pop\n      jump\t// out\n        /* \"#utility.yul\":10870:11218   */\n    tag_58:\n        /* \"#utility.yul\":10999:11003   */\n      0x00\n        /* \"#utility.yul\":11037:11039   */\n      0x40\n        /* \"#utility.yul\":11026:11035   */\n      dup3\n        /* \"#utility.yul\":11022:11040   */\n      add\n        /* \"#utility.yul\":11014:11040   */\n      swap1\n      pop\n        /* \"#utility.yul\":11050:11129   */\n      tag_240\n        /* \"#utility.yul\":11126:11127   */\n      0x00\n        /* \"#utility.yul\":11115:11124   */\n      dup4\n        /* \"#utility.yul\":11111:11128   */\n      add\n        /* \"#utility.yul\":11102:11108   */\n      dup6\n        /* \"#utility.yul\":11050:11129   */\n      tag_124\n      jump\t// in\n    tag_240:\n        /* \"#utility.yul\":11139:11211   */\n      tag_241\n        /* \"#utility.yul\":11207:11209   */\n      0x20\n        /* \"#utility.yul\":11196:11205   */\n      dup4\n        /* \"#utility.yul\":11192:11210   */\n      add\n        /* \"#utility.yul\":11183:11189   */\n      dup5\n        /* \"#utility.yul\":11139:11211   */\n      tag_95\n      jump\t// in\n    tag_241:\n        /* \"#utility.yul\":10870:11218   */\n      swap4\n      swap3\n      pop\n      pop\n      pop\n      jump\t// out\n        /* \"#utility.yul\":11224:11451   */\n    tag_63:\n        /* \"#utility.yul\":11264:11268   */\n      0x00\n        /* \"#utility.yul\":11284:11304   */\n      tag_243\n        /* \"#utility.yul\":11302:11303   */\n      dup3\n        /* \"#utility.yul\":11284:11304   */\n      tag_101\n      jump\t// in\n    tag_243:\n        /* \"#utility.yul\":11279:11304   */\n      swap2\n      pop\n        /* \"#utility.yul\":11318:11338   */\n      tag_244\n        /* \"#utility.yul\":11336:11337   */\n      dup4\n        /* \"#utility.yul\":11318:11338   */\n      tag_101\n      jump\t// in\n    tag_244:\n        /* \"#utility.yul\":11313:11338   */\n      swap3\n      pop\n        /* \"#utility.yul\":11362:11363   */\n      dup3\n        /* \"#utility.yul\":11359:11360   */\n      dup3\n        /* \"#utility.yul\":11355:11364   */\n      sub\n        /* \"#utility.yul\":11347:11364   */\n      swap1\n      pop\n        /* \"#utility.yul\":11386:11420   */\n      0xffffffffffffffffffffffffffffffff\n        /* \"#utility.yul\":11380:11384   */\n      dup2\n        /* \"#utility.yul\":11377:11421   */\n      gt\n        /* \"#utility.yul\":11374:11444   */\n      iszero\n      tag_245\n      jumpi\n        /* \"#utility.yul\":11424:11442   */\n      tag_246\n      tag_114\n      jump\t// in\n    tag_246:\n        /* \"#utility.yul\":11374:11444   */\n    tag_245:\n        /* \"#utility.yul\":11224:11451   */\n      swap3\n      swap2\n      pop\n      pop\n      jump\t// out\n        /* \"#utility.yul\":11457:11651   */\n    tag_66:\n        /* \"#utility.yul\":11497:11501   */\n      0x00\n        /* \"#utility.yul\":11517:11537   */\n      tag_248\n        /* \"#utility.yul\":11535:11536   */\n      dup3\n        /* \"#utility.yul\":11517:11537   */\n      tag_92\n      jump\t// in\n    tag_248:\n        /* \"#utility.yul\":11512:11537   */\n      swap2\n      pop\n        /* \"#utility.yul\":11551:11571   */\n      tag_249\n        /* \"#utility.yul\":11569:11570   */\n      dup4\n        /* \"#utility.yul\":11551:11571   */\n      tag_92\n      jump\t// in\n    tag_249:\n        /* \"#utility.yul\":11546:11571   */\n      swap3\n      pop\n        /* \"#utility.yul\":11595:11596   */\n      dup3\n        /* \"#utility.yul\":11592:11593   */\n      dup3\n        /* \"#utility.yul\":11588:11597   */\n      sub\n        /* \"#utility.yul\":11580:11597   */\n      swap1\n      pop\n        /* \"#utility.yul\":11619:11620   */\n      dup2\n        /* \"#utility.yul\":11613:11617   */\n      dup2\n        /* \"#utility.yul\":11610:11621   */\n      gt\n        /* \"#utility.yul\":11607:11644   */\n      iszero\n      tag_250\n      jumpi\n        /* \"#utility.yul\":11624:11642   */\n      tag_251\n      tag_114\n      jump\t// in\n    tag_251:\n        /* \"#utility.yul\":11607:11644   */\n    tag_250:\n        /* \"#utility.yul\":11457:11651   */\n      swap3\n      swap2\n      pop\n      pop\n      jump\t// out\n        /* \"#utility.yul\":11657:12067   */\n    tag_69:\n        /* \"#utility.yul\":11697:11704   */\n      0x00\n        /* \"#utility.yul\":11720:11740   */\n      tag_253\n        /* \"#utility.yul\":11738:11739   */\n      dup3\n        /* \"#utility.yul\":11720:11740   */\n      tag_92\n      jump\t// in\n    tag_253:\n        /* \"#utility.yul\":11715:11740   */\n      swap2\n      pop\n        /* \"#utility.yul\":11754:11774   */\n      tag_254\n        /* \"#utility.yul\":11772:11773   */\n      dup4\n        /* \"#utility.yul\":11754:11774   */\n      tag_92\n      jump\t// in\n    tag_254:\n        /* \"#utility.yul\":11749:11774   */\n      swap3\n      pop\n        /* \"#utility.yul\":11809:11810   */\n      dup3\n        /* \"#utility.yul\":11806:11807   */\n      dup3\n        /* \"#utility.yul\":11802:11811   */\n      mul\n        /* \"#utility.yul\":11831:11861   */\n      tag_255\n        /* \"#utility.yul\":11849:11860   */\n      dup2\n        /* \"#utility.yul\":11831:11861   */\n      tag_92\n      jump\t// in\n    tag_255:\n        /* \"#utility.yul\":11820:11861   */\n      swap2\n      pop\n        /* \"#utility.yul\":12010:12011   */\n      dup3\n        /* \"#utility.yul\":12001:12008   */\n      dup3\n        /* \"#utility.yul\":11997:12012   */\n      div\n        /* \"#utility.yul\":11994:11995   */\n      dup5\n        /* \"#utility.yul\":11991:12013   */\n      eq\n        /* \"#utility.yul\":11971:11972   */\n      dup4\n        /* \"#utility.yul\":11964:11973   */\n      iszero\n        /* \"#utility.yul\":11944:12027   */\n      or\n        /* \"#utility.yul\":11921:12060   */\n      tag_256\n      jumpi\n        /* \"#utility.yul\":12040:12058   */\n      tag_257\n      tag_114\n      jump\t// in\n    tag_257:\n        /* \"#utility.yul\":11921:12060   */\n    tag_256:\n        /* \"#utility.yul\":11705:12067   */\n      pop\n        /* \"#utility.yul\":11657:12067   */\n      swap3\n      swap2\n      pop\n      pop\n      jump\t// out\n        /* \"#utility.yul\":12073:12253   */\n    tag_125:\n        /* \"#utility.yul\":12121:12198   */\n      0x4e487b7100000000000000000000000000000000000000000000000000000000\n        /* \"#utility.yul\":12118:12119   */\n      0x00\n        /* \"#utility.yul\":12111:12199   */\n      mstore\n        /* \"#utility.yul\":12218:12222   */\n      0x12\n        /* \"#utility.yul\":12215:12216   */\n      0x04\n        /* \"#utility.yul\":12208:12223   */\n      mstore\n        /* \"#utility.yul\":12242:12246   */\n      0x24\n        /* \"#utility.yul\":12239:12240   */\n      0x00\n        /* \"#utility.yul\":12232:12247   */\n      revert\n        /* \"#utility.yul\":12259:12444   */\n    tag_71:\n        /* \"#utility.yul\":12299:12300   */\n      0x00\n        /* \"#utility.yul\":12316:12336   */\n      tag_260\n        /* \"#utility.yul\":12334:12335   */\n      dup3\n        /* \"#utility.yul\":12316:12336   */\n      tag_92\n      jump\t// in\n    tag_260:\n        /* \"#utility.yul\":12311:12336   */\n      swap2\n      pop\n        /* \"#utility.yul\":12350:12370   */\n      tag_261\n        /* \"#utility.yul\":12368:12369   */\n      dup4\n        /* \"#utility.yul\":12350:12370   */\n      tag_92\n      jump\t// in\n    tag_261:\n        /* \"#utility.yul\":12345:12370   */\n      swap3\n      pop\n        /* \"#utility.yul\":12389:12390   */\n      dup3\n        /* \"#utility.yul\":12379:12414   */\n      tag_262\n      jumpi\n        /* \"#utility.yul\":12394:12412   */\n      tag_263\n      tag_125\n      jump\t// in\n    tag_263:\n        /* \"#utility.yul\":12379:12414   */\n    tag_262:\n        /* \"#utility.yul\":12436:12437   */\n      dup3\n        /* \"#utility.yul\":12433:12434   */\n      dup3\n        /* \"#utility.yul\":12429:12438   */\n      div\n        /* \"#utility.yul\":12424:12438   */\n      swap1\n      pop\n        /* \"#utility.yul\":12259:12444   */\n      swap3\n      swap2\n      pop\n      pop\n      jump\t// out\n        /* \"#utility.yul\":12450:12609   */\n    tag_126:\n        /* \"#utility.yul\":12590:12601   */\n      0x63726561746f723d300000000000000000000000000000000000000000000000\n        /* \"#utility.yul\":12586:12587   */\n      0x00\n        /* \"#utility.yul\":12578:12584   */\n      dup3\n        /* \"#utility.yul\":12574:12588   */\n      add\n        /* \"#utility.yul\":12567:12602   */\n      mstore\n        /* \"#utility.yul\":12450:12609   */\n      pop\n      jump\t// out\n        /* \"#utility.yul\":12615:12980   */\n    tag_127:\n        /* \"#utility.yul\":12757:12760   */\n      0x00\n        /* \"#utility.yul\":12778:12844   */\n      tag_266\n        /* \"#utility.yul\":12842:12843   */\n      0x09\n        /* \"#utility.yul\":12837:12840   */\n      dup4\n        /* \"#utility.yul\":12778:12844   */\n      tag_107\n      jump\t// in\n    tag_266:\n        /* \"#utility.yul\":12771:12844   */\n      swap2\n      pop\n        /* \"#utility.yul\":12853:12946   */\n      tag_267\n        /* \"#utility.yul\":12942:12945   */\n      dup3\n        /* \"#utility.yul\":12853:12946   */\n      tag_126\n      jump\t// in\n    tag_267:\n        /* \"#utility.yul\":12971:12973   */\n      0x20\n        /* \"#utility.yul\":12966:12969   */\n      dup3\n        /* \"#utility.yul\":12962:12974   */\n      add\n        /* \"#utility.yul\":12955:12974   */\n      swap1\n      pop\n        /* \"#utility.yul\":12615:12980   */\n      swap2\n      swap1\n      pop\n      jump\t// out\n        /* \"#utility.yul\":12986:13405   */\n    tag_78:\n        /* \"#utility.yul\":13152:13156   */\n      0x00\n        /* \"#utility.yul\":13190:13192   */\n      0x20\n        /* \"#utility.yul\":13179:13188   */\n      dup3\n        /* \"#utility.yul\":13175:13193   */\n      add\n        /* \"#utility.yul\":13167:13193   */\n      swap1\n      pop\n        /* \"#utility.yul\":13239:13248   */\n      dup2\n        /* \"#utility.yul\":13233:13237   */\n      dup2\n        /* \"#utility.yul\":13229:13249   */\n      sub\n        /* \"#utility.yul\":13225:13226   */\n      0x00\n        /* \"#utility.yul\":13214:13223   */\n      dup4\n        /* \"#utility.yul\":13210:13227   */\n      add\n        /* \"#utility.yul\":13203:13250   */\n      mstore\n        /* \"#utility.yul\":13267:13398   */\n      tag_269\n        /* \"#utility.yul\":13393:13397   */\n      dup2\n        /* \"#utility.yul\":13267:13398   */\n      tag_127\n      jump\t// in\n    tag_269:\n        /* \"#utility.yul\":13259:13398   */\n      swap1\n      pop\n        /* \"#utility.yul\":12986:13405   */\n      swap2\n      swap1\n      pop\n      jump\t// out\n        /* \"#utility.yul\":13411:13569   */\n    tag_128:\n        /* \"#utility.yul\":13551:13561   */\n      0x6261642074696d65000000000000000000000000000000000000000000000000\n        /* \"#utility.yul\":13547:13548   */\n      0x00\n        /* \"#utility.yul\":13539:13545   */\n      dup3\n        /* \"#utility.yul\":13535:13549   */\n      add\n        /* \"#utility.yul\":13528:13562   */\n      mstore\n        /* \"#utility.yul\":13411:13569   */\n      pop\n      jump\t// out\n        /* \"#utility.yul\":13575:13940   */\n    tag_129:\n        /* \"#utility.yul\":13717:13720   */\n      0x00\n        /* \"#utility.yul\":13738:13804   */\n      tag_272\n        /* \"#utility.yul\":13802:13803   */\n      0x08\n        /* \"#utility.yul\":13797:13800   */\n      dup4\n        /* \"#utility.yul\":13738:13804   */\n      tag_107\n      jump\t// in\n    tag_272:\n        /* \"#utility.yul\":13731:13804   */\n      swap2\n      pop\n        /* \"#utility.yul\":13813:13906   */\n      tag_273\n        /* \"#utility.yul\":13902:13905   */\n      dup3\n        /* \"#utility.yul\":13813:13906   */\n      tag_128\n      jump\t// in\n    tag_273:\n        /* \"#utility.yul\":13931:13933   */\n      0x20\n        /* \"#utility.yul\":13926:13929   */\n      dup3\n        /* \"#utility.yul\":13922:13934   */\n      add\n        /* \"#utility.yul\":13915:13934   */\n      swap1\n      pop\n        /* \"#utility.yul\":13575:13940   */\n      swap2\n      swap1\n      pop\n      jump\t// out\n        /* \"#utility.yul\":13946:14365   */\n    tag_81:\n        /* \"#utility.yul\":14112:14116   */\n      0x00\n        /* \"#utility.yul\":14150:14152   */\n      0x20\n        /* \"#utility.yul\":14139:14148   */\n      dup3\n        /* \"#utility.yul\":14135:14153   */\n      add\n        /* \"#utility.yul\":14127:14153   */\n      swap1\n      pop\n        /* \"#utility.yul\":14199:14208   */\n      dup2\n        /* \"#utility.yul\":14193:14197   */\n      dup2\n        /* \"#utility.yul\":14189:14209   */\n      sub\n        /* \"#utility.yul\":14185:14186   */\n      0x00\n        /* \"#utility.yul\":14174:14183   */\n      dup4\n        /* \"#utility.yul\":14170:14187   */\n      add\n        /* \"#utility.yul\":14163:14210   */\n      mstore\n        /* \"#utility.yul\":14227:14358   */\n      tag_275\n        /* \"#utility.yul\":14353:14357   */\n      dup2\n        /* \"#utility.yul\":14227:14358   */\n      tag_129\n      jump\t// in\n    tag_275:\n        /* \"#utility.yul\":14219:14358   */\n      swap1\n      pop\n        /* \"#utility.yul\":13946:14365   */\n      swap2\n      swap1\n      pop\n      jump\t// out\n        /* \"#utility.yul\":14371:14529   */\n    tag_130:\n        /* \"#utility.yul\":14511:14521   */\n      0x6e6f2066756e6473000000000000000000000000000000000000000000000000\n        /* \"#utility.yul\":14507:14508   */\n      0x00\n        /* \"#utility.yul\":14499:14505   */\n      dup3\n        /* \"#utility.yul\":14495:14509   */\n      add\n        /* \"#utility.yul\":14488:14522   */\n      mstore\n        /* \"#utility.yul\":14371:14529   */\n      pop\n      jump\t// out\n        /* \"#utility.yul\":14535:14900   */\n    tag_131:\n        /* \"#utility.yul\":14677:14680   */\n      0x00\n        /* \"#utility.yul\":14698:14764   */\n      tag_278\n        /* \"#utility.yul\":14762:14763   */\n      0x08\n        /* \"#utility.yul\":14757:14760   */\n      dup4\n        /* \"#utility.yul\":14698:14764   */\n      tag_107\n      jump\t// in\n    tag_278:\n        /* \"#utility.yul\":14691:14764   */\n      swap2\n      pop\n        /* \"#utility.yul\":14773:14866   */\n      tag_279\n        /* \"#utility.yul\":14862:14865   */\n      dup3\n        /* \"#utility.yul\":14773:14866   */\n      tag_130\n      jump\t// in\n    tag_279:\n        /* \"#utility.yul\":14891:14893   */\n      0x20\n        /* \"#utility.yul\":14886:14889   */\n      dup3\n        /* \"#utility.yul\":14882:14894   */\n      add\n        /* \"#utility.yul\":14875:14894   */\n      swap1\n      pop\n        /* \"#utility.yul\":14535:14900   */\n      swap2\n      swap1\n      pop\n      jump\t// out\n        /* \"#utility.yul\":14906:15325   */\n    tag_84:\n        /* \"#utility.yul\":15072:15076   */\n      0x00\n        /* \"#utility.yul\":15110:15112   */\n      0x20\n        /* \"#utility.yul\":15099:15108   */\n      dup3\n        /* \"#utility.yul\":15095:15113   */\n      add\n        /* \"#utility.yul\":15087:15113   */\n      swap1\n      pop\n        /* \"#utility.yul\":15159:15168   */\n      dup2\n        /* \"#utility.yul\":15153:15157   */\n      dup2\n        /* \"#utility.yul\":15149:15169   */\n      sub\n        /* \"#utility.yul\":15145:15146   */\n      0x00\n        /* \"#utility.yul\":15134:15143   */\n      dup4\n        /* \"#utility.yul\":15130:15147   */\n      add\n        /* \"#utility.yul\":15123:15170   */\n      mstore\n        /* \"#utility.yul\":15187:15318   */\n      tag_281\n        /* \"#utility.yul\":15313:15317   */\n      dup2\n        /* \"#utility.yul\":15187:15318   */\n      tag_131\n      jump\t// in\n    tag_281:\n        /* \"#utility.yul\":15179:15318   */\n      swap1\n      pop\n        /* \"#utility.yul\":14906:15325   */\n      swap2\n      swap1\n      pop\n      jump\t// out\n        /* \"#utility.yul\":15331:15564   */\n    tag_86:\n        /* \"#utility.yul\":15370:15373   */\n      0x00\n        /* \"#utility.yul\":15393:15417   */\n      tag_283\n        /* \"#utility.yul\":15411:15416   */\n      dup3\n        /* \"#utility.yul\":15393:15417   */\n      tag_92\n      jump\t// in\n    tag_283:\n        /* \"#utility.yul\":15384:15417   */\n      swap2\n      pop\n        /* \"#utility.yul\":15439:15505   */\n      0xffffffffffffffffffffffffffffffffffffffffffffffffffffffffffffffff\n        /* \"#utility.yul\":15432:15437   */\n      dup3\n        /* \"#utility.yul\":15429:15506   */\n      sub\n        /* \"#utility.yul\":15426:15529   */\n      tag_284\n      jumpi\n        /* \"#utility.yul\":15509:15527   */\n      tag_285\n      tag_114\n      jump\t// in\n    tag_285:\n        /* \"#utility.yul\":15426:15529   */\n    tag_284:\n        /* \"#utility.yul\":15556:15557   */\n      0x01\n        /* \"#utility.yul\":15549:15554   */\n      dup3\n        /* \"#utility.yul\":15545:15558   */\n      add\n        /* \"#utility.yul\":15538:15558   */\n      swap1\n      pop\n        /* \"#utility.yul\":15331:15564   */\n      swap2\n      swap1\n      pop\n      jump\t// out\n        /* \"#utility.yul\":15570:16250   */\n    tag_88:\n        /* \"#utility.yul\":15783:15787   */\n      0x00\n        /* \"#utility.yul\":15821:15824   */\n      0xa0\n        /* \"#utility.yul\":15810:15819   */\n      dup3\n        /* \"#utility.yul\":15806:15825   */\n      add\n        /* \"#utility.yul\":15798:15825   */\n      swap1\n      pop\n        /* \"#utility.yul\":15835:15906   */\n      tag_287\n        /* \"#utility.yul\":15903:15904   */\n      0x00\n        /* \"#utility.yul\":15892:15901   */\n      dup4\n        /* \"#utility.yul\":15888:15905   */\n      add\n        /* \"#utility.yul\":15879:15885   */\n      dup9\n        /* \"#utility.yul\":15835:15906   */\n      tag_98\n      jump\t// in\n    tag_287:\n        /* \"#utility.yul\":15916:15996   */\n      tag_288\n        /* \"#utility.yul\":15992:15994   */\n      0x20\n        /* \"#utility.yul\":15981:15990   */\n      dup4\n        /* \"#utility.yul\":15977:15995   */\n      add\n        /* \"#utility.yul\":15968:15974   */\n      dup8\n        /* \"#utility.yul\":15916:15996   */\n      tag_124\n      jump\t// in\n    tag_288:\n        /* \"#utility.yul\":16006:16078   */\n      tag_289\n        /* \"#utility.yul\":16074:16076   */\n      0x40\n        /* \"#utility.yul\":16063:16072   */\n      dup4\n        /* \"#utility.yul\":16059:16077   */\n      add\n        /* \"#utility.yul\":16050:16056   */\n      dup7\n        /* \"#utility.yul\":16006:16078   */\n      tag_102\n      jump\t// in\n    tag_289:\n        /* \"#utility.yul\":16088:16160   */\n      tag_290\n        /* \"#utility.yul\":16156:16158   */\n      0x60\n        /* \"#utility.yul\":16145:16154   */\n      dup4\n        /* \"#utility.yul\":16141:16159   */\n      add\n        /* \"#utility.yul\":16132:16138   */\n      dup6\n        /* \"#utility.yul\":16088:16160   */\n      tag_102\n      jump\t// in\n    tag_290:\n        /* \"#utility.yul\":16170:16243   */\n      tag_291\n        /* \"#utility.yul\":16238:16241   */\n      0x80\n        /* \"#utility.yul\":16227:16236   */\n      dup4\n        /* \"#utility.yul\":16223:16242   */\n      add\n        /* \"#utility.yul\":16214:16220   */\n      dup5\n        /* \"#utility.yul\":16170:16243   */\n      tag_95\n      jump\t// in\n    tag_291:\n        /* \"#utility.yul\":15570:16250   */\n      swap7\n      swap6\n      pop\n      pop\n      pop\n      pop\n      pop\n      pop\n      jump\t// out\n\n    auxdata: 0xa264697066735822122045e25f4f01465aa49d95e08b5037f617ec354dfea242a9ddbe354d34a7b9360864736f6c634300081e0033\n}\n",
				"bytecode": {
					"linkReferences": {},
					"object": "608060405260015f553480156012575f5ffd5b50611273806100205f395ff3fe608060405260043610610049575f3560e01c8063441a3e701461004d57806361b8ce8c1461007557806364d60d911461009f578063f11988e0146100e0578063fde16b2f1461011c575b5f5ffd5b348015610058575f5ffd5b50610073600480360381019061006e9190610a69565b61014c565b005b348015610080575f5ffd5b506100896103e6565b6040516100969190610ab6565b60405180910390f35b3480156100aa575f5ffd5b506100c560048036038101906100c09190610acf565b6103ec565b6040516100d796959493929190610b83565b60405180910390f35b3480156100eb575f5ffd5b5061010660048036038101906101019190610acf565b610499565b6040516101139190610ab6565b60405180910390f35b61013660048036038101906101319190610c36565b610712565b6040516101439190610ab6565b60405180910390f35b60025f5403610190576040517f08c379a000000000000000000000000000000000000000000000000000000000815260040161018790610ce0565b60405180910390fd5b60025f819055505f60025f8481526020019081526020015f209050806001015f9054906101000a900473ffffffffffffffffffffffffffffffffffffffff1673ffffffffffffffffffffffffffffffffffffffff163373ffffffffffffffffffffffffffffffffffffffff161461023c576040517f08c379a000000000000000000000000000000000000000000000000000000000815260040161023390610d48565b60405180910390fd5b5f61024684610499565b90505f831180156102575750808311155b610296576040517f08c379a000000000000000000000000000000000000000000000000000000000815260040161028d90610db0565b60405180910390fd5b82826004015f8282546102a99190610dfb565b925050819055505f826001015f9054906101000a900473ffffffffffffffffffffffffffffffffffffffff1673ffffffffffffffffffffffffffffffffffffffff16846040516102f890610e5b565b5f6040518083038185875af1925050503d805f8114610332576040519150601f19603f3d011682016040523d82523d5f602084013e610337565b606091505b505090508061037b576040517f08c379a000000000000000000000000000000000000000000000000000000000815260040161037290610eb9565b60405180910390fd5b847f9da6493a92039daf47d1f2d7a782299c5994c6323eb1e972f69c432089ec52bf846001015f9054906101000a900473ffffffffffffffffffffffffffffffffffffffff16866040516103d0929190610f32565b60405180910390a250505060015f819055505050565b60015481565b6002602052805f5260405f205f91509050805f015f9054906101000a900473ffffffffffffffffffffffffffffffffffffffff1690806001015f9054906101000a900473ffffffffffffffffffffffffffffffffffffffff1690806002015f9054906101000a90046fffffffffffffffffffffffffffffffff16908060020160109054906101000a90046fffffffffffffffffffffffffffffffff16908060030154908060040154905086565b5f5f60025f8481526020019081526020015f206040518060c00160405290815f82015f9054906101000a900473ffffffffffffffffffffffffffffffffffffffff1673ffffffffffffffffffffffffffffffffffffffff1673ffffffffffffffffffffffffffffffffffffffff168152602001600182015f9054906101000a900473ffffffffffffffffffffffffffffffffffffffff1673ffffffffffffffffffffffffffffffffffffffff1673ffffffffffffffffffffffffffffffffffffffff168152602001600282015f9054906101000a90046fffffffffffffffffffffffffffffffff166fffffffffffffffffffffffffffffffff166fffffffffffffffffffffffffffffffff1681526020016002820160109054906101000a90046fffffffffffffffffffffffffffffffff166fffffffffffffffffffffffffffffffff166fffffffffffffffffffffffffffffffff16815260200160038201548152602001600482015481525050905080604001516fffffffffffffffffffffffffffffffff16421161062f575f91505061070d565b5f81606001516fffffffffffffffffffffffffffffffff16421061067857816040015182606001516106619190610f59565b6fffffffffffffffffffffffffffffffff1661069b565b81604001516fffffffffffffffffffffffffffffffff164261069a9190610f9c565b5b90505f826040015183606001516106b29190610f59565b6fffffffffffffffffffffffffffffffff1690505f818385608001516106d89190610fcf565b6106e2919061103d565b90508360a0015181116106f5575f610706565b8360a00151816107059190610f9c565b5b9450505050505b919050565b5f5f73ffffffffffffffffffffffffffffffffffffffff168473ffffffffffffffffffffffffffffffffffffffff1603610781576040517f08c379a0000000000000000000000000000000000000000000000000000000008152600401610778906110b7565b60405180910390fd5b826fffffffffffffffffffffffffffffffff16826fffffffffffffffffffffffffffffffff16116107e7576040517f08c379a00000000000000000000000000000000000000000000000000000000081526004016107de9061111f565b60405180910390fd5b5f3411610829576040517f08c379a000000000000000000000000000000000000000000000000000000000815260040161082090611187565b60405180910390fd5b60015f8154610837906111a5565b91905081905590506040518060c001604052803373ffffffffffffffffffffffffffffffffffffffff1681526020018573ffffffffffffffffffffffffffffffffffffffff168152602001846fffffffffffffffffffffffffffffffff168152602001836fffffffffffffffffffffffffffffffff1681526020013481526020015f81525060025f8381526020019081526020015f205f820151815f015f6101000a81548173ffffffffffffffffffffffffffffffffffffffff021916908373ffffffffffffffffffffffffffffffffffffffff1602179055506020820151816001015f6101000a81548173ffffffffffffffffffffffffffffffffffffffff021916908373ffffffffffffffffffffffffffffffffffffffff1602179055506040820151816002015f6101000a8154816fffffffffffffffffffffffffffffffff02191690836fffffffffffffffffffffffffffffffff16021790555060608201518160020160106101000a8154816fffffffffffffffffffffffffffffffff02191690836fffffffffffffffffffffffffffffffff1602179055506080820151816003015560a08201518160040155905050807f71d3012b7068e587cf9b6e9763d04542a7ed008fbf45d784e1543d0daf57063e3386868634604051610a239594939291906111ec565b60405180910390a29392505050565b5f5ffd5b5f819050919050565b610a4881610a36565b8114610a52575f5ffd5b50565b5f81359050610a6381610a3f565b92915050565b5f5f60408385031215610a7f57610a7e610a32565b5b5f610a8c85828601610a55565b9250506020610a9d85828601610a55565b9150509250929050565b610ab081610a36565b82525050565b5f602082019050610ac95f830184610aa7565b92915050565b5f60208284031215610ae457610ae3610a32565b5b5f610af184828501610a55565b91505092915050565b5f73ffffffffffffffffffffffffffffffffffffffff82169050919050565b5f610b2382610afa565b9050919050565b610b3381610b19565b82525050565b5f610b4382610afa565b9050919050565b610b5381610b39565b82525050565b5f6fffffffffffffffffffffffffffffffff82169050919050565b610b7d81610b59565b82525050565b5f60c082019050610b965f830189610b2a565b610ba36020830188610b4a565b610bb06040830187610b74565b610bbd6060830186610b74565b610bca6080830185610aa7565b610bd760a0830184610aa7565b979650505050505050565b610beb81610b39565b8114610bf5575f5ffd5b50565b5f81359050610c0681610be2565b92915050565b610c1581610b59565b8114610c1f575f5ffd5b50565b5f81359050610c3081610c0c565b92915050565b5f5f5f60608486031215610c4d57610c4c610a32565b5b5f610c5a86828701610bf8565b9350506020610c6b86828701610c22565b9250506040610c7c86828701610c22565b9150509250925092565b5f82825260208201905092915050565b7f7265656e7472616e6379000000000000000000000000000000000000000000005f82015250565b5f610cca600a83610c86565b9150610cd582610c96565b602082019050919050565b5f6020820190508181035f830152610cf781610cbe565b9050919050565b7f6e6f742063726561746f720000000000000000000000000000000000000000005f82015250565b5f610d32600b83610c86565b9150610d3d82610cfe565b602082019050919050565b5f6020820190508181035f830152610d5f81610d26565b9050919050565b7f62616420616d6f756e74000000000000000000000000000000000000000000005f82015250565b5f610d9a600a83610c86565b9150610da582610d66565b602082019050919050565b5f6020820190508181035f830152610dc781610d8e565b9050919050565b7f4e487b71000000000000000000000000000000000000000000000000000000005f52601160045260245ffd5b5f610e0582610a36565b9150610e1083610a36565b9250828201905080821115610e2857610e27610dce565b5b92915050565b5f81905092915050565b50565b5f610e465f83610e2e565b9150610e5182610e38565b5f82019050919050565b5f610e6582610e3b565b9150819050919050565b7f7472616e73666572206661696c656400000000000000000000000000000000005f82015250565b5f610ea3600f83610c86565b9150610eae82610e6f565b602082019050919050565b5f6020820190508181035f830152610ed081610e97565b9050919050565b5f819050919050565b5f610efa610ef5610ef084610afa565b610ed7565b610afa565b9050919050565b5f610f0b82610ee0565b9050919050565b5f610f1c82610f01565b9050919050565b610f2c81610f12565b82525050565b5f604082019050610f455f830185610f23565b610f526020830184610aa7565b9392505050565b5f610f6382610b59565b9150610f6e83610b59565b925082820390506fffffffffffffffffffffffffffffffff811115610f9657610f95610dce565b5b92915050565b5f610fa682610a36565b9150610fb183610a36565b9250828203905081811115610fc957610fc8610dce565b5b92915050565b5f610fd982610a36565b9150610fe483610a36565b9250828202610ff281610a36565b9150828204841483151761100957611008610dce565b5b5092915050565b7f4e487b71000000000000000000000000000000000000000000000000000000005f52601260045260245ffd5b5f61104782610a36565b915061105283610a36565b92508261106257611061611010565b5b828204905092915050565b7f63726561746f723d3000000000000000000000000000000000000000000000005f82015250565b5f6110a1600983610c86565b91506110ac8261106d565b602082019050919050565b5f6020820190508181035f8301526110ce81611095565b9050919050565b7f6261642074696d650000000000000000000000000000000000000000000000005f82015250565b5f611109600883610c86565b9150611114826110d5565b602082019050919050565b5f6020820190508181035f830152611136816110fd565b9050919050565b7f6e6f2066756e64730000000000000000000000000000000000000000000000005f82015250565b5f611171600883610c86565b915061117c8261113d565b602082019050919050565b5f6020820190508181035f83015261119e81611165565b9050919050565b5f6111af82610a36565b91507fffffffffffffffffffffffffffffffffffffffffffffffffffffffffffffffff82036111e1576111e0610dce565b5b600182019050919050565b5f60a0820190506111ff5f830188610b2a565b61120c6020830187610f23565b6112196040830186610b74565b6112266060830185610b74565b6112336080830184610aa7565b969550505050505056fea264697066735822122045e25f4f01465aa49d95e08b5037f617ec354dfea242a9ddbe354d34a7b9360864736f6c634300081e0033",
					"opcodes": "PUSH1 0x80 PUSH1 0x40 MSTORE PUSH1 0x1 PUSH0 SSTORE CALLVALUE DUP1 ISZERO PUSH1 0x12 JUMPI PUSH0 PUSH0 REVERT JUMPDEST POP PUSH2 0x1273 DUP1 PUSH2 0x20 PUSH0 CODECOPY PUSH0 RETURN INVALID PUSH1 0x80 PUSH1 0x40 MSTORE PUSH1 0x4 CALLDATASIZE LT PUSH2 0x49 JUMPI PUSH0 CALLDATALOAD PUSH1 0xE0 SHR DUP1 PUSH4 0x441A3E70 EQ PUSH2 0x4D JUMPI DUP1 PUSH4 0x61B8CE8C EQ PUSH2 0x75 JUMPI DUP1 PUSH4 0x64D60D91 EQ PUSH2 0x9F JUMPI DUP1 PUSH4 0xF11988E0 EQ PUSH2 0xE0 JUMPI DUP1 PUSH4 0xFDE16B2F EQ PUSH2 0x11C JUMPI JUMPDEST PUSH0 PUSH0 REVERT JUMPDEST CALLVALUE DUP1 ISZERO PUSH2 0x58 JUMPI PUSH0 PUSH0 REVERT JUMPDEST POP PUSH2 0x73 PUSH1 0x4 DUP1 CALLDATASIZE SUB DUP2 ADD SWAP1 PUSH2 0x6E SWAP2 SWAP1 PUSH2 0xA69 JUMP JUMPDEST PUSH2 0x14C JUMP JUMPDEST STOP JUMPDEST CALLVALUE DUP1 ISZERO PUSH2 0x80 JUMPI PUSH0 PUSH0 REVERT JUMPDEST POP PUSH2 0x89 PUSH2 0x3E6 JUMP JUMPDEST PUSH1 0x40 MLOAD PUSH2 0x96 SWAP2 SWAP1 PUSH2 0xAB6 JUMP JUMPDEST PUSH1 0x40 MLOAD DUP1 SWAP2 SUB SWAP1 RETURN JUMPDEST CALLVALUE DUP1 ISZERO PUSH2 0xAA JUMPI PUSH0 PUSH0 REVERT JUMPDEST POP PUSH2 0xC5 PUSH1 0x4 DUP1 CALLDATASIZE SUB DUP2 ADD SWAP1 PUSH2 0xC0 SWAP2 SWAP1 PUSH2 0xACF JUMP JUMPDEST PUSH2 0x3EC JUMP JUMPDEST PUSH1 0x40 MLOAD PUSH2 0xD7 SWAP7 SWAP6 SWAP5 SWAP4 SWAP3 SWAP2 SWAP1 PUSH2 0xB83 JUMP JUMPDEST PUSH1 0x40 MLOAD DUP1 SWAP2 SUB SWAP1 RETURN JUMPDEST CALLVALUE DUP1 ISZERO PUSH2 0xEB JUMPI PUSH0 PUSH0 REVERT JUMPDEST POP PUSH2 0x106 PUSH1 0x4 DUP1 CALLDATASIZE SUB DUP2 ADD SWAP1 PUSH2 0x101 SWAP2 SWAP1 PUSH2 0xACF JUMP JUMPDEST PUSH2 0x499 JUMP JUMPDEST PUSH1 0x40 MLOAD PUSH2 0x113 SWAP2 SWAP1 PUSH2 0xAB6 JUMP JUMPDEST PUSH1 0x40 MLOAD DUP1 SWAP2 SUB SWAP1 RETURN JUMPDEST PUSH2 0x136 PUSH1 0x4 DUP1 CALLDATASIZE SUB DUP2 ADD SWAP1 PUSH2 0x131 SWAP2 SWAP1 PUSH2 0xC36 JUMP JUMPDEST PUSH2 0x712 JUMP JUMPDEST PUSH1 0x40 MLOAD PUSH2 0x143 SWAP2 SWAP1 PUSH2 0xAB6 JUMP JUMPDEST PUSH1 0x40 MLOAD DUP1 SWAP2 SUB SWAP1 RETURN JUMPDEST PUSH1 0x2 PUSH0 SLOAD SUB PUSH2 0x190 JUMPI PUSH1 0x40 MLOAD PUSH32 0x8C379A000000000000000000000000000000000000000000000000000000000 DUP2 MSTORE PUSH1 0x4 ADD PUSH2 0x187 SWAP1 PUSH2 0xCE0 JUMP JUMPDEST PUSH1 0x40 MLOAD DUP1 SWAP2 SUB SWAP1 REVERT JUMPDEST PUSH1 0x2 PUSH0 DUP2 SWAP1 SSTORE POP PUSH0 PUSH1 0x2 PUSH0 DUP5 DUP2 MSTORE PUSH1 0x20 ADD SWAP1 DUP2 MSTORE PUSH1 0x20 ADD PUSH0 KECCAK256 SWAP1 POP DUP1 PUSH1 0x1 ADD PUSH0 SWAP1 SLOAD SWAP1 PUSH2 0x100 EXP SWAP1 DIV PUSH20 0xFFFFFFFFFFFFFFFFFFFFFFFFFFFFFFFFFFFFFFFF AND PUSH20 0xFFFFFFFFFFFFFFFFFFFFFFFFFFFFFFFFFFFFFFFF AND CALLER PUSH20 0xFFFFFFFFFFFFFFFFFFFFFFFFFFFFFFFFFFFFFFFF AND EQ PUSH2 0x23C JUMPI PUSH1 0x40 MLOAD PUSH32 0x8C379A000000000000000000000000000000000000000000000000000000000 DUP2 MSTORE PUSH1 0x4 ADD PUSH2 0x233 SWAP1 PUSH2 0xD48 JUMP JUMPDEST PUSH1 0x40 MLOAD DUP1 SWAP2 SUB SWAP1 REVERT JUMPDEST PUSH0 PUSH2 0x246 DUP5 PUSH2 0x499 JUMP JUMPDEST SWAP1 POP PUSH0 DUP4 GT DUP1 ISZERO PUSH2 0x257 JUMPI POP DUP1 DUP4 GT ISZERO JUMPDEST PUSH2 0x296 JUMPI PUSH1 0x40 MLOAD PUSH32 0x8C379A000000000000000000000000000000000000000000000000000000000 DUP2 MSTORE PUSH1 0x4 ADD PUSH2 0x28D SWAP1 PUSH2 0xDB0 JUMP JUMPDEST PUSH1 0x40 MLOAD DUP1 SWAP2 SUB SWAP1 REVERT JUMPDEST DUP3 DUP3 PUSH1 0x4 ADD PUSH0 DUP3 DUP3 SLOAD PUSH2 0x2A9 SWAP2 SWAP1 PUSH2 0xDFB JUMP JUMPDEST SWAP3 POP POP DUP2 SWAP1 SSTORE POP PUSH0 DUP3 PUSH1 0x1 ADD PUSH0 SWAP1 SLOAD SWAP1 PUSH2 0x100 EXP SWAP1 DIV PUSH20 0xFFFFFFFFFFFFFFFFFFFFFFFFFFFFFFFFFFFFFFFF AND PUSH20 0xFFFFFFFFFFFFFFFFFFFFFFFFFFFFFFFFFFFFFFFF AND DUP5 PUSH1 0x40 MLOAD PUSH2 0x2F8 SWAP1 PUSH2 0xE5B JUMP JUMPDEST PUSH0 PUSH1 0x40 MLOAD DUP1 DUP4 SUB DUP2 DUP6 DUP8 GAS CALL SWAP3 POP POP POP RETURNDATASIZE DUP1 PUSH0 DUP2 EQ PUSH2 0x332 JUMPI PUSH1 0x40 MLOAD SWAP2 POP PUSH1 0x1F NOT PUSH1 0x3F RETURNDATASIZE ADD AND DUP3 ADD PUSH1 0x40 MSTORE RETURNDATASIZE DUP3 MSTORE RETURNDATASIZE PUSH0 PUSH1 0x20 DUP5 ADD RETURNDATACOPY PUSH2 0x337 JUMP JUMPDEST PUSH1 0x60 SWAP2 POP JUMPDEST POP POP SWAP1 POP DUP1 PUSH2 0x37B JUMPI PUSH1 0x40 MLOAD PUSH32 0x8C379A000000000000000000000000000000000000000000000000000000000 DUP2 MSTORE PUSH1 0x4 ADD PUSH2 0x372 SWAP1 PUSH2 0xEB9 JUMP JUMPDEST PUSH1 0x40 MLOAD DUP1 SWAP2 SUB SWAP1 REVERT JUMPDEST DUP5 PUSH32 0x9DA6493A92039DAF47D1F2D7A782299C5994C6323EB1E972F69C432089EC52BF DUP5 PUSH1 0x1 ADD PUSH0 SWAP1 SLOAD SWAP1 PUSH2 0x100 EXP SWAP1 DIV PUSH20 0xFFFFFFFFFFFFFFFFFFFFFFFFFFFFFFFFFFFFFFFF AND DUP7 PUSH1 0x40 MLOAD PUSH2 0x3D0 SWAP3 SWAP2 SWAP1 PUSH2 0xF32 JUMP JUMPDEST PUSH1 0x40 MLOAD DUP1 SWAP2 SUB SWAP1 LOG2 POP POP POP PUSH1 0x1 PUSH0 DUP2 SWAP1 SSTORE POP POP POP JUMP JUMPDEST PUSH1 0x1 SLOAD DUP2 JUMP JUMPDEST PUSH1 0x2 PUSH1 0x20 MSTORE DUP1 PUSH0 MSTORE PUSH1 0x40 PUSH0 KECCAK256 PUSH0 SWAP2 POP SWAP1 POP DUP1 PUSH0 ADD PUSH0 SWAP1 SLOAD SWAP1 PUSH2 0x100 EXP SWAP1 DIV PUSH20 0xFFFFFFFFFFFFFFFFFFFFFFFFFFFFFFFFFFFFFFFF AND SWAP1 DUP1 PUSH1 0x1 ADD PUSH0 SWAP1 SLOAD SWAP1 PUSH2 0x100 EXP SWAP1 DIV PUSH20 0xFFFFFFFFFFFFFFFFFFFFFFFFFFFFFFFFFFFFFFFF AND SWAP1 DUP1 PUSH1 0x2 ADD PUSH0 SWAP1 SLOAD SWAP1 PUSH2 0x100 EXP SWAP1 DIV PUSH16 0xFFFFFFFFFFFFFFFFFFFFFFFFFFFFFFFF AND SWAP1 DUP1 PUSH1 0x2 ADD PUSH1 0x10 SWAP1 SLOAD SWAP1 PUSH2 0x100 EXP SWAP1 DIV PUSH16 0xFFFFFFFFFFFFFFFFFFFFFFFFFFFFFFFF AND SWAP1 DUP1 PUSH1 0x3 ADD SLOAD SWAP1 DUP1 PUSH1 0x4 ADD SLOAD SWAP1 POP DUP7 JUMP JUMPDEST PUSH0 PUSH0 PUSH1 0x2 PUSH0 DUP5 DUP2 MSTORE PUSH1 0x20 ADD SWAP1 DUP2 MSTORE PUSH1 0x20 ADD PUSH0 KECCAK256 PUSH1 0x40 MLOAD DUP1 PUSH1 0xC0 ADD PUSH1 0x40 MSTORE SWAP1 DUP2 PUSH0 DUP3 ADD PUSH0 SWAP1 SLOAD SWAP1 PUSH2 0x100 EXP SWAP1 DIV PUSH20 0xFFFFFFFFFFFFFFFFFFFFFFFFFFFFFFFFFFFFFFFF AND PUSH20 0xFFFFFFFFFFFFFFFFFFFFFFFFFFFFFFFFFFFFFFFF AND PUSH20 0xFFFFFFFFFFFFFFFFFFFFFFFFFFFFFFFFFFFFFFFF AND DUP2 MSTORE PUSH1 0x20 ADD PUSH1 0x1 DUP3 ADD PUSH0 SWAP1 SLOAD SWAP1 PUSH2 0x100 EXP SWAP1 DIV PUSH20 0xFFFFFFFFFFFFFFFFFFFFFFFFFFFFFFFFFFFFFFFF AND PUSH20 0xFFFFFFFFFFFFFFFFFFFFFFFFFFFFFFFFFFFFFFFF AND PUSH20 0xFFFFFFFFFFFFFFFFFFFFFFFFFFFFFFFFFFFFFFFF AND DUP2 MSTORE PUSH1 0x20 ADD PUSH1 0x2 DUP3 ADD PUSH0 SWAP1 SLOAD SWAP1 PUSH2 0x100 EXP SWAP1 DIV PUSH16 0xFFFFFFFFFFFFFFFFFFFFFFFFFFFFFFFF AND PUSH16 0xFFFFFFFFFFFFFFFFFFFFFFFFFFFFFFFF AND PUSH16 0xFFFFFFFFFFFFFFFFFFFFFFFFFFFFFFFF AND DUP2 MSTORE PUSH1 0x20 ADD PUSH1 0x2 DUP3 ADD PUSH1 0x10 SWAP1 SLOAD SWAP1 PUSH2 0x100 EXP SWAP1 DIV PUSH16 0xFFFFFFFFFFFFFFFFFFFFFFFFFFFFFFFF AND PUSH16 0xFFFFFFFFFFFFFFFFFFFFFFFFFFFFFFFF AND PUSH16 0xFFFFFFFFFFFFFFFFFFFFFFFFFFFFFFFF AND DUP2 MSTORE PUSH1 0x20 ADD PUSH1 0x3 DUP3 ADD SLOAD DUP2 MSTORE PUSH1 0x20 ADD PUSH1 0x4 DUP3 ADD SLOAD DUP2 MSTORE POP POP SWAP1 POP DUP1 PUSH1 0x40 ADD MLOAD PUSH16 0xFFFFFFFFFFFFFFFFFFFFFFFFFFFFFFFF AND TIMESTAMP GT PUSH2 0x62F JUMPI PUSH0 SWAP2 POP POP PUSH2 0x70D JUMP JUMPDEST PUSH0 DUP2 PUSH1 0x60 ADD MLOAD PUSH16 0xFFFFFFFFFFFFFFFFFFFFFFFFFFFFFFFF AND TIMESTAMP LT PUSH2 0x678 JUMPI DUP2 PUSH1 0x40 ADD MLOAD DUP3 PUSH1 0x60 ADD MLOAD PUSH2 0x661 SWAP2 SWAP1 PUSH2 0xF59 JUMP JUMPDEST PUSH16 0xFFFFFFFFFFFFFFFFFFFFFFFFFFFFFFFF AND PUSH2 0x69B JUMP JUMPDEST DUP2 PUSH1 0x40 ADD MLOAD PUSH16 0xFFFFFFFFFFFFFFFFFFFFFFFFFFFFFFFF AND TIMESTAMP PUSH2 0x69A SWAP2 SWAP1 PUSH2 0xF9C JUMP JUMPDEST JUMPDEST SWAP1 POP PUSH0 DUP3 PUSH1 0x40 ADD MLOAD DUP4 PUSH1 0x60 ADD MLOAD PUSH2 0x6B2 SWAP2 SWAP1 PUSH2 0xF59 JUMP JUMPDEST PUSH16 0xFFFFFFFFFFFFFFFFFFFFFFFFFFFFFFFF AND SWAP1 POP PUSH0 DUP2 DUP4 DUP6 PUSH1 0x80 ADD MLOAD PUSH2 0x6D8 SWAP2 SWAP1 PUSH2 0xFCF JUMP JUMPDEST PUSH2 0x6E2 SWAP2 SWAP1 PUSH2 0x103D JUMP JUMPDEST SWAP1 POP DUP4 PUSH1 0xA0 ADD MLOAD DUP2 GT PUSH2 0x6F5 JUMPI PUSH0 PUSH2 0x706 JUMP JUMPDEST DUP4 PUSH1 0xA0 ADD MLOAD DUP2 PUSH2 0x705 SWAP2 SWAP1 PUSH2 0xF9C JUMP JUMPDEST JUMPDEST SWAP5 POP POP POP POP POP JUMPDEST SWAP2 SWAP1 POP JUMP JUMPDEST PUSH0 PUSH0 PUSH20 0xFFFFFFFFFFFFFFFFFFFFFFFFFFFFFFFFFFFFFFFF AND DUP5 PUSH20 0xFFFFFFFFFFFFFFFFFFFFFFFFFFFFFFFFFFFFFFFF AND SUB PUSH2 0x781 JUMPI PUSH1 0x40 MLOAD PUSH32 0x8C379A000000000000000000000000000000000000000000000000000000000 DUP2 MSTORE PUSH1 0x4 ADD PUSH2 0x778 SWAP1 PUSH2 0x10B7 JUMP JUMPDEST PUSH1 0x40 MLOAD DUP1 SWAP2 SUB SWAP1 REVERT JUMPDEST DUP3 PUSH16 0xFFFFFFFFFFFFFFFFFFFFFFFFFFFFFFFF AND DUP3 PUSH16 0xFFFFFFFFFFFFFFFFFFFFFFFFFFFFFFFF AND GT PUSH2 0x7E7 JUMPI PUSH1 0x40 MLOAD PUSH32 0x8C379A000000000000000000000000000000000000000000000000000000000 DUP2 MSTORE PUSH1 0x4 ADD PUSH2 0x7DE SWAP1 PUSH2 0x111F JUMP JUMPDEST PUSH1 0x40 MLOAD DUP1 SWAP2 SUB SWAP1 REVERT JUMPDEST PUSH0 CALLVALUE GT PUSH2 0x829 JUMPI PUSH1 0x40 MLOAD PUSH32 0x8C379A000000000000000000000000000000000000000000000000000000000 DUP2 MSTORE PUSH1 0x4 ADD PUSH2 0x820 SWAP1 PUSH2 0x1187 JUMP JUMPDEST PUSH1 0x40 MLOAD DUP1 SWAP2 SUB SWAP1 REVERT JUMPDEST PUSH1 0x1 PUSH0 DUP2 SLOAD PUSH2 0x837 SWAP1 PUSH2 0x11A5 JUMP JUMPDEST SWAP2 SWAP1 POP DUP2 SWAP1 SSTORE SWAP1 POP PUSH1 0x40 MLOAD DUP1 PUSH1 0xC0 ADD PUSH1 0x40 MSTORE DUP1 CALLER PUSH20 0xFFFFFFFFFFFFFFFFFFFFFFFFFFFFFFFFFFFFFFFF AND DUP2 MSTORE PUSH1 0x20 ADD DUP6 PUSH20 0xFFFFFFFFFFFFFFFFFFFFFFFFFFFFFFFFFFFFFFFF AND DUP2 MSTORE PUSH1 0x20 ADD DUP5 PUSH16 0xFFFFFFFFFFFFFFFFFFFFFFFFFFFFFFFF AND DUP2 MSTORE PUSH1 0x20 ADD DUP4 PUSH16 0xFFFFFFFFFFFFFFFFFFFFFFFFFFFFFFFF AND DUP2 MSTORE PUSH1 0x20 ADD CALLVALUE DUP2 MSTORE PUSH1 0x20 ADD PUSH0 DUP2 MSTORE POP PUSH1 0x2 PUSH0 DUP4 DUP2 MSTORE PUSH1 0x20 ADD SWAP1 DUP2 MSTORE PUSH1 0x20 ADD PUSH0 KECCAK256 PUSH0 DUP3 ADD MLOAD DUP2 PUSH0 ADD PUSH0 PUSH2 0x100 EXP DUP2 SLOAD DUP2 PUSH20 0xFFFFFFFFFFFFFFFFFFFFFFFFFFFFFFFFFFFFFFFF MUL NOT AND SWAP1 DUP4 PUSH20 0xFFFFFFFFFFFFFFFFFFFFFFFFFFFFFFFFFFFFFFFF AND MUL OR SWAP1 SSTORE POP PUSH1 0x20 DUP3 ADD MLOAD DUP2 PUSH1 0x1 ADD PUSH0 PUSH2 0x100 EXP DUP2 SLOAD DUP2 PUSH20 0xFFFFFFFFFFFFFFFFFFFFFFFFFFFFFFFFFFFFFFFF MUL NOT AND SWAP1 DUP4 PUSH20 0xFFFFFFFFFFFFFFFFFFFFFFFFFFFFFFFFFFFFFFFF AND MUL OR SWAP1 SSTORE POP PUSH1 0x40 DUP3 ADD MLOAD DUP2 PUSH1 0x2 ADD PUSH0 PUSH2 0x100 EXP DUP2 SLOAD DUP2 PUSH16 0xFFFFFFFFFFFFFFFFFFFFFFFFFFFFFFFF MUL NOT AND SWAP1 DUP4 PUSH16 0xFFFFFFFFFFFFFFFFFFFFFFFFFFFFFFFF AND MUL OR SWAP1 SSTORE POP PUSH1 0x60 DUP3 ADD MLOAD DUP2 PUSH1 0x2 ADD PUSH1 0x10 PUSH2 0x100 EXP DUP2 SLOAD DUP2 PUSH16 0xFFFFFFFFFFFFFFFFFFFFFFFFFFFFFFFF MUL NOT AND SWAP1 DUP4 PUSH16 0xFFFFFFFFFFFFFFFFFFFFFFFFFFFFFFFF AND MUL OR SWAP1 SSTORE POP PUSH1 0x80 DUP3 ADD MLOAD DUP2 PUSH1 0x3 ADD SSTORE PUSH1 0xA0 DUP3 ADD MLOAD DUP2 PUSH1 0x4 ADD SSTORE SWAP1 POP POP DUP1 PUSH32 0x71D3012B7068E587CF9B6E9763D04542A7ED008FBF45D784E1543D0DAF57063E CALLER DUP7 DUP7 DUP7 CALLVALUE PUSH1 0x40 MLOAD PUSH2 0xA23 SWAP6 SWAP5 SWAP4 SWAP3 SWAP2 SWAP1 PUSH2 0x11EC JUMP JUMPDEST PUSH1 0x40 MLOAD DUP1 SWAP2 SUB SWAP1 LOG2 SWAP4 SWAP3 POP POP POP JUMP JUMPDEST PUSH0 PUSH0 REVERT JUMPDEST PUSH0 DUP2 SWAP1 POP SWAP2 SWAP1 POP JUMP JUMPDEST PUSH2 0xA48 DUP2 PUSH2 0xA36 JUMP JUMPDEST DUP2 EQ PUSH2 0xA52 JUMPI PUSH0 PUSH0 REVERT JUMPDEST POP JUMP JUMPDEST PUSH0 DUP2 CALLDATALOAD SWAP1 POP PUSH2 0xA63 DUP2 PUSH2 0xA3F JUMP JUMPDEST SWAP3 SWAP2 POP POP JUMP JUMPDEST PUSH0 PUSH0 PUSH1 0x40 DUP4 DUP6 SUB SLT ISZERO PUSH2 0xA7F JUMPI PUSH2 0xA7E PUSH2 0xA32 JUMP JUMPDEST JUMPDEST PUSH0 PUSH2 0xA8C DUP6 DUP3 DUP7 ADD PUSH2 0xA55 JUMP JUMPDEST SWAP3 POP POP PUSH1 0x20 PUSH2 0xA9D DUP6 DUP3 DUP7 ADD PUSH2 0xA55 JUMP JUMPDEST SWAP2 POP POP SWAP3 POP SWAP3 SWAP1 POP JUMP JUMPDEST PUSH2 0xAB0 DUP2 PUSH2 0xA36 JUMP JUMPDEST DUP3 MSTORE POP POP JUMP JUMPDEST PUSH0 PUSH1 0x20 DUP3 ADD SWAP1 POP PUSH2 0xAC9 PUSH0 DUP4 ADD DUP5 PUSH2 0xAA7 JUMP JUMPDEST SWAP3 SWAP2 POP POP JUMP JUMPDEST PUSH0 PUSH1 0x20 DUP3 DUP5 SUB SLT ISZERO PUSH2 0xAE4 JUMPI PUSH2 0xAE3 PUSH2 0xA32 JUMP JUMPDEST JUMPDEST PUSH0 PUSH2 0xAF1 DUP5 DUP3 DUP6 ADD PUSH2 0xA55 JUMP JUMPDEST SWAP2 POP POP SWAP3 SWAP2 POP POP JUMP JUMPDEST PUSH0 PUSH20 0xFFFFFFFFFFFFFFFFFFFFFFFFFFFFFFFFFFFFFFFF DUP3 AND SWAP1 POP SWAP2 SWAP1 POP JUMP JUMPDEST PUSH0 PUSH2 0xB23 DUP3 PUSH2 0xAFA JUMP JUMPDEST SWAP1 POP SWAP2 SWAP1 POP JUMP JUMPDEST PUSH2 0xB33 DUP2 PUSH2 0xB19 JUMP JUMPDEST DUP3 MSTORE POP POP JUMP JUMPDEST PUSH0 PUSH2 0xB43 DUP3 PUSH2 0xAFA JUMP JUMPDEST SWAP1 POP SWAP2 SWAP1 POP JUMP JUMPDEST PUSH2 0xB53 DUP2 PUSH2 0xB39 JUMP JUMPDEST DUP3 MSTORE POP POP JUMP JUMPDEST PUSH0 PUSH16 0xFFFFFFFFFFFFFFFFFFFFFFFFFFFFFFFF DUP3 AND SWAP1 POP SWAP2 SWAP1 POP JUMP JUMPDEST PUSH2 0xB7D DUP2 PUSH2 0xB59 JUMP JUMPDEST DUP3 MSTORE POP POP JUMP JUMPDEST PUSH0 PUSH1 0xC0 DUP3 ADD SWAP1 POP PUSH2 0xB96 PUSH0 DUP4 ADD DUP10 PUSH2 0xB2A JUMP JUMPDEST PUSH2 0xBA3 PUSH1 0x20 DUP4 ADD DUP9 PUSH2 0xB4A JUMP JUMPDEST PUSH2 0xBB0 PUSH1 0x40 DUP4 ADD DUP8 PUSH2 0xB74 JUMP JUMPDEST PUSH2 0xBBD PUSH1 0x60 DUP4 ADD DUP7 PUSH2 0xB74 JUMP JUMPDEST PUSH2 0xBCA PUSH1 0x80 DUP4 ADD DUP6 PUSH2 0xAA7 JUMP JUMPDEST PUSH2 0xBD7 PUSH1 0xA0 DUP4 ADD DUP5 PUSH2 0xAA7 JUMP JUMPDEST SWAP8 SWAP7 POP POP POP POP POP POP POP JUMP JUMPDEST PUSH2 0xBEB DUP2 PUSH2 0xB39 JUMP JUMPDEST DUP2 EQ PUSH2 0xBF5 JUMPI PUSH0 PUSH0 REVERT JUMPDEST POP JUMP JUMPDEST PUSH0 DUP2 CALLDATALOAD SWAP1 POP PUSH2 0xC06 DUP2 PUSH2 0xBE2 JUMP JUMPDEST SWAP3 SWAP2 POP POP JUMP JUMPDEST PUSH2 0xC15 DUP2 PUSH2 0xB59 JUMP JUMPDEST DUP2 EQ PUSH2 0xC1F JUMPI PUSH0 PUSH0 REVERT JUMPDEST POP JUMP JUMPDEST PUSH0 DUP2 CALLDATALOAD SWAP1 POP PUSH2 0xC30 DUP2 PUSH2 0xC0C JUMP JUMPDEST SWAP3 SWAP2 POP POP JUMP JUMPDEST PUSH0 PUSH0 PUSH0 PUSH1 0x60 DUP5 DUP7 SUB SLT ISZERO PUSH2 0xC4D JUMPI PUSH2 0xC4C PUSH2 0xA32 JUMP JUMPDEST JUMPDEST PUSH0 PUSH2 0xC5A DUP7 DUP3 DUP8 ADD PUSH2 0xBF8 JUMP JUMPDEST SWAP4 POP POP PUSH1 0x20 PUSH2 0xC6B DUP7 DUP3 DUP8 ADD PUSH2 0xC22 JUMP JUMPDEST SWAP3 POP POP PUSH1 0x40 PUSH2 0xC7C DUP7 DUP3 DUP8 ADD PUSH2 0xC22 JUMP JUMPDEST SWAP2 POP POP SWAP3 POP SWAP3 POP SWAP3 JUMP JUMPDEST PUSH0 DUP3 DUP3 MSTORE PUSH1 0x20 DUP3 ADD SWAP1 POP SWAP3 SWAP2 POP POP JUMP JUMPDEST PUSH32 0x7265656E7472616E637900000000000000000000000000000000000000000000 PUSH0 DUP3 ADD MSTORE POP JUMP JUMPDEST PUSH0 PUSH2 0xCCA PUSH1 0xA DUP4 PUSH2 0xC86 JUMP JUMPDEST SWAP2 POP PUSH2 0xCD5 DUP3 PUSH2 0xC96 JUMP JUMPDEST PUSH1 0x20 DUP3 ADD SWAP1 POP SWAP2 SWAP1 POP JUMP JUMPDEST PUSH0 PUSH1 0x20 DUP3 ADD SWAP1 POP DUP2 DUP2 SUB PUSH0 DUP4 ADD MSTORE PUSH2 0xCF7 DUP2 PUSH2 0xCBE JUMP JUMPDEST SWAP1 POP SWAP2 SWAP1 POP JUMP JUMPDEST PUSH32 0x6E6F742063726561746F72000000000000000000000000000000000000000000 PUSH0 DUP3 ADD MSTORE POP JUMP JUMPDEST PUSH0 PUSH2 0xD32 PUSH1 0xB DUP4 PUSH2 0xC86 JUMP JUMPDEST SWAP2 POP PUSH2 0xD3D DUP3 PUSH2 0xCFE JUMP JUMPDEST PUSH1 0x20 DUP3 ADD SWAP1 POP SWAP2 SWAP1 POP JUMP JUMPDEST PUSH0 PUSH1 0x20 DUP3 ADD SWAP1 POP DUP2 DUP2 SUB PUSH0 DUP4 ADD MSTORE PUSH2 0xD5F DUP2 PUSH2 0xD26 JUMP JUMPDEST SWAP1 POP SWAP2 SWAP1 POP JUMP JUMPDEST PUSH32 0x62616420616D6F756E7400000000000000000000000000000000000000000000 PUSH0 DUP3 ADD MSTORE POP JUMP JUMPDEST PUSH0 PUSH2 0xD9A PUSH1 0xA DUP4 PUSH2 0xC86 JUMP JUMPDEST SWAP2 POP PUSH2 0xDA5 DUP3 PUSH2 0xD66 JUMP JUMPDEST PUSH1 0x20 DUP3 ADD SWAP1 POP SWAP2 SWAP1 POP JUMP JUMPDEST PUSH0 PUSH1 0x20 DUP3 ADD SWAP1 POP DUP2 DUP2 SUB PUSH0 DUP4 ADD MSTORE PUSH2 0xDC7 DUP2 PUSH2 0xD8E JUMP JUMPDEST SWAP1 POP SWAP2 SWAP1 POP JUMP JUMPDEST PUSH32 0x4E487B7100000000000000000000000000000000000000000000000000000000 PUSH0 MSTORE PUSH1 0x11 PUSH1 0x4 MSTORE PUSH1 0x24 PUSH0 REVERT JUMPDEST PUSH0 PUSH2 0xE05 DUP3 PUSH2 0xA36 JUMP JUMPDEST SWAP2 POP PUSH2 0xE10 DUP4 PUSH2 0xA36 JUMP JUMPDEST SWAP3 POP DUP3 DUP3 ADD SWAP1 POP DUP1 DUP3 GT ISZERO PUSH2 0xE28 JUMPI PUSH2 0xE27 PUSH2 0xDCE JUMP JUMPDEST JUMPDEST SWAP3 SWAP2 POP POP JUMP JUMPDEST PUSH0 DUP2 SWAP1 POP SWAP3 SWAP2 POP POP JUMP JUMPDEST POP JUMP JUMPDEST PUSH0 PUSH2 0xE46 PUSH0 DUP4 PUSH2 0xE2E JUMP JUMPDEST SWAP2 POP PUSH2 0xE51 DUP3 PUSH2 0xE38 JUMP JUMPDEST PUSH0 DUP3 ADD SWAP1 POP SWAP2 SWAP1 POP JUMP JUMPDEST PUSH0 PUSH2 0xE65 DUP3 PUSH2 0xE3B JUMP JUMPDEST SWAP2 POP DUP2 SWAP1 POP SWAP2 SWAP1 POP JUMP JUMPDEST PUSH32 0x7472616E73666572206661696C65640000000000000000000000000000000000 PUSH0 DUP3 ADD MSTORE POP JUMP JUMPDEST PUSH0 PUSH2 0xEA3 PUSH1 0xF DUP4 PUSH2 0xC86 JUMP JUMPDEST SWAP2 POP PUSH2 0xEAE DUP3 PUSH2 0xE6F JUMP JUMPDEST PUSH1 0x20 DUP3 ADD SWAP1 POP SWAP2 SWAP1 POP JUMP JUMPDEST PUSH0 PUSH1 0x20 DUP3 ADD SWAP1 POP DUP2 DUP2 SUB PUSH0 DUP4 ADD MSTORE PUSH2 0xED0 DUP2 PUSH2 0xE97 JUMP JUMPDEST SWAP1 POP SWAP2 SWAP1 POP JUMP JUMPDEST PUSH0 DUP2 SWAP1 POP SWAP2 SWAP1 POP JUMP JUMPDEST PUSH0 PUSH2 0xEFA PUSH2 0xEF5 PUSH2 0xEF0 DUP5 PUSH2 0xAFA JUMP JUMPDEST PUSH2 0xED7 JUMP JUMPDEST PUSH2 0xAFA JUMP JUMPDEST SWAP1 POP SWAP2 SWAP1 POP JUMP JUMPDEST PUSH0 PUSH2 0xF0B DUP3 PUSH2 0xEE0 JUMP JUMPDEST SWAP1 POP SWAP2 SWAP1 POP JUMP JUMPDEST PUSH0 PUSH2 0xF1C DUP3 PUSH2 0xF01 JUMP JUMPDEST SWAP1 POP SWAP2 SWAP1 POP JUMP JUMPDEST PUSH2 0xF2C DUP2 PUSH2 0xF12 JUMP JUMPDEST DUP3 MSTORE POP POP JUMP JUMPDEST PUSH0 PUSH1 0x40 DUP3 ADD SWAP1 POP PUSH2 0xF45 PUSH0 DUP4 ADD DUP6 PUSH2 0xF23 JUMP JUMPDEST PUSH2 0xF52 PUSH1 0x20 DUP4 ADD DUP5 PUSH2 0xAA7 JUMP JUMPDEST SWAP4 SWAP3 POP POP POP JUMP JUMPDEST PUSH0 PUSH2 0xF63 DUP3 PUSH2 0xB59 JUMP JUMPDEST SWAP2 POP PUSH2 0xF6E DUP4 PUSH2 0xB59 JUMP JUMPDEST SWAP3 POP DUP3 DUP3 SUB SWAP1 POP PUSH16 0xFFFFFFFFFFFFFFFFFFFFFFFFFFFFFFFF DUP2 GT ISZERO PUSH2 0xF96 JUMPI PUSH2 0xF95 PUSH2 0xDCE JUMP JUMPDEST JUMPDEST SWAP3 SWAP2 POP POP JUMP JUMPDEST PUSH0 PUSH2 0xFA6 DUP3 PUSH2 0xA36 JUMP JUMPDEST SWAP2 POP PUSH2 0xFB1 DUP4 PUSH2 0xA36 JUMP JUMPDEST SWAP3 POP DUP3 DUP3 SUB SWAP1 POP DUP2 DUP2 GT ISZERO PUSH2 0xFC9 JUMPI PUSH2 0xFC8 PUSH2 0xDCE JUMP JUMPDEST JUMPDEST SWAP3 SWAP2 POP POP JUMP JUMPDEST PUSH0 PUSH2 0xFD9 DUP3 PUSH2 0xA36 JUMP JUMPDEST SWAP2 POP PUSH2 0xFE4 DUP4 PUSH2 0xA36 JUMP JUMPDEST SWAP3 POP DUP3 DUP3 MUL PUSH2 0xFF2 DUP2 PUSH2 0xA36 JUMP JUMPDEST SWAP2 POP DUP3 DUP3 DIV DUP5 EQ DUP4 ISZERO OR PUSH2 0x1009 JUMPI PUSH2 0x1008 PUSH2 0xDCE JUMP JUMPDEST JUMPDEST POP SWAP3 SWAP2 POP POP JUMP JUMPDEST PUSH32 0x4E487B7100000000000000000000000000000000000000000000000000000000 PUSH0 MSTORE PUSH1 0x12 PUSH1 0x4 MSTORE PUSH1 0x24 PUSH0 REVERT JUMPDEST PUSH0 PUSH2 0x1047 DUP3 PUSH2 0xA36 JUMP JUMPDEST SWAP2 POP PUSH2 0x1052 DUP4 PUSH2 0xA36 JUMP JUMPDEST SWAP3 POP DUP3 PUSH2 0x1062 JUMPI PUSH2 0x1061 PUSH2 0x1010 JUMP JUMPDEST JUMPDEST DUP3 DUP3 DIV SWAP1 POP SWAP3 SWAP2 POP POP JUMP JUMPDEST PUSH32 0x63726561746F723D300000000000000000000000000000000000000000000000 PUSH0 DUP3 ADD MSTORE POP JUMP JUMPDEST PUSH0 PUSH2 0x10A1 PUSH1 0x9 DUP4 PUSH2 0xC86 JUMP JUMPDEST SWAP2 POP PUSH2 0x10AC DUP3 PUSH2 0x106D JUMP JUMPDEST PUSH1 0x20 DUP3 ADD SWAP1 POP SWAP2 SWAP1 POP JUMP JUMPDEST PUSH0 PUSH1 0x20 DUP3 ADD SWAP1 POP DUP2 DUP2 SUB PUSH0 DUP4 ADD MSTORE PUSH2 0x10CE DUP2 PUSH2 0x1095 JUMP JUMPDEST SWAP1 POP SWAP2 SWAP1 POP JUMP JUMPDEST PUSH32 0x6261642074696D65000000000000000000000000000000000000000000000000 PUSH0 DUP3 ADD MSTORE POP JUMP JUMPDEST PUSH0 PUSH2 0x1109 PUSH1 0x8 DUP4 PUSH2 0xC86 JUMP JUMPDEST SWAP2 POP PUSH2 0x1114 DUP3 PUSH2 0x10D5 JUMP JUMPDEST PUSH1 0x20 DUP3 ADD SWAP1 POP SWAP2 SWAP1 POP JUMP JUMPDEST PUSH0 PUSH1 0x20 DUP3 ADD SWAP1 POP DUP2 DUP2 SUB PUSH0 DUP4 ADD MSTORE PUSH2 0x1136 DUP2 PUSH2 0x10FD JUMP JUMPDEST SWAP1 POP SWAP2 SWAP1 POP JUMP JUMPDEST PUSH32 0x6E6F2066756E6473000000000000000000000000000000000000000000000000 PUSH0 DUP3 ADD MSTORE POP JUMP JUMPDEST PUSH0 PUSH2 0x1171 PUSH1 0x8 DUP4 PUSH2 0xC86 JUMP JUMPDEST SWAP2 POP PUSH2 0x117C DUP3 PUSH2 0x113D JUMP JUMPDEST PUSH1 0x20 DUP3 ADD SWAP1 POP SWAP2 SWAP1 POP JUMP JUMPDEST PUSH0 PUSH1 0x20 DUP3 ADD SWAP1 POP DUP2 DUP2 SUB PUSH0 DUP4 ADD MSTORE PUSH2 0x119E DUP2 PUSH2 0x1165 JUMP JUMPDEST SWAP1 POP SWAP2 SWAP1 POP JUMP JUMPDEST PUSH0 PUSH2 0x11AF DUP3 PUSH2 0xA36 JUMP JUMPDEST SWAP2 POP PUSH32 0xFFFFFFFFFFFFFFFFFFFFFFFFFFFFFFFFFFFFFFFFFFFFFFFFFFFFFFFFFFFFFFFF DUP3 SUB PUSH2 0x11E1 JUMPI PUSH2 0x11E0 PUSH2 0xDCE JUMP JUMPDEST JUMPDEST PUSH1 0x1 DUP3 ADD SWAP1 POP SWAP2 SWAP1 POP JUMP JUMPDEST PUSH0 PUSH1 0xA0 DUP3 ADD SWAP1 POP PUSH2 0x11FF PUSH0 DUP4 ADD DUP9 PUSH2 0xB2A JUMP JUMPDEST PUSH2 0x120C PUSH1 0x20 DUP4 ADD DUP8 PUSH2 0xF23 JUMP JUMPDEST PUSH2 0x1219 PUSH1 0x40 DUP4 ADD DUP7 PUSH2 0xB74 JUMP JUMPDEST PUSH2 0x1226 PUSH1 0x60 DUP4 ADD DUP6 PUSH2 0xB74 JUMP JUMPDEST PUSH2 0x1233 PUSH1 0x80 DUP4 ADD DUP5 PUSH2 0xAA7 JUMP JUMPDEST SWAP7 SWAP6 POP POP POP POP POP POP JUMP INVALID LOG2 PUSH5 0x6970667358 0x22 SLT KECCAK256 GASLIMIT 0xE2 PUSH0 0x4F ADD CHAINID GAS LOG4 SWAP14 SWAP6 RJUMP 0x8B50 CALLDATACOPY 0xF6 OR EOFCREATE 0x35 0x4D INVALID LOG2 TIMESTAMP 0xA9 0xDD 0xBE CALLDATALOAD 0x4D CALLVALUE 0xA7 0xB9 CALLDATASIZE ADDMOD PUSH5 0x736F6C6343 STOP ADDMOD 0x1E STOP CALLER "
				},
				"gasEstimates": {
					"creation": {
						"codeDepositCost": "944600",
						"executionCost": "23084",
						"totalCost": "967684"
					},
					"external": {
						"createStream(address,uint128,uint128)": "infinite",
						"nextId()": "2425",
						"streams(uint256)": "infinite",
						"withdraw(uint256,uint256)": "infinite",
						"withdrawable(uint256)": "infinite"
					}
				},
				"methodIdentifiers": {
					"createStream(address,uint128,uint128)": "fde16b2f",
					"nextId()": "61b8ce8c",
					"streams(uint256)": "64d60d91",
					"withdraw(uint256,uint256)": "441a3e70",
					"withdrawable(uint256)": "f11988e0"
				}
			},
			"storageLayout": {
				"storage": [
					{
						"astId": 10,
						"contract": "contracts/CreatorStreamNative.sol:CreatorStreamNative",
						"label": "_status",
						"offset": 0,
						"slot": "0",
						"type": "t_uint256"
					},
					{
						"astId": 47,
						"contract": "contracts/CreatorStreamNative.sol:CreatorStreamNative",
						"label": "nextId",
						"offset": 0,
						"slot": "1",
						"type": "t_uint256"
					},
					{
						"astId": 52,
						"contract": "contracts/CreatorStreamNative.sol:CreatorStreamNative",
						"label": "streams",
						"offset": 0,
						"slot": "2",
						"type": "t_mapping(t_uint256,t_struct(Stream)45_storage)"
					}
				],
				"types": {
					"t_address": {
						"encoding": "inplace",
						"label": "address",
						"numberOfBytes": "20"
					},
					"t_address_payable": {
						"encoding": "inplace",
						"label": "address payable",
						"numberOfBytes": "20"
					},
					"t_mapping(t_uint256,t_struct(Stream)45_storage)": {
						"encoding": "mapping",
						"key": "t_uint256",
						"label": "mapping(uint256 => struct CreatorStreamNative.Stream)",
						"numberOfBytes": "32",
						"value": "t_struct(Stream)45_storage"
					},
					"t_struct(Stream)45_storage": {
						"encoding": "inplace",
						"label": "struct CreatorStreamNative.Stream",
						"members": [
							{
								"astId": 34,
								"contract": "contracts/CreatorStreamNative.sol:CreatorStreamNative",
								"label": "sponsor",
								"offset": 0,
								"slot": "0",
								"type": "t_address"
							},
							{
								"astId": 36,
								"contract": "contracts/CreatorStreamNative.sol:CreatorStreamNative",
								"label": "creator",
								"offset": 0,
								"slot": "1",
								"type": "t_address_payable"
							},
							{
								"astId": 38,
								"contract": "contracts/CreatorStreamNative.sol:CreatorStreamNative",
								"label": "start",
								"offset": 0,
								"slot": "2",
								"type": "t_uint128"
							},
							{
								"astId": 40,
								"contract": "contracts/CreatorStreamNative.sol:CreatorStreamNative",
								"label": "end",
								"offset": 16,
								"slot": "2",
								"type": "t_uint128"
							},
							{
								"astId": 42,
								"contract": "contracts/CreatorStreamNative.sol:CreatorStreamNative",
								"label": "total",
								"offset": 0,
								"slot": "3",
								"type": "t_uint256"
							},
							{
								"astId": 44,
								"contract": "contracts/CreatorStreamNative.sol:CreatorStreamNative",
								"label": "withdrawn",
								"offset": 0,
								"slot": "4",
								"type": "t_uint256"
							}
						],
						"numberOfBytes": "160"
					},
					"t_uint128": {
						"encoding": "inplace",
						"label": "uint128",
						"numberOfBytes": "16"
					},
					"t_uint256": {
						"encoding": "inplace",
						"label": "uint256",
						"numberOfBytes": "32"
					}
				}
			},
			"userdoc": {
				"kind": "user",
				"methods": {},
				"version": 1
			}
		}
	}
}