{
	"data": {
		"bytecode": {
			"linkReferences": {},
			"object": "60806040526001600855348015610014575f5ffd5b506040518060400160405280600a81526020017f43656c6f5469636b6574000000000000000000000000000000000000000000008152506040518060400160405280600481526020017f4354495800000000000000000000000000000000000000000000000000000000815250815f908161008f919061037e565b50806001908161009f919061037e565b5050503360075f6101000a81548173ffffffffffffffffffffffffffffffffffffffff021916908373ffffffffffffffffffffffffffffffffffffffff1602179055503373ffffffffffffffffffffffffffffffffffffffff165f73ffffffffffffffffffffffffffffffffffffffff167f8be0079c531659141344cd1fd0a4f28419497f9722a3daafe3b4186f6b6457e060405160405180910390a361044d565b5f81519050919050565b7f4e487b71000000000000000000000000000000000000000000000000000000005f52604160045260245ffd5b7f4e487b71000000000000000000000000000000000000000000000000000000005f52602260045260245ffd5b5f60028204905060018216806101bc57607f821691505b6020821081036101cf576101ce610178565b5b50919050565b5f819050815f5260205f209050919050565b5f6020601f8301049050919050565b5f82821b905092915050565b5f600883026102317fffffffffffffffffffffffffffffffffffffffffffffffffffffffffffffffff826101f6565b61023b86836101f6565b95508019841693508086168417925050509392505050565b5f819050919050565b5f819050919050565b5f61027f61027a61027584610253565b61025c565b610253565b9050919050565b5f819050919050565b61029883610265565b6102ac6102a482610286565b848454610202565b825550505050565b5f5f905090565b6102c36102b4565b6102ce81848461028f565b505050565b5b818110156102f1576102e65f826102bb565b6001810190506102d4565b5050565b601f82111561033657610307816101d5565b610310846101e7565b8101602085101561031f578190505b61033361032b856101e7565b8301826102d3565b50505b505050565b5f82821c905092915050565b5f6103565f198460080261033b565b1980831691505092915050565b5f61036e8383610347565b9150826002028217905092915050565b61038782610141565b67ffffffffffffffff8111156103a05761039f61014b565b5b6103aa82546101a5565b6103b58282856102f5565b5f60209050601f8311600181146103e6575f84156103d4578287015190505b6103de8582610363565b865550610445565b601f1984166103f4866101d5565b5f5b8281101561041b578489015182556001820191506020850194506020810190506103f6565b868310156104385784890151610434601f891682610347565b8355505b6001600288020188555050505b505050505050565b61469f8061045a5f395ff3fe60806040526004361061011e575f3560e01c806395d89b411161009f578063c87b56dd11610063578063c87b56dd14610414578063d96a094a14610450578063e60a955d1461046c578063e985e9c514610494578063f2fde38b146104d05761011e565b806395d89b4114610322578063a22cb4651461034c578063b88d4fde14610374578063bb7667661461039c578063c20b324d146103d85761011e565b806342842e0e116100e657806342842e0e1461021457806358e6116f1461023c5780636352211e1461028057806370a08231146102bc5780638da5cb5b146102f85761011e565b806301ffc9a71461012257806306fdde031461015e578063081812fc14610188578063095ea7b3146101c457806323b872dd146101ec575b5f5ffd5b34801561012d575f5ffd5b5061014860048036038101906101439190612bd6565b6104f8565b6040516101559190612c1b565b60405180910390f35b348015610169575f5ffd5b50610172610558565b60405161017f9190612ca4565b60405180910390f35b348015610193575f5ffd5b506101ae60048036038101906101a99190612cf7565b6105e7565b6040516101bb9190612d61565b60405180910390f35b3480156101cf575f5ffd5b506101ea60048036038101906101e59190612da4565b610629565b005b3480156101f7575f5ffd5b50610212600480360381019061020d9190612de2565b61073f565b005b34801561021f575f5ffd5b5061023a60048036038101906102359190612de2565b61079f565b005b348015610247575f5ffd5b50610262600480360381019061025d9190612cf7565b6107be565b60405161027799989796959493929190612e83565b60405180910390f35b34801561028b575f5ffd5b506102a660048036038101906102a19190612cf7565b610988565b6040516102b39190612d61565b60405180910390f35b3480156102c7575f5ffd5b506102e260048036038101906102dd9190612f1c565b610a0c565b6040516102ef9190612f47565b60405180910390f35b348015610303575f5ffd5b5061030c610ac0565b6040516103199190612d61565b60405180910390f35b34801561032d575f5ffd5b50610336610ae5565b6040516103439190612ca4565b60405180910390f35b348015610357575f5ffd5b50610372600480360381019061036d9190612f8a565b610b75565b005b34801561037f575f5ffd5b5061039a600480360381019061039591906130f4565b610b8b565b005b3480156103a7575f5ffd5b506103c260048036038101906103bd9190613266565b610bed565b6040516103cf9190612f47565b60405180910390f35b3480156103e3575f5ffd5b506103fe60048036038101906103f99190612cf7565b610f6a565b60405161040b9190612f47565b60405180910390f35b34801561041f575f5ffd5b5061043a60048036038101906104359190612cf7565b610f7f565b6040516104479190612ca4565b60405180910390f35b61046a60048036038101906104659190612cf7565b611089565b005b348015610477575f5ffd5b50610492600480360381019061048d919061333b565b61141a565b005b34801561049f575f5ffd5b506104ba60048036038101906104b59190613379565b611511565b6040516104c79190612c1b565b60405180910390f35b3480156104db575f5ffd5b506104f660048036038101906104f19190612f1c565b61159f565b005b5f634906490660e01b7bffffffffffffffffffffffffffffffffffffffffffffffffffffffff1916827bffffffffffffffffffffffffffffffffffffffffffffffffffffffff1916148061055157506105508261175a565b5b9050919050565b60605f8054610566906133e4565b80601f0160208091040260200160405190810160405280929190818152602001828054610592906133e4565b80156105dd5780601f106105b4576101008083540402835291602001916105dd565b820191905f5260205f20905b8154815290600101906020018083116105c057829003601f168201915b5050505050905090565b5f6105f18261183b565b60045f8381526020019081526020015f205f9054906101000a900473ffffffffffffffffffffffffffffffffffffffff169050919050565b5f61063382610988565b90508073ffffffffffffffffffffffffffffffffffffffff168373ffffffffffffffffffffffffffffffffffffffff16036106a3576040517f08c379a000000000000000000000000000000000000000000000000000000000815260040161069a90613484565b60405180910390fd5b8073ffffffffffffffffffffffffffffffffffffffff166106c2611886565b73ffffffffffffffffffffffffffffffffffffffff1614806106f157506106f0816106eb611886565b611511565b5b610730576040517f08c379a000000000000000000000000000000000000000000000000000000000815260040161072790613512565b60405180910390fd5b61073a838361188d565b505050565b61075061074a611886565b82611943565b61078f576040517f08c379a0000000000000000000000000000000000000000000000000000000008152600401610786906135a0565b60405180910390fd5b61079a8383836119d7565b505050565b6107b983838360405180602001604052805f815250610b8b565b505050565b600a602052805f5260405f205f91509050805f0180546107dd906133e4565b80601f0160208091040260200160405190810160405280929190818152602001828054610809906133e4565b80156108545780601f1061082b57610100808354040283529160200191610854565b820191905f5260205f20905b81548152906001019060200180831161083757829003601f168201915b505050505090806001015490806002015f9054906101000a900467ffffffffffffffff16908060020160089054906101000a900467ffffffffffffffff16908060020160109054906101000a900467ffffffffffffffff16908060020160189054906101000a900460ff16908060030180546108cf906133e4565b80601f01602080910402602001604051908101604052809291908181526020018280546108fb906133e4565b80156109465780601f1061091d57610100808354040283529160200191610946565b820191905f5260205f20905b81548152906001019060200180831161092957829003601f168201915b505050505090806004015f9054906101000a900473ffffffffffffffffffffffffffffffffffffffff16908060040160149054906101000a900460ff16905089565b5f5f61099383611cc3565b90505f73ffffffffffffffffffffffffffffffffffffffff168173ffffffffffffffffffffffffffffffffffffffff1603610a03576040517f08c379a00000000000000000000000000000000000000000000000000000000081526004016109fa90613608565b60405180910390fd5b80915050919050565b5f5f73ffffffffffffffffffffffffffffffffffffffff168273ffffffffffffffffffffffffffffffffffffffff1603610a7b576040517f08c379a0000000000000000000000000000000000000000000000000000000008152600401610a7290613696565b60405180910390fd5b60035f8373ffffffffffffffffffffffffffffffffffffffff1673ffffffffffffffffffffffffffffffffffffffff1681526020019081526020015f20549050919050565b60075f9054906101000a900473ffffffffffffffffffffffffffffffffffffffff1681565b606060018054610af4906133e4565b80601f0160208091040260200160405190810160405280929190818152602001828054610b20906133e4565b8015610b6b5780601f10610b4257610100808354040283529160200191610b6b565b820191905f5260205f20905b815481529060010190602001808311610b4e57829003601f168201915b5050505050905090565b610b87610b80611886565b8383611cfc565b5050565b610b9c610b96611886565b83611943565b610bdb576040517f08c379a0000000000000000000000000000000000000000000000000000000008152600401610bd2906135a0565b60405180910390fd5b610be784848484611e63565b50505050565b5f60075f9054906101000a900473ffffffffffffffffffffffffffffffffffffffff1673ffffffffffffffffffffffffffffffffffffffff163373ffffffffffffffffffffffffffffffffffffffff1614610c7d576040517f08c379a0000000000000000000000000000000000000000000000000000000008152600401610c74906136fe565b60405180910390fd5b5f8567ffffffffffffffff1611610cc9576040517f08c379a0000000000000000000000000000000000000000000000000000000008152600401610cc090613766565b60405180910390fd5b5f73ffffffffffffffffffffffffffffffffffffffff168273ffffffffffffffffffffffffffffffffffffffff1603610d37576040517f08c379a0000000000000000000000000000000000000000000000000000000008152600401610d2e906137ce565b60405180910390fd5b610d416009611ebf565b610d4b6009611ed3565b90506040518061012001604052808981526020018881526020018767ffffffffffffffff1681526020018667ffffffffffffffff1681526020015f67ffffffffffffffff16815260200185151581526020018481526020018373ffffffffffffffffffffffffffffffffffffffff16815260200160011515815250600a5f8381526020019081526020015f205f820151815f019081610dea919061398c565b50602082015181600101556040820151816002015f6101000a81548167ffffffffffffffff021916908367ffffffffffffffff16021790555060608201518160020160086101000a81548167ffffffffffffffff021916908367ffffffffffffffff16021790555060808201518160020160106101000a81548167ffffffffffffffff021916908367ffffffffffffffff16021790555060a08201518160020160186101000a81548160ff02191690831515021790555060c0820151816003019081610eb6919061398c565b5060e0820151816004015f6101000a81548173ffffffffffffffffffffffffffffffffffffffff021916908373ffffffffffffffffffffffffffffffffffffffff1602179055506101008201518160040160146101000a81548160ff021916908315150217905550905050807f4d2d4aaadd4a06289f47540f5ab01615ba7b082e2123a01b26523d0c6bede46389898989604051610f579493929190613a5b565b60405180910390a2979650505050505050565b600b602052805f5260405f205f915090505481565b6060610f8a8261183b565b5f60065f8481526020019081526020015f208054610fa7906133e4565b80601f0160208091040260200160405190810160405280929190818152602001828054610fd3906133e4565b801561101e5780601f10610ff55761010080835404028352916020019161101e565b820191905f5260205f20905b81548152906001019060200180831161100157829003601f168201915b505050505090505f61102e611edf565b90505f815103611042578192505050611084565b5f8251111561107657808260405160200161105e929190613adf565b60405160208183030381529060405292505050611084565b61107f84611ef5565b925050505b919050565b6002600854036110ce576040517f08c379a00000000000000000000000000000000000000000000000000000000081526004016110c590613b4c565b60405180910390fd5b60026008819055505f600a5f8381526020019081526020015f2090508060040160149054906101000a900460ff1661113b576040517f08c379a000000000000000000000000000000000000000000000000000000000815260040161113290613bb4565b60405180910390fd5b8060020160089054906101000a900467ffffffffffffffff1667ffffffffffffffff168160020160109054906101000a900467ffffffffffffffff1667ffffffffffffffff16106111c1576040517f08c379a00000000000000000000000000000000000000000000000000000000081526004016111b890613c1c565b60405180910390fd5b80600101543414611207576040517f08c379a00000000000000000000000000000000000000000000000000000000081526004016111fe90613c84565b60405180910390fd5b5f816004015f9054906101000a900473ffffffffffffffffffffffffffffffffffffffff1673ffffffffffffffffffffffffffffffffffffffff163460405161124f90613ccf565b5f6040518083038185875af1925050503d805f8114611289576040519150601f19603f3d011682016040523d82523d5f602084013e61128e565b606091505b50509050806112d2576040517f08c379a00000000000000000000000000000000000000000000000000000000081526004016112c990613d2d565b60405180910390fd5b5f8360018460020160109054906101000a900467ffffffffffffffff166112f99190613d78565b443360405160200161130e9493929190613e4c565b604051602081830303815290604052805190602001205f1c90506113323382611f5a565b611368818460030161134384611f77565b604051602001611354929190613f63565b6040516020818303038152906040526120d0565b83600b5f8381526020019081526020015f208190555082600201601081819054906101000a900467ffffffffffffffff16809291906113a690613f91565b91906101000a81548167ffffffffffffffff021916908367ffffffffffffffff1602179055505080847f4fe0f5bb11eb6ab81c428fb83261719e5b22f84b3e1942cd491c3777504bb851338660010154604051611404929190613fc0565b60405180910390a3505050600160088190555050565b60075f9054906101000a900473ffffffffffffffffffffffffffffffffffffffff1673ffffffffffffffffffffffffffffffffffffffff163373ffffffffffffffffffffffffffffffffffffffff16146114a9576040517f08c379a00000000000000000000000000000000000000000000000000000000081526004016114a0906136fe565b60405180910390fd5b80600a5f8481526020019081526020015f2060040160146101000a81548160ff021916908315150217905550817f08af992dcd4fdd00691d366da8a8267301ef4df1d18ff1af4c336070990febb8826040516115059190612c1b565b60405180910390a25050565b5f60055f8473ffffffffffffffffffffffffffffffffffffffff1673ffffffffffffffffffffffffffffffffffffffff1681526020019081526020015f205f8373ffffffffffffffffffffffffffffffffffffffff1673ffffffffffffffffffffffffffffffffffffffff1681526020019081526020015f205f9054906101000a900460ff16905092915050565b60075f9054906101000a900473ffffffffffffffffffffffffffffffffffffffff1673ffffffffffffffffffffffffffffffffffffffff163373ffffffffffffffffffffffffffffffffffffffff161461162e576040517f08c379a0000000000000000000000000000000000000000000000000000000008152600401611625906136fe565b60405180910390fd5b5f73ffffffffffffffffffffffffffffffffffffffff168173ffffffffffffffffffffffffffffffffffffffff160361169c576040517f08c379a000000000000000000000000000000000000000000000000000000000815260040161169390614031565b60405180910390fd5b8073ffffffffffffffffffffffffffffffffffffffff1660075f9054906101000a900473ffffffffffffffffffffffffffffffffffffffff1673ffffffffffffffffffffffffffffffffffffffff167f8be0079c531659141344cd1fd0a4f28419497f9722a3daafe3b4186f6b6457e060405160405180910390a38060075f6101000a81548173ffffffffffffffffffffffffffffffffffffffff021916908373ffffffffffffffffffffffffffffffffffffffff16021790555050565b5f7f80ac58cd000000000000000000000000000000000000000000000000000000007bffffffffffffffffffffffffffffffffffffffffffffffffffffffff1916827bffffffffffffffffffffffffffffffffffffffffffffffffffffffff1916148061182457507f5b5e139f000000000000000000000000000000000000000000000000000000007bffffffffffffffffffffffffffffffffffffffffffffffffffffffff1916827bffffffffffffffffffffffffffffffffffffffffffffffffffffffff1916145b80611834575061183382612172565b5b9050919050565b611844816121db565b611883576040517f08c379a000000000000000000000000000000000000000000000000000000000815260040161187a90613608565b60405180910390fd5b50565b5f33905090565b8160045f8381526020019081526020015f205f6101000a81548173ffffffffffffffffffffffffffffffffffffffff021916908373ffffffffffffffffffffffffffffffffffffffff160217905550808273ffffffffffffffffffffffffffffffffffffffff166118fd83610988565b73ffffffffffffffffffffffffffffffffffffffff167f8c5be1e5ebec7d5bd14f71427d1e84f3dd0314c0f7b2291e5b200ac8c7c3b92560405160405180910390a45050565b5f5f61194e83610988565b90508073ffffffffffffffffffffffffffffffffffffffff168473ffffffffffffffffffffffffffffffffffffffff161480611990575061198f8185611511565b5b806119ce57508373ffffffffffffffffffffffffffffffffffffffff166119b6846105e7565b73ffffffffffffffffffffffffffffffffffffffff16145b91505092915050565b8273ffffffffffffffffffffffffffffffffffffffff166119f782610988565b73ffffffffffffffffffffffffffffffffffffffff1614611a4d576040517f08c379a0000000000000000000000000000000000000000000000000000000008152600401611a44906140bf565b60405180910390fd5b5f73ffffffffffffffffffffffffffffffffffffffff168273ffffffffffffffffffffffffffffffffffffffff1603611abb576040517f08c379a0000000000000000000000000000000000000000000000000000000008152600401611ab29061414d565b60405180910390fd5b611ac8838383600161221b565b8273ffffffffffffffffffffffffffffffffffffffff16611ae882610988565b73ffffffffffffffffffffffffffffffffffffffff1614611b3e576040517f08c379a0000000000000000000000000000000000000000000000000000000008152600401611b35906140bf565b60405180910390fd5b60045f8281526020019081526020015f205f6101000a81549073ffffffffffffffffffffffffffffffffffffffff0219169055600160035f8573ffffffffffffffffffffffffffffffffffffffff1673ffffffffffffffffffffffffffffffffffffffff1681526020019081526020015f205f8282540392505081905550600160035f8473ffffffffffffffffffffffffffffffffffffffff1673ffffffffffffffffffffffffffffffffffffffff1681526020019081526020015f205f82825401925050819055508160025f8381526020019081526020015f205f6101000a81548173ffffffffffffffffffffffffffffffffffffffff021916908373ffffffffffffffffffffffffffffffffffffffff160217905550808273ffffffffffffffffffffffffffffffffffffffff168473ffffffffffffffffffffffffffffffffffffffff167fddf252ad1be2c89b69c2b068fc378daa952ba7f163c4a11628f55a4df523b3ef60405160405180910390a4611cbe8383836001612538565b505050565b5f60025f8381526020019081526020015f205f9054906101000a900473ffffffffffffffffffffffffffffffffffffffff169050919050565b8173ffffffffffffffffffffffffffffffffffffffff168373ffffffffffffffffffffffffffffffffffffffff1603611d6a576040517f08c379a0000000000000000000000000000000000000000000000000000000008152600401611d61906141b5565b60405180910390fd5b8060055f8573ffffffffffffffffffffffffffffffffffffffff1673ffffffffffffffffffffffffffffffffffffffff1681526020019081526020015f205f8473ffffffffffffffffffffffffffffffffffffffff1673ffffffffffffffffffffffffffffffffffffffff1681526020019081526020015f205f6101000a81548160ff0219169083151502179055508173ffffffffffffffffffffffffffffffffffffffff168373ffffffffffffffffffffffffffffffffffffffff167f17307eab39ab6107e8899845ad3d59bd9653f200f220920489ca2b5937696c3183604051611e569190612c1b565b60405180910390a3505050565b611e6e8484846119d7565b611e7a8484848461253e565b611eb9576040517f08c379a0000000000000000000000000000000000000000000000000000000008152600401611eb090614243565b60405180910390fd5b50505050565b6001815f015f828254019250508190555050565b5f815f01549050919050565b606060405180602001604052805f815250905090565b6060611f008261183b565b5f611f09611edf565b90505f815111611f275760405180602001604052805f815250611f52565b80611f31846126c0565b604051602001611f42929190613adf565b6040516020818303038152906040525b915050919050565b611f73828260405180602001604052805f81525061278a565b5050565b60605f8203611fbd576040518060400160405280600181526020017f300000000000000000000000000000000000000000000000000000000000000081525090506120cb565b5f8290505f5b5f8214611fec578080611fd590614261565b915050600a82611fe591906142d5565b9150611fc3565b5f8167ffffffffffffffff81111561200757612006612fd0565b5b6040519080825280601f01601f1916602001820160405280156120395781602001600182028036833780820191505090505b5090505b5f85146120c4576001826120519190614305565b9150600a856120609190614338565b603061206c9190614368565b60f81b8183815181106120825761208161439b565b5b60200101907effffffffffffffffffffffffffffffffffffffffffffffffffffffffffffff191690815f1a905350600a856120bd91906142d5565b945061203d565b8093505050505b919050565b6120d9826121db565b612118576040517f08c379a000000000000000000000000000000000000000000000000000000000815260040161210f90614438565b60405180910390fd5b8060065f8481526020019081526020015f209081612136919061398c565b507ff8e1a15aba9398e019f0b49df1a4fde98ee17ae345cb5f6b5e2c27f5033e8ce7826040516121669190612f47565b60405180910390a15050565b5f7f01ffc9a7000000000000000000000000000000000000000000000000000000007bffffffffffffffffffffffffffffffffffffffffffffffffffffffff1916827bffffffffffffffffffffffffffffffffffffffffffffffffffffffff1916149050919050565b5f5f73ffffffffffffffffffffffffffffffffffffffff166121fc83611cc3565b73ffffffffffffffffffffffffffffffffffffffff1614159050919050565b612227848484846127e4565b5f73ffffffffffffffffffffffffffffffffffffffff168473ffffffffffffffffffffffffffffffffffffffff1614612532575f600a5f600b5f8681526020019081526020015f205481526020019081526020015f20604051806101200160405290815f82018054612298906133e4565b80601f01602080910402602001604051908101604052809291908181526020018280546122c4906133e4565b801561230f5780601f106122e65761010080835404028352916020019161230f565b820191905f5260205f20905b8154815290600101906020018083116122f257829003601f168201915b5050505050815260200160018201548152602001600282015f9054906101000a900467ffffffffffffffff1667ffffffffffffffff1667ffffffffffffffff1681526020016002820160089054906101000a900467ffffffffffffffff1667ffffffffffffffff1667ffffffffffffffff1681526020016002820160109054906101000a900467ffffffffffffffff1667ffffffffffffffff1667ffffffffffffffff1681526020016002820160189054906101000a900460ff161515151581526020016003820180546123e2906133e4565b80601f016020809104026020016040519081016040528092919081815260200182805461240e906133e4565b80156124595780601f1061243057610100808354040283529160200191612459565b820191905f5260205f20905b81548152906001019060200180831161243c57829003601f168201915b50505050508152602001600482015f9054906101000a900473ffffffffffffffffffffffffffffffffffffffff1673ffffffffffffffffffffffffffffffffffffffff1673ffffffffffffffffffffffffffffffffffffffff1681526020016004820160149054906101000a900460ff16151515158152505090508060a001511561253057806040015167ffffffffffffffff1642101561252f576040517f08c379a0000000000000000000000000000000000000000000000000000000008152600401612526906144a0565b60405180910390fd5b5b505b50505050565b50505050565b5f61255e8473ffffffffffffffffffffffffffffffffffffffff166127ea565b156126b3578373ffffffffffffffffffffffffffffffffffffffff1663150b7a02612587611886565b8786866040518563ffffffff1660e01b81526004016125a99493929190614510565b6020604051808303815f875af19250505080156125e457506040513d601f19601f820116820180604052508101906125e1919061456e565b60015b612663573d805f8114612612576040519150601f19603f3d011682016040523d82523d5f602084013e612617565b606091505b505f81510361265b576040517f08c379a000000000000000000000000000000000000000000000000000000000815260040161265290614243565b60405180910390fd5b805181602001fd5b63150b7a0260e01b7bffffffffffffffffffffffffffffffffffffffffffffffffffffffff1916817bffffffffffffffffffffffffffffffffffffffffffffffffffffffff1916149150506126b8565b600190505b949350505050565b60605f60016126ce8461280c565b0190505f8167ffffffffffffffff8111156126ec576126eb612fd0565b5b6040519080825280601f01601f19166020018201604052801561271e5781602001600182028036833780820191505090505b5090505f82602001820190505b60011561277f578080600190039150507f3031323334353637383961626364656600000000000000000000000000000000600a86061a8153600a8581612774576127736142a8565b5b0494505f850361272b575b819350505050919050565b612794838361295d565b6127a05f84848461253e565b6127df576040517f08c379a00000000000000000000000000000000000000000000000000000000081526004016127d690614243565b60405180910390fd5b505050565b50505050565b5f5f8273ffffffffffffffffffffffffffffffffffffffff163b119050919050565b5f5f5f90507a184f03e93ff9f4daa797ed6e38ed64bf6a1f0100000000000000008310612868577a184f03e93ff9f4daa797ed6e38ed64bf6a1f010000000000000000838161285e5761285d6142a8565b5b0492506040810190505b6d04ee2d6d415b85acef810000000083106128a5576d04ee2d6d415b85acef8100000000838161289b5761289a6142a8565b5b0492506020810190505b662386f26fc1000083106128d457662386f26fc1000083816128ca576128c96142a8565b5b0492506010810190505b6305f5e10083106128fd576305f5e10083816128f3576128f26142a8565b5b0492506008810190505b6127108310612922576127108381612918576129176142a8565b5b0492506004810190505b60648310612945576064838161293b5761293a6142a8565b5b0492506002810190505b600a8310612954576001810190505b80915050919050565b5f73ffffffffffffffffffffffffffffffffffffffff168273ffffffffffffffffffffffffffffffffffffffff16036129cb576040517f08c379a00000000000000000000000000000000000000000000000000000000081526004016129c2906145e3565b60405180910390fd5b6129d4816121db565b15612a14576040517f08c379a0000000000000000000000000000000000000000000000000000000008152600401612a0b9061464b565b60405180910390fd5b612a215f8383600161221b565b612a2a816121db565b15612a6a576040517f08c379a0000000000000000000000000000000000000000000000000000000008152600401612a619061464b565b60405180910390fd5b600160035f8473ffffffffffffffffffffffffffffffffffffffff1673ffffffffffffffffffffffffffffffffffffffff1681526020019081526020015f205f82825401925050819055508160025f8381526020019081526020015f205f6101000a81548173ffffffffffffffffffffffffffffffffffffffff021916908373ffffffffffffffffffffffffffffffffffffffff160217905550808273ffffffffffffffffffffffffffffffffffffffff165f73ffffffffffffffffffffffffffffffffffffffff167fddf252ad1be2c89b69c2b068fc378daa952ba7f163c4a11628f55a4df523b3ef60405160405180910390a4612b6c5f83836001612538565b5050565b5f604051905090565b5f5ffd5b5f5ffd5b5f7fffffffff0000000000000000000000000000000000000000000000000000000082169050919050565b612bb581612b81565b8114612bbf575f5ffd5b50565b5f81359050612bd081612bac565b92915050565b5f60208284031215612beb57612bea612b79565b5b5f612bf884828501612bc2565b91505092915050565b5f8115159050919050565b612c1581612c01565b82525050565b5f602082019050612c2e5f830184612c0c565b92915050565b5f81519050919050565b5f82825260208201905092915050565b8281835e5f83830152505050565b5f601f19601f8301169050919050565b5f612c7682612c34565b612c808185612c3e565b9350612c90818560208601612c4e565b612c9981612c5c565b840191505092915050565b5f6020820190508181035f830152612cbc8184612c6c565b905092915050565b5f819050919050565b612cd681612cc4565b8114612ce0575f5ffd5b50565b5f81359050612cf181612ccd565b92915050565b5f60208284031215612d0c57612d0b612b79565b5b5f612d1984828501612ce3565b91505092915050565b5f73ffffffffffffffffffffffffffffffffffffffff82169050919050565b5f612d4b82612d22565b9050919050565b612d5b81612d41565b82525050565b5f602082019050612d745f830184612d52565b92915050565b612d8381612d41565b8114612d8d575f5ffd5b50565b5f81359050612d9e81612d7a565b92915050565b5f5f60408385031215612dba57612db9612b79565b5b5f612dc785828601612d90565b9250506020612dd885828601612ce3565b9150509250929050565b5f5f5f60608486031215612df957612df8612b79565b5b5f612e0686828701612d90565b9350506020612e1786828701612d90565b9250506040612e2886828701612ce3565b9150509250925092565b612e3b81612cc4565b82525050565b5f67ffffffffffffffff82169050919050565b612e5d81612e41565b82525050565b5f612e6d82612d22565b9050919050565b612e7d81612e63565b82525050565b5f610120820190508181035f830152612e9c818c612c6c565b9050612eab602083018b612e32565b612eb8604083018a612e54565b612ec56060830189612e54565b612ed26080830188612e54565b612edf60a0830187612c0c565b81810360c0830152612ef18186612c6c565b9050612f0060e0830185612e74565b612f0e610100830184612c0c565b9a9950505050505050505050565b5f60208284031215612f3157612f30612b79565b5b5f612f3e84828501612d90565b91505092915050565b5f602082019050612f5a5f830184612e32565b92915050565b612f6981612c01565b8114612f73575f5ffd5b50565b5f81359050612f8481612f60565b92915050565b5f5f60408385031215612fa057612f9f612b79565b5b5f612fad85828601612d90565b9250506020612fbe85828601612f76565b9150509250929050565b5f5ffd5b5f5ffd5b7f4e487b71000000000000000000000000000000000000000000000000000000005f52604160045260245ffd5b61300682612c5c565b810181811067ffffffffffffffff8211171561302557613024612fd0565b5b80604052505050565b5f613037612b70565b90506130438282612ffd565b919050565b5f67ffffffffffffffff82111561306257613061612fd0565b5b61306b82612c5c565b9050602081019050919050565b828183375f83830152505050565b5f61309861309384613048565b61302e565b9050828152602081018484840111156130b4576130b3612fcc565b5b6130bf848285613078565b509392505050565b5f82601f8301126130db576130da612fc8565b5b81356130eb848260208601613086565b91505092915050565b5f5f5f5f6080858703121561310c5761310b612b79565b5b5f61311987828801612d90565b945050602061312a87828801612d90565b935050604061313b87828801612ce3565b925050606085013567ffffffffffffffff81111561315c5761315b612b7d565b5b613168878288016130c7565b91505092959194509250565b5f67ffffffffffffffff82111561318e5761318d612fd0565b5b61319782612c5c565b9050602081019050919050565b5f6131b66131b184613174565b61302e565b9050828152602081018484840111156131d2576131d1612fcc565b5b6131dd848285613078565b509392505050565b5f82601f8301126131f9576131f8612fc8565b5b81356132098482602086016131a4565b91505092915050565b61321b81612e41565b8114613225575f5ffd5b50565b5f8135905061323681613212565b92915050565b61324581612e63565b811461324f575f5ffd5b50565b5f813590506132608161323c565b92915050565b5f5f5f5f5f5f5f60e0888a03121561328157613280612b79565b5b5f88013567ffffffffffffffff81111561329e5761329d612b7d565b5b6132aa8a828b016131e5565b97505060206132bb8a828b01612ce3565b96505060406132cc8a828b01613228565b95505060606132dd8a828b01613228565b94505060806132ee8a828b01612f76565b93505060a088013567ffffffffffffffff81111561330f5761330e612b7d565b5b61331b8a828b016131e5565b92505060c061332c8a828b01613252565b91505092959891949750929550565b5f5f6040838503121561335157613350612b79565b5b5f61335e85828601612ce3565b925050602061336f85828601612f76565b9150509250929050565b5f5f6040838503121561338f5761338e612b79565b5b5f61339c85828601612d90565b92505060206133ad85828601612d90565b9150509250929050565b7f4e487b71000000000000000000000000000000000000000000000000000000005f52602260045260245ffd5b5f60028204905060018216806133fb57607f821691505b60208210810361340e5761340d6133b7565b5b50919050565b7f4552433732313a20617070726f76616c20746f2063757272656e74206f776e655f8201527f7200000000000000000000000000000000000000000000000000000000000000602082015250565b5f61346e602183612c3e565b915061347982613414565b604082019050919050565b5f6020820190508181035f83015261349b81613462565b9050919050565b7f4552433732313a20617070726f76652063616c6c6572206973206e6f7420746f5f8201527f6b656e206f776e6572206f7220617070726f76656420666f7220616c6c000000602082015250565b5f6134fc603d83612c3e565b9150613507826134a2565b604082019050919050565b5f6020820190508181035f830152613529816134f0565b9050919050565b7f4552433732313a2063616c6c6572206973206e6f7420746f6b656e206f776e655f8201527f72206f7220617070726f76656400000000000000000000000000000000000000602082015250565b5f61358a602d83612c3e565b915061359582613530565b604082019050919050565b5f6020820190508181035f8301526135b78161357e565b9050919050565b7f4552433732313a20696e76616c696420746f6b656e20494400000000000000005f82015250565b5f6135f2601883612c3e565b91506135fd826135be565b602082019050919050565b5f6020820190508181035f83015261361f816135e6565b9050919050565b7f4552433732313a2061646472657373207a65726f206973206e6f7420612076615f8201527f6c6964206f776e65720000000000000000000000000000000000000000000000602082015250565b5f613680602983612c3e565b915061368b82613626565b604082019050919050565b5f6020820190508181035f8301526136ad81613674565b9050919050565b7f6e6f74206f776e657200000000000000000000000000000000000000000000005f82015250565b5f6136e8600983612c3e565b91506136f3826136b4565b602082019050919050565b5f6020820190508181035f830152613715816136dc565b9050919050565b7f737570706c793d300000000000000000000000000000000000000000000000005f82015250565b5f613750600883612c3e565b915061375b8261371c565b602082019050919050565b5f6020820190508181035f83015261377d81613744565b9050919050565b7f7061796f75743d300000000000000000000000000000000000000000000000005f82015250565b5f6137b8600883612c3e565b91506137c382613784565b602082019050919050565b5f6020820190508181035f8301526137e5816137ac565b9050919050565b5f819050815f5260205f209050919050565b5f6020601f8301049050919050565b5f82821b905092915050565b5f600883026138487fffffffffffffffffffffffffffffffffffffffffffffffffffffffffffffffff8261380d565b613852868361380d565b95508019841693508086168417925050509392505050565b5f819050919050565b5f61388d61388861388384612cc4565b61386a565b612cc4565b9050919050565b5f819050919050565b6138a683613873565b6138ba6138b282613894565b848454613819565b825550505050565b5f5f905090565b6138d16138c2565b6138dc81848461389d565b505050565b5b818110156138ff576138f45f826138c9565b6001810190506138e2565b5050565b601f82111561394457613915816137ec565b61391e846137fe565b8101602085101561392d578190505b613941613939856137fe565b8301826138e1565b50505b505050565b5f82821c905092915050565b5f6139645f1984600802613949565b1980831691505092915050565b5f61397c8383613955565b9150826002028217905092915050565b61399582612c34565b67ffffffffffffffff8111156139ae576139ad612fd0565b5b6139b882546133e4565b6139c3828285613903565b5f60209050601f8311600181146139f4575f84156139e2578287015190505b6139ec8582613971565b865550613a53565b601f198416613a02866137ec565b5f5b82811015613a2957848901518255600182019150602085019450602081019050613a04565b86831015613a465784890151613a42601f891682613955565b8355505b6001600288020188555050505b505050505050565b5f6080820190508181035f830152613a738187612c6c565b9050613a826020830186612e32565b613a8f6040830185612e54565b613a9c6060830184612e54565b95945050505050565b5f81905092915050565b5f613ab982612c34565b613ac38185613aa5565b9350613ad3818560208601612c4e565b80840191505092915050565b5f613aea8285613aaf565b9150613af68284613aaf565b91508190509392505050565b7f7265656e7472616e6379000000000000000000000000000000000000000000005f82015250565b5f613b36600a83612c3e565b9150613b4182613b02565b602082019050919050565b5f6020820190508181035f830152613b6381613b2a565b9050919050565b7f696e6163746976650000000000000000000000000000000000000000000000005f82015250565b5f613b9e600883612c3e565b9150613ba982613b6a565b602082019050919050565b5f6020820190508181035f830152613bcb81613b92565b9050919050565b7f736f6c64206f75740000000000000000000000000000000000000000000000005f82015250565b5f613c06600883612c3e565b9150613c1182613bd2565b602082019050919050565b5f6020820190508181035f830152613c3381613bfa565b9050919050565b7f6261642076616c756500000000000000000000000000000000000000000000005f82015250565b5f613c6e600983612c3e565b9150613c7982613c3a565b602082019050919050565b5f6020820190508181035f830152613c9b81613c62565b9050919050565b5f81905092915050565b50565b5f613cba5f83613ca2565b9150613cc582613cac565b5f82019050919050565b5f613cd982613caf565b9150819050919050565b7f706179206661696c6564000000000000000000000000000000000000000000005f82015250565b5f613d17600a83612c3e565b9150613d2282613ce3565b602082019050919050565b5f6020820190508181035f830152613d4481613d0b565b9050919050565b7f4e487b71000000000000000000000000000000000000000000000000000000005f52601160045260245ffd5b5f613d8282612e41565b9150613d8d83612e41565b9250828201905067ffffffffffffffff811115613dad57613dac613d4b565b5b92915050565b5f819050919050565b613dcd613dc882612cc4565b613db3565b82525050565b5f8160c01b9050919050565b5f613de982613dd3565b9050919050565b613e01613dfc82612e41565b613ddf565b82525050565b5f8160601b9050919050565b5f613e1d82613e07565b9050919050565b5f613e2e82613e13565b9050919050565b613e46613e4182612d41565b613e24565b82525050565b5f613e578287613dbc565b602082019150613e678286613df0565b600882019150613e778285613dbc565b602082019150613e878284613e35565b60148201915081905095945050505050565b5f8154613ea5816133e4565b613eaf8186613aa5565b9450600182165f8114613ec95760018114613ede57613f10565b60ff1983168652811515820286019350613f10565b613ee7856137ec565b5f5b83811015613f0857815481890152600182019150602081019050613ee9565b838801955050505b50505092915050565b7f2e6a736f6e0000000000000000000000000000000000000000000000000000005f82015250565b5f613f4d600583613aa5565b9150613f5882613f19565b600582019050919050565b5f613f6e8285613e99565b9150613f7a8284613aaf565b9150613f8582613f41565b91508190509392505050565b5f613f9b82612e41565b915067ffffffffffffffff8203613fb557613fb4613d4b565b5b600182019050919050565b5f604082019050613fd35f830185612d52565b613fe06020830184612e32565b9392505050565b7f30206164647200000000000000000000000000000000000000000000000000005f82015250565b5f61401b600683612c3e565b915061402682613fe7565b602082019050919050565b5f6020820190508181035f8301526140488161400f565b9050919050565b7f4552433732313a207472616e736665722066726f6d20696e636f7272656374205f8201527f6f776e6572000000000000000000000000000000000000000000000000000000602082015250565b5f6140a9602583612c3e565b91506140b48261404f565b604082019050919050565b5f6020820190508181035f8301526140d68161409d565b9050919050565b7f4552433732313a207472616e7366657220746f20746865207a65726f206164645f8201527f7265737300000000000000000000000000000000000000000000000000000000602082015250565b5f614137602483612c3e565b9150614142826140dd565b604082019050919050565b5f6020820190508181035f8301526141648161412b565b9050919050565b7f4552433732313a20617070726f766520746f2063616c6c6572000000000000005f82015250565b5f61419f601983612c3e565b91506141aa8261416b565b602082019050919050565b5f6020820190508181035f8301526141cc81614193565b9050919050565b7f4552433732313a207472616e7366657220746f206e6f6e2045524337323152655f8201527f63656976657220696d706c656d656e7465720000000000000000000000000000602082015250565b5f61422d603283612c3e565b9150614238826141d3565b604082019050919050565b5f6020820190508181035f83015261425a81614221565b9050919050565b5f61426b82612cc4565b91507fffffffffffffffffffffffffffffffffffffffffffffffffffffffffffffffff820361429d5761429c613d4b565b5b600182019050919050565b7f4e487b71000000000000000000000000000000000000000000000000000000005f52601260045260245ffd5b5f6142df82612cc4565b91506142ea83612cc4565b9250826142fa576142f96142a8565b5b828204905092915050565b5f61430f82612cc4565b915061431a83612cc4565b925082820390508181111561433257614331613d4b565b5b92915050565b5f61434282612cc4565b915061434d83612cc4565b92508261435d5761435c6142a8565b5b828206905092915050565b5f61437282612cc4565b915061437d83612cc4565b925082820190508082111561439557614394613d4b565b5b92915050565b7f4e487b71000000000000000000000000000000000000000000000000000000005f52603260045260245ffd5b7f45524337323155524953746f726167653a2055524920736574206f66206e6f6e5f8201527f6578697374656e7420746f6b656e000000000000000000000000000000000000602082015250565b5f614422602e83612c3e565b915061442d826143c8565b604082019050919050565b5f6020820190508181035f83015261444f81614416565b9050919050565b7f6c6f636b656420756e74696c206576656e7420737461727400000000000000005f82015250565b5f61448a601883612c3e565b915061449582614456565b602082019050919050565b5f6020820190508181035f8301526144b78161447e565b9050919050565b5f81519050919050565b5f82825260208201905092915050565b5f6144e2826144be565b6144ec81856144c8565b93506144fc818560208601612c4e565b61450581612c5c565b840191505092915050565b5f6080820190506145235f830187612d52565b6145306020830186612d52565b61453d6040830185612e32565b818103606083015261454f81846144d8565b905095945050505050565b5f8151905061456881612bac565b92915050565b5f6020828403121561458357614582612b79565b5b5f6145908482850161455a565b91505092915050565b7f4552433732313a206d696e7420746f20746865207a65726f20616464726573735f82015250565b5f6145cd602083612c3e565b91506145d882614599565b602082019050919050565b5f6020820190508181035f8301526145fa816145c1565b9050919050565b7f4552433732313a20746f6b656e20616c7265616479206d696e746564000000005f82015250565b5f614635601c83612c3e565b915061464082614601565b602082019050919050565b5f6020820190508181035f83015261466281614629565b905091905056fea26469706673582212204e36005e323eae2d897ebed37bf35d698b9aa270408df096992ab064debfdeb064736f6c634300081e0033",
			"opcodes": "PUSH1 0x80 PUSH1 0x40 MSTORE PUSH1 0x1 PUSH1 0x8 SSTORE CALLVALUE DUP1 ISZERO PUSH2 0x14 JUMPI PUSH0 PUSH0 REVERT JUMPDEST POP PUSH1 0x40 MLOAD DUP1 PUSH1 0x40 ADD PUSH1 0x40 MSTORE DUP1 PUSH1 0xA DUP2 MSTORE PUSH1 0x20 ADD PUSH32 0x43656C6F5469636B657400000000000000000000000000000000000000000000 DUP2 MSTORE POP PUSH1 0x40 MLOAD DUP1 PUSH1 0x40 ADD PUSH1 0x40 MSTORE DUP1 PUSH1 0x4 DUP2 MSTORE PUSH1 0x20 ADD PUSH32 0x4354495800000000000000000000000000000000000000000000000000000000 DUP2 MSTORE POP DUP2 PUSH0 SWAP1 DUP2 PUSH2 0x8F SWAP2 SWAP1 PUSH2 0x37E JUMP JUMPDEST POP DUP1 PUSH1 0x1 SWAP1 DUP2 PUSH2 0x9F SWAP2 SWAP1 PUSH2 0x37E JUMP JUMPDEST POP POP POP CALLER PUSH1 0x7 PUSH0 PUSH2 0x100 EXP DUP2 SLOAD DUP2 PUSH20 0xFFFFFFFFFFFFFFFFFFFFFFFFFFFFFFFFFFFFFFFF MUL NOT AND SWAP1 DUP4 PUSH20 0xFFFFFFFFFFFFFFFFFFFFFFFFFFFFFFFFFFFFFFFF AND MUL OR SWAP1 SSTORE POP CALLER PUSH20 0xFFFFFFFFFFFFFFFFFFFFFFFFFFFFFFFFFFFFFFFF AND PUSH0 PUSH20 0xFFFFFFFFFFFFFFFFFFFFFFFFFFFFFFFFFFFFFFFF AND PUSH32 0x8BE0079C531659141344CD1FD0A4F28419497F9722A3DAAFE3B4186F6B6457E0 PUSH1 0x40 MLOAD PUSH1 0x40 MLOAD DUP1 SWAP2 SUB SWAP1 LOG3 PUSH2 0x44D JUMP JUMPDEST PUSH0 DUP2 MLOAD SWAP1 POP SWAP2 SWAP1 POP JUMP JUMPDEST PUSH32 0x4E487B7100000000000000000000000000000000000000000000000000000000 PUSH0 MSTORE PUSH1 0x41 PUSH1 0x4 MSTORE PUSH1 0x24 PUSH0 REVERT JUMPDEST PUSH32 0x4E487B7100000000000000000000000000000000000000000000000000000000 PUSH0 MSTORE PUSH1 0x22 PUSH1 0x4 MSTORE PUSH1 0x24 PUSH0 REVERT JUMPDEST PUSH0 PUSH1 0x2 DUP3 DIV SWAP1 POP PUSH1 0x1 DUP3 AND DUP1 PUSH2 0x1BC JUMPI PUSH1 0x7F DUP3 AND SWAP2 POP JUMPDEST PUSH1 0x20 DUP3 LT DUP2 SUB PUSH2 0x1CF JUMPI PUSH2 0x1CE PUSH2 0x178 JUMP JUMPDEST JUMPDEST POP SWAP2 SWAP1 POP JUMP JUMPDEST PUSH0 DUP2 SWAP1 POP DUP2 PUSH0 MSTORE PUSH1 0x20 PUSH0 KECCAK256 SWAP1 POP SWAP2 SWAP1 POP JUMP JUMPDEST PUSH0 PUSH1 0x20 PUSH1 0x1F DUP4 ADD DIV SWAP1 POP SWAP2 SWAP1 POP JUMP JUMPDEST PUSH0 DUP3 DUP3 SHL SWAP1 POP SWAP3 SWAP2 POP POP JUMP JUMPDEST PUSH0 PUSH1 0x8 DUP4 MUL PUSH2 0x231 PUSH32 0xFFFFFFFFFFFFFFFFFFFFFFFFFFFFFFFFFFFFFFFFFFFFFFFFFFFFFFFFFFFFFFFF DUP3 PUSH2 0x1F6 JUMP JUMPDEST PUSH2 0x23B DUP7 DUP4 PUSH2 0x1F6 JUMP JUMPDEST SWAP6 POP DUP1 NOT DUP5 AND SWAP4 POP DUP1 DUP7 AND DUP5 OR SWAP3 POP POP POP SWAP4 SWAP3 POP POP POP JUMP JUMPDEST PUSH0 DUP2 SWAP1 POP SWAP2 SWAP1 POP JUMP JUMPDEST PUSH0 DUP2 SWAP1 POP SWAP2 SWAP1 POP JUMP JUMPDEST PUSH0 PUSH2 0x27F PUSH2 0x27A PUSH2 0x275 DUP5 PUSH2 0x253 JUMP JUMPDEST PUSH2 0x25C JUMP JUMPDEST PUSH2 0x253 JUMP JUMPDEST SWAP1 POP SWAP2 SWAP1 POP JUMP JUMPDEST PUSH0 DUP2 SWAP1 POP SWAP2 SWAP1 POP JUMP JUMPDEST PUSH2 0x298 DUP4 PUSH2 0x265 JUMP JUMPDEST PUSH2 0x2AC PUSH2 0x2A4 DUP3 PUSH2 0x286 JUMP JUMPDEST DUP5 DUP5 SLOAD PUSH2 0x202 JUMP JUMPDEST DUP3 SSTORE POP POP POP POP JUMP JUMPDEST PUSH0 PUSH0 SWAP1 POP SWAP1 JUMP JUMPDEST PUSH2 0x2C3 PUSH2 0x2B4 JUMP JUMPDEST PUSH2 0x2CE DUP2 DUP5 DUP5 PUSH2 0x28F JUMP JUMPDEST POP POP POP JUMP JUMPDEST JUMPDEST DUP2 DUP2 LT ISZERO PUSH2 0x2F1 JUMPI PUSH2 0x2E6 PUSH0 DUP3 PUSH2 0x2BB JUMP JUMPDEST PUSH1 0x1 DUP2 ADD SWAP1 POP PUSH2 0x2D4 JUMP JUMPDEST POP POP JUMP JUMPDEST PUSH1 0x1F DUP3 GT ISZERO PUSH2 0x336 JUMPI PUSH2 0x307 DUP2 PUSH2 0x1D5 JUMP JUMPDEST PUSH2 0x310 DUP5 PUSH2 0x1E7 JUMP JUMPDEST DUP2 ADD PUSH1 0x20 DUP6 LT ISZERO PUSH2 0x31F JUMPI DUP2 SWAP1 POP JUMPDEST PUSH2 0x333 PUSH2 0x32B DUP6 PUSH2 0x1E7 JUMP JUMPDEST DUP4 ADD DUP3 PUSH2 0x2D3 JUMP JUMPDEST POP POP JUMPDEST POP POP POP JUMP JUMPDEST PUSH0 DUP3 DUP3 SHR SWAP1 POP SWAP3 SWAP2 POP POP JUMP JUMPDEST PUSH0 PUSH2 0x356 PUSH0 NOT DUP5 PUSH1 0x8 MUL PUSH2 0x33B JUMP JUMPDEST NOT DUP1 DUP4 AND SWAP2 POP POP SWAP3 SWAP2 POP POP JUMP JUMPDEST PUSH0 PUSH2 0x36E DUP4 DUP4 PUSH2 0x347 JUMP JUMPDEST SWAP2 POP DUP3 PUSH1 0x2 MUL DUP3 OR SWAP1 POP SWAP3 SWAP2 POP POP JUMP JUMPDEST PUSH2 0x387 DUP3 PUSH2 0x141 JUMP JUMPDEST PUSH8 0xFFFFFFFFFFFFFFFF DUP2 GT ISZERO PUSH2 0x3A0 JUMPI PUSH2 0x39F PUSH2 0x14B JUMP JUMPDEST JUMPDEST PUSH2 0x3AA DUP3 SLOAD PUSH2 0x1A5 JUMP JUMPDEST PUSH2 0x3B5 DUP3 DUP3 DUP6 PUSH2 0x2F5 JUMP JUMPDEST PUSH0 PUSH1 0x20 SWAP1 POP PUSH1 0x1F DUP4 GT PUSH1 0x1 DUP2 EQ PUSH2 0x3E6 JUMPI PUSH0 DUP5 ISZERO PUSH2 0x3D4 JUMPI DUP3 DUP8 ADD MLOAD SWAP1 POP JUMPDEST PUSH2 0x3DE DUP6 DUP3 PUSH2 0x363 JUMP JUMPDEST DUP7 SSTORE POP PUSH2 0x445 JUMP JUMPDEST PUSH1 0x1F NOT DUP5 AND PUSH2 0x3F4 DUP7 PUSH2 0x1D5 JUMP JUMPDEST PUSH0 JUMPDEST DUP3 DUP2 LT ISZERO PUSH2 0x41B JUMPI DUP5 DUP10 ADD MLOAD DUP3 SSTORE PUSH1 0x1 DUP3 ADD SWAP2 POP PUSH1 0x20 DUP6 ADD SWAP5 POP PUSH1 0x20 DUP2 ADD SWAP1 POP PUSH2 0x3F6 JUMP JUMPDEST DUP7 DUP4 LT ISZERO PUSH2 0x438 JUMPI DUP5 DUP10 ADD MLOAD PUSH2 0x434 PUSH1 0x1F DUP10 AND DUP3 PUSH2 0x347 JUMP JUMPDEST DUP4 SSTORE POP JUMPDEST PUSH1 0x1 PUSH1 0x2 DUP9 MUL ADD DUP9 SSTORE POP POP POP JUMPDEST POP POP POP POP POP POP JUMP JUMPDEST PUSH2 0x469F DUP1 PUSH2 0x45A PUSH0 CODECOPY PUSH0 RETURN INVALID PUSH1 0x80 PUSH1 0x40 MSTORE PUSH1 0x4 CALLDATASIZE LT PUSH2 0x11E JUMPI PUSH0 CALLDATALOAD PUSH1 0xE0 SHR DUP1 PUSH4 0x95D89B41 GT PUSH2 0x9F JUMPI DUP1 PUSH4 0xC87B56DD GT PUSH2 0x63 JUMPI DUP1 PUSH4 0xC87B56DD EQ PUSH2 0x414 JUMPI DUP1 PUSH4 0xD96A094A EQ PUSH2 0x450 JUMPI DUP1 PUSH4 0xE60A955D EQ PUSH2 0x46C JUMPI DUP1 PUSH4 0xE985E9C5 EQ PUSH2 0x494 JUMPI DUP1 PUSH4 0xF2FDE38B EQ PUSH2 0x4D0 JUMPI PUSH2 0x11E JUMP JUMPDEST DUP1 PUSH4 0x95D89B41 EQ PUSH2 0x322 JUMPI DUP1 PUSH4 0xA22CB465 EQ PUSH2 0x34C JUMPI DUP1 PUSH4 0xB88D4FDE EQ PUSH2 0x374 JUMPI DUP1 PUSH4 0xBB766766 EQ PUSH2 0x39C JUMPI DUP1 PUSH4 0xC20B324D EQ PUSH2 0x3D8 JUMPI PUSH2 0x11E JUMP JUMPDEST DUP1 PUSH4 0x42842E0E GT PUSH2 0xE6 JUMPI DUP1 PUSH4 0x42842E0E EQ PUSH2 0x214 JUMPI DUP1 PUSH4 0x58E6116F EQ PUSH2 0x23C JUMPI DUP1 PUSH4 0x6352211E EQ PUSH2 0x280 JUMPI DUP1 PUSH4 0x70A08231 EQ PUSH2 0x2BC JUMPI DUP1 PUSH4 0x8DA5CB5B EQ PUSH2 0x2F8 JUMPI PUSH2 0x11E JUMP JUMPDEST DUP1 PUSH4 0x1FFC9A7 EQ PUSH2 0x122 JUMPI DUP1 PUSH4 0x6FDDE03 EQ PUSH2 0x15E JUMPI DUP1 PUSH4 0x81812FC EQ PUSH2 0x188 JUMPI DUP1 PUSH4 0x95EA7B3 EQ PUSH2 0x1C4 JUMPI DUP1 PUSH4 0x23B872DD EQ PUSH2 0x1EC JUMPI JUMPDEST PUSH0 PUSH0 REVERT JUMPDEST CALLVALUE DUP1 ISZERO PUSH2 0x12D JUMPI PUSH0 PUSH0 REVERT JUMPDEST POP PUSH2 0x148 PUSH1 0x4 DUP1 CALLDATASIZE SUB DUP2 ADD SWAP1 PUSH2 0x143 SWAP2 SWAP1 PUSH2 0x2BD6 JUMP JUMPDEST PUSH2 0x4F8 JUMP JUMPDEST PUSH1 0x40 MLOAD PUSH2 0x155 SWAP2 SWAP1 PUSH2 0x2C1B JUMP JUMPDEST PUSH1 0x40 MLOAD DUP1 SWAP2 SUB SWAP1 RETURN JUMPDEST CALLVALUE DUP1 ISZERO PUSH2 0x169 JUMPI PUSH0 PUSH0 REVERT JUMPDEST POP PUSH2 0x172 PUSH2 0x558 JUMP JUMPDEST PUSH1 0x40 MLOAD PUSH2 0x17F SWAP2 SWAP1 PUSH2 0x2CA4 JUMP JUMPDEST PUSH1 0x40 MLOAD DUP1 SWAP2 SUB SWAP1 RETURN JUMPDEST CALLVALUE DUP1 ISZERO PUSH2 0x193 JUMPI PUSH0 PUSH0 REVERT JUMPDEST POP PUSH2 0x1AE PUSH1 0x4 DUP1 CALLDATASIZE SUB DUP2 ADD SWAP1 PUSH2 0x1A9 SWAP2 SWAP1 PUSH2 0x2CF7 JUMP JUMPDEST PUSH2 0x5E7 JUMP JUMPDEST PUSH1 0x40 MLOAD PUSH2 0x1BB SWAP2 SWAP1 PUSH2 0x2D61 JUMP JUMPDEST PUSH1 0x40 MLOAD DUP1 SWAP2 SUB SWAP1 RETURN JUMPDEST CALLVALUE DUP1 ISZERO PUSH2 0x1CF JUMPI PUSH0 PUSH0 REVERT JUMPDEST POP PUSH2 0x1EA PUSH1 0x4 DUP1 CALLDATASIZE SUB DUP2 ADD SWAP1 PUSH2 0x1E5 SWAP2 SWAP1 PUSH2 0x2DA4 JUMP JUMPDEST PUSH2 0x629 JUMP JUMPDEST STOP JUMPDEST CALLVALUE DUP1 ISZERO PUSH2 0x1F7 JUMPI PUSH0 PUSH0 REVERT JUMPDEST POP PUSH2 0x212 PUSH1 0x4 DUP1 CALLDATASIZE SUB DUP2 ADD SWAP1 PUSH2 0x20D SWAP2 SWAP1 PUSH2 0x2DE2 JUMP JUMPDEST PUSH2 0x73F JUMP JUMPDEST STOP JUMPDEST CALLVALUE DUP1 ISZERO PUSH2 0x21F JUMPI PUSH0 PUSH0 REVERT JUMPDEST POP PUSH2 0x23A PUSH1 0x4 DUP1 CALLDATASIZE SUB DUP2 ADD SWAP1 PUSH2 0x235 SWAP2 SWAP1 PUSH2 0x2DE2 JUMP JUMPDEST PUSH2 0x79F JUMP JUMPDEST STOP JUMPDEST CALLVALUE DUP1 ISZERO PUSH2 0x247 JUMPI PUSH0 PUSH0 REVERT JUMPDEST POP PUSH2 0x262 PUSH1 0x4 DUP1 CALLDATASIZE SUB DUP2 ADD SWAP1 PUSH2 0x25D SWAP2 SWAP1 PUSH2 0x2CF7 JUMP JUMPDEST PUSH2 0x7BE JUMP JUMPDEST PUSH1 0x40 MLOAD PUSH2 0x277 SWAP10 SWAP9 SWAP8 SWAP7 SWAP6 SWAP5 SWAP4 SWAP3 SWAP2 SWAP1 PUSH2 0x2E83 JUMP JUMPDEST PUSH1 0x40 MLOAD DUP1 SWAP2 SUB SWAP1 RETURN JUMPDEST CALLVALUE DUP1 ISZERO PUSH2 0x28B JUMPI PUSH0 PUSH0 REVERT JUMPDEST POP PUSH2 0x2A6 PUSH1 0x4 DUP1 CALLDATASIZE SUB DUP2 ADD SWAP1 PUSH2 0x2A1 SWAP2 SWAP1 PUSH2 0x2CF7 JUMP JUMPDEST PUSH2 0x988 JUMP JUMPDEST PUSH1 0x40 MLOAD PUSH2 0x2B3 SWAP2 SWAP1 PUSH2 0x2D61 JUMP JUMPDEST PUSH1 0x40 MLOAD DUP1 SWAP2 SUB SWAP1 RETURN JUMPDEST CALLVALUE DUP1 ISZERO PUSH2 0x2C7 JUMPI PUSH0 PUSH0 REVERT JUMPDEST POP PUSH2 0x2E2 PUSH1 0x4 DUP1 CALLDATASIZE SUB DUP2 ADD SWAP1 PUSH2 0x2DD SWAP2 SWAP1 PUSH2 0x2F1C JUMP JUMPDEST PUSH2 0xA0C JUMP JUMPDEST PUSH1 0x40 MLOAD PUSH2 0x2EF SWAP2 SWAP1 PUSH2 0x2F47 JUMP JUMPDEST PUSH1 0x40 MLOAD DUP1 SWAP2 SUB SWAP1 RETURN JUMPDEST CALLVALUE DUP1 ISZERO PUSH2 0x303 JUMPI PUSH0 PUSH0 REVERT JUMPDEST POP PUSH2 0x30C PUSH2 0xAC0 JUMP JUMPDEST PUSH1 0x40 MLOAD PUSH2 0x319 SWAP2 SWAP1 PUSH2 0x2D61 JUMP JUMPDEST PUSH1 0x40 MLOAD DUP1 SWAP2 SUB SWAP1 RETURN JUMPDEST CALLVALUE DUP1 ISZERO PUSH2 0x32D JUMPI PUSH0 PUSH0 REVERT JUMPDEST POP PUSH2 0x336 PUSH2 0xAE5 JUMP JUMPDEST PUSH1 0x40 MLOAD PUSH2 0x343 SWAP2 SWAP1 PUSH2 0x2CA4 JUMP JUMPDEST PUSH1 0x40 MLOAD DUP1 SWAP2 SUB SWAP1 RETURN JUMPDEST CALLVALUE DUP1 ISZERO PUSH2 0x357 JUMPI PUSH0 PUSH0 REVERT JUMPDEST POP PUSH2 0x372 PUSH1 0x4 DUP1 CALLDATASIZE SUB DUP2 ADD SWAP1 PUSH2 0x36D SWAP2 SWAP1 PUSH2 0x2F8A JUMP JUMPDEST PUSH2 0xB75 JUMP JUMPDEST STOP JUMPDEST CALLVALUE DUP1 ISZERO PUSH2 0x37F JUMPI PUSH0 PUSH0 REVERT JUMPDEST POP PUSH2 0x39A PUSH1 0x4 DUP1 CALLDATASIZE SUB DUP2 ADD SWAP1 PUSH2 0x395 SWAP2 SWAP1 PUSH2 0x30F4 JUMP JUMPDEST PUSH2 0xB8B JUMP JUMPDEST STOP JUMPDEST CALLVALUE DUP1 ISZERO PUSH2 0x3A7 JUMPI PUSH0 PUSH0 REVERT JUMPDEST POP PUSH2 0x3C2 PUSH1 0x4 DUP1 CALLDATASIZE SUB DUP2 ADD SWAP1 PUSH2 0x3BD SWAP2 SWAP1 PUSH2 0x3266 JUMP JUMPDEST PUSH2 0xBED JUMP JUMPDEST PUSH1 0x40 MLOAD PUSH2 0x3CF SWAP2 SWAP1 PUSH2 0x2F47 JUMP JUMPDEST PUSH1 0x40 MLOAD DUP1 SWAP2 SUB SWAP1 RETURN JUMPDEST CALLVALUE DUP1 ISZERO PUSH2 0x3E3 JUMPI PUSH0 PUSH0 REVERT JUMPDEST POP PUSH2 0x3FE PUSH1 0x4 DUP1 CALLDATASIZE SUB DUP2 ADD SWAP1 PUSH2 0x3F9 SWAP2 SWAP1 PUSH2 0x2CF7 JUMP JUMPDEST PUSH2 0xF6A JUMP JUMPDEST PUSH1 0x40 MLOAD PUSH2 0x40B SWAP2 SWAP1 PUSH2 0x2F47 JUMP JUMPDEST PUSH1 0x40 MLOAD DUP1 SWAP2 SUB SWAP1 RETURN JUMPDEST CALLVALUE DUP1 ISZERO PUSH2 0x41F JUMPI PUSH0 PUSH0 REVERT JUMPDEST POP PUSH2 0x43A PUSH1 0x4 DUP1 CALLDATASIZE SUB DUP2 ADD SWAP1 PUSH2 0x435 SWAP2 SWAP1 PUSH2 0x2CF7 JUMP JUMPDEST PUSH2 0xF7F JUMP JUMPDEST PUSH1 0x40 MLOAD PUSH2 0x447 SWAP2 SWAP1 PUSH2 0x2CA4 JUMP JUMPDEST PUSH1 0x40 MLOAD DUP1 SWAP2 SUB SWAP1 RETURN JUMPDEST PUSH2 0x46A PUSH1 0x4 DUP1 CALLDATASIZE SUB DUP2 ADD SWAP1 PUSH2 0x465 SWAP2 SWAP1 PUSH2 0x2CF7 JUMP JUMPDEST PUSH2 0x1089 JUMP JUMPDEST STOP JUMPDEST CALLVALUE DUP1 ISZERO PUSH2 0x477 JUMPI PUSH0 PUSH0 REVERT JUMPDEST POP PUSH2 0x492 PUSH1 0x4 DUP1 CALLDATASIZE SUB DUP2 ADD SWAP1 PUSH2 0x48D SWAP2 SWAP1 PUSH2 0x333B JUMP JUMPDEST PUSH2 0x141A JUMP JUMPDEST STOP JUMPDEST CALLVALUE DUP1 ISZERO PUSH2 0x49F JUMPI PUSH0 PUSH0 REVERT JUMPDEST POP PUSH2 0x4BA PUSH1 0x4 DUP1 CALLDATASIZE SUB DUP2 ADD SWAP1 PUSH2 0x4B5 SWAP2 SWAP1 PUSH2 0x3379 JUMP JUMPDEST PUSH2 0x1511 JUMP JUMPDEST PUSH1 0x40 MLOAD PUSH2 0x4C7 SWAP2 SWAP1 PUSH2 0x2C1B JUMP JUMPDEST PUSH1 0x40 MLOAD DUP1 SWAP2 SUB SWAP1 RETURN JUMPDEST CALLVALUE DUP1 ISZERO PUSH2 0x4DB JUMPI PUSH0 PUSH0 REVERT JUMPDEST POP PUSH2 0x4F6 PUSH1 0x4 DUP1 CALLDATASIZE SUB DUP2 ADD SWAP1 PUSH2 0x4F1 SWAP2 SWAP1 PUSH2 0x2F1C JUMP JUMPDEST PUSH2 0x159F JUMP JUMPDEST STOP JUMPDEST PUSH0 PUSH4 0x49064906 PUSH1 0xE0 SHL PUSH28 0xFFFFFFFFFFFFFFFFFFFFFFFFFFFFFFFFFFFFFFFFFFFFFFFFFFFFFFFF NOT AND DUP3 PUSH28 0xFFFFFFFFFFFFFFFFFFFFFFFFFFFFFFFFFFFFFFFFFFFFFFFFFFFFFFFF NOT AND EQ DUP1 PUSH2 0x551 JUMPI POP PUSH2 0x550 DUP3 PUSH2 0x175A JUMP JUMPDEST JUMPDEST SWAP1 POP SWAP2 SWAP1 POP JUMP JUMPDEST PUSH1 0x60 PUSH0 DUP1 SLOAD PUSH2 0x566 SWAP1 PUSH2 0x33E4 JUMP JUMPDEST DUP1 PUSH1 0x1F ADD PUSH1 0x20 DUP1 SWAP2 DIV MUL PUSH1 0x20 ADD PUSH1 0x40 MLOAD SWAP1 DUP2 ADD PUSH1 0x40 MSTORE DUP1 SWAP3 SWAP2 SWAP1 DUP2 DUP2 MSTORE PUSH1 0x20 ADD DUP3 DUP1 SLOAD PUSH2 0x592 SWAP1 PUSH2 0x33E4 JUMP JUMPDEST DUP1 ISZERO PUSH2 0x5DD JUMPI DUP1 PUSH1 0x1F LT PUSH2 0x5B4 JUMPI PUSH2 0x100 DUP1 DUP4 SLOAD DIV MUL DUP4 MSTORE SWAP2 PUSH1 0x20 ADD SWAP2 PUSH2 0x5DD JUMP JUMPDEST DUP3 ADD SWAP2 SWAP1 PUSH0 MSTORE PUSH1 0x20 PUSH0 KECCAK256 SWAP1 JUMPDEST DUP2 SLOAD DUP2 MSTORE SWAP1 PUSH1 0x1 ADD SWAP1 PUSH1 0x20 ADD DUP1 DUP4 GT PUSH2 0x5C0 JUMPI DUP3 SWAP1 SUB PUSH1 0x1F AND DUP3 ADD SWAP2 JUMPDEST POP POP POP POP POP SWAP1 POP SWAP1 JUMP JUMPDEST PUSH0 PUSH2 0x5F1 DUP3 PUSH2 0x183B JUMP JUMPDEST PUSH1 0x4 PUSH0 DUP4 DUP2 MSTORE PUSH1 0x20 ADD SWAP1 DUP2 MSTORE PUSH1 0x20 ADD PUSH0 KECCAK256 PUSH0 SWAP1 SLOAD SWAP1 PUSH2 0x100 EXP SWAP1 DIV PUSH20 0xFFFFFFFFFFFFFFFFFFFFFFFFFFFFFFFFFFFFFFFF AND SWAP1 POP SWAP2 SWAP1 POP JUMP JUMPDEST PUSH0 PUSH2 0x633 DUP3 PUSH2 0x988 JUMP JUMPDEST SWAP1 POP DUP1 PUSH20 0xFFFFFFFFFFFFFFFFFFFFFFFFFFFFFFFFFFFFFFFF AND DUP4 PUSH20 0xFFFFFFFFFFFFFFFFFFFFFFFFFFFFFFFFFFFFFFFF AND SUB PUSH2 0x6A3 JUMPI PUSH1 0x40 MLOAD PUSH32 0x8C379A000000000000000000000000000000000000000000000000000000000 DUP2 MSTORE PUSH1 0x4 ADD PUSH2 0x69A SWAP1 PUSH2 0x3484 JUMP JUMPDEST PUSH1 0x40 MLOAD DUP1 SWAP2 SUB SWAP1 REVERT JUMPDEST DUP1 PUSH20 0xFFFFFFFFFFFFFFFFFFFFFFFFFFFFFFFFFFFFFFFF AND PUSH2 0x6C2 PUSH2 0x1886 JUMP JUMPDEST PUSH20 0xFFFFFFFFFFFFFFFFFFFFFFFFFFFFFFFFFFFFFFFF AND EQ DUP1 PUSH2 0x6F1 JUMPI POP PUSH2 0x6F0 DUP2 PUSH2 0x6EB PUSH2 0x1886 JUMP JUMPDEST PUSH2 0x1511 JUMP JUMPDEST JUMPDEST PUSH2 0x730 JUMPI PUSH1 0x40 MLOAD PUSH32 0x8C379A000000000000000000000000000000000000000000000000000000000 DUP2 MSTORE PUSH1 0x4 ADD PUSH2 0x727 SWAP1 PUSH2 0x3512 JUMP JUMPDEST PUSH1 0x40 MLOAD DUP1 SWAP2 SUB SWAP1 REVERT JUMPDEST PUSH2 0x73A DUP4 DUP4 PUSH2 0x188D JUMP JUMPDEST POP POP POP JUMP JUMPDEST PUSH2 0x750 PUSH2 0x74A PUSH2 0x1886 JUMP JUMPDEST DUP3 PUSH2 0x1943 JUMP JUMPDEST PUSH2 0x78F JUMPI PUSH1 0x40 MLOAD PUSH32 0x8C379A000000000000000000000000000000000000000000000000000000000 DUP2 MSTORE PUSH1 0x4 ADD PUSH2 0x786 SWAP1 PUSH2 0x35A0 JUMP JUMPDEST PUSH1 0x40 MLOAD DUP1 SWAP2 SUB SWAP1 REVERT JUMPDEST PUSH2 0x79A DUP4 DUP4 DUP4 PUSH2 0x19D7 JUMP JUMPDEST POP POP POP JUMP JUMPDEST PUSH2 0x7B9 DUP4 DUP4 DUP4 PUSH1 0x40 MLOAD DUP1 PUSH1 0x20 ADD PUSH1 0x40 MSTORE DUP1 PUSH0 DUP2 MSTORE POP PUSH2 0xB8B JUMP JUMPDEST POP POP POP JUMP JUMPDEST PUSH1 0xA PUSH1 0x20 MSTORE DUP1 PUSH0 MSTORE PUSH1 0x40 PUSH0 KECCAK256 PUSH0 SWAP2 POP SWAP1 POP DUP1 PUSH0 ADD DUP1 SLOAD PUSH2 0x7DD SWAP1 PUSH2 0x33E4 JUMP JUMPDEST DUP1 PUSH1 0x1F ADD PUSH1 0x20 DUP1 SWAP2 DIV MUL PUSH1 0x20 ADD PUSH1 0x40 MLOAD SWAP1 DUP2 ADD PUSH1 0x40 MSTORE DUP1 SWAP3 SWAP2 SWAP1 DUP2 DUP2 MSTORE PUSH1 0x20 ADD DUP3 DUP1 SLOAD PUSH2 0x809 SWAP1 PUSH2 0x33E4 JUMP JUMPDEST DUP1 ISZERO PUSH2 0x854 JUMPI DUP1 PUSH1 0x1F LT PUSH2 0x82B JUMPI PUSH2 0x100 DUP1 DUP4 SLOAD DIV MUL DUP4 MSTORE SWAP2 PUSH1 0x20 ADD SWAP2 PUSH2 0x854 JUMP JUMPDEST DUP3 ADD SWAP2 SWAP1 PUSH0 MSTORE PUSH1 0x20 PUSH0 KECCAK256 SWAP1 JUMPDEST DUP2 SLOAD DUP2 MSTORE SWAP1 PUSH1 0x1 ADD SWAP1 PUSH1 0x20 ADD DUP1 DUP4 GT PUSH2 0x837 JUMPI DUP3 SWAP1 SUB PUSH1 0x1F AND DUP3 ADD SWAP2 JUMPDEST POP POP POP POP POP SWAP1 DUP1 PUSH1 0x1 ADD SLOAD SWAP1 DUP1 PUSH1 0x2 ADD PUSH0 SWAP1 SLOAD SWAP1 PUSH2 0x100 EXP SWAP1 DIV PUSH8 0xFFFFFFFFFFFFFFFF AND SWAP1 DUP1 PUSH1 0x2 ADD PUSH1 0x8 SWAP1 SLOAD SWAP1 PUSH2 0x100 EXP SWAP1 DIV PUSH8 0xFFFFFFFFFFFFFFFF AND SWAP1 DUP1 PUSH1 0x2 ADD PUSH1 0x10 SWAP1 SLOAD SWAP1 PUSH2 0x100 EXP SWAP1 DIV PUSH8 0xFFFFFFFFFFFFFFFF AND SWAP1 DUP1 PUSH1 0x2 ADD PUSH1 0x18 SWAP1 SLOAD SWAP1 PUSH2 0x100 EXP SWAP1 DIV PUSH1 0xFF AND SWAP1 DUP1 PUSH1 0x3 ADD DUP1 SLOAD PUSH2 0x8CF SWAP1 PUSH2 0x33E4 JUMP JUMPDEST DUP1 PUSH1 0x1F ADD PUSH1 0x20 DUP1 SWAP2 DIV MUL PUSH1 0x20 ADD PUSH1 0x40 MLOAD SWAP1 DUP2 ADD PUSH1 0x40 MSTORE DUP1 SWAP3 SWAP2 SWAP1 DUP2 DUP2 MSTORE PUSH1 0x20 ADD DUP3 DUP1 SLOAD PUSH2 0x8FB SWAP1 PUSH2 0x33E4 JUMP JUMPDEST DUP1 ISZERO PUSH2 0x946 JUMPI DUP1 PUSH1 0x1F LT PUSH2 0x91D JUMPI PUSH2 0x100 DUP1 DUP4 SLOAD DIV MUL DUP4 MSTORE SWAP2 PUSH1 0x20 ADD SWAP2 PUSH2 0x946 JUMP JUMPDEST DUP3 ADD SWAP2 SWAP1 PUSH0 MSTORE PUSH1 0x20 PUSH0 KECCAK256 SWAP1 JUMPDEST DUP2 SLOAD DUP2 MSTORE SWAP1 PUSH1 0x1 ADD SWAP1 PUSH1 0x20 ADD DUP1 DUP4 GT PUSH2 0x929 JUMPI DUP3 SWAP1 SUB PUSH1 0x1F AND DUP3 ADD SWAP2 JUMPDEST POP POP POP POP POP SWAP1 DUP1 PUSH1 0x4 ADD PUSH0 SWAP1 SLOAD SWAP1 PUSH2 0x100 EXP SWAP1 DIV PUSH20 0xFFFFFFFFFFFFFFFFFFFFFFFFFFFFFFFFFFFFFFFF AND SWAP1 DUP1 PUSH1 0x4 ADD PUSH1 0x14 SWAP1 SLOAD SWAP1 PUSH2 0x100 EXP SWAP1 DIV PUSH1 0xFF AND SWAP1 POP DUP10 JUMP JUMPDEST PUSH0 PUSH0 PUSH2 0x993 DUP4 PUSH2 0x1CC3 JUMP JUMPDEST SWAP1 POP PUSH0 PUSH20 0xFFFFFFFFFFFFFFFFFFFFFFFFFFFFFFFFFFFFFFFF AND DUP2 PUSH20 0xFFFFFFFFFFFFFFFFFFFFFFFFFFFFFFFFFFFFFFFF AND SUB PUSH2 0xA03 JUMPI PUSH1 0x40 MLOAD PUSH32 0x8C379A000000000000000000000000000000000000000000000000000000000 DUP2 MSTORE PUSH1 0x4 ADD PUSH2 0x9FA SWAP1 PUSH2 0x3608 JUMP JUMPDEST PUSH1 0x40 MLOAD DUP1 SWAP2 SUB SWAP1 REVERT JUMPDEST DUP1 SWAP2 POP POP SWAP2 SWAP1 POP JUMP JUMPDEST PUSH0 PUSH0 PUSH20 0xFFFFFFFFFFFFFFFFFFFFFFFFFFFFFFFFFFFFFFFF AND DUP3 PUSH20 0xFFFFFFFFFFFFFFFFFFFFFFFFFFFFFFFFFFFFFFFF AND SUB PUSH2 0xA7B JUMPI PUSH1 0x40 MLOAD PUSH32 0x8C379A000000000000000000000000000000000000000000000000000000000 DUP2 MSTORE PUSH1 0x4 ADD PUSH2 0xA72 SWAP1 PUSH2 0x3696 JUMP JUMPDEST PUSH1 0x40 MLOAD DUP1 SWAP2 SUB SWAP1 REVERT JUMPDEST PUSH1 0x3 PUSH0 DUP4 PUSH20 0xFFFFFFFFFFFFFFFFFFFFFFFFFFFFFFFFFFFFFFFF AND PUSH20 0xFFFFFFFFFFFFFFFFFFFFFFFFFFFFFFFFFFFFFFFF AND DUP2 MSTORE PUSH1 0x20 ADD SWAP1 DUP2 MSTORE PUSH1 0x20 ADD PUSH0 KECCAK256 SLOAD SWAP1 POP SWAP2 SWAP1 POP JUMP JUMPDEST PUSH1 0x7 PUSH0 SWAP1 SLOAD SWAP1 PUSH2 0x100 EXP SWAP1 DIV PUSH20 0xFFFFFFFFFFFFFFFFFFFFFFFFFFFFFFFFFFFFFFFF AND DUP2 JUMP JUMPDEST PUSH1 0x60 PUSH1 0x1 DUP1 SLOAD PUSH2 0xAF4 SWAP1 PUSH2 0x33E4 JUMP JUMPDEST DUP1 PUSH1 0x1F ADD PUSH1 0x20 DUP1 SWAP2 DIV MUL PUSH1 0x20 ADD PUSH1 0x40 MLOAD SWAP1 DUP2 ADD PUSH1 0x40 MSTORE DUP1 SWAP3 SWAP2 SWAP1 DUP2 DUP2 MSTORE PUSH1 0x20 ADD DUP3 DUP1 SLOAD PUSH2 0xB20 SWAP1 PUSH2 0x33E4 JUMP JUMPDEST DUP1 ISZERO PUSH2 0xB6B JUMPI DUP1 PUSH1 0x1F LT PUSH2 0xB42 JUMPI PUSH2 0x100 DUP1 DUP4 SLOAD DIV MUL DUP4 MSTORE SWAP2 PUSH1 0x20 ADD SWAP2 PUSH2 0xB6B JUMP JUMPDEST DUP3 ADD SWAP2 SWAP1 PUSH0 MSTORE PUSH1 0x20 PUSH0 KECCAK256 SWAP1 JUMPDEST DUP2 SLOAD DUP2 MSTORE SWAP1 PUSH1 0x1 ADD SWAP1 PUSH1 0x20 ADD DUP1 DUP4 GT PUSH2 0xB4E JUMPI DUP3 SWAP1 SUB PUSH1 0x1F AND DUP3 ADD SWAP2 JUMPDEST POP POP POP POP POP SWAP1 POP SWAP1 JUMP JUMPDEST PUSH2 0xB87 PUSH2 0xB80 PUSH2 0x1886 JUMP JUMPDEST DUP4 DUP4 PUSH2 0x1CFC JUMP JUMPDEST POP POP JUMP JUMPDEST PUSH2 0xB9C PUSH2 0xB96 PUSH2 0x1886 JUMP JUMPDEST DUP4 PUSH2 0x1943 JUMP JUMPDEST PUSH2 0xBDB JUMPI PUSH1 0x40 MLOAD PUSH32 0x8C379A000000000000000000000000000000000000000000000000000000000 DUP2 MSTORE PUSH1 0x4 ADD PUSH2 0xBD2 SWAP1 PUSH2 0x35A0 JUMP JUMPDEST PUSH1 0x40 MLOAD DUP1 SWAP2 SUB SWAP1 REVERT JUMPDEST PUSH2 0xBE7 DUP5 DUP5 DUP5 DUP5 PUSH2 0x1E63 JUMP JUMPDEST POP POP POP POP JUMP JUMPDEST PUSH0 PUSH1 0x7 PUSH0 SWAP1 SLOAD SWAP1 PUSH2 0x100 EXP SWAP1 DIV PUSH20 0xFFFFFFFFFFFFFFFFFFFFFFFFFFFFFFFFFFFFFFFF AND PUSH20 0xFFFFFFFFFFFFFFFFFFFFFFFFFFFFFFFFFFFFFFFF AND CALLER PUSH20 0xFFFFFFFFFFFFFFFFFFFFFFFFFFFFFFFFFFFFFFFF AND EQ PUSH2 0xC7D JUMPI PUSH1 0x40 MLOAD PUSH32 0x8C379A000000000000000000000000000000000000000000000000000000000 DUP2 MSTORE PUSH1 0x4 ADD PUSH2 0xC74 SWAP1 PUSH2 0x36FE JUMP JUMPDEST PUSH1 0x40 MLOAD DUP1 SWAP2 SUB SWAP1 REVERT JUMPDEST PUSH0 DUP6 PUSH8 0xFFFFFFFFFFFFFFFF AND GT PUSH2 0xCC9 JUMPI PUSH1 0x40 MLOAD PUSH32 0x8C379A000000000000000000000000000000000000000000000000000000000 DUP2 MSTORE PUSH1 0x4 ADD PUSH2 0xCC0 SWAP1 PUSH2 0x3766 JUMP JUMPDEST PUSH1 0x40 MLOAD DUP1 SWAP2 SUB SWAP1 REVERT JUMPDEST PUSH0 PUSH20 0xFFFFFFFFFFFFFFFFFFFFFFFFFFFFFFFFFFFFFFFF AND DUP3 PUSH20 0xFFFFFFFFFFFFFFFFFFFFFFFFFFFFFFFFFFFFFFFF AND SUB PUSH2 0xD37 JUMPI PUSH1 0x40 MLOAD PUSH32 0x8C379A000000000000000000000000000000000000000000000000000000000 DUP2 MSTORE PUSH1 0x4 ADD PUSH2 0xD2E SWAP1 PUSH2 0x37CE JUMP JUMPDEST PUSH1 0x40 MLOAD DUP1 SWAP2 SUB SWAP1 REVERT JUMPDEST PUSH2 0xD41 PUSH1 0x9 PUSH2 0x1EBF JUMP JUMPDEST PUSH2 0xD4B PUSH1 0x9 PUSH2 0x1ED3 JUMP JUMPDEST SWAP1 POP PUSH1 0x40 MLOAD DUP1 PUSH2 0x120 ADD PUSH1 0x40 MSTORE DUP1 DUP10 DUP2 MSTORE PUSH1 0x20 ADD DUP9 DUP2 MSTORE PUSH1 0x20 ADD DUP8 PUSH8 0xFFFFFFFFFFFFFFFF AND DUP2 MSTORE PUSH1 0x20 ADD DUP7 PUSH8 0xFFFFFFFFFFFFFFFF AND DUP2 MSTORE PUSH1 0x20 ADD PUSH0 PUSH8 0xFFFFFFFFFFFFFFFF AND DUP2 MSTORE PUSH1 0x20 ADD DUP6 ISZERO ISZERO DUP2 MSTORE PUSH1 0x20 ADD DUP5 DUP2 MSTORE PUSH1 0x20 ADD DUP4 PUSH20 0xFFFFFFFFFFFFFFFFFFFFFFFFFFFFFFFFFFFFFFFF AND DUP2 MSTORE PUSH1 0x20 ADD PUSH1 0x1 ISZERO ISZERO DUP2 MSTORE POP PUSH1 0xA PUSH0 DUP4 DUP2 MSTORE PUSH1 0x20 ADD SWAP1 DUP2 MSTORE PUSH1 0x20 ADD PUSH0 KECCAK256 PUSH0 DUP3 ADD MLOAD DUP2 PUSH0 ADD SWAP1 DUP2 PUSH2 0xDEA SWAP2 SWAP1 PUSH2 0x398C JUMP JUMPDEST POP PUSH1 0x20 DUP3 ADD MLOAD DUP2 PUSH1 0x1 ADD SSTORE PUSH1 0x40 DUP3 ADD MLOAD DUP2 PUSH1 0x2 ADD PUSH0 PUSH2 0x100 EXP DUP2 SLOAD DUP2 PUSH8 0xFFFFFFFFFFFFFFFF MUL NOT AND SWAP1 DUP4 PUSH8 0xFFFFFFFFFFFFFFFF AND MUL OR SWAP1 SSTORE POP PUSH1 0x60 DUP3 ADD MLOAD DUP2 PUSH1 0x2 ADD PUSH1 0x8 PUSH2 0x100 EXP DUP2 SLOAD DUP2 PUSH8 0xFFFFFFFFFFFFFFFF MUL NOT AND SWAP1 DUP4 PUSH8 0xFFFFFFFFFFFFFFFF AND MUL OR SWAP1 SSTORE POP PUSH1 0x80 DUP3 ADD MLOAD DUP2 PUSH1 0x2 ADD PUSH1 0x10 PUSH2 0x100 EXP DUP2 SLOAD DUP2 PUSH8 0xFFFFFFFFFFFFFFFF MUL NOT AND SWAP1 DUP4 PUSH8 0xFFFFFFFFFFFFFFFF AND MUL OR SWAP1 SSTORE POP PUSH1 0xA0 DUP3 ADD MLOAD DUP2 PUSH1 0x2 ADD PUSH1 0x18 PUSH2 0x100 EXP DUP2 SLOAD DUP2 PUSH1 0xFF MUL NOT AND SWAP1 DUP4 ISZERO ISZERO MUL OR SWAP1 SSTORE POP PUSH1 0xC0 DUP3 ADD MLOAD DUP2 PUSH1 0x3 ADD SWAP1 DUP2 PUSH2 0xEB6 SWAP2 SWAP1 PUSH2 0x398C JUMP JUMPDEST POP PUSH1 0xE0 DUP3 ADD MLOAD DUP2 PUSH1 0x4 ADD PUSH0 PUSH2 0x100 EXP DUP2 SLOAD DUP2 PUSH20 0xFFFFFFFFFFFFFFFFFFFFFFFFFFFFFFFFFFFFFFFF MUL NOT AND SWAP1 DUP4 PUSH20 0xFFFFFFFFFFFFFFFFFFFFFFFFFFFFFFFFFFFFFFFF AND MUL OR SWAP1 SSTORE POP PUSH2 0x100 DUP3 ADD MLOAD DUP2 PUSH1 0x4 ADD PUSH1 0x14 PUSH2 0x100 EXP DUP2 SLOAD DUP2 PUSH1 0xFF MUL NOT AND SWAP1 DUP4 ISZERO ISZERO MUL OR SWAP1 SSTORE POP SWAP1 POP POP DUP1 PUSH32 0x4D2D4AAADD4A06289F47540F5AB01615BA7B082E2123A01B26523D0C6BEDE463 DUP10 DUP10 DUP10 DUP10 PUSH1 0x40 MLOAD PUSH2 0xF57 SWAP5 SWAP4 SWAP3 SWAP2 SWAP1 PUSH2 0x3A5B JUMP JUMPDEST PUSH1 0x40 MLOAD DUP1 SWAP2 SUB SWAP1 LOG2 SWAP8 SWAP7 POP POP POP POP POP POP POP JUMP JUMPDEST PUSH1 0xB PUSH1 0x20 MSTORE DUP1 PUSH0 MSTORE PUSH1 0x40 PUSH0 KECCAK256 PUSH0 SWAP2 POP SWAP1 POP SLOAD DUP2 JUMP JUMPDEST PUSH1 0x60 PUSH2 0xF8A DUP3 PUSH2 0x183B JUMP JUMPDEST PUSH0 PUSH1 0x6 PUSH0 DUP5 DUP2 MSTORE PUSH1 0x20 ADD SWAP1 DUP2 MSTORE PUSH1 0x20 ADD PUSH0 KECCAK256 DUP1 SLOAD PUSH2 0xFA7 SWAP1 PUSH2 0x33E4 JUMP JUMPDEST DUP1 PUSH1 0x1F ADD PUSH1 0x20 DUP1 SWAP2 DIV MUL PUSH1 0x20 ADD PUSH1 0x40 MLOAD SWAP1 DUP2 ADD PUSH1 0x40 MSTORE DUP1 SWAP3 SWAP2 SWAP1 DUP2 DUP2 MSTORE PUSH1 0x20 ADD DUP3 DUP1 SLOAD PUSH2 0xFD3 SWAP1 PUSH2 0x33E4 JUMP JUMPDEST DUP1 ISZERO PUSH2 0x101E JUMPI DUP1 PUSH1 0x1F LT PUSH2 0xFF5 JUMPI PUSH2 0x100 DUP1 DUP4 SLOAD DIV MUL DUP4 MSTORE SWAP2 PUSH1 0x20 ADD SWAP2 PUSH2 0x101E JUMP JUMPDEST DUP3 ADD SWAP2 SWAP1 PUSH0 MSTORE PUSH1 0x20 PUSH0 KECCAK256 SWAP1 JUMPDEST DUP2 SLOAD DUP2 MSTORE SWAP1 PUSH1 0x1 ADD SWAP1 PUSH1 0x20 ADD DUP1 DUP4 GT PUSH2 0x1001 JUMPI DUP3 SWAP1 SUB PUSH1 0x1F AND DUP3 ADD SWAP2 JUMPDEST POP POP POP POP POP SWAP1 POP PUSH0 PUSH2 0x102E PUSH2 0x1EDF JUMP JUMPDEST SWAP1 POP PUSH0 DUP2 MLOAD SUB PUSH2 0x1042 JUMPI DUP2 SWAP3 POP POP POP PUSH2 0x1084 JUMP JUMPDEST PUSH0 DUP3 MLOAD GT ISZERO PUSH2 0x1076 JUMPI DUP1 DUP3 PUSH1 0x40 MLOAD PUSH1 0x20 ADD PUSH2 0x105E SWAP3 SWAP2 SWAP1 PUSH2 0x3ADF JUMP JUMPDEST PUSH1 0x40 MLOAD PUSH1 0x20 DUP2 DUP4 SUB SUB DUP2 MSTORE SWAP1 PUSH1 0x40 MSTORE SWAP3 POP POP POP PUSH2 0x1084 JUMP JUMPDEST PUSH2 0x107F DUP5 PUSH2 0x1EF5 JUMP JUMPDEST SWAP3 POP POP POP JUMPDEST SWAP2 SWAP1 POP JUMP JUMPDEST PUSH1 0x2 PUSH1 0x8 SLOAD SUB PUSH2 0x10CE JUMPI PUSH1 0x40 MLOAD PUSH32 0x8C379A000000000000000000000000000000000000000000000000000000000 DUP2 MSTORE PUSH1 0x4 ADD PUSH2 0x10C5 SWAP1 PUSH2 0x3B4C JUMP JUMPDEST PUSH1 0x40 MLOAD DUP1 SWAP2 SUB SWAP1 REVERT JUMPDEST PUSH1 0x2 PUSH1 0x8 DUP2 SWAP1 SSTORE POP PUSH0 PUSH1 0xA PUSH0 DUP4 DUP2 MSTORE PUSH1 0x20 ADD SWAP1 DUP2 MSTORE PUSH1 0x20 ADD PUSH0 KECCAK256 SWAP1 POP DUP1 PUSH1 0x4 ADD PUSH1 0x14 SWAP1 SLOAD SWAP1 PUSH2 0x100 EXP SWAP1 DIV PUSH1 0xFF AND PUSH2 0x113B JUMPI PUSH1 0x40 MLOAD PUSH32 0x8C379A000000000000000000000000000000000000000000000000000000000 DUP2 MSTORE PUSH1 0x4 ADD PUSH2 0x1132 SWAP1 PUSH2 0x3BB4 JUMP JUMPDEST PUSH1 0x40 MLOAD DUP1 SWAP2 SUB SWAP1 REVERT JUMPDEST DUP1 PUSH1 0x2 ADD PUSH1 0x8 SWAP1 SLOAD SWAP1 PUSH2 0x100 EXP SWAP1 DIV PUSH8 0xFFFFFFFFFFFFFFFF AND PUSH8 0xFFFFFFFFFFFFFFFF AND DUP2 PUSH1 0x2 ADD PUSH1 0x10 SWAP1 SLOAD SWAP1 PUSH2 0x100 EXP SWAP1 DIV PUSH8 0xFFFFFFFFFFFFFFFF AND PUSH8 0xFFFFFFFFFFFFFFFF AND LT PUSH2 0x11C1 JUMPI PUSH1 0x40 MLOAD PUSH32 0x8C379A000000000000000000000000000000000000000000000000000000000 DUP2 MSTORE PUSH1 0x4 ADD PUSH2 0x11B8 SWAP1 PUSH2 0x3C1C JUMP JUMPDEST PUSH1 0x40 MLOAD DUP1 SWAP2 SUB SWAP1 REVERT JUMPDEST DUP1 PUSH1 0x1 ADD SLOAD CALLVALUE EQ PUSH2 0x1207 JUMPI PUSH1 0x40 MLOAD PUSH32 0x8C379A000000000000000000000000000000000000000000000000000000000 DUP2 MSTORE PUSH1 0x4 ADD PUSH2 0x11FE SWAP1 PUSH2 0x3C84 JUMP JUMPDEST PUSH1 0x40 MLOAD DUP1 SWAP2 SUB SWAP1 REVERT JUMPDEST PUSH0 DUP2 PUSH1 0x4 ADD PUSH0 SWAP1 SLOAD SWAP1 PUSH2 0x100 EXP SWAP1 DIV PUSH20 0xFFFFFFFFFFFFFFFFFFFFFFFFFFFFFFFFFFFFFFFF AND PUSH20 0xFFFFFFFFFFFFFFFFFFFFFFFFFFFFFFFFFFFFFFFF AND CALLVALUE PUSH1 0x40 MLOAD PUSH2 0x124F SWAP1 PUSH2 0x3CCF JUMP JUMPDEST PUSH0 PUSH1 0x40 MLOAD DUP1 DUP4 SUB DUP2 DUP6 DUP8 GAS CALL SWAP3 POP POP POP RETURNDATASIZE DUP1 PUSH0 DUP2 EQ PUSH2 0x1289 JUMPI PUSH1 0x40 MLOAD SWAP2 POP PUSH1 0x1F NOT PUSH1 0x3F RETURNDATASIZE ADD AND DUP3 ADD PUSH1 0x40 MSTORE RETURNDATASIZE DUP3 MSTORE RETURNDATASIZE PUSH0 PUSH1 0x20 DUP5 ADD RETURNDATACOPY PUSH2 0x128E JUMP JUMPDEST PUSH1 0x60 SWAP2 POP JUMPDEST POP POP SWAP1 POP DUP1 PUSH2 0x12D2 JUMPI PUSH1 0x40 MLOAD PUSH32 0x8C379A000000000000000000000000000000000000000000000000000000000 DUP2 MSTORE PUSH1 0x4 ADD PUSH2 0x12C9 SWAP1 PUSH2 0x3D2D JUMP JUMPDEST PUSH1 0x40 MLOAD DUP1 SWAP2 SUB SWAP1 REVERT JUMPDEST PUSH0 DUP4 PUSH1 0x1 DUP5 PUSH1 0x2 ADD PUSH1 0x10 SWAP1 SLOAD SWAP1 PUSH2 0x100 EXP SWAP1 DIV PUSH8 0xFFFFFFFFFFFFFFFF AND PUSH2 0x12F9 SWAP2 SWAP1 PUSH2 0x3D78 JUMP JUMPDEST PREVRANDAO CALLER PUSH1 0x40 MLOAD PUSH1 0x20 ADD PUSH2 0x130E SWAP5 SWAP4 SWAP3 SWAP2 SWAP1 PUSH2 0x3E4C JUMP JUMPDEST PUSH1 0x40 MLOAD PUSH1 0x20 DUP2 DUP4 SUB SUB DUP2 MSTORE SWAP1 PUSH1 0x40 MSTORE DUP1 MLOAD SWAP1 PUSH1 0x20 ADD KECCAK256 PUSH0 SHR SWAP1 POP PUSH2 0x1332 CALLER DUP3 PUSH2 0x1F5A JUMP JUMPDEST PUSH2 0x1368 DUP2 DUP5 PUSH1 0x3 ADD PUSH2 0x1343 DUP5 PUSH2 0x1F77 JUMP JUMPDEST PUSH1 0x40 MLOAD PUSH1 0x20 ADD PUSH2 0x1354 SWAP3 SWAP2 SWAP1 PUSH2 0x3F63 JUMP JUMPDEST PUSH1 0x40 MLOAD PUSH1 0x20 DUP2 DUP4 SUB SUB DUP2 MSTORE SWAP1 PUSH1 0x40 MSTORE PUSH2 0x20D0 JUMP JUMPDEST DUP4 PUSH1 0xB PUSH0 DUP4 DUP2 MSTORE PUSH1 0x20 ADD SWAP1 DUP2 MSTORE PUSH1 0x20 ADD PUSH0 KECCAK256 DUP2 SWAP1 SSTORE POP DUP3 PUSH1 0x2 ADD PUSH1 0x10 DUP2 DUP2 SWAP1 SLOAD SWAP1 PUSH2 0x100 EXP SWAP1 DIV PUSH8 0xFFFFFFFFFFFFFFFF AND DUP1 SWAP3 SWAP2 SWAP1 PUSH2 0x13A6 SWAP1 PUSH2 0x3F91 JUMP JUMPDEST SWAP2 SWAP1 PUSH2 0x100 EXP DUP2 SLOAD DUP2 PUSH8 0xFFFFFFFFFFFFFFFF MUL NOT AND SWAP1 DUP4 PUSH8 0xFFFFFFFFFFFFFFFF AND MUL OR SWAP1 SSTORE POP POP DUP1 DUP5 PUSH32 0x4FE0F5BB11EB6AB81C428FB83261719E5B22F84B3E1942CD491C3777504BB851 CALLER DUP7 PUSH1 0x1 ADD SLOAD PUSH1 0x40 MLOAD PUSH2 0x1404 SWAP3 SWAP2 SWAP1 PUSH2 0x3FC0 JUMP JUMPDEST PUSH1 0x40 MLOAD DUP1 SWAP2 SUB SWAP1 LOG3 POP POP POP PUSH1 0x1 PUSH1 0x8 DUP2 SWAP1 SSTORE POP POP JUMP JUMPDEST PUSH1 0x7 PUSH0 SWAP1 SLOAD SWAP1 PUSH2 0x100 EXP SWAP1 DIV PUSH20 0xFFFFFFFFFFFFFFFFFFFFFFFFFFFFFFFFFFFFFFFF AND PUSH20 0xFFFFFFFFFFFFFFFFFFFFFFFFFFFFFFFFFFFFFFFF AND CALLER PUSH20 0xFFFFFFFFFFFFFFFFFFFFFFFFFFFFFFFFFFFFFFFF AND EQ PUSH2 0x14A9 JUMPI PUSH1 0x40 MLOAD PUSH32 0x8C379A000000000000000000000000000000000000000000000000000000000 DUP2 MSTORE PUSH1 0x4 ADD PUSH2 0x14A0 SWAP1 PUSH2 0x36FE JUMP JUMPDEST PUSH1 0x40 MLOAD DUP1 SWAP2 SUB SWAP1 REVERT JUMPDEST DUP1 PUSH1 0xA PUSH0 DUP5 DUP2 MSTORE PUSH1 0x20 ADD SWAP1 DUP2 MSTORE PUSH1 0x20 ADD PUSH0 KECCAK256 PUSH1 0x4 ADD PUSH1 0x14 PUSH2 0x100 EXP DUP2 SLOAD DUP2 PUSH1 0xFF MUL NOT AND SWAP1 DUP4 ISZERO ISZERO MUL OR SWAP1 SSTORE POP DUP2 PUSH32 0x8AF992DCD4FDD00691D366DA8A8267301EF4DF1D18FF1AF4C336070990FEBB8 DUP3 PUSH1 0x40 MLOAD PUSH2 0x1505 SWAP2 SWAP1 PUSH2 0x2C1B JUMP JUMPDEST PUSH1 0x40 MLOAD DUP1 SWAP2 SUB SWAP1 LOG2 POP POP JUMP JUMPDEST PUSH0 PUSH1 0x5 PUSH0 DUP5 PUSH20 0xFFFFFFFFFFFFFFFFFFFFFFFFFFFFFFFFFFFFFFFF AND PUSH20 0xFFFFFFFFFFFFFFFFFFFFFFFFFFFFFFFFFFFFFFFF AND DUP2 MSTORE PUSH1 0x20 ADD SWAP1 DUP2 MSTORE PUSH1 0x20 ADD PUSH0 KECCAK256 PUSH0 DUP4 PUSH20 0xFFFFFFFFFFFFFFFFFFFFFFFFFFFFFFFFFFFFFFFF AND PUSH20 0xFFFFFFFFFFFFFFFFFFFFFFFFFFFFFFFFFFFFFFFF AND DUP2 MSTORE PUSH1 0x20 ADD SWAP1 DUP2 MSTORE PUSH1 0x20 ADD PUSH0 KECCAK256 PUSH0 SWAP1 SLOAD SWAP1 PUSH2 0x100 EXP SWAP1 DIV PUSH1 0xFF AND SWAP1 POP SWAP3 SWAP2 POP POP JUMP JUMPDEST PUSH1 0x7 PUSH0 SWAP1 SLOAD SWAP1 PUSH2 0x100 EXP SWAP1 DIV PUSH20 0xFFFFFFFFFFFFFFFFFFFFFFFFFFFFFFFFFFFFFFFF AND PUSH20 0xFFFFFFFFFFFFFFFFFFFFFFFFFFFFFFFFFFFFFFFF AND CALLER PUSH20 0xFFFFFFFFFFFFFFFFFFFFFFFFFFFFFFFFFFFFFFFF AND EQ PUSH2 0x162E JUMPI PUSH1 0x40 MLOAD PUSH32 0x8C379A000000000000000000000000000000000000000000000000000000000 DUP2 MSTORE PUSH1 0x4 ADD PUSH2 0x1625 SWAP1 PUSH2 0x36FE JUMP JUMPDEST PUSH1 0x40 MLOAD DUP1 SWAP2 SUB SWAP1 REVERT JUMPDEST PUSH0 PUSH20 0xFFFFFFFFFFFFFFFFFFFFFFFFFFFFFFFFFFFFFFFF AND DUP2 PUSH20 0xFFFFFFFFFFFFFFFFFFFFFFFFFFFFFFFFFFFFFFFF AND SUB PUSH2 0x169C JUMPI PUSH1 0x40 MLOAD PUSH32 0x8C379A000000000000000000000000000000000000000000000000000000000 DUP2 MSTORE PUSH1 0x4 ADD PUSH2 0x1693 SWAP1 PUSH2 0x4031 JUMP JUMPDEST PUSH1 0x40 MLOAD DUP1 SWAP2 SUB SWAP1 REVERT JUMPDEST DUP1 PUSH20 0xFFFFFFFFFFFFFFFFFFFFFFFFFFFFFFFFFFFFFFFF AND PUSH1 0x7 PUSH0 SWAP1 SLOAD SWAP1 PUSH2 0x100 EXP SWAP1 DIV PUSH20 0xFFFFFFFFFFFFFFFFFFFFFFFFFFFFFFFFFFFFFFFF AND PUSH20 0xFFFFFFFFFFFFFFFFFFFFFFFFFFFFFFFFFFFFFFFF AND PUSH32 0x8BE0079C531659141344CD1FD0A4F28419497F9722A3DAAFE3B4186F6B6457E0 PUSH1 0x40 MLOAD PUSH1 0x40 MLOAD DUP1 SWAP2 SUB SWAP1 LOG3 DUP1 PUSH1 0x7 PUSH0 PUSH2 0x100 EXP DUP2 SLOAD DUP2 PUSH20 0xFFFFFFFFFFFFFFFFFFFFFFFFFFFFFFFFFFFFFFFF MUL NOT AND SWAP1 DUP4 PUSH20 0xFFFFFFFFFFFFFFFFFFFFFFFFFFFFFFFFFFFFFFFF AND MUL OR SWAP1 SSTORE POP POP JUMP JUMPDEST PUSH0 PUSH32 0x80AC58CD00000000000000000000000000000000000000000000000000000000 PUSH28 0xFFFFFFFFFFFFFFFFFFFFFFFFFFFFFFFFFFFFFFFFFFFFFFFFFFFFFFFF NOT AND DUP3 PUSH28 0xFFFFFFFFFFFFFFFFFFFFFFFFFFFFFFFFFFFFFFFFFFFFFFFFFFFFFFFF NOT AND EQ DUP1 PUSH2 0x1824 JUMPI POP PUSH32 0x5B5E139F00000000000000000000000000000000000000000000000000000000 PUSH28 0xFFFFFFFFFFFFFFFFFFFFFFFFFFFFFFFFFFFFFFFFFFFFFFFFFFFFFFFF NOT AND DUP3 PUSH28 0xFFFFFFFFFFFFFFFFFFFFFFFFFFFFFFFFFFFFFFFFFFFFFFFFFFFFFFFF NOT AND EQ JUMPDEST DUP1 PUSH2 0x1834 JUMPI POP PUSH2 0x1833 DUP3 PUSH2 0x2172 JUMP JUMPDEST JUMPDEST SWAP1 POP SWAP2 SWAP1 POP JUMP JUMPDEST PUSH2 0x1844 DUP2 PUSH2 0x21DB JUMP JUMPDEST PUSH2 0x1883 JUMPI PUSH1 0x40 MLOAD PUSH32 0x8C379A000000000000000000000000000000000000000000000000000000000 DUP2 MSTORE PUSH1 0x4 ADD PUSH2 0x187A SWAP1 PUSH2 0x3608 JUMP JUMPDEST PUSH1 0x40 MLOAD DUP1 SWAP2 SUB SWAP1 REVERT JUMPDEST POP JUMP JUMPDEST PUSH0 CALLER SWAP1 POP SWAP1 JUMP JUMPDEST DUP2 PUSH1 0x4 PUSH0 DUP4 DUP2 MSTORE PUSH1 0x20 ADD SWAP1 DUP2 MSTORE PUSH1 0x20 ADD PUSH0 KECCAK256 PUSH0 PUSH2 0x100 EXP DUP2 SLOAD DUP2 PUSH20 0xFFFFFFFFFFFFFFFFFFFFFFFFFFFFFFFFFFFFFFFF MUL NOT AND SWAP1 DUP4 PUSH20 0xFFFFFFFFFFFFFFFFFFFFFFFFFFFFFFFFFFFFFFFF AND MUL OR SWAP1 SSTORE POP DUP1 DUP3 PUSH20 0xFFFFFFFFFFFFFFFFFFFFFFFFFFFFFFFFFFFFFFFF AND PUSH2 0x18FD DUP4 PUSH2 0x988 JUMP JUMPDEST PUSH20 0xFFFFFFFFFFFFFFFFFFFFFFFFFFFFFFFFFFFFFFFF AND PUSH32 0x8C5BE1E5EBEC7D5BD14F71427D1E84F3DD0314C0F7B2291E5B200AC8C7C3B925 PUSH1 0x40 MLOAD PUSH1 0x40 MLOAD DUP1 SWAP2 SUB SWAP1 LOG4 POP POP JUMP JUMPDEST PUSH0 PUSH0 PUSH2 0x194E DUP4 PUSH2 0x988 JUMP JUMPDEST SWAP1 POP DUP1 PUSH20 0xFFFFFFFFFFFFFFFFFFFFFFFFFFFFFFFFFFFFFFFF AND DUP5 PUSH20 0xFFFFFFFFFFFFFFFFFFFFFFFFFFFFFFFFFFFFFFFF AND EQ DUP1 PUSH2 0x1990 JUMPI POP PUSH2 0x198F DUP2 DUP6 PUSH2 0x1511 JUMP JUMPDEST JUMPDEST DUP1 PUSH2 0x19CE JUMPI POP DUP4 PUSH20 0xFFFFFFFFFFFFFFFFFFFFFFFFFFFFFFFFFFFFFFFF AND PUSH2 0x19B6 DUP5 PUSH2 0x5E7 JUMP JUMPDEST PUSH20 0xFFFFFFFFFFFFFFFFFFFFFFFFFFFFFFFFFFFFFFFF AND EQ JUMPDEST SWAP2 POP POP SWAP3 SWAP2 POP POP JUMP JUMPDEST DUP3 PUSH20 0xFFFFFFFFFFFFFFFFFFFFFFFFFFFFFFFFFFFFFFFF AND PUSH2 0x19F7 DUP3 PUSH2 0x988 JUMP JUMPDEST PUSH20 0xFFFFFFFFFFFFFFFFFFFFFFFFFFFFFFFFFFFFFFFF AND EQ PUSH2 0x1A4D JUMPI PUSH1 0x40 MLOAD PUSH32 0x8C379A000000000000000000000000000000000000000000000000000000000 DUP2 MSTORE PUSH1 0x4 ADD PUSH2 0x1A44 SWAP1 PUSH2 0x40BF JUMP JUMPDEST PUSH1 0x40 MLOAD DUP1 SWAP2 SUB SWAP1 REVERT JUMPDEST PUSH0 PUSH20 0xFFFFFFFFFFFFFFFFFFFFFFFFFFFFFFFFFFFFFFFF AND DUP3 PUSH20 0xFFFFFFFFFFFFFFFFFFFFFFFFFFFFFFFFFFFFFFFF AND SUB PUSH2 0x1ABB JUMPI PUSH1 0x40 MLOAD PUSH32 0x8C379A000000000000000000000000000000000000000000000000000000000 DUP2 MSTORE PUSH1 0x4 ADD PUSH2 0x1AB2 SWAP1 PUSH2 0x414D JUMP JUMPDEST PUSH1 0x40 MLOAD DUP1 SWAP2 SUB SWAP1 REVERT JUMPDEST PUSH2 0x1AC8 DUP4 DUP4 DUP4 PUSH1 0x1 PUSH2 0x221B JUMP JUMPDEST DUP3 PUSH20 0xFFFFFFFFFFFFFFFFFFFFFFFFFFFFFFFFFFFFFFFF AND PUSH2 0x1AE8 DUP3 PUSH2 0x988 JUMP JUMPDEST PUSH20 0xFFFFFFFFFFFFFFFFFFFFFFFFFFFFFFFFFFFFFFFF AND EQ PUSH2 0x1B3E JUMPI PUSH1 0x40 MLOAD PUSH32 0x8C379A000000000000000000000000000000000000000000000000000000000 DUP2 MSTORE PUSH1 0x4 ADD PUSH2 0x1B35 SWAP1 PUSH2 0x40BF JUMP JUMPDEST PUSH1 0x40 MLOAD DUP1 SWAP2 SUB SWAP1 REVERT JUMPDEST PUSH1 0x4 PUSH0 DUP3 DUP2 MSTORE PUSH1 0x20 ADD SWAP1 DUP2 MSTORE PUSH1 0x20 ADD PUSH0 KECCAK256 PUSH0 PUSH2 0x100 EXP DUP2 SLOAD SWAP1 PUSH20 0xFFFFFFFFFFFFFFFFFFFFFFFFFFFFFFFFFFFFFFFF MUL NOT AND SWAP1 SSTORE PUSH1 0x1 PUSH1 0x3 PUSH0 DUP6 PUSH20 0xFFFFFFFFFFFFFFFFFFFFFFFFFFFFFFFFFFFFFFFF AND PUSH20 0xFFFFFFFFFFFFFFFFFFFFFFFFFFFFFFFFFFFFFFFF AND DUP2 MSTORE PUSH1 0x20 ADD SWAP1 DUP2 MSTORE PUSH1 0x20 ADD PUSH0 KECCAK256 PUSH0 DUP3 DUP3 SLOAD SUB SWAP3 POP POP DUP2 SWAP1 SSTORE POP PUSH1 0x1 PUSH1 0x3 PUSH0 DUP5 PUSH20 0xFFFFFFFFFFFFFFFFFFFFFFFFFFFFFFFFFFFFFFFF AND PUSH20 0xFFFFFFFFFFFFFFFFFFFFFFFFFFFFFFFFFFFFFFFF AND DUP2 MSTORE PUSH1 0x20 ADD SWAP1 DUP2 MSTORE PUSH1 0x20 ADD PUSH0 KECCAK256 PUSH0 DUP3 DUP3 SLOAD ADD SWAP3 POP POP DUP2 SWAP1 SSTORE POP DUP2 PUSH1 0x2 PUSH0 DUP4 DUP2 MSTORE PUSH1 0x20 ADD SWAP1 DUP2 MSTORE PUSH1 0x20 ADD PUSH0 KECCAK256 PUSH0 PUSH2 0x100 EXP DUP2 SLOAD DUP2 PUSH20 0xFFFFFFFFFFFFFFFFFFFFFFFFFFFFFFFFFFFFFFFF MUL NOT AND SWAP1 DUP4 PUSH20 0xFFFFFFFFFFFFFFFFFFFFFFFFFFFFFFFFFFFFFFFF AND MUL OR SWAP1 SSTORE POP DUP1 DUP3 PUSH20 0xFFFFFFFFFFFFFFFFFFFFFFFFFFFFFFFFFFFFFFFF AND DUP5 PUSH20 0xFFFFFFFFFFFFFFFFFFFFFFFFFFFFFFFFFFFFFFFF AND PUSH32 0xDDF252AD1BE2C89B69C2B068FC378DAA952BA7F163C4A11628F55A4DF523B3EF PUSH1 0x40 MLOAD PUSH1 0x40 MLOAD DUP1 SWAP2 SUB SWAP1 LOG4 PUSH2 0x1CBE DUP4 DUP4 DUP4 PUSH1 0x1 PUSH2 0x2538 JUMP JUMPDEST POP POP POP JUMP JUMPDEST PUSH0 PUSH1 0x2 PUSH0 DUP4 DUP2 MSTORE PUSH1 0x20 ADD SWAP1 DUP2 MSTORE PUSH1 0x20 ADD PUSH0 KECCAK256 PUSH0 SWAP1 SLOAD SWAP1 PUSH2 0x100 EXP SWAP1 DIV PUSH20 0xFFFFFFFFFFFFFFFFFFFFFFFFFFFFFFFFFFFFFFFF AND SWAP1 POP SWAP2 SWAP1 POP JUMP JUMPDEST DUP2 PUSH20 0xFFFFFFFFFFFFFFFFFFFFFFFFFFFFFFFFFFFFFFFF AND DUP4 PUSH20 0xFFFFFFFFFFFFFFFFFFFFFFFFFFFFFFFFFFFFFFFF AND SUB PUSH2 0x1D6A JUMPI PUSH1 0x40 MLOAD PUSH32 0x8C379A000000000000000000000000000000000000000000000000000000000 DUP2 MSTORE PUSH1 0x4 ADD PUSH2 0x1D61 SWAP1 PUSH2 0x41B5 JUMP JUMPDEST PUSH1 0x40 MLOAD DUP1 SWAP2 SUB SWAP1 REVERT JUMPDEST DUP1 PUSH1 0x5 PUSH0 DUP6 PUSH20 0xFFFFFFFFFFFFFFFFFFFFFFFFFFFFFFFFFFFFFFFF AND PUSH20 0xFFFFFFFFFFFFFFFFFFFFFFFFFFFFFFFFFFFFFFFF AND DUP2 MSTORE PUSH1 0x20 ADD SWAP1 DUP2 MSTORE PUSH1 0x20 ADD PUSH0 KECCAK256 PUSH0 DUP5 PUSH20 0xFFFFFFFFFFFFFFFFFFFFFFFFFFFFFFFFFFFFFFFF AND PUSH20 0xFFFFFFFFFFFFFFFFFFFFFFFFFFFFFFFFFFFFFFFF AND DUP2 MSTORE PUSH1 0x20 ADD SWAP1 DUP2 MSTORE PUSH1 0x20 ADD PUSH0 KECCAK256 PUSH0 PUSH2 0x100 EXP DUP2 SLOAD DUP2 PUSH1 0xFF MUL NOT AND SWAP1 DUP4 ISZERO ISZERO MUL OR SWAP1 SSTORE POP DUP2 PUSH20 0xFFFFFFFFFFFFFFFFFFFFFFFFFFFFFFFFFFFFFFFF AND DUP4 PUSH20 0xFFFFFFFFFFFFFFFFFFFFFFFFFFFFFFFFFFFFFFFF AND PUSH32 0x17307EAB39AB6107E8899845AD3D59BD9653F200F220920489CA2B5937696C31 DUP4 PUSH1 0x40 MLOAD PUSH2 0x1E56 SWAP2 SWAP1 PUSH2 0x2C1B JUMP JUMPDEST PUSH1 0x40 MLOAD DUP1 SWAP2 SUB SWAP1 LOG3 POP POP POP JUMP JUMPDEST PUSH2 0x1E6E DUP5 DUP5 DUP5 PUSH2 0x19D7 JUMP JUMPDEST PUSH2 0x1E7A DUP5 DUP5 DUP5 DUP5 PUSH2 0x253E JUMP JUMPDEST PUSH2 0x1EB9 JUMPI PUSH1 0x40 MLOAD PUSH32 0x8C379A000000000000000000000000000000000000000000000000000000000 DUP2 MSTORE PUSH1 0x4 ADD PUSH2 0x1EB0 SWAP1 PUSH2 0x4243 JUMP JUMPDEST PUSH1 0x40 MLOAD DUP1 SWAP2 SUB SWAP1 REVERT JUMPDEST POP POP POP POP JUMP JUMPDEST PUSH1 0x1 DUP2 PUSH0 ADD PUSH0 DUP3 DUP3 SLOAD ADD SWAP3 POP POP DUP2 SWAP1 SSTORE POP POP JUMP JUMPDEST PUSH0 DUP2 PUSH0 ADD SLOAD SWAP1 POP SWAP2 SWAP1 POP JUMP JUMPDEST PUSH1 0x60 PUSH1 0x40 MLOAD DUP1 PUSH1 0x20 ADD PUSH1 0x40 MSTORE DUP1 PUSH0 DUP2 MSTORE POP SWAP1 POP SWAP1 JUMP JUMPDEST PUSH1 0x60 PUSH2 0x1F00 DUP3 PUSH2 0x183B JUMP JUMPDEST PUSH0 PUSH2 0x1F09 PUSH2 0x1EDF JUMP JUMPDEST SWAP1 POP PUSH0 DUP2 MLOAD GT PUSH2 0x1F27 JUMPI PUSH1 0x40 MLOAD DUP1 PUSH1 0x20 ADD PUSH1 0x40 MSTORE DUP1 PUSH0 DUP2 MSTORE POP PUSH2 0x1F52 JUMP JUMPDEST DUP1 PUSH2 0x1F31 DUP5 PUSH2 0x26C0 JUMP JUMPDEST PUSH1 0x40 MLOAD PUSH1 0x20 ADD PUSH2 0x1F42 SWAP3 SWAP2 SWAP1 PUSH2 0x3ADF JUMP JUMPDEST PUSH1 0x40 MLOAD PUSH1 0x20 DUP2 DUP4 SUB SUB DUP2 MSTORE SWAP1 PUSH1 0x40 MSTORE JUMPDEST SWAP2 POP POP SWAP2 SWAP1 POP JUMP JUMPDEST PUSH2 0x1F73 DUP3 DUP3 PUSH1 0x40 MLOAD DUP1 PUSH1 0x20 ADD PUSH1 0x40 MSTORE DUP1 PUSH0 DUP2 MSTORE POP PUSH2 0x278A JUMP JUMPDEST POP POP JUMP JUMPDEST PUSH1 0x60 PUSH0 DUP3 SUB PUSH2 0x1FBD JUMPI PUSH1 0x40 MLOAD DUP1 PUSH1 0x40 ADD PUSH1 0x40 MSTORE DUP1 PUSH1 0x1 DUP2 MSTORE PUSH1 0x20 ADD PUSH32 0x3000000000000000000000000000000000000000000000000000000000000000 DUP2 MSTORE POP SWAP1 POP PUSH2 0x20CB JUMP JUMPDEST PUSH0 DUP3 SWAP1 POP PUSH0 JUMPDEST PUSH0 DUP3 EQ PUSH2 0x1FEC JUMPI DUP1 DUP1 PUSH2 0x1FD5 SWAP1 PUSH2 0x4261 JUMP JUMPDEST SWAP2 POP POP PUSH1 0xA DUP3 PUSH2 0x1FE5 SWAP2 SWAP1 PUSH2 0x42D5 JUMP JUMPDEST SWAP2 POP PUSH2 0x1FC3 JUMP JUMPDEST PUSH0 DUP2 PUSH8 0xFFFFFFFFFFFFFFFF DUP2 GT ISZERO PUSH2 0x2007 JUMPI PUSH2 0x2006 PUSH2 0x2FD0 JUMP JUMPDEST JUMPDEST PUSH1 0x40 MLOAD SWAP1 DUP1 DUP3 MSTORE DUP1 PUSH1 0x1F ADD PUSH1 0x1F NOT AND PUSH1 0x20 ADD DUP3 ADD PUSH1 0x40 MSTORE DUP1 ISZERO PUSH2 0x2039 JUMPI DUP2 PUSH1 0x20 ADD PUSH1 0x1 DUP3 MUL DUP1 CALLDATASIZE DUP4 CALLDATACOPY DUP1 DUP3 ADD SWAP2 POP POP SWAP1 POP JUMPDEST POP SWAP1 POP JUMPDEST PUSH0 DUP6 EQ PUSH2 0x20C4 JUMPI PUSH1 0x1 DUP3 PUSH2 0x2051 SWAP2 SWAP1 PUSH2 0x4305 JUMP JUMPDEST SWAP2 POP PUSH1 0xA DUP6 PUSH2 0x2060 SWAP2 SWAP1 PUSH2 0x4338 JUMP JUMPDEST PUSH1 0x30 PUSH2 0x206C SWAP2 SWAP1 PUSH2 0x4368 JUMP JUMPDEST PUSH1 0xF8 SHL DUP2 DUP4 DUP2 MLOAD DUP2 LT PUSH2 0x2082 JUMPI PUSH2 0x2081 PUSH2 0x439B JUMP JUMPDEST JUMPDEST PUSH1 0x20 ADD ADD SWAP1 PUSH31 0xFFFFFFFFFFFFFFFFFFFFFFFFFFFFFFFFFFFFFFFFFFFFFFFFFFFFFFFFFFFFFF NOT AND SWAP1 DUP2 PUSH0 BYTE SWAP1 MSTORE8 POP PUSH1 0xA DUP6 PUSH2 0x20BD SWAP2 SWAP1 PUSH2 0x42D5 JUMP JUMPDEST SWAP5 POP PUSH2 0x203D JUMP JUMPDEST DUP1 SWAP4 POP POP POP POP JUMPDEST SWAP2 SWAP1 POP JUMP JUMPDEST PUSH2 0x20D9 DUP3 PUSH2 0x21DB JUMP JUMPDEST PUSH2 0x2118 JUMPI PUSH1 0x40 MLOAD PUSH32 0x8C379A000000000000000000000000000000000000000000000000000000000 DUP2 MSTORE PUSH1 0x4 ADD PUSH2 0x210F SWAP1 PUSH2 0x4438 JUMP JUMPDEST PUSH1 0x40 MLOAD DUP1 SWAP2 SUB SWAP1 REVERT JUMPDEST DUP1 PUSH1 0x6 PUSH0 DUP5 DUP2 MSTORE PUSH1 0x20 ADD SWAP1 DUP2 MSTORE PUSH1 0x20 ADD PUSH0 KECCAK256 SWAP1 DUP2 PUSH2 0x2136 SWAP2 SWAP1 PUSH2 0x398C JUMP JUMPDEST POP PUSH32 0xF8E1A15ABA9398E019F0B49DF1A4FDE98EE17AE345CB5F6B5E2C27F5033E8CE7 DUP3 PUSH1 0x40 MLOAD PUSH2 0x2166 SWAP2 SWAP1 PUSH2 0x2F47 JUMP JUMPDEST PUSH1 0x40 MLOAD DUP1 SWAP2 SUB SWAP1 LOG1 POP POP JUMP JUMPDEST PUSH0 PUSH32 0x1FFC9A700000000000000000000000000000000000000000000000000000000 PUSH28 0xFFFFFFFFFFFFFFFFFFFFFFFFFFFFFFFFFFFFFFFFFFFFFFFFFFFFFFFF NOT AND DUP3 PUSH28 0xFFFFFFFFFFFFFFFFFFFFFFFFFFFFFFFFFFFFFFFFFFFFFFFFFFFFFFFF NOT AND EQ SWAP1 POP SWAP2 SWAP1 POP JUMP JUMPDEST PUSH0 PUSH0 PUSH20 0xFFFFFFFFFFFFFFFFFFFFFFFFFFFFFFFFFFFFFFFF AND PUSH2 0x21FC DUP4 PUSH2 0x1CC3 JUMP JUMPDEST PUSH20 0xFFFFFFFFFFFFFFFFFFFFFFFFFFFFFFFFFFFFFFFF AND EQ ISZERO SWAP1 POP SWAP2 SWAP1 POP JUMP JUMPDEST PUSH2 0x2227 DUP5 DUP5 DUP5 DUP5 PUSH2 0x27E4 JUMP JUMPDEST PUSH0 PUSH20 0xFFFFFFFFFFFFFFFFFFFFFFFFFFFFFFFFFFFFFFFF AND DUP5 PUSH20 0xFFFFFFFFFFFFFFFFFFFFFFFFFFFFFFFFFFFFFFFF AND EQ PUSH2 0x2532 JUMPI PUSH0 PUSH1 0xA PUSH0 PUSH1 0xB PUSH0 DUP7 DUP2 MSTORE PUSH1 0x20 ADD SWAP1 DUP2 MSTORE PUSH1 0x20 ADD PUSH0 KECCAK256 SLOAD DUP2 MSTORE PUSH1 0x20 ADD SWAP1 DUP2 MSTORE PUSH1 0x20 ADD PUSH0 KECCAK256 PUSH1 0x40 MLOAD DUP1 PUSH2 0x120 ADD PUSH1 0x40 MSTORE SWAP1 DUP2 PUSH0 DUP3 ADD DUP1 SLOAD PUSH2 0x2298 SWAP1 PUSH2 0x33E4 JUMP JUMPDEST DUP1 PUSH1 0x1F ADD PUSH1 0x20 DUP1 SWAP2 DIV MUL PUSH1 0x20 ADD PUSH1 0x40 MLOAD SWAP1 DUP2 ADD PUSH1 0x40 MSTORE DUP1 SWAP3 SWAP2 SWAP1 DUP2 DUP2 MSTORE PUSH1 0x20 ADD DUP3 DUP1 SLOAD PUSH2 0x22C4 SWAP1 PUSH2 0x33E4 JUMP JUMPDEST DUP1 ISZERO PUSH2 0x230F JUMPI DUP1 PUSH1 0x1F LT PUSH2 0x22E6 JUMPI PUSH2 0x100 DUP1 DUP4 SLOAD DIV MUL DUP4 MSTORE SWAP2 PUSH1 0x20 ADD SWAP2 PUSH2 0x230F JUMP JUMPDEST DUP3 ADD SWAP2 SWAP1 PUSH0 MSTORE PUSH1 0x20 PUSH0 KECCAK256 SWAP1 JUMPDEST DUP2 SLOAD DUP2 MSTORE SWAP1 PUSH1 0x1 ADD SWAP1 PUSH1 0x20 ADD DUP1 DUP4 GT PUSH2 0x22F2 JUMPI DUP3 SWAP1 SUB PUSH1 0x1F AND DUP3 ADD SWAP2 JUMPDEST POP POP POP POP POP DUP2 MSTORE PUSH1 0x20 ADD PUSH1 0x1 DUP3 ADD SLOAD DUP2 MSTORE PUSH1 0x20 ADD PUSH1 0x2 DUP3 ADD PUSH0 SWAP1 SLOAD SWAP1 PUSH2 0x100 EXP SWAP1 DIV PUSH8 0xFFFFFFFFFFFFFFFF AND PUSH8 0xFFFFFFFFFFFFFFFF AND PUSH8 0xFFFFFFFFFFFFFFFF AND DUP2 MSTORE PUSH1 0x20 ADD PUSH1 0x2 DUP3 ADD PUSH1 0x8 SWAP1 SLOAD SWAP1 PUSH2 0x100 EXP SWAP1 DIV PUSH8 0xFFFFFFFFFFFFFFFF AND PUSH8 0xFFFFFFFFFFFFFFFF AND PUSH8 0xFFFFFFFFFFFFFFFF AND DUP2 MSTORE PUSH1 0x20 ADD PUSH1 0x2 DUP3 ADD PUSH1 0x10 SWAP1 SLOAD SWAP1 PUSH2 0x100 EXP SWAP1 DIV PUSH8 0xFFFFFFFFFFFFFFFF AND PUSH8 0xFFFFFFFFFFFFFFFF AND PUSH8 0xFFFFFFFFFFFFFFFF AND DUP2 MSTORE PUSH1 0x20 ADD PUSH1 0x2 DUP3 ADD PUSH1 0x18 SWAP1 SLOAD SWAP1 PUSH2 0x100 EXP SWAP1 DIV PUSH1 0xFF AND ISZERO ISZERO ISZERO ISZERO DUP2 MSTORE PUSH1 0x20 ADD PUSH1 0x3 DUP3 ADD DUP1 SLOAD PUSH2 0x23E2 SWAP1 PUSH2 0x33E4 JUMP JUMPDEST DUP1 PUSH1 0x1F ADD PUSH1 0x20 DUP1 SWAP2 DIV MUL PUSH1 0x20 ADD PUSH1 0x40 MLOAD SWAP1 DUP2 ADD PUSH1 0x40 MSTORE DUP1 SWAP3 SWAP2 SWAP1 DUP2 DUP2 MSTORE PUSH1 0x20 ADD DUP3 DUP1 SLOAD PUSH2 0x240E SWAP1 PUSH2 0x33E4 JUMP JUMPDEST DUP1 ISZERO PUSH2 0x2459 JUMPI DUP1 PUSH1 0x1F LT PUSH2 0x2430 JUMPI PUSH2 0x100 DUP1 DUP4 SLOAD DIV MUL DUP4 MSTORE SWAP2 PUSH1 0x20 ADD SWAP2 PUSH2 0x2459 JUMP JUMPDEST DUP3 ADD SWAP2 SWAP1 PUSH0 MSTORE PUSH1 0x20 PUSH0 KECCAK256 SWAP1 JUMPDEST DUP2 SLOAD DUP2 MSTORE SWAP1 PUSH1 0x1 ADD SWAP1 PUSH1 0x20 ADD DUP1 DUP4 GT PUSH2 0x243C JUMPI DUP3 SWAP1 SUB PUSH1 0x1F AND DUP3 ADD SWAP2 JUMPDEST POP POP POP POP POP DUP2 MSTORE PUSH1 0x20 ADD PUSH1 0x4 DUP3 ADD PUSH0 SWAP1 SLOAD SWAP1 PUSH2 0x100 EXP SWAP1 DIV PUSH20 0xFFFFFFFFFFFFFFFFFFFFFFFFFFFFFFFFFFFFFFFF AND PUSH20 0xFFFFFFFFFFFFFFFFFFFFFFFFFFFFFFFFFFFFFFFF AND PUSH20 0xFFFFFFFFFFFFFFFFFFFFFFFFFFFFFFFFFFFFFFFF AND DUP2 MSTORE PUSH1 0x20 ADD PUSH1 0x4 DUP3 ADD PUSH1 0x14 SWAP1 SLOAD SWAP1 PUSH2 0x100 EXP SWAP1 DIV PUSH1 0xFF AND ISZERO ISZERO ISZERO ISZERO DUP2 MSTORE POP POP SWAP1 POP DUP1 PUSH1 0xA0 ADD MLOAD ISZERO PUSH2 0x2530 JUMPI DUP1 PUSH1 0x40 ADD MLOAD PUSH8 0xFFFFFFFFFFFFFFFF AND TIMESTAMP LT ISZERO PUSH2 0x252F JUMPI PUSH1 0x40 MLOAD PUSH32 0x8C379A000000000000000000000000000000000000000000000000000000000 DUP2 MSTORE PUSH1 0x4 ADD PUSH2 0x2526 SWAP1 PUSH2 0x44A0 JUMP JUMPDEST PUSH1 0x40 MLOAD DUP1 SWAP2 SUB SWAP1 REVERT JUMPDEST JUMPDEST POP JUMPDEST POP POP POP POP JUMP JUMPDEST POP POP POP POP JUMP JUMPDEST PUSH0 PUSH2 0x255E DUP5 PUSH20 0xFFFFFFFFFFFFFFFFFFFFFFFFFFFFFFFFFFFFFFFF AND PUSH2 0x27EA JUMP JUMPDEST ISZERO PUSH2 0x26B3 JUMPI DUP4 PUSH20 0xFFFFFFFFFFFFFFFFFFFFFFFFFFFFFFFFFFFFFFFF AND PUSH4 0x150B7A02 PUSH2 0x2587 PUSH2 0x1886 JUMP JUMPDEST DUP8 DUP7 DUP7 PUSH1 0x40 MLOAD DUP6 PUSH4 0xFFFFFFFF AND PUSH1 0xE0 SHL DUP2 MSTORE PUSH1 0x4 ADD PUSH2 0x25A9 SWAP5 SWAP4 SWAP3 SWAP2 SWAP1 PUSH2 0x4510 JUMP JUMPDEST PUSH1 0x20 PUSH1 0x40 MLOAD DUP1 DUP4 SUB DUP2 PUSH0 DUP8 GAS CALL SWAP3 POP POP POP DUP1 ISZERO PUSH2 0x25E4 JUMPI POP PUSH1 0x40 MLOAD RETURNDATASIZE PUSH1 0x1F NOT PUSH1 0x1F DUP3 ADD AND DUP3 ADD DUP1 PUSH1 0x40 MSTORE POP DUP2 ADD SWAP1 PUSH2 0x25E1 SWAP2 SWAP1 PUSH2 0x456E JUMP JUMPDEST PUSH1 0x1 JUMPDEST PUSH2 0x2663 JUMPI RETURNDATASIZE DUP1 PUSH0 DUP2 EQ PUSH2 0x2612 JUMPI PUSH1 0x40 MLOAD SWAP2 POP PUSH1 0x1F NOT PUSH1 0x3F RETURNDATASIZE ADD AND DUP3 ADD PUSH1 0x40 MSTORE RETURNDATASIZE DUP3 MSTORE RETURNDATASIZE PUSH0 PUSH1 0x20 DUP5 ADD RETURNDATACOPY PUSH2 0x2617 JUMP JUMPDEST PUSH1 0x60 SWAP2 POP JUMPDEST POP PUSH0 DUP2 MLOAD SUB PUSH2 0x265B JUMPI PUSH1 0x40 MLOAD PUSH32 0x8C379A000000000000000000000000000000000000000000000000000000000 DUP2 MSTORE PUSH1 0x4 ADD PUSH2 0x2652 SWAP1 PUSH2 0x4243 JUMP JUMPDEST PUSH1 0x40 MLOAD DUP1 SWAP2 SUB SWAP1 REVERT JUMPDEST DUP1 MLOAD DUP2 PUSH1 0x20 ADD REVERT JUMPDEST PUSH4 0x150B7A02 PUSH1 0xE0 SHL PUSH28 0xFFFFFFFFFFFFFFFFFFFFFFFFFFFFFFFFFFFFFFFFFFFFFFFFFFFFFFFF NOT AND DUP2 PUSH28 0xFFFFFFFFFFFFFFFFFFFFFFFFFFFFFFFFFFFFFFFFFFFFFFFFFFFFFFFF NOT AND EQ SWAP2 POP POP PUSH2 0x26B8 JUMP JUMPDEST PUSH1 0x1 SWAP1 POP JUMPDEST SWAP5 SWAP4 POP POP POP POP JUMP JUMPDEST PUSH1 0x60 PUSH0 PUSH1 0x1 PUSH2 0x26CE DUP5 PUSH2 0x280C JUMP JUMPDEST ADD SWAP1 POP PUSH0 DUP2 PUSH8 0xFFFFFFFFFFFFFFFF DUP2 GT ISZERO PUSH2 0x26EC JUMPI PUSH2 0x26EB PUSH2 0x2FD0 JUMP JUMPDEST JUMPDEST PUSH1 0x40 MLOAD SWAP1 DUP1 DUP3 MSTORE DUP1 PUSH1 0x1F ADD PUSH1 0x1F NOT AND PUSH1 0x20 ADD DUP3 ADD PUSH1 0x40 MSTORE DUP1 ISZERO PUSH2 0x271E JUMPI DUP2 PUSH1 0x20 ADD PUSH1 0x1 DUP3 MUL DUP1 CALLDATASIZE DUP4 CALLDATACOPY DUP1 DUP3 ADD SWAP2 POP POP SWAP1 POP JUMPDEST POP SWAP1 POP PUSH0 DUP3 PUSH1 0x20 ADD DUP3 ADD SWAP1 POP JUMPDEST PUSH1 0x1 ISZERO PUSH2 0x277F JUMPI DUP1 DUP1 PUSH1 0x1 SWAP1 SUB SWAP2 POP POP PUSH32 0x3031323334353637383961626364656600000000000000000000000000000000 PUSH1 0xA DUP7 MOD BYTE DUP2 MSTORE8 PUSH1 0xA DUP6 DUP2 PUSH2 0x2774 JUMPI PUSH2 0x2773 PUSH2 0x42A8 JUMP JUMPDEST JUMPDEST DIV SWAP5 POP PUSH0 DUP6 SUB PUSH2 0x272B JUMPI JUMPDEST DUP2 SWAP4 POP POP POP POP SWAP2 SWAP1 POP JUMP JUMPDEST PUSH2 0x2794 DUP4 DUP4 PUSH2 0x295D JUMP JUMPDEST PUSH2 0x27A0 PUSH0 DUP5 DUP5 DUP5 PUSH2 0x253E JUMP JUMPDEST PUSH2 0x27DF JUMPI PUSH1 0x40 MLOAD PUSH32 0x8C379A000000000000000000000000000000000000000000000000000000000 DUP2 MSTORE PUSH1 0x4 ADD PUSH2 0x27D6 SWAP1 PUSH2 0x4243 JUMP JUMPDEST PUSH1 0x40 MLOAD DUP1 SWAP2 SUB SWAP1 REVERT JUMPDEST POP POP POP JUMP JUMPDEST POP POP POP POP JUMP JUMPDEST PUSH0 PUSH0 DUP3 PUSH20 0xFFFFFFFFFFFFFFFFFFFFFFFFFFFFFFFFFFFFFFFF AND EXTCODESIZE GT SWAP1 POP SWAP2 SWAP1 POP JUMP JUMPDEST PUSH0 PUSH0 PUSH0 SWAP1 POP PUSH27 0x184F03E93FF9F4DAA797ED6E38ED64BF6A1F010000000000000000 DUP4 LT PUSH2 0x2868 JUMPI PUSH27 0x184F03E93FF9F4DAA797ED6E38ED64BF6A1F010000000000000000 DUP4 DUP2 PUSH2 0x285E JUMPI PUSH2 0x285D PUSH2 0x42A8 JUMP JUMPDEST JUMPDEST DIV SWAP3 POP PUSH1 0x40 DUP2 ADD SWAP1 POP JUMPDEST PUSH14 0x4EE2D6D415B85ACEF8100000000 DUP4 LT PUSH2 0x28A5 JUMPI PUSH14 0x4EE2D6D415B85ACEF8100000000 DUP4 DUP2 PUSH2 0x289B JUMPI PUSH2 0x289A PUSH2 0x42A8 JUMP JUMPDEST JUMPDEST DIV SWAP3 POP PUSH1 0x20 DUP2 ADD SWAP1 POP JUMPDEST PUSH7 0x2386F26FC10000 DUP4 LT PUSH2 0x28D4 JUMPI PUSH7 0x2386F26FC10000 DUP4 DUP2 PUSH2 0x28CA JUMPI PUSH2 0x28C9 PUSH2 0x42A8 JUMP JUMPDEST JUMPDEST DIV SWAP3 POP PUSH1 0x10 DUP2 ADD SWAP1 POP JUMPDEST PUSH4 0x5F5E100 DUP4 LT PUSH2 0x28FD JUMPI PUSH4 0x5F5E100 DUP4 DUP2 PUSH2 0x28F3 JUMPI PUSH2 0x28F2 PUSH2 0x42A8 JUMP JUMPDEST JUMPDEST DIV SWAP3 POP PUSH1 0x8 DUP2 ADD SWAP1 POP JUMPDEST PUSH2 0x2710 DUP4 LT PUSH2 0x2922 JUMPI PUSH2 0x2710 DUP4 DUP2 PUSH2 0x2918 JUMPI PUSH2 0x2917 PUSH2 0x42A8 JUMP JUMPDEST JUMPDEST DIV SWAP3 POP PUSH1 0x4 DUP2 ADD SWAP1 POP JUMPDEST PUSH1 0x64 DUP4 LT PUSH2 0x2945 JUMPI PUSH1 0x64 DUP4 DUP2 PUSH2 0x293B JUMPI PUSH2 0x293A PUSH2 0x42A8 JUMP JUMPDEST JUMPDEST DIV SWAP3 POP PUSH1 0x2 DUP2 ADD SWAP1 POP JUMPDEST PUSH1 0xA DUP4 LT PUSH2 0x2954 JUMPI PUSH1 0x1 DUP2 ADD SWAP1 POP JUMPDEST DUP1 SWAP2 POP POP SWAP2 SWAP1 POP JUMP JUMPDEST PUSH0 PUSH20 0xFFFFFFFFFFFFFFFFFFFFFFFFFFFFFFFFFFFFFFFF AND DUP3 PUSH20 0xFFFFFFFFFFFFFFFFFFFFFFFFFFFFFFFFFFFFFFFF AND SUB PUSH2 0x29CB JUMPI PUSH1 0x40 MLOAD PUSH32 0x8C379A000000000000000000000000000000000000000000000000000000000 DUP2 MSTORE PUSH1 0x4 ADD PUSH2 0x29C2 SWAP1 PUSH2 0x45E3 JUMP JUMPDEST PUSH1 0x40 MLOAD DUP1 SWAP2 SUB SWAP1 REVERT JUMPDEST PUSH2 0x29D4 DUP2 PUSH2 0x21DB JUMP JUMPDEST ISZERO PUSH2 0x2A14 JUMPI PUSH1 0x40 MLOAD PUSH32 0x8C379A000000000000000000000000000000000000000000000000000000000 DUP2 MSTORE PUSH1 0x4 ADD PUSH2 0x2A0B SWAP1 PUSH2 0x464B JUMP JUMPDEST PUSH1 0x40 MLOAD DUP1 SWAP2 SUB SWAP1 REVERT JUMPDEST PUSH2 0x2A21 PUSH0 DUP4 DUP4 PUSH1 0x1 PUSH2 0x221B JUMP JUMPDEST PUSH2 0x2A2A DUP2 PUSH2 0x21DB JUMP JUMPDEST ISZERO PUSH2 0x2A6A JUMPI PUSH1 0x40 MLOAD PUSH32 0x8C379A000000000000000000000000000000000000000000000000000000000 DUP2 MSTORE PUSH1 0x4 ADD PUSH2 0x2A61 SWAP1 PUSH2 0x464B JUMP JUMPDEST PUSH1 0x40 MLOAD DUP1 SWAP2 SUB SWAP1 REVERT JUMPDEST PUSH1 0x1 PUSH1 0x3 PUSH0 DUP5 PUSH20 0xFFFFFFFFFFFFFFFFFFFFFFFFFFFFFFFFFFFFFFFF AND PUSH20 0xFFFFFFFFFFFFFFFFFFFFFFFFFFFFFFFFFFFFFFFF AND DUP2 MSTORE PUSH1 0x20 ADD SWAP1 DUP2 MSTORE PUSH1 0x20 ADD PUSH0 KECCAK256 PUSH0 DUP3 DUP3 SLOAD ADD SWAP3 POP POP DUP2 SWAP1 SSTORE POP DUP2 PUSH1 0x2 PUSH0 DUP4 DUP2 MSTORE PUSH1 0x20 ADD SWAP1 DUP2 MSTORE PUSH1 0x20 ADD PUSH0 KECCAK256 PUSH0 PUSH2 0x100 EXP DUP2 SLOAD DUP2 PUSH20 0xFFFFFFFFFFFFFFFFFFFFFFFFFFFFFFFFFFFFFFFF MUL NOT AND SWAP1 DUP4 PUSH20 0xFFFFFFFFFFFFFFFFFFFFFFFFFFFFFFFFFFFFFFFF AND MUL OR SWAP1 SSTORE POP DUP1 DUP3 PUSH20 0xFFFFFFFFFFFFFFFFFFFFFFFFFFFFFFFFFFFFFFFF AND PUSH0 PUSH20 0xFFFFFFFFFFFFFFFFFFFFFFFFFFFFFFFFFFFFFFFF AND PUSH32 0xDDF252AD1BE2C89B69C2B068FC378DAA952BA7F163C4A11628F55A4DF523B3EF PUSH1 0x40 MLOAD PUSH1 0x40 MLOAD DUP1 SWAP2 SUB SWAP1 LOG4 PUSH2 0x2B6C PUSH0 DUP4 DUP4 PUSH1 0x1 PUSH2 0x2538 JUMP JUMPDEST POP POP JUMP JUMPDEST PUSH0 PUSH1 0x40 MLOAD SWAP1 POP SWAP1 JUMP JUMPDEST PUSH0 PUSH0 REVERT JUMPDEST PUSH0 PUSH0 REVERT JUMPDEST PUSH0 PUSH32 0xFFFFFFFF00000000000000000000000000000000000000000000000000000000 DUP3 AND SWAP1 POP SWAP2 SWAP1 POP JUMP JUMPDEST PUSH2 0x2BB5 DUP2 PUSH2 0x2B81 JUMP JUMPDEST DUP2 EQ PUSH2 0x2BBF JUMPI PUSH0 PUSH0 REVERT JUMPDEST POP JUMP JUMPDEST PUSH0 DUP2 CALLDATALOAD SWAP1 POP PUSH2 0x2BD0 DUP2 PUSH2 0x2BAC JUMP JUMPDEST SWAP3 SWAP2 POP POP JUMP JUMPDEST PUSH0 PUSH1 0x20 DUP3 DUP5 SUB SLT ISZERO PUSH2 0x2BEB JUMPI PUSH2 0x2BEA PUSH2 0x2B79 JUMP JUMPDEST JUMPDEST PUSH0 PUSH2 0x2BF8 DUP5 DUP3 DUP6 ADD PUSH2 0x2BC2 JUMP JUMPDEST SWAP2 POP POP SWAP3 SWAP2 POP POP JUMP JUMPDEST PUSH0 DUP2 ISZERO ISZERO SWAP1 POP SWAP2 SWAP1 POP JUMP JUMPDEST PUSH2 0x2C15 DUP2 PUSH2 0x2C01 JUMP JUMPDEST DUP3 MSTORE POP POP JUMP JUMPDEST PUSH0 PUSH1 0x20 DUP3 ADD SWAP1 POP PUSH2 0x2C2E PUSH0 DUP4 ADD DUP5 PUSH2 0x2C0C JUMP JUMPDEST SWAP3 SWAP2 POP POP JUMP JUMPDEST PUSH0 DUP2 MLOAD SWAP1 POP SWAP2 SWAP1 POP JUMP JUMPDEST PUSH0 DUP3 DUP3 MSTORE PUSH1 0x20 DUP3 ADD SWAP1 POP SWAP3 SWAP2 POP POP JUMP JUMPDEST DUP3 DUP2 DUP4 MCOPY PUSH0 DUP4 DUP4 ADD MSTORE POP POP POP JUMP JUMPDEST PUSH0 PUSH1 0x1F NOT PUSH1 0x1F DUP4 ADD AND SWAP1 POP SWAP2 SWAP1 POP JUMP JUMPDEST PUSH0 PUSH2 0x2C76 DUP3 PUSH2 0x2C34 JUMP JUMPDEST PUSH2 0x2C80 DUP2 DUP6 PUSH2 0x2C3E JUMP JUMPDEST SWAP4 POP PUSH2 0x2C90 DUP2 DUP6 PUSH1 0x20 DUP7 ADD PUSH2 0x2C4E JUMP JUMPDEST PUSH2 0x2C99 DUP2 PUSH2 0x2C5C JUMP JUMPDEST DUP5 ADD SWAP2 POP POP SWAP3 SWAP2 POP POP JUMP JUMPDEST PUSH0 PUSH1 0x20 DUP3 ADD SWAP1 POP DUP2 DUP2 SUB PUSH0 DUP4 ADD MSTORE PUSH2 0x2CBC DUP2 DUP5 PUSH2 0x2C6C JUMP JUMPDEST SWAP1 POP SWAP3 SWAP2 POP POP JUMP JUMPDEST PUSH0 DUP2 SWAP1 POP SWAP2 SWAP1 POP JUMP JUMPDEST PUSH2 0x2CD6 DUP2 PUSH2 0x2CC4 JUMP JUMPDEST DUP2 EQ PUSH2 0x2CE0 JUMPI PUSH0 PUSH0 REVERT JUMPDEST POP JUMP JUMPDEST PUSH0 DUP2 CALLDATALOAD SWAP1 POP PUSH2 0x2CF1 DUP2 PUSH2 0x2CCD JUMP JUMPDEST SWAP3 SWAP2 POP POP JUMP JUMPDEST PUSH0 PUSH1 0x20 DUP3 DUP5 SUB SLT ISZERO PUSH2 0x2D0C JUMPI PUSH2 0x2D0B PUSH2 0x2B79 JUMP JUMPDEST JUMPDEST PUSH0 PUSH2 0x2D19 DUP5 DUP3 DUP6 ADD PUSH2 0x2CE3 JUMP JUMPDEST SWAP2 POP POP SWAP3 SWAP2 POP POP JUMP JUMPDEST PUSH0 PUSH20 0xFFFFFFFFFFFFFFFFFFFFFFFFFFFFFFFFFFFFFFFF DUP3 AND SWAP1 POP SWAP2 SWAP1 POP JUMP JUMPDEST PUSH0 PUSH2 0x2D4B DUP3 PUSH2 0x2D22 JUMP JUMPDEST SWAP1 POP SWAP2 SWAP1 POP JUMP JUMPDEST PUSH2 0x2D5B DUP2 PUSH2 0x2D41 JUMP JUMPDEST DUP3 MSTORE POP POP JUMP JUMPDEST PUSH0 PUSH1 0x20 DUP3 ADD SWAP1 POP PUSH2 0x2D74 PUSH0 DUP4 ADD DUP5 PUSH2 0x2D52 JUMP JUMPDEST SWAP3 SWAP2 POP POP JUMP JUMPDEST PUSH2 0x2D83 DUP2 PUSH2 0x2D41 JUMP JUMPDEST DUP2 EQ PUSH2 0x2D8D JUMPI PUSH0 PUSH0 REVERT JUMPDEST POP JUMP JUMPDEST PUSH0 DUP2 CALLDATALOAD SWAP1 POP PUSH2 0x2D9E DUP2 PUSH2 0x2D7A JUMP JUMPDEST SWAP3 SWAP2 POP POP JUMP JUMPDEST PUSH0 PUSH0 PUSH1 0x40 DUP4 DUP6 SUB SLT ISZERO PUSH2 0x2DBA JUMPI PUSH2 0x2DB9 PUSH2 0x2B79 JUMP JUMPDEST JUMPDEST PUSH0 PUSH2 0x2DC7 DUP6 DUP3 DUP7 ADD PUSH2 0x2D90 JUMP JUMPDEST SWAP3 POP POP PUSH1 0x20 PUSH2 0x2DD8 DUP6 DUP3 DUP7 ADD PUSH2 0x2CE3 JUMP JUMPDEST SWAP2 POP POP SWAP3 POP SWAP3 SWAP1 POP JUMP JUMPDEST PUSH0 PUSH0 PUSH0 PUSH1 0x60 DUP5 DUP7 SUB SLT ISZERO PUSH2 0x2DF9 JUMPI PUSH2 0x2DF8 PUSH2 0x2B79 JUMP JUMPDEST JUMPDEST PUSH0 PUSH2 0x2E06 DUP7 DUP3 DUP8 ADD PUSH2 0x2D90 JUMP JUMPDEST SWAP4 POP POP PUSH1 0x20 PUSH2 0x2E17 DUP7 DUP3 DUP8 ADD PUSH2 0x2D90 JUMP JUMPDEST SWAP3 POP POP PUSH1 0x40 PUSH2 0x2E28 DUP7 DUP3 DUP8 ADD PUSH2 0x2CE3 JUMP JUMPDEST SWAP2 POP POP SWAP3 POP SWAP3 POP SWAP3 JUMP JUMPDEST PUSH2 0x2E3B DUP2 PUSH2 0x2CC4 JUMP JUMPDEST DUP3 MSTORE POP POP JUMP JUMPDEST PUSH0 PUSH8 0xFFFFFFFFFFFFFFFF DUP3 AND SWAP1 POP SWAP2 SWAP1 POP JUMP JUMPDEST PUSH2 0x2E5D DUP2 PUSH2 0x2E41 JUMP JUMPDEST DUP3 MSTORE POP POP JUMP JUMPDEST PUSH0 PUSH2 0x2E6D DUP3 PUSH2 0x2D22 JUMP JUMPDEST SWAP1 POP SWAP2 SWAP1 POP JUMP JUMPDEST PUSH2 0x2E7D DUP2 PUSH2 0x2E63 JUMP JUMPDEST DUP3 MSTORE POP POP JUMP JUMPDEST PUSH0 PUSH2 0x120 DUP3 ADD SWAP1 POP DUP2 DUP2 SUB PUSH0 DUP4 ADD MSTORE PUSH2 0x2E9C DUP2 DUP13 PUSH2 0x2C6C JUMP JUMPDEST SWAP1 POP PUSH2 0x2EAB PUSH1 0x20 DUP4 ADD DUP12 PUSH2 0x2E32 JUMP JUMPDEST PUSH2 0x2EB8 PUSH1 0x40 DUP4 ADD DUP11 PUSH2 0x2E54 JUMP JUMPDEST PUSH2 0x2EC5 PUSH1 0x60 DUP4 ADD DUP10 PUSH2 0x2E54 JUMP JUMPDEST PUSH2 0x2ED2 PUSH1 0x80 DUP4 ADD DUP9 PUSH2 0x2E54 JUMP JUMPDEST PUSH2 0x2EDF PUSH1 0xA0 DUP4 ADD DUP8 PUSH2 0x2C0C JUMP JUMPDEST DUP2 DUP2 SUB PUSH1 0xC0 DUP4 ADD MSTORE PUSH2 0x2EF1 DUP2 DUP7 PUSH2 0x2C6C JUMP JUMPDEST SWAP1 POP PUSH2 0x2F00 PUSH1 0xE0 DUP4 ADD DUP6 PUSH2 0x2E74 JUMP JUMPDEST PUSH2 0x2F0E PUSH2 0x100 DUP4 ADD DUP5 PUSH2 0x2C0C JUMP JUMPDEST SWAP11 SWAP10 POP POP POP POP POP POP POP POP POP POP JUMP JUMPDEST PUSH0 PUSH1 0x20 DUP3 DUP5 SUB SLT ISZERO PUSH2 0x2F31 JUMPI PUSH2 0x2F30 PUSH2 0x2B79 JUMP JUMPDEST JUMPDEST PUSH0 PUSH2 0x2F3E DUP5 DUP3 DUP6 ADD PUSH2 0x2D90 JUMP JUMPDEST SWAP2 POP POP SWAP3 SWAP2 POP POP JUMP JUMPDEST PUSH0 PUSH1 0x20 DUP3 ADD SWAP1 POP PUSH2 0x2F5A PUSH0 DUP4 ADD DUP5 PUSH2 0x2E32 JUMP JUMPDEST SWAP3 SWAP2 POP POP JUMP JUMPDEST PUSH2 0x2F69 DUP2 PUSH2 0x2C01 JUMP JUMPDEST DUP2 EQ PUSH2 0x2F73 JUMPI PUSH0 PUSH0 REVERT JUMPDEST POP JUMP JUMPDEST PUSH0 DUP2 CALLDATALOAD SWAP1 POP PUSH2 0x2F84 DUP2 PUSH2 0x2F60 JUMP JUMPDEST SWAP3 SWAP2 POP POP JUMP JUMPDEST PUSH0 PUSH0 PUSH1 0x40 DUP4 DUP6 SUB SLT ISZERO PUSH2 0x2FA0 JUMPI PUSH2 0x2F9F PUSH2 0x2B79 JUMP JUMPDEST JUMPDEST PUSH0 PUSH2 0x2FAD DUP6 DUP3 DUP7 ADD PUSH2 0x2D90 JUMP JUMPDEST SWAP3 POP POP PUSH1 0x20 PUSH2 0x2FBE DUP6 DUP3 DUP7 ADD PUSH2 0x2F76 JUMP JUMPDEST SWAP2 POP POP SWAP3 POP SWAP3 SWAP1 POP JUMP JUMPDEST PUSH0 PUSH0 REVERT JUMPDEST PUSH0 PUSH0 REVERT JUMPDEST PUSH32 0x4E487B7100000000000000000000000000000000000000000000000000000000 PUSH0 MSTORE PUSH1 0x41 PUSH1 0x4 MSTORE PUSH1 0x24 PUSH0 REVERT JUMPDEST PUSH2 0x3006 DUP3 PUSH2 0x2C5C JUMP JUMPDEST DUP2 ADD DUP2 DUP2 LT PUSH8 0xFFFFFFFFFFFFFFFF DUP3 GT OR ISZERO PUSH2 0x3025 JUMPI PUSH2 0x3024 PUSH2 0x2FD0 JUMP JUMPDEST JUMPDEST DUP1 PUSH1 0x40 MSTORE POP POP POP JUMP JUMPDEST PUSH0 PUSH2 0x3037 PUSH2 0x2B70 JUMP JUMPDEST SWAP1 POP PUSH2 0x3043 DUP3 DUP3 PUSH2 0x2FFD JUMP JUMPDEST SWAP2 SWAP1 POP JUMP JUMPDEST PUSH0 PUSH8 0xFFFFFFFFFFFFFFFF DUP3 GT ISZERO PUSH2 0x3062 JUMPI PUSH2 0x3061 PUSH2 0x2FD0 JUMP JUMPDEST JUMPDEST PUSH2 0x306B DUP3 PUSH2 0x2C5C JUMP JUMPDEST SWAP1 POP PUSH1 0x20 DUP2 ADD SWAP1 POP SWAP2 SWAP1 POP JUMP JUMPDEST DUP3 DUP2 DUP4 CALLDATACOPY PUSH0 DUP4 DUP4 ADD MSTORE POP POP POP JUMP JUMPDEST PUSH0 PUSH2 0x3098 PUSH2 0x3093 DUP5 PUSH2 0x3048 JUMP JUMPDEST PUSH2 0x302E JUMP JUMPDEST SWAP1 POP DUP3 DUP2 MSTORE PUSH1 0x20 DUP2 ADD DUP5 DUP5 DUP5 ADD GT ISZERO PUSH2 0x30B4 JUMPI PUSH2 0x30B3 PUSH2 0x2FCC JUMP JUMPDEST JUMPDEST PUSH2 0x30BF DUP5 DUP3 DUP6 PUSH2 0x3078 JUMP JUMPDEST POP SWAP4 SWAP3 POP POP POP JUMP JUMPDEST PUSH0 DUP3 PUSH1 0x1F DUP4 ADD SLT PUSH2 0x30DB JUMPI PUSH2 0x30DA PUSH2 0x2FC8 JUMP JUMPDEST JUMPDEST DUP2 CALLDATALOAD PUSH2 0x30EB DUP5 DUP3 PUSH1 0x20 DUP7 ADD PUSH2 0x3086 JUMP JUMPDEST SWAP2 POP POP SWAP3 SWAP2 POP POP JUMP JUMPDEST PUSH0 PUSH0 PUSH0 PUSH0 PUSH1 0x80 DUP6 DUP8 SUB SLT ISZERO PUSH2 0x310C JUMPI PUSH2 0x310B PUSH2 0x2B79 JUMP JUMPDEST JUMPDEST PUSH0 PUSH2 0x3119 DUP8 DUP3 DUP9 ADD PUSH2 0x2D90 JUMP JUMPDEST SWAP5 POP POP PUSH1 0x20 PUSH2 0x312A DUP8 DUP3 DUP9 ADD PUSH2 0x2D90 JUMP JUMPDEST SWAP4 POP POP PUSH1 0x40 PUSH2 0x313B DUP8 DUP3 DUP9 ADD PUSH2 0x2CE3 JUMP JUMPDEST SWAP3 POP POP PUSH1 0x60 DUP6 ADD CALLDATALOAD PUSH8 0xFFFFFFFFFFFFFFFF DUP2 GT ISZERO PUSH2 0x315C JUMPI PUSH2 0x315B PUSH2 0x2B7D JUMP JUMPDEST JUMPDEST PUSH2 0x3168 DUP8 DUP3 DUP9 ADD PUSH2 0x30C7 JUMP JUMPDEST SWAP2 POP POP SWAP3 SWAP6 SWAP2 SWAP5 POP SWAP3 POP JUMP JUMPDEST PUSH0 PUSH8 0xFFFFFFFFFFFFFFFF DUP3 GT ISZERO PUSH2 0x318E JUMPI PUSH2 0x318D PUSH2 0x2FD0 JUMP JUMPDEST JUMPDEST PUSH2 0x3197 DUP3 PUSH2 0x2C5C JUMP JUMPDEST SWAP1 POP PUSH1 0x20 DUP2 ADD SWAP1 POP SWAP2 SWAP1 POP JUMP JUMPDEST PUSH0 PUSH2 0x31B6 PUSH2 0x31B1 DUP5 PUSH2 0x3174 JUMP JUMPDEST PUSH2 0x302E JUMP JUMPDEST SWAP1 POP DUP3 DUP2 MSTORE PUSH1 0x20 DUP2 ADD DUP5 DUP5 DUP5 ADD GT ISZERO PUSH2 0x31D2 JUMPI PUSH2 0x31D1 PUSH2 0x2FCC JUMP JUMPDEST JUMPDEST PUSH2 0x31DD DUP5 DUP3 DUP6 PUSH2 0x3078 JUMP JUMPDEST POP SWAP4 SWAP3 POP POP POP JUMP JUMPDEST PUSH0 DUP3 PUSH1 0x1F DUP4 ADD SLT PUSH2 0x31F9 JUMPI PUSH2 0x31F8 PUSH2 0x2FC8 JUMP JUMPDEST JUMPDEST DUP2 CALLDATALOAD PUSH2 0x3209 DUP5 DUP3 PUSH1 0x20 DUP7 ADD PUSH2 0x31A4 JUMP JUMPDEST SWAP2 POP POP SWAP3 SWAP2 POP POP JUMP JUMPDEST PUSH2 0x321B DUP2 PUSH2 0x2E41 JUMP JUMPDEST DUP2 EQ PUSH2 0x3225 JUMPI PUSH0 PUSH0 REVERT JUMPDEST POP JUMP JUMPDEST PUSH0 DUP2 CALLDATALOAD SWAP1 POP PUSH2 0x3236 DUP2 PUSH2 0x3212 JUMP JUMPDEST SWAP3 SWAP2 POP POP JUMP JUMPDEST PUSH2 0x3245 DUP2 PUSH2 0x2E63 JUMP JUMPDEST DUP2 EQ PUSH2 0x324F JUMPI PUSH0 PUSH0 REVERT JUMPDEST POP JUMP JUMPDEST PUSH0 DUP2 CALLDATALOAD SWAP1 POP PUSH2 0x3260 DUP2 PUSH2 0x323C JUMP JUMPDEST SWAP3 SWAP2 POP POP JUMP JUMPDEST PUSH0 PUSH0 PUSH0 PUSH0 PUSH0 PUSH0 PUSH0 PUSH1 0xE0 DUP9 DUP11 SUB SLT ISZERO PUSH2 0x3281 JUMPI PUSH2 0x3280 PUSH2 0x2B79 JUMP JUMPDEST JUMPDEST PUSH0 DUP9 ADD CALLDATALOAD PUSH8 0xFFFFFFFFFFFFFFFF DUP2 GT ISZERO PUSH2 0x329E JUMPI PUSH2 0x329D PUSH2 0x2B7D JUMP JUMPDEST JUMPDEST PUSH2 0x32AA DUP11 DUP3 DUP12 ADD PUSH2 0x31E5 JUMP JUMPDEST SWAP8 POP POP PUSH1 0x20 PUSH2 0x32BB DUP11 DUP3 DUP12 ADD PUSH2 0x2CE3 JUMP JUMPDEST SWAP7 POP POP PUSH1 0x40 PUSH2 0x32CC DUP11 DUP3 DUP12 ADD PUSH2 0x3228 JUMP JUMPDEST SWAP6 POP POP PUSH1 0x60 PUSH2 0x32DD DUP11 DUP3 DUP12 ADD PUSH2 0x3228 JUMP JUMPDEST SWAP5 POP POP PUSH1 0x80 PUSH2 0x32EE DUP11 DUP3 DUP12 ADD PUSH2 0x2F76 JUMP JUMPDEST SWAP4 POP POP PUSH1 0xA0 DUP9 ADD CALLDATALOAD PUSH8 0xFFFFFFFFFFFFFFFF DUP2 GT ISZERO PUSH2 0x330F JUMPI PUSH2 0x330E PUSH2 0x2B7D JUMP JUMPDEST JUMPDEST PUSH2 0x331B DUP11 DUP3 DUP12 ADD PUSH2 0x31E5 JUMP JUMPDEST SWAP3 POP POP PUSH1 0xC0 PUSH2 0x332C DUP11 DUP3 DUP12 ADD PUSH2 0x3252 JUMP JUMPDEST SWAP2 POP POP SWAP3 SWAP6 SWAP9 SWAP2 SWAP5 SWAP8 POP SWAP3 SWAP6 POP JUMP JUMPDEST PUSH0 PUSH0 PUSH1 0x40 DUP4 DUP6 SUB SLT ISZERO PUSH2 0x3351 JUMPI PUSH2 0x3350 PUSH2 0x2B79 JUMP JUMPDEST JUMPDEST PUSH0 PUSH2 0x335E DUP6 DUP3 DUP7 ADD PUSH2 0x2CE3 JUMP JUMPDEST SWAP3 POP POP PUSH1 0x20 PUSH2 0x336F DUP6 DUP3 DUP7 ADD PUSH2 0x2F76 JUMP JUMPDEST SWAP2 POP POP SWAP3 POP SWAP3 SWAP1 POP JUMP JUMPDEST PUSH0 PUSH0 PUSH1 0x40 DUP4 DUP6 SUB SLT ISZERO PUSH2 0x338F JUMPI PUSH2 0x338E PUSH2 0x2B79 JUMP JUMPDEST JUMPDEST PUSH0 PUSH2 0x339C DUP6 DUP3 DUP7 ADD PUSH2 0x2D90 JUMP JUMPDEST SWAP3 POP POP PUSH1 0x20 PUSH2 0x33AD DUP6 DUP3 DUP7 ADD PUSH2 0x2D90 JUMP JUMPDEST SWAP2 POP POP SWAP3 POP SWAP3 SWAP1 POP JUMP JUMPDEST PUSH32 0x4E487B7100000000000000000000000000000000000000000000000000000000 PUSH0 MSTORE PUSH1 0x22 PUSH1 0x4 MSTORE PUSH1 0x24 PUSH0 REVERT JUMPDEST PUSH0 PUSH1 0x2 DUP3 DIV SWAP1 POP PUSH1 0x1 DUP3 AND DUP1 PUSH2 0x33FB JUMPI PUSH1 0x7F DUP3 AND SWAP2 POP JUMPDEST PUSH1 0x20 DUP3 LT DUP2 SUB PUSH2 0x340E JUMPI PUSH2 0x340D PUSH2 0x33B7 JUMP JUMPDEST JUMPDEST POP SWAP2 SWAP1 POP JUMP JUMPDEST PUSH32 0x4552433732313A20617070726F76616C20746F2063757272656E74206F776E65 PUSH0 DUP3 ADD MSTORE PUSH32 0x7200000000000000000000000000000000000000000000000000000000000000 PUSH1 0x20 DUP3 ADD MSTORE POP JUMP JUMPDEST PUSH0 PUSH2 0x346E PUSH1 0x21 DUP4 PUSH2 0x2C3E JUMP JUMPDEST SWAP2 POP PUSH2 0x3479 DUP3 PUSH2 0x3414 JUMP JUMPDEST PUSH1 0x40 DUP3 ADD SWAP1 POP SWAP2 SWAP1 POP JUMP JUMPDEST PUSH0 PUSH1 0x20 DUP3 ADD SWAP1 POP DUP2 DUP2 SUB PUSH0 DUP4 ADD MSTORE PUSH2 0x349B DUP2 PUSH2 0x3462 JUMP JUMPDEST SWAP1 POP SWAP2 SWAP1 POP JUMP JUMPDEST PUSH32 0x4552433732313A20617070726F76652063616C6C6572206973206E6F7420746F PUSH0 DUP3 ADD MSTORE PUSH32 0x6B656E206F776E6572206F7220617070726F76656420666F7220616C6C000000 PUSH1 0x20 DUP3 ADD MSTORE POP JUMP JUMPDEST PUSH0 PUSH2 0x34FC PUSH1 0x3D DUP4 PUSH2 0x2C3E JUMP JUMPDEST SWAP2 POP PUSH2 0x3507 DUP3 PUSH2 0x34A2 JUMP JUMPDEST PUSH1 0x40 DUP3 ADD SWAP1 POP SWAP2 SWAP1 POP JUMP JUMPDEST PUSH0 PUSH1 0x20 DUP3 ADD SWAP1 POP DUP2 DUP2 SUB PUSH0 DUP4 ADD MSTORE PUSH2 0x3529 DUP2 PUSH2 0x34F0 JUMP JUMPDEST SWAP1 POP SWAP2 SWAP1 POP JUMP JUMPDEST PUSH32 0x4552433732313A2063616C6C6572206973206E6F7420746F6B656E206F776E65 PUSH0 DUP3 ADD MSTORE PUSH32 0x72206F7220617070726F76656400000000000000000000000000000000000000 PUSH1 0x20 DUP3 ADD MSTORE POP JUMP JUMPDEST PUSH0 PUSH2 0x358A PUSH1 0x2D DUP4 PUSH2 0x2C3E JUMP JUMPDEST SWAP2 POP PUSH2 0x3595 DUP3 PUSH2 0x3530 JUMP JUMPDEST PUSH1 0x40 DUP3 ADD SWAP1 POP SWAP2 SWAP1 POP JUMP JUMPDEST PUSH0 PUSH1 0x20 DUP3 ADD SWAP1 POP DUP2 DUP2 SUB PUSH0 DUP4 ADD MSTORE PUSH2 0x35B7 DUP2 PUSH2 0x357E JUMP JUMPDEST SWAP1 POP SWAP2 SWAP1 POP JUMP JUMPDEST PUSH32 0x4552433732313A20696E76616C696420746F6B656E2049440000000000000000 PUSH0 DUP3 ADD MSTORE POP JUMP JUMPDEST PUSH0 PUSH2 0x35F2 PUSH1 0x18 DUP4 PUSH2 0x2C3E JUMP JUMPDEST SWAP2 POP PUSH2 0x35FD DUP3 PUSH2 0x35BE JUMP JUMPDEST PUSH1 0x20 DUP3 ADD SWAP1 POP SWAP2 SWAP1 POP JUMP JUMPDEST PUSH0 PUSH1 0x20 DUP3 ADD SWAP1 POP DUP2 DUP2 SUB PUSH0 DUP4 ADD MSTORE PUSH2 0x361F DUP2 PUSH2 0x35E6 JUMP JUMPDEST SWAP1 POP SWAP2 SWAP1 POP JUMP JUMPDEST PUSH32 0x4552433732313A2061646472657373207A65726F206973206E6F742061207661 PUSH0 DUP3 ADD MSTORE PUSH32 0x6C6964206F776E65720000000000000000000000000000000000000000000000 PUSH1 0x20 DUP3 ADD MSTORE POP JUMP JUMPDEST PUSH0 PUSH2 0x3680 PUSH1 0x29 DUP4 PUSH2 0x2C3E JUMP JUMPDEST SWAP2 POP PUSH2 0x368B DUP3 PUSH2 0x3626 JUMP JUMPDEST PUSH1 0x40 DUP3 ADD SWAP1 POP SWAP2 SWAP1 POP JUMP JUMPDEST PUSH0 PUSH1 0x20 DUP3 ADD SWAP1 POP DUP2 DUP2 SUB PUSH0 DUP4 ADD MSTORE PUSH2 0x36AD DUP2 PUSH2 0x3674 JUMP JUMPDEST SWAP1 POP SWAP2 SWAP1 POP JUMP JUMPDEST PUSH32 0x6E6F74206F776E65720000000000000000000000000000000000000000000000 PUSH0 DUP3 ADD MSTORE POP JUMP JUMPDEST PUSH0 PUSH2 0x36E8 PUSH1 0x9 DUP4 PUSH2 0x2C3E JUMP JUMPDEST SWAP2 POP PUSH2 0x36F3 DUP3 PUSH2 0x36B4 JUMP JUMPDEST PUSH1 0x20 DUP3 ADD SWAP1 POP SWAP2 SWAP1 POP JUMP JUMPDEST PUSH0 PUSH1 0x20 DUP3 ADD SWAP1 POP DUP2 DUP2 SUB PUSH0 DUP4 ADD MSTORE PUSH2 0x3715 DUP2 PUSH2 0x36DC JUMP JUMPDEST SWAP1 POP SWAP2 SWAP1 POP JUMP JUMPDEST PUSH32 0x737570706C793D30000000000000000000000000000000000000000000000000 PUSH0 DUP3 ADD MSTORE POP JUMP JUMPDEST PUSH0 PUSH2 0x3750 PUSH1 0x8 DUP4 PUSH2 0x2C3E JUMP JUMPDEST SWAP2 POP PUSH2 0x375B DUP3 PUSH2 0x371C JUMP JUMPDEST PUSH1 0x20 DUP3 ADD SWAP1 POP SWAP2 SWAP1 POP JUMP JUMPDEST PUSH0 PUSH1 0x20 DUP3 ADD SWAP1 POP DUP2 DUP2 SUB PUSH0 DUP4 ADD MSTORE PUSH2 0x377D DUP2 PUSH2 0x3744 JUMP JUMPDEST SWAP1 POP SWAP2 SWAP1 POP JUMP JUMPDEST PUSH32 0x7061796F75743D30000000000000000000000000000000000000000000000000 PUSH0 DUP3 ADD MSTORE POP JUMP JUMPDEST PUSH0 PUSH2 0x37B8 PUSH1 0x8 DUP4 PUSH2 0x2C3E JUMP JUMPDEST SWAP2 POP PUSH2 0x37C3 DUP3 PUSH2 0x3784 JUMP JUMPDEST PUSH1 0x20 DUP3 ADD SWAP1 POP SWAP2 SWAP1 POP JUMP JUMPDEST PUSH0 PUSH1 0x20 DUP3 ADD SWAP1 POP DUP2 DUP2 SUB PUSH0 DUP4 ADD MSTORE PUSH2 0x37E5 DUP2 PUSH2 0x37AC JUMP JUMPDEST SWAP1 POP SWAP2 SWAP1 POP JUMP JUMPDEST PUSH0 DUP2 SWAP1 POP DUP2 PUSH0 MSTORE PUSH1 0x20 PUSH0 KECCAK256 SWAP1 POP SWAP2 SWAP1 POP JUMP JUMPDEST PUSH0 PUSH1 0x20 PUSH1 0x1F DUP4 ADD DIV SWAP1 POP SWAP2 SWAP1 POP JUMP JUMPDEST PUSH0 DUP3 DUP3 SHL SWAP1 POP SWAP3 SWAP2 POP POP JUMP JUMPDEST PUSH0 PUSH1 0x8 DUP4 MUL PUSH2 0x3848 PUSH32 0xFFFFFFFFFFFFFFFFFFFFFFFFFFFFFFFFFFFFFFFFFFFFFFFFFFFFFFFFFFFFFFFF DUP3 PUSH2 0x380D JUMP JUMPDEST PUSH2 0x3852 DUP7 DUP4 PUSH2 0x380D JUMP JUMPDEST SWAP6 POP DUP1 NOT DUP5 AND SWAP4 POP DUP1 DUP7 AND DUP5 OR SWAP3 POP POP POP SWAP4 SWAP3 POP POP POP JUMP JUMPDEST PUSH0 DUP2 SWAP1 POP SWAP2 SWAP1 POP JUMP JUMPDEST PUSH0 PUSH2 0x388D PUSH2 0x3888 PUSH2 0x3883 DUP5 PUSH2 0x2CC4 JUMP JUMPDEST PUSH2 0x386A JUMP JUMPDEST PUSH2 0x2CC4 JUMP JUMPDEST SWAP1 POP SWAP2 SWAP1 POP JUMP JUMPDEST PUSH0 DUP2 SWAP1 POP SWAP2 SWAP1 POP JUMP JUMPDEST PUSH2 0x38A6 DUP4 PUSH2 0x3873 JUMP JUMPDEST PUSH2 0x38BA PUSH2 0x38B2 DUP3 PUSH2 0x3894 JUMP JUMPDEST DUP5 DUP5 SLOAD PUSH2 0x3819 JUMP JUMPDEST DUP3 SSTORE POP POP POP POP JUMP JUMPDEST PUSH0 PUSH0 SWAP1 POP SWAP1 JUMP JUMPDEST PUSH2 0x38D1 PUSH2 0x38C2 JUMP JUMPDEST PUSH2 0x38DC DUP2 DUP5 DUP5 PUSH2 0x389D JUMP JUMPDEST POP POP POP JUMP JUMPDEST JUMPDEST DUP2 DUP2 LT ISZERO PUSH2 0x38FF JUMPI PUSH2 0x38F4 PUSH0 DUP3 PUSH2 0x38C9 JUMP JUMPDEST PUSH1 0x1 DUP2 ADD SWAP1 POP PUSH2 0x38E2 JUMP JUMPDEST POP POP JUMP JUMPDEST PUSH1 0x1F DUP3 GT ISZERO PUSH2 0x3944 JUMPI PUSH2 0x3915 DUP2 PUSH2 0x37EC JUMP JUMPDEST PUSH2 0x391E DUP5 PUSH2 0x37FE JUMP JUMPDEST DUP2 ADD PUSH1 0x20 DUP6 LT ISZERO PUSH2 0x392D JUMPI DUP2 SWAP1 POP JUMPDEST PUSH2 0x3941 PUSH2 0x3939 DUP6 PUSH2 0x37FE JUMP JUMPDEST DUP4 ADD DUP3 PUSH2 0x38E1 JUMP JUMPDEST POP POP JUMPDEST POP POP POP JUMP JUMPDEST PUSH0 DUP3 DUP3 SHR SWAP1 POP SWAP3 SWAP2 POP POP JUMP JUMPDEST PUSH0 PUSH2 0x3964 PUSH0 NOT DUP5 PUSH1 0x8 MUL PUSH2 0x3949 JUMP JUMPDEST NOT DUP1 DUP4 AND SWAP2 POP POP SWAP3 SWAP2 POP POP JUMP JUMPDEST PUSH0 PUSH2 0x397C DUP4 DUP4 PUSH2 0x3955 JUMP JUMPDEST SWAP2 POP DUP3 PUSH1 0x2 MUL DUP3 OR SWAP1 POP SWAP3 SWAP2 POP POP JUMP JUMPDEST PUSH2 0x3995 DUP3 PUSH2 0x2C34 JUMP JUMPDEST PUSH8 0xFFFFFFFFFFFFFFFF DUP2 GT ISZERO PUSH2 0x39AE JUMPI PUSH2 0x39AD PUSH2 0x2FD0 JUMP JUMPDEST JUMPDEST PUSH2 0x39B8 DUP3 SLOAD PUSH2 0x33E4 JUMP JUMPDEST PUSH2 0x39C3 DUP3 DUP3 DUP6 PUSH2 0x3903 JUMP JUMPDEST PUSH0 PUSH1 0x20 SWAP1 POP PUSH1 0x1F DUP4 GT PUSH1 0x1 DUP2 EQ PUSH2 0x39F4 JUMPI PUSH0 DUP5 ISZERO PUSH2 0x39E2 JUMPI DUP3 DUP8 ADD MLOAD SWAP1 POP JUMPDEST PUSH2 0x39EC DUP6 DUP3 PUSH2 0x3971 JUMP JUMPDEST DUP7 SSTORE POP PUSH2 0x3A53 JUMP JUMPDEST PUSH1 0x1F NOT DUP5 AND PUSH2 0x3A02 DUP7 PUSH2 0x37EC JUMP JUMPDEST PUSH0 JUMPDEST DUP3 DUP2 LT ISZERO PUSH2 0x3A29 JUMPI DUP5 DUP10 ADD MLOAD DUP3 SSTORE PUSH1 0x1 DUP3 ADD SWAP2 POP PUSH1 0x20 DUP6 ADD SWAP5 POP PUSH1 0x20 DUP2 ADD SWAP1 POP PUSH2 0x3A04 JUMP JUMPDEST DUP7 DUP4 LT ISZERO PUSH2 0x3A46 JUMPI DUP5 DUP10 ADD MLOAD PUSH2 0x3A42 PUSH1 0x1F DUP10 AND DUP3 PUSH2 0x3955 JUMP JUMPDEST DUP4 SSTORE POP JUMPDEST PUSH1 0x1 PUSH1 0x2 DUP9 MUL ADD DUP9 SSTORE POP POP POP JUMPDEST POP POP POP POP POP POP JUMP JUMPDEST PUSH0 PUSH1 0x80 DUP3 ADD SWAP1 POP DUP2 DUP2 SUB PUSH0 DUP4 ADD MSTORE PUSH2 0x3A73 DUP2 DUP8 PUSH2 0x2C6C JUMP JUMPDEST SWAP1 POP PUSH2 0x3A82 PUSH1 0x20 DUP4 ADD DUP7 PUSH2 0x2E32 JUMP JUMPDEST PUSH2 0x3A8F PUSH1 0x40 DUP4 ADD DUP6 PUSH2 0x2E54 JUMP JUMPDEST PUSH2 0x3A9C PUSH1 0x60 DUP4 ADD DUP5 PUSH2 0x2E54 JUMP JUMPDEST SWAP6 SWAP5 POP POP POP POP POP JUMP JUMPDEST PUSH0 DUP2 SWAP1 POP SWAP3 SWAP2 POP POP JUMP JUMPDEST PUSH0 PUSH2 0x3AB9 DUP3 PUSH2 0x2C34 JUMP JUMPDEST PUSH2 0x3AC3 DUP2 DUP6 PUSH2 0x3AA5 JUMP JUMPDEST SWAP4 POP PUSH2 0x3AD3 DUP2 DUP6 PUSH1 0x20 DUP7 ADD PUSH2 0x2C4E JUMP JUMPDEST DUP1 DUP5 ADD SWAP2 POP POP SWAP3 SWAP2 POP POP JUMP JUMPDEST PUSH0 PUSH2 0x3AEA DUP3 DUP6 PUSH2 0x3AAF JUMP JUMPDEST SWAP2 POP PUSH2 0x3AF6 DUP3 DUP5 PUSH2 0x3AAF JUMP JUMPDEST SWAP2 POP DUP2 SWAP1 POP SWAP4 SWAP3 POP POP POP JUMP JUMPDEST PUSH32 0x7265656E7472616E637900000000000000000000000000000000000000000000 PUSH0 DUP3 ADD MSTORE POP JUMP JUMPDEST PUSH0 PUSH2 0x3B36 PUSH1 0xA DUP4 PUSH2 0x2C3E JUMP JUMPDEST SWAP2 POP PUSH2 0x3B41 DUP3 PUSH2 0x3B02 JUMP JUMPDEST PUSH1 0x20 DUP3 ADD SWAP1 POP SWAP2 SWAP1 POP JUMP JUMPDEST PUSH0 PUSH1 0x20 DUP3 ADD SWAP1 POP DUP2 DUP2 SUB PUSH0 DUP4 ADD MSTORE PUSH2 0x3B63 DUP2 PUSH2 0x3B2A JUMP JUMPDEST SWAP1 POP SWAP2 SWAP1 POP JUMP JUMPDEST PUSH32 0x696E616374697665000000000000000000000000000000000000000000000000 PUSH0 DUP3 ADD MSTORE POP JUMP JUMPDEST PUSH0 PUSH2 0x3B9E PUSH1 0x8 DUP4 PUSH2 0x2C3E JUMP JUMPDEST SWAP2 POP PUSH2 0x3BA9 DUP3 PUSH2 0x3B6A JUMP JUMPDEST PUSH1 0x20 DUP3 ADD SWAP1 POP SWAP2 SWAP1 POP JUMP JUMPDEST PUSH0 PUSH1 0x20 DUP3 ADD SWAP1 POP DUP2 DUP2 SUB PUSH0 DUP4 ADD MSTORE PUSH2 0x3BCB DUP2 PUSH2 0x3B92 JUMP JUMPDEST SWAP1 POP SWAP2 SWAP1 POP JUMP JUMPDEST PUSH32 0x736F6C64206F7574000000000000000000000000000000000000000000000000 PUSH0 DUP3 ADD MSTORE POP JUMP JUMPDEST PUSH0 PUSH2 0x3C06 PUSH1 0x8 DUP4 PUSH2 0x2C3E JUMP JUMPDEST SWAP2 POP PUSH2 0x3C11 DUP3 PUSH2 0x3BD2 JUMP JUMPDEST PUSH1 0x20 DUP3 ADD SWAP1 POP SWAP2 SWAP1 POP JUMP JUMPDEST PUSH0 PUSH1 0x20 DUP3 ADD SWAP1 POP DUP2 DUP2 SUB PUSH0 DUP4 ADD MSTORE PUSH2 0x3C33 DUP2 PUSH2 0x3BFA JUMP JUMPDEST SWAP1 POP SWAP2 SWAP1 POP JUMP JUMPDEST PUSH32 0x6261642076616C75650000000000000000000000000000000000000000000000 PUSH0 DUP3 ADD MSTORE POP JUMP JUMPDEST PUSH0 PUSH2 0x3C6E PUSH1 0x9 DUP4 PUSH2 0x2C3E JUMP JUMPDEST SWAP2 POP PUSH2 0x3C79 DUP3 PUSH2 0x3C3A JUMP JUMPDEST PUSH1 0x20 DUP3 ADD SWAP1 POP SWAP2 SWAP1 POP JUMP JUMPDEST PUSH0 PUSH1 0x20 DUP3 ADD SWAP1 POP DUP2 DUP2 SUB PUSH0 DUP4 ADD MSTORE PUSH2 0x3C9B DUP2 PUSH2 0x3C62 JUMP JUMPDEST SWAP1 POP SWAP2 SWAP1 POP JUMP JUMPDEST PUSH0 DUP2 SWAP1 POP SWAP3 SWAP2 POP POP JUMP JUMPDEST POP JUMP JUMPDEST PUSH0 PUSH2 0x3CBA PUSH0 DUP4 PUSH2 0x3CA2 JUMP JUMPDEST SWAP2 POP PUSH2 0x3CC5 DUP3 PUSH2 0x3CAC JUMP JUMPDEST PUSH0 DUP3 ADD SWAP1 POP SWAP2 SWAP1 POP JUMP JUMPDEST PUSH0 PUSH2 0x3CD9 DUP3 PUSH2 0x3CAF JUMP JUMPDEST SWAP2 POP DUP2 SWAP1 POP SWAP2 SWAP1 POP JUMP JUMPDEST PUSH32 0x706179206661696C656400000000000000000000000000000000000000000000 PUSH0 DUP3 ADD MSTORE POP JUMP JUMPDEST PUSH0 PUSH2 0x3D17 PUSH1 0xA DUP4 PUSH2 0x2C3E JUMP JUMPDEST SWAP2 POP PUSH2 0x3D22 DUP3 PUSH2 0x3CE3 JUMP JUMPDEST PUSH1 0x20 DUP3 ADD SWAP1 POP SWAP2 SWAP1 POP JUMP JUMPDEST PUSH0 PUSH1 0x20 DUP3 ADD SWAP1 POP DUP2 DUP2 SUB PUSH0 DUP4 ADD MSTORE PUSH2 0x3D44 DUP2 PUSH2 0x3D0B JUMP JUMPDEST SWAP1 POP SWAP2 SWAP1 POP JUMP JUMPDEST PUSH32 0x4E487B7100000000000000000000000000000000000000000000000000000000 PUSH0 MSTORE PUSH1 0x11 PUSH1 0x4 MSTORE PUSH1 0x24 PUSH0 REVERT JUMPDEST PUSH0 PUSH2 0x3D82 DUP3 PUSH2 0x2E41 JUMP JUMPDEST SWAP2 POP PUSH2 0x3D8D DUP4 PUSH2 0x2E41 JUMP JUMPDEST SWAP3 POP DUP3 DUP3 ADD SWAP1 POP PUSH8 0xFFFFFFFFFFFFFFFF DUP2 GT ISZERO PUSH2 0x3DAD JUMPI PUSH2 0x3DAC PUSH2 0x3D4B JUMP JUMPDEST JUMPDEST SWAP3 SWAP2 POP POP JUMP JUMPDEST PUSH0 DUP2 SWAP1 POP SWAP2 SWAP1 POP JUMP JUMPDEST PUSH2 0x3DCD PUSH2 0x3DC8 DUP3 PUSH2 0x2CC4 JUMP JUMPDEST PUSH2 0x3DB3 JUMP JUMPDEST DUP3 MSTORE POP POP JUMP JUMPDEST PUSH0 DUP2 PUSH1 0xC0 SHL SWAP1 POP SWAP2 SWAP1 POP JUMP JUMPDEST PUSH0 PUSH2 0x3DE9 DUP3 PUSH2 0x3DD3 JUMP JUMPDEST SWAP1 POP SWAP2 SWAP1 POP JUMP JUMPDEST PUSH2 0x3E01 PUSH2 0x3DFC DUP3 PUSH2 0x2E41 JUMP JUMPDEST PUSH2 0x3DDF JUMP JUMPDEST DUP3 MSTORE POP POP JUMP JUMPDEST PUSH0 DUP2 PUSH1 0x60 SHL SWAP1 POP SWAP2 SWAP1 POP JUMP JUMPDEST PUSH0 PUSH2 0x3E1D DUP3 PUSH2 0x3E07 JUMP JUMPDEST SWAP1 POP SWAP2 SWAP1 POP JUMP JUMPDEST PUSH0 PUSH2 0x3E2E DUP3 PUSH2 0x3E13 JUMP JUMPDEST SWAP1 POP SWAP2 SWAP1 POP JUMP JUMPDEST PUSH2 0x3E46 PUSH2 0x3E41 DUP3 PUSH2 0x2D41 JUMP JUMPDEST PUSH2 0x3E24 JUMP JUMPDEST DUP3 MSTORE POP POP JUMP JUMPDEST PUSH0 PUSH2 0x3E57 DUP3 DUP8 PUSH2 0x3DBC JUMP JUMPDEST PUSH1 0x20 DUP3 ADD SWAP2 POP PUSH2 0x3E67 DUP3 DUP7 PUSH2 0x3DF0 JUMP JUMPDEST PUSH1 0x8 DUP3 ADD SWAP2 POP PUSH2 0x3E77 DUP3 DUP6 PUSH2 0x3DBC JUMP JUMPDEST PUSH1 0x20 DUP3 ADD SWAP2 POP PUSH2 0x3E87 DUP3 DUP5 PUSH2 0x3E35 JUMP JUMPDEST PUSH1 0x14 DUP3 ADD SWAP2 POP DUP2 SWAP1 POP SWAP6 SWAP5 POP POP POP POP POP JUMP JUMPDEST PUSH0 DUP2 SLOAD PUSH2 0x3EA5 DUP2 PUSH2 0x33E4 JUMP JUMPDEST PUSH2 0x3EAF DUP2 DUP7 PUSH2 0x3AA5 JUMP JUMPDEST SWAP5 POP PUSH1 0x1 DUP3 AND PUSH0 DUP2 EQ PUSH2 0x3EC9 JUMPI PUSH1 0x1 DUP2 EQ PUSH2 0x3EDE JUMPI PUSH2 0x3F10 JUMP JUMPDEST PUSH1 0xFF NOT DUP4 AND DUP7 MSTORE DUP2 ISZERO ISZERO DUP3 MUL DUP7 ADD SWAP4 POP PUSH2 0x3F10 JUMP JUMPDEST PUSH2 0x3EE7 DUP6 PUSH2 0x37EC JUMP JUMPDEST PUSH0 JUMPDEST DUP4 DUP2 LT ISZERO PUSH2 0x3F08 JUMPI DUP2 SLOAD DUP2 DUP10 ADD MSTORE PUSH1 0x1 DUP3 ADD SWAP2 POP PUSH1 0x20 DUP2 ADD SWAP1 POP PUSH2 0x3EE9 JUMP JUMPDEST DUP4 DUP9 ADD SWAP6 POP POP POP JUMPDEST POP POP POP SWAP3 SWAP2 POP POP JUMP JUMPDEST PUSH32 0x2E6A736F6E000000000000000000000000000000000000000000000000000000 PUSH0 DUP3 ADD MSTORE POP JUMP JUMPDEST PUSH0 PUSH2 0x3F4D PUSH1 0x5 DUP4 PUSH2 0x3AA5 JUMP JUMPDEST SWAP2 POP PUSH2 0x3F58 DUP3 PUSH2 0x3F19 JUMP JUMPDEST PUSH1 0x5 DUP3 ADD SWAP1 POP SWAP2 SWAP1 POP JUMP JUMPDEST PUSH0 PUSH2 0x3F6E DUP3 DUP6 PUSH2 0x3E99 JUMP JUMPDEST SWAP2 POP PUSH2 0x3F7A DUP3 DUP5 PUSH2 0x3AAF JUMP JUMPDEST SWAP2 POP PUSH2 0x3F85 DUP3 PUSH2 0x3F41 JUMP JUMPDEST SWAP2 POP DUP2 SWAP1 POP SWAP4 SWAP3 POP POP POP JUMP JUMPDEST PUSH0 PUSH2 0x3F9B DUP3 PUSH2 0x2E41 JUMP JUMPDEST SWAP2 POP PUSH8 0xFFFFFFFFFFFFFFFF DUP3 SUB PUSH2 0x3FB5 JUMPI PUSH2 0x3FB4 PUSH2 0x3D4B JUMP JUMPDEST JUMPDEST PUSH1 0x1 DUP3 ADD SWAP1 POP SWAP2 SWAP1 POP JUMP JUMPDEST PUSH0 PUSH1 0x40 DUP3 ADD SWAP1 POP PUSH2 0x3FD3 PUSH0 DUP4 ADD DUP6 PUSH2 0x2D52 JUMP JUMPDEST PUSH2 0x3FE0 PUSH1 0x20 DUP4 ADD DUP5 PUSH2 0x2E32 JUMP JUMPDEST SWAP4 SWAP3 POP POP POP JUMP JUMPDEST PUSH32 0x3020616464720000000000000000000000000000000000000000000000000000 PUSH0 DUP3 ADD MSTORE POP JUMP JUMPDEST PUSH0 PUSH2 0x401B PUSH1 0x6 DUP4 PUSH2 0x2C3E JUMP JUMPDEST SWAP2 POP PUSH2 0x4026 DUP3 PUSH2 0x3FE7 JUMP JUMPDEST PUSH1 0x20 DUP3 ADD SWAP1 POP SWAP2 SWAP1 POP JUMP JUMPDEST PUSH0 PUSH1 0x20 DUP3 ADD SWAP1 POP DUP2 DUP2 SUB PUSH0 DUP4 ADD MSTORE PUSH2 0x4048 DUP2 PUSH2 0x400F JUMP JUMPDEST SWAP1 POP SWAP2 SWAP1 POP JUMP JUMPDEST PUSH32 0x4552433732313A207472616E736665722066726F6D20696E636F727265637420 PUSH0 DUP3 ADD MSTORE PUSH32 0x6F776E6572000000000000000000000000000000000000000000000000000000 PUSH1 0x20 DUP3 ADD MSTORE POP JUMP JUMPDEST PUSH0 PUSH2 0x40A9 PUSH1 0x25 DUP4 PUSH2 0x2C3E JUMP JUMPDEST SWAP2 POP PUSH2 0x40B4 DUP3 PUSH2 0x404F JUMP JUMPDEST PUSH1 0x40 DUP3 ADD SWAP1 POP SWAP2 SWAP1 POP JUMP JUMPDEST PUSH0 PUSH1 0x20 DUP3 ADD SWAP1 POP DUP2 DUP2 SUB PUSH0 DUP4 ADD MSTORE PUSH2 0x40D6 DUP2 PUSH2 0x409D JUMP JUMPDEST SWAP1 POP SWAP2 SWAP1 POP JUMP JUMPDEST PUSH32 0x4552433732313A207472616E7366657220746F20746865207A65726F20616464 PUSH0 DUP3 ADD MSTORE PUSH32 0x7265737300000000000000000000000000000000000000000000000000000000 PUSH1 0x20 DUP3 ADD MSTORE POP JUMP JUMPDEST PUSH0 PUSH2 0x4137 PUSH1 0x24 DUP4 PUSH2 0x2C3E JUMP JUMPDEST SWAP2 POP PUSH2 0x4142 DUP3 PUSH2 0x40DD JUMP JUMPDEST PUSH1 0x40 DUP3 ADD SWAP1 POP SWAP2 SWAP1 POP JUMP JUMPDEST PUSH0 PUSH1 0x20 DUP3 ADD SWAP1 POP DUP2 DUP2 SUB PUSH0 DUP4 ADD MSTORE PUSH2 0x4164 DUP2 PUSH2 0x412B JUMP JUMPDEST SWAP1 POP SWAP2 SWAP1 POP JUMP JUMPDEST PUSH32 0x4552433732313A20617070726F766520746F2063616C6C657200000000000000 PUSH0 DUP3 ADD MSTORE POP JUMP JUMPDEST PUSH0 PUSH2 0x419F PUSH1 0x19 DUP4 PUSH2 0x2C3E JUMP JUMPDEST SWAP2 POP PUSH2 0x41AA DUP3 PUSH2 0x416B JUMP JUMPDEST PUSH1 0x20 DUP3 ADD SWAP1 POP SWAP2 SWAP1 POP JUMP JUMPDEST PUSH0 PUSH1 0x20 DUP3 ADD SWAP1 POP DUP2 DUP2 SUB PUSH0 DUP4 ADD MSTORE PUSH2 0x41CC DUP2 PUSH2 0x4193 JUMP JUMPDEST SWAP1 POP SWAP2 SWAP1 POP JUMP JUMPDEST PUSH32 0x4552433732313A207472616E7366657220746F206E6F6E204552433732315265 PUSH0 DUP3 ADD MSTORE PUSH32 0x63656976657220696D706C656D656E7465720000000000000000000000000000 PUSH1 0x20 DUP3 ADD MSTORE POP JUMP JUMPDEST PUSH0 PUSH2 0x422D PUSH1 0x32 DUP4 PUSH2 0x2C3E JUMP JUMPDEST SWAP2 POP PUSH2 0x4238 DUP3 PUSH2 0x41D3 JUMP JUMPDEST PUSH1 0x40 DUP3 ADD SWAP1 POP SWAP2 SWAP1 POP JUMP JUMPDEST PUSH0 PUSH1 0x20 DUP3 ADD SWAP1 POP DUP2 DUP2 SUB PUSH0 DUP4 ADD MSTORE PUSH2 0x425A DUP2 PUSH2 0x4221 JUMP JUMPDEST SWAP1 POP SWAP2 SWAP1 POP JUMP JUMPDEST PUSH0 PUSH2 0x426B DUP3 PUSH2 0x2CC4 JUMP JUMPDEST SWAP2 POP PUSH32 0xFFFFFFFFFFFFFFFFFFFFFFFFFFFFFFFFFFFFFFFFFFFFFFFFFFFFFFFFFFFFFFFF DUP3 SUB PUSH2 0x429D JUMPI PUSH2 0x429C PUSH2 0x3D4B JUMP JUMPDEST JUMPDEST PUSH1 0x1 DUP3 ADD SWAP1 POP SWAP2 SWAP1 POP JUMP JUMPDEST PUSH32 0x4E487B7100000000000000000000000000000000000000000000000000000000 PUSH0 MSTORE PUSH1 0x12 PUSH1 0x4 MSTORE PUSH1 0x24 PUSH0 REVERT JUMPDEST PUSH0 PUSH2 0x42DF DUP3 PUSH2 0x2CC4 JUMP JUMPDEST SWAP2 POP PUSH2 0x42EA DUP4 PUSH2 0x2CC4 JUMP JUMPDEST SWAP3 POP DUP3 PUSH2 0x42FA JUMPI PUSH2 0x42F9 PUSH2 0x42A8 JUMP JUMPDEST JUMPDEST DUP3 DUP3 DIV SWAP1 POP SWAP3 SWAP2 POP POP JUMP JUMPDEST PUSH0 PUSH2 0x430F DUP3 PUSH2 0x2CC4 JUMP JUMPDEST SWAP2 POP PUSH2 0x431A DUP4 PUSH2 0x2CC4 JUMP JUMPDEST SWAP3 POP DUP3 DUP3 SUB SWAP1 POP DUP2 DUP2 GT ISZERO PUSH2 0x4332 JUMPI PUSH2 0x4331 PUSH2 0x3D4B JUMP JUMPDEST JUMPDEST SWAP3 SWAP2 POP POP JUMP JUMPDEST PUSH0 PUSH2 0x4342 DUP3 PUSH2 0x2CC4 JUMP JUMPDEST SWAP2 POP PUSH2 0x434D DUP4 PUSH2 0x2CC4 JUMP JUMPDEST SWAP3 POP DUP3 PUSH2 0x435D JUMPI PUSH2 0x435C PUSH2 0x42A8 JUMP JUMPDEST JUMPDEST DUP3 DUP3 MOD SWAP1 POP SWAP3 SWAP2 POP POP JUMP JUMPDEST PUSH0 PUSH2 0x4372 DUP3 PUSH2 0x2CC4 JUMP JUMPDEST SWAP2 POP PUSH2 0x437D DUP4 PUSH2 0x2CC4 JUMP JUMPDEST SWAP3 POP DUP3 DUP3 ADD SWAP1 POP DUP1 DUP3 GT ISZERO PUSH2 0x4395 JUMPI PUSH2 0x4394 PUSH2 0x3D4B JUMP JUMPDEST JUMPDEST SWAP3 SWAP2 POP POP JUMP JUMPDEST PUSH32 0x4E487B7100000000000000000000000000000000000000000000000000000000 PUSH0 MSTORE PUSH1 0x32 PUSH1 0x4 MSTORE PUSH1 0x24 PUSH0 REVERT JUMPDEST PUSH32 0x45524337323155524953746F726167653A2055524920736574206F66206E6F6E PUSH0 DUP3 ADD MSTORE PUSH32 0x6578697374656E7420746F6B656E000000000000000000000000000000000000 PUSH1 0x20 DUP3 ADD MSTORE POP JUMP JUMPDEST PUSH0 PUSH2 0x4422 PUSH1 0x2E DUP4 PUSH2 0x2C3E JUMP JUMPDEST SWAP2 POP PUSH2 0x442D DUP3 PUSH2 0x43C8 JUMP JUMPDEST PUSH1 0x40 DUP3 ADD SWAP1 POP SWAP2 SWAP1 POP JUMP JUMPDEST PUSH0 PUSH1 0x20 DUP3 ADD SWAP1 POP DUP2 DUP2 SUB PUSH0 DUP4 ADD MSTORE PUSH2 0x444F DUP2 PUSH2 0x4416 JUMP JUMPDEST SWAP1 POP SWAP2 SWAP1 POP JUMP JUMPDEST PUSH32 0x6C6F636B656420756E74696C206576656E742073746172740000000000000000 PUSH0 DUP3 ADD MSTORE POP JUMP JUMPDEST PUSH0 PUSH2 0x448A PUSH1 0x18 DUP4 PUSH2 0x2C3E JUMP JUMPDEST SWAP2 POP PUSH2 0x4495 DUP3 PUSH2 0x4456 JUMP JUMPDEST PUSH1 0x20 DUP3 ADD SWAP1 POP SWAP2 SWAP1 POP JUMP JUMPDEST PUSH0 PUSH1 0x20 DUP3 ADD SWAP1 POP DUP2 DUP2 SUB PUSH0 DUP4 ADD MSTORE PUSH2 0x44B7 DUP2 PUSH2 0x447E JUMP JUMPDEST SWAP1 POP SWAP2 SWAP1 POP JUMP JUMPDEST PUSH0 DUP2 MLOAD SWAP1 POP SWAP2 SWAP1 POP JUMP JUMPDEST PUSH0 DUP3 DUP3 MSTORE PUSH1 0x20 DUP3 ADD SWAP1 POP SWAP3 SWAP2 POP POP JUMP JUMPDEST PUSH0 PUSH2 0x44E2 DUP3 PUSH2 0x44BE JUMP JUMPDEST PUSH2 0x44EC DUP2 DUP6 PUSH2 0x44C8 JUMP JUMPDEST SWAP4 POP PUSH2 0x44FC DUP2 DUP6 PUSH1 0x20 DUP7 ADD PUSH2 0x2C4E JUMP JUMPDEST PUSH2 0x4505 DUP2 PUSH2 0x2C5C JUMP JUMPDEST DUP5 ADD SWAP2 POP POP SWAP3 SWAP2 POP POP JUMP JUMPDEST PUSH0 PUSH1 0x80 DUP3 ADD SWAP1 POP PUSH2 0x4523 PUSH0 DUP4 ADD DUP8 PUSH2 0x2D52 JUMP JUMPDEST PUSH2 0x4530 PUSH1 0x20 DUP4 ADD DUP7 PUSH2 0x2D52 JUMP JUMPDEST PUSH2 0x453D PUSH1 0x40 DUP4 ADD DUP6 PUSH2 0x2E32 JUMP JUMPDEST DUP2 DUP2 SUB PUSH1 0x60 DUP4 ADD MSTORE PUSH2 0x454F DUP2 DUP5 PUSH2 0x44D8 JUMP JUMPDEST SWAP1 POP SWAP6 SWAP5 POP POP POP POP POP JUMP JUMPDEST PUSH0 DUP2 MLOAD SWAP1 POP PUSH2 0x4568 DUP2 PUSH2 0x2BAC JUMP JUMPDEST SWAP3 SWAP2 POP POP JUMP JUMPDEST PUSH0 PUSH1 0x20 DUP3 DUP5 SUB SLT ISZERO PUSH2 0x4583 JUMPI PUSH2 0x4582 PUSH2 0x2B79 JUMP JUMPDEST JUMPDEST PUSH0 PUSH2 0x4590 DUP5 DUP3 DUP6 ADD PUSH2 0x455A JUMP JUMPDEST SWAP2 POP POP SWAP3 SWAP2 POP POP JUMP JUMPDEST PUSH32 0x4552433732313A206D696E7420746F20746865207A65726F2061646472657373 PUSH0 DUP3 ADD MSTORE POP JUMP JUMPDEST PUSH0 PUSH2 0x45CD PUSH1 0x20 DUP4 PUSH2 0x2C3E JUMP JUMPDEST SWAP2 POP PUSH2 0x45D8 DUP3 PUSH2 0x4599 JUMP JUMPDEST PUSH1 0x20 DUP3 ADD SWAP1 POP SWAP2 SWAP1 POP JUMP JUMPDEST PUSH0 PUSH1 0x20 DUP3 ADD SWAP1 POP DUP2 DUP2 SUB PUSH0 DUP4 ADD MSTORE PUSH2 0x45FA DUP2 PUSH2 0x45C1 JUMP JUMPDEST SWAP1 POP SWAP2 SWAP1 POP JUMP JUMPDEST PUSH32 0x4552433732313A20746F6B656E20616C7265616479206D696E74656400000000 PUSH0 DUP3 ADD MSTORE POP JUMP JUMPDEST PUSH0 PUSH2 0x4635 PUSH1 0x1C DUP4 PUSH2 0x2C3E JUMP JUMPDEST SWAP2 POP PUSH2 0x4640 DUP3 PUSH2 0x4601 JUMP JUMPDEST PUSH1 0x20 DUP3 ADD SWAP1 POP SWAP2 SWAP1 POP JUMP JUMPDEST PUSH0 PUSH1 0x20 DUP3 ADD SWAP1 POP DUP2 DUP2 SUB PUSH0 DUP4 ADD MSTORE PUSH2 0x4662 DUP2 PUSH2 0x4629 JUMP JUMPDEST SWAP1 POP SWAP2 SWAP1 POP JUMP INVALID LOG2 PUSH5 0x6970667358 0x22 SLT KECCAK256 0x4E CALLDATASIZE STOP MCOPY ORIGIN RETURNDATACOPY 0xAE 0x2D DUP10 PUSH31 0xBED37BF35D698B9AA270408DF096992AB064DEBFDEB064736F6C634300081E STOP CALLER "
		},
		"gasEstimates": {
			"creation": {
				"codeDepositCost": "3615800",
				"executionCost": "infinite",
				"totalCost": "infinite"
			},
			"external": {
				"approve(address,uint256)": "infinite",
				"balanceOf(address)": "2952",
				"buy(uint256)": "infinite",
				"createEvent(string,uint256,uint64,uint64,bool,string,address)": "infinite",
				"eventsInfo(uint256)": "infinite",
				"getApproved(uint256)": "5281",
				"isApprovedForAll(address,address)": "infinite",
				"name()": "infinite",
				"owner()": "2619",
				"ownerOf(uint256)": "3049",
				"safeTransferFrom(address,address,uint256)": "infinite",
				"safeTransferFrom(address,address,uint256,bytes)": "infinite",
				"setActive(uint256,bool)": "infinite",
				"setApprovalForAll(address,bool)": "infinite",
				"supportsInterface(bytes4)": "881",
				"symbol()": "infinite",
				"ticketEvent(uint256)": "infinite",
				"tokenURI(uint256)": "infinite",
				"transferFrom(address,address,uint256)": "infinite",
				"transferOwnership(address)": "30708"
			},
			"internal": {
				"_beforeTokenTransfer(address,address,uint256,uint256)": "infinite",
				"_toString(uint256)": "infinite"
			}
		},
		"methodIdentifiers": {
			"approve(address,uint256)": "095ea7b3",
			"balanceOf(address)": "70a08231",
			"buy(uint256)": "d96a094a",
			"createEvent(string,uint256,uint64,uint64,bool,string,address)": "bb766766",
			"eventsInfo(uint256)": "58e6116f",
			"getApproved(uint256)": "081812fc",
			"isApprovedForAll(address,address)": "e985e9c5",
			"name()": "06fdde03",
			"owner()": "8da5cb5b",
			"ownerOf(uint256)": "6352211e",
			"safeTransferFrom(address,address,uint256)": "42842e0e",
			"safeTransferFrom(address,address,uint256,bytes)": "b88d4fde",
			"setActive(uint256,bool)": "e60a955d",
			"setApprovalForAll(address,bool)": "a22cb465",
			"supportsInterface(bytes4)": "01ffc9a7",
			"symbol()": "95d89b41",
			"ticketEvent(uint256)": "c20b324d",
			"tokenURI(uint256)": "c87b56dd",
			"transferFrom(address,address,uint256)": "23b872dd",
			"transferOwnership(address)": "f2fde38b"
		}
	},
	"abi": [
		{
			"inputs": [],
			"stateMutability": "nonpayable",
			"type": "constructor"
		},
		{
			"anonymous": false,
			"inputs": [
				{
					"indexed": true,
					"internalType": "address",
					"name": "owner",
					"type": "address"
				},
				{
					"indexed": true,
					"internalType": "address",
					"name": "approved",
					"type": "address"
				},
				{
					"indexed": true,
					"internalType": "uint256",
					"name": "tokenId",
					"type": "uint256"
				}
			],
			"name": "Approval",
			"type": "event"
		},
		{
			"anonymous": false,
			"inputs": [
				{
					"indexed": true,
					"internalType": "address",
					"name": "owner",
					"type": "address"
				},
				{
					"indexed": true,
					"internalType": "address",
					"name": "operator",
					"type": "address"
				},
				{
					"indexed": false,
					"internalType": "bool",
					"name": "approved",
					"type": "bool"
				}
			],
			"name": "ApprovalForAll",
			"type": "event"
		},
		{
			"anonymous": false,
			"inputs": [
				{
					"indexed": false,
					"internalType": "uint256",
					"name": "_fromTokenId",
					"type": "uint256"
				},
				{
					"indexed": false,
					"internalType": "uint256",
					"name": "_toTokenId",
					"type": "uint256"
				}
			],
			"name": "BatchMetadataUpdate",
			"type": "event"
		},
		{
			"anonymous": false,
			"inputs": [
				{
					"indexed": true,
					"internalType": "uint256",
					"name": "eventId",
					"type": "uint256"
				},
				{
					"indexed": false,
					"internalType": "string",
					"name": "name",
					"type": "string"
				},
				{
					"indexed": false,
					"internalType": "uint256",
					"name": "priceWei",
					"type": "uint256"
				},
				{
					"indexed": false,
					"internalType": "uint64",
					"name": "start",
					"type": "uint64"
				},
				{
					"indexed": false,
					"internalType": "uint64",
					"name": "maxSupply",
					"type": "uint64"
				}
			],
			"name": "EventCreated",
			"type": "event"
		},
		{
			"anonymous": false,
			"inputs": [
				{
					"indexed": true,
					"internalType": "uint256",
					"name": "eventId",
					"type": "uint256"
				},
				{
					"indexed": false,
					"internalType": "bool",
					"name": "active",
					"type": "bool"
				}
			],
			"name": "EventStatus",
			"type": "event"
		},
		{
			"anonymous": false,
			"inputs": [
				{
					"indexed": false,
					"internalType": "uint256",
					"name": "_tokenId",
					"type": "uint256"
				}
			],
			"name": "MetadataUpdate",
			"type": "event"
		},
		{
			"anonymous": false,
			"inputs": [
				{
					"indexed": true,
					"internalType": "address",
					"name": "from",
					"type": "address"
				},
				{
					"indexed": true,
					"internalType": "address",
					"name": "to",
					"type": "address"
				}
			],
			"name": "OwnershipTransferred",
			"type": "event"
		},
		{
			"anonymous": false,
			"inputs": [
				{
					"indexed": true,
					"internalType": "uint256",
					"name": "eventId",
					"type": "uint256"
				},
				{
					"indexed": true,
					"internalType": "uint256",
					"name": "tokenId",
					"type": "uint256"
				},
				{
					"indexed": false,
					"internalType": "address",
					"name": "buyer",
					"type": "address"
				},
				{
					"indexed": false,
					"internalType": "uint256",
					"name": "priceWei",
					"type": "uint256"
				}
			],
			"name": "TicketMinted",
			"type": "event"
		},
		{
			"anonymous": false,
			"inputs": [
				{
					"indexed": true,
					"internalType": "address",
					"name": "from",
					"type": "address"
				},
				{
					"indexed": true,
					"internalType": "address",
					"name": "to",
					"type": "address"
				},
				{
					"indexed": true,
					"internalType": "uint256",
					"name": "tokenId",
					"type": "uint256"
				}
			],
			"name": "Transfer",
			"type": "event"
		},
		{
			"inputs": [
				{
					"internalType": "address",
					"name": "to",
					"type": "address"
				},
				{
					"internalType": "uint256",
					"name": "tokenId",
					"type": "uint256"
				}
			],
			"name": "approve",
			"outputs": [],
			"stateMutability": "nonpayable",
			"type": "function"
		},
		{
			"inputs": [
				{
					"internalType": "address",
					"name": "owner",
					"type": "address"
				}
			],
			"name": "balanceOf",
			"outputs": [
				{
					"internalType": "uint256",
					"name": "",
					"type": "uint256"
				}
			],
			"stateMutability": "view",
			"type": "function"
		},
		{
			"inputs": [
				{
					"internalType": "uint256",
					"name": "eventId",
					"type": "uint256"
				}
			],
			"name": "buy",
			"outputs": [],
			"stateMutability": "payable",
			"type": "function"
		},
		{
			"inputs": [
				{
					"internalType": "string",
					"name": "name",
					"type": "string"
				},
				{
					"internalType": "uint256",
					"name": "priceWei",
					"type": "uint256"
				},
				{
					"internalType": "uint64",
					"name": "eventStart",
					"type": "uint64"
				},
				{
					"internalType": "uint64",
					"name": "maxSupply",
					"type": "uint64"
				},
				{
					"internalType": "bool",
					"name": "lockTransfersUntilStart",
					"type": "bool"
				},
				{
					"internalType": "string",
					"name": "baseURI",
					"type": "string"
				},
				{
					"internalType": "address payable",
					"name": "payout",
					"type": "address"
				}
			],
			"name": "createEvent",
			"outputs": [
				{
					"internalType": "uint256",
					"name": "eventId",
					"type": "uint256"
				}
			],
			"stateMutability": "nonpayable",
			"type": "function"
		},
		{
			"inputs": [
				{
					"internalType": "uint256",
					"name": "",
					"type": "uint256"
				}
			],
			"name": "eventsInfo",
			"outputs": [
				{
					"internalType": "string",
					"name": "name",
					"type": "string"
				},
				{
					"internalType": "uint256",
					"name": "priceWei",
					"type": "uint256"
				},
				{
					"internalType": "uint64",
					"name": "eventStart",
					"type": "uint64"
				},
				{
					"internalType": "uint64",
					"name": "maxSupply",
					"type": "uint64"
				},
				{
					"internalType": "uint64",
					"name": "sold",
					"type": "uint64"
				},
				{
					"internalType": "bool",
					"name": "lockTransfersUntilStart",
					"type": "bool"
				},
				{
					"internalType": "string",
					"name": "baseURI",
					"type": "string"
				},
				{
					"internalType": "address payable",
					"name": "payout",
					"type": "address"
				},
				{
					"internalType": "bool",
					"name": "active",
					"type": "bool"
				}
			],
			"stateMutability": "view",
			"type": "function"
		},
		{
			"inputs": [
				{
					"internalType": "uint256",
					"name": "tokenId",
					"type": "uint256"
				}
			],
			"name": "getApproved",
			"outputs": [
				{
					"internalType": "address",
					"name": "",
					"type": "address"
				}
			],
			"stateMutability": "view",
			"type": "function"
		},
		{
			"inputs": [
				{
					"internalType": "address",
					"name": "owner",
					"type": "address"
				},
				{
					"internalType": "address",
					"name": "operator",
					"type": "address"
				}
			],
			"name": "isApprovedForAll",
			"outputs": [
				{
					"internalType": "bool",
					"name": "",
					"type": "bool"
				}
			],
			"stateMutability": "view",
			"type": "function"
		},
		{
			"inputs": [],
			"name": "name",
			"outputs": [
				{
					"internalType": "string",
					"name": "",
					"type": "string"
				}
			],
			"stateMutability": "view",
			"type": "function"
		},
		{
			"inputs": [],
			"name": "owner",
			"outputs": [
				{
					"internalType": "address",
					"name": "",
					"type": "address"
				}
			],
			"stateMutability": "view",
			"type": "function"
		},
		{
			"inputs": [
				{
					"internalType": "uint256",
					"name": "tokenId",
					"type": "uint256"
				}
			],
			"name": "ownerOf",
			"outputs": [
				{
					"internalType": "address",
					"name": "",
					"type": "address"
				}
			],
			"stateMutability": "view",
			"type": "function"
		},
		{
			"inputs": [
				{
					"internalType": "address",
					"name": "from",
					"type": "address"
				},
				{
					"internalType": "address",
					"name": "to",
					"type": "address"
				},
				{
					"internalType": "uint256",
					"name": "tokenId",
					"type": "uint256"
				}
			],
			"name": "safeTransferFrom",
			"outputs": [],
			"stateMutability": "nonpayable",
			"type": "function"
		},
		{
			"inputs": [
				{
					"internalType": "address",
					"name": "from",
					"type": "address"
				},
				{
					"internalType": "address",
					"name": "to",
					"type": "address"
				},
				{
					"internalType": "uint256",
					"name": "tokenId",
					"type": "uint256"
				},
				{
					"internalType": "bytes",
					"name": "data",
					"type": "bytes"
				}
			],
			"name": "safeTransferFrom",
			"outputs": [],
			"stateMutability": "nonpayable",
			"type": "function"
		},
		{
			"inputs": [
				{
					"internalType": "uint256",
					"name": "eventId",
					"type": "uint256"
				},
				{
					"internalType": "bool",
					"name": "active",
					"type": "bool"
				}
			],
			"name": "setActive",
			"outputs": [],
			"stateMutability": "nonpayable",
			"type": "function"
		},
		{
			"inputs": [
				{
					"internalType": "address",
					"name": "operator",
					"type": "address"
				},
				{
					"internalType": "bool",
					"name": "approved",
					"type": "bool"
				}
			],
			"name": "setApprovalForAll",
			"outputs": [],
			"stateMutability": "nonpayable",
			"type": "function"
		},
		{
			"inputs": [
				{
					"internalType": "bytes4",
					"name": "interfaceId",
					"type": "bytes4"
				}
			],
			"name": "supportsInterface",
			"outputs": [
				{
					"internalType": "bool",
					"name": "",
					"type": "bool"
				}
			],
			"stateMutability": "view",
			"type": "function"
		},
		{
			"inputs": [],
			"name": "symbol",
			"outputs": [
				{
					"internalType": "string",
					"name": "",
					"type": "string"
				}
			],
			"stateMutability": "view",
			"type": "function"
		},
		{
			"inputs": [
				{
					"internalType": "uint256",
					"name": "",
					"type": "uint256"
				}
			],
			"name": "ticketEvent",
			"outputs": [
				{
					"internalType": "uint256",
					"name": "",
					"type": "uint256"
				}
			],
			"stateMutability": "view",
			"type": "function"
		},
		{
			"inputs": [
				{
					"internalType": "uint256",
					"name": "tokenId",
					"type": "uint256"
				}
			],
			"name": "tokenURI",
			"outputs": [
				{
					"internalType": "string",
					"name": "",
					"type": "string"
				}
			],
			"stateMutability": "view",
			"type": "function"
		},
		{
			"inputs": [
				{
					"internalType": "address",
					"name": "from",
					"type": "address"
				},
				{
					"internalType": "address",
					"name": "to",
					"type": "address"
				},
				{
					"internalType": "uint256",
					"name": "tokenId",
					"type": "uint256"
				}
			],
			"name": "transferFrom",
			"outputs": [],
			"stateMutability": "nonpayable",
			"type": "function"
		},
		{
			"inputs": [
				{
					"internalType": "address",
					"name": "newOwner",
					"type": "address"
				}
			],
			"name": "transferOwnership",
			"outputs": [],
			"stateMutability": "nonpayable",
			"type": "function"
		}
	]
}